{
  "transactions": [
    {
      "hash": "0xf1c50767533d16994c191eb3cbc2a358d43b40190ce6634891eb9dd3a4a7405b",
      "transactionType": "CREATE",
      "contractName": "MockERC20",
      "contractAddress": "0xf97677b75914208590150813cfd2e5d3f2973d7c",
      "function": null,
      "arguments": [
        "USD Coin",
        "USDC",
        "6",
        "1000000000000"
      ],
      "transaction": {
        "from": "0xf59da181591dbb122a894372c6e44cc079a7bb3f",
        "gas": "0xaf968",
        "value": "0x0",
        "input": "0x6080604052346103b657610ad780380380610019816103ba565b9283398101906080818303126103b65780516001600160401b0381116103b657826100459183016103df565b602082015190926001600160401b0382116103b6576100659183016103df565b9060408101519060ff82168092036103b6576060015183519091906001600160401b0381116102c757600354600181811c911680156103ac575b60208210146102a957601f8111610349575b50602094601f82116001146102e6579481929394955f926102db575b50508160011b915f199060031b1c1916176003555b82516001600160401b0381116102c757600454600181811c911680156102bd575b60208210146102a957601f8111610246575b506020601f82116001146101e357819293945f926101d8575b50508160011b915f199060031b1c1916176004555b60ff19600554161760055533156101c5576002548181018091116101b157600255335f525f60205260405f208181540190556040519081525f7fddf252ad1be2c89b69c2b068fc378daa952ba7f163c4a11628f55a4df523b3ef60203393a36040516106a690816104318239f35b634e487b7160e01b5f52601160045260245ffd5b63ec442f0560e01b5f525f60045260245ffd5b015190505f8061012e565b601f1982169060045f52805f20915f5b81811061022e57509583600195969710610216575b505050811b01600455610143565b01515f1960f88460031b161c191690555f8080610208565b9192602060018192868b0151815501940192016101f3565b60045f527f8a35acfbc15ff81a39ae7d344fd709f28e8600b4aa8c65c6b64bfe7fe36bd19b601f830160051c8101916020841061029f575b601f0160051c01905b8181106102945750610115565b5f8155600101610287565b909150819061027e565b634e487b7160e01b5f52602260045260245ffd5b90607f1690610103565b634e487b7160e01b5f52604160045260245ffd5b015190505f806100cd565b601f1982169560035f52805f20915f5b88811061033157508360019596979810610319575b505050811b016003556100e2565b01515f1960f88460031b161c191690555f808061030b565b919260206001819286850151815501940192016102f6565b60035f527fc2575a0e9e593c00f959f8c92f12db2869c3395a3b0502d05e2516446f71f85b601f830160051c810191602084106103a2575b601f0160051c01905b81811061039757506100b1565b5f815560010161038a565b9091508190610381565b90607f169061009f565b5f80fd5b6040519190601f01601f191682016001600160401b038111838210176102c757604052565b81601f820112156103b6578051906001600160401b0382116102c75761040e601f8301601f19166020016103ba565b92828452602083830101116103b657815f9260208093018386015e830101529056fe6080806040526004361015610012575f80fd5b5f3560e01c90816306fdde03146104a157508063095ea7b31461041f57806318160ddd1461040257806323b872dd14610323578063313ce5671461030357806340c10f191461026157806370a082311461022a57806395d89b411461010f578063a9059cbb146100de5763dd62ed3e1461008a575f80fd5b346100da5760403660031901126100da576100a361059a565b6100ab6105b0565b6001600160a01b039182165f908152600160209081526040808320949093168252928352819020549051908152f35b5f80fd5b346100da5760403660031901126100da576101046100fa61059a565b60243590336105c6565b602060405160018152f35b346100da575f3660031901126100da576040515f6004548060011c90600181168015610220575b60208310811461020c578285529081156101f0575060011461019b575b50819003601f01601f191681019067ffffffffffffffff8211818310176101875761018382918260405282610570565b0390f35b634e487b7160e01b5f52604160045260245ffd5b905060045f527f8a35acfbc15ff81a39ae7d344fd709f28e8600b4aa8c65c6b64bfe7fe36bd19b5f905b8282106101da57506020915082010182610153565b60018160209254838588010152019101906101c5565b90506020925060ff191682840152151560051b82010182610153565b634e487b7160e01b5f52602260045260245ffd5b91607f1691610136565b346100da5760203660031901126100da576001600160a01b0361024b61059a565b165f525f602052602060405f2054604051908152f35b346100da5760403660031901126100da5761027a61059a565b6001600160a01b031660243581156102f057600254908082018092116102dc5760207fddf252ad1be2c89b69c2b068fc378daa952ba7f163c4a11628f55a4df523b3ef915f9360025584845283825260408420818154019055604051908152a3005b634e487b7160e01b5f52601160045260245ffd5b63ec442f0560e01b5f525f60045260245ffd5b346100da575f3660031901126100da57602060ff60055416604051908152f35b346100da5760603660031901126100da5761033c61059a565b6103446105b0565b6001600160a01b0382165f818152600160209081526040808320338452909152902054909260443592915f198110610382575b5061010493506105c6565b8381106103e75784156103d45733156103c157610104945f52600160205260405f2060018060a01b0333165f526020528360405f209103905584610377565b634a1406b160e11b5f525f60045260245ffd5b63e602df0560e01b5f525f60045260245ffd5b8390637dc7a0d960e11b5f523360045260245260445260645ffd5b346100da575f3660031901126100da576020600254604051908152f35b346100da5760403660031901126100da5761043861059a565b6024359033156103d4576001600160a01b03169081156103c157335f52600160205260405f20825f526020528060405f20556040519081527f8c5be1e5ebec7d5bd14f71427d1e84f3dd0314c0f7b2291e5b200ac8c7c3b92560203392a3602060405160018152f35b346100da575f3660031901126100da575f6003548060011c90600181168015610566575b60208310811461020c578285529081156101f057506001146105115750819003601f01601f191681019067ffffffffffffffff8211818310176101875761018382918260405282610570565b905060035f527fc2575a0e9e593c00f959f8c92f12db2869c3395a3b0502d05e2516446f71f85b5f905b82821061055057506020915082010182610153565b600181602092548385880101520191019061053b565b91607f16916104c5565b602060409281835280519182918282860152018484015e5f828201840152601f01601f1916010190565b600435906001600160a01b03821682036100da57565b602435906001600160a01b03821682036100da57565b6001600160a01b031690811561065d576001600160a01b03169182156102f057815f525f60205260405f205481811061064457817fddf252ad1be2c89b69c2b068fc378daa952ba7f163c4a11628f55a4df523b3ef92602092855f525f84520360405f2055845f525f825260405f20818154019055604051908152a3565b8263391434e360e21b5f5260045260245260445260645ffd5b634b637e8f60e11b5f525f60045260245ffdfea264697066735822122048ebcefda15cdae2ea5f992efa9986e4528f40f7a32192bd756c1f978129f7c864736f6c634300081a0033000000000000000000000000000000000000000000000000000000000000008000000000000000000000000000000000000000000000000000000000000000c00000000000000000000000000000000000000000000000000000000000000006000000000000000000000000000000000000000000000000000000e8d4a51000000000000000000000000000000000000000000000000000000000000000000855534420436f696e00000000000000000000000000000000000000000000000000000000000000000000000000000000000000000000000000000000000000045553444300000000000000000000000000000000000000000000000000000000",
        "nonce": "0xb",
        "chainId": "0xaa36a7"
      },
      "additionalContracts": [],
      "isFixedGasLimit": false
    },
    {
      "hash": "0x149e41f86ccdb7b439bd3364924faadfde1ff9a0266aaa57d685d7dbb9cb545f",
      "transactionType": "CREATE",
      "contractName": "MockERC20",
      "contractAddress": "0xca8305435efe1152134e6a805aa4ca08a17725b5",
      "function": null,
      "arguments": [
        "Tether USD",
        "USDT",
        "6",
        "1000000000000"
      ],
      "transaction": {
        "from": "0xf59da181591dbb122a894372c6e44cc079a7bb3f",
        "gas": "0xaf987",
        "value": "0x0",
        "input": "0x6080604052346103b657610ad780380380610019816103ba565b9283398101906080818303126103b65780516001600160401b0381116103b657826100459183016103df565b602082015190926001600160401b0382116103b6576100659183016103df565b9060408101519060ff82168092036103b6576060015183519091906001600160401b0381116102c757600354600181811c911680156103ac575b60208210146102a957601f8111610349575b50602094601f82116001146102e6579481929394955f926102db575b50508160011b915f199060031b1c1916176003555b82516001600160401b0381116102c757600454600181811c911680156102bd575b60208210146102a957601f8111610246575b506020601f82116001146101e357819293945f926101d8575b50508160011b915f199060031b1c1916176004555b60ff19600554161760055533156101c5576002548181018091116101b157600255335f525f60205260405f208181540190556040519081525f7fddf252ad1be2c89b69c2b068fc378daa952ba7f163c4a11628f55a4df523b3ef60203393a36040516106a690816104318239f35b634e487b7160e01b5f52601160045260245ffd5b63ec442f0560e01b5f525f60045260245ffd5b015190505f8061012e565b601f1982169060045f52805f20915f5b81811061022e57509583600195969710610216575b505050811b01600455610143565b01515f1960f88460031b161c191690555f8080610208565b9192602060018192868b0151815501940192016101f3565b60045f527f8a35acfbc15ff81a39ae7d344fd709f28e8600b4aa8c65c6b64bfe7fe36bd19b601f830160051c8101916020841061029f575b601f0160051c01905b8181106102945750610115565b5f8155600101610287565b909150819061027e565b634e487b7160e01b5f52602260045260245ffd5b90607f1690610103565b634e487b7160e01b5f52604160045260245ffd5b015190505f806100cd565b601f1982169560035f52805f20915f5b88811061033157508360019596979810610319575b505050811b016003556100e2565b01515f1960f88460031b161c191690555f808061030b565b919260206001819286850151815501940192016102f6565b60035f527fc2575a0e9e593c00f959f8c92f12db2869c3395a3b0502d05e2516446f71f85b601f830160051c810191602084106103a2575b601f0160051c01905b81811061039757506100b1565b5f815560010161038a565b9091508190610381565b90607f169061009f565b5f80fd5b6040519190601f01601f191682016001600160401b038111838210176102c757604052565b81601f820112156103b6578051906001600160401b0382116102c75761040e601f8301601f19166020016103ba565b92828452602083830101116103b657815f9260208093018386015e830101529056fe6080806040526004361015610012575f80fd5b5f3560e01c90816306fdde03146104a157508063095ea7b31461041f57806318160ddd1461040257806323b872dd14610323578063313ce5671461030357806340c10f191461026157806370a082311461022a57806395d89b411461010f578063a9059cbb146100de5763dd62ed3e1461008a575f80fd5b346100da5760403660031901126100da576100a361059a565b6100ab6105b0565b6001600160a01b039182165f908152600160209081526040808320949093168252928352819020549051908152f35b5f80fd5b346100da5760403660031901126100da576101046100fa61059a565b60243590336105c6565b602060405160018152f35b346100da575f3660031901126100da576040515f6004548060011c90600181168015610220575b60208310811461020c578285529081156101f0575060011461019b575b50819003601f01601f191681019067ffffffffffffffff8211818310176101875761018382918260405282610570565b0390f35b634e487b7160e01b5f52604160045260245ffd5b905060045f527f8a35acfbc15ff81a39ae7d344fd709f28e8600b4aa8c65c6b64bfe7fe36bd19b5f905b8282106101da57506020915082010182610153565b60018160209254838588010152019101906101c5565b90506020925060ff191682840152151560051b82010182610153565b634e487b7160e01b5f52602260045260245ffd5b91607f1691610136565b346100da5760203660031901126100da576001600160a01b0361024b61059a565b165f525f602052602060405f2054604051908152f35b346100da5760403660031901126100da5761027a61059a565b6001600160a01b031660243581156102f057600254908082018092116102dc5760207fddf252ad1be2c89b69c2b068fc378daa952ba7f163c4a11628f55a4df523b3ef915f9360025584845283825260408420818154019055604051908152a3005b634e487b7160e01b5f52601160045260245ffd5b63ec442f0560e01b5f525f60045260245ffd5b346100da575f3660031901126100da57602060ff60055416604051908152f35b346100da5760603660031901126100da5761033c61059a565b6103446105b0565b6001600160a01b0382165f818152600160209081526040808320338452909152902054909260443592915f198110610382575b5061010493506105c6565b8381106103e75784156103d45733156103c157610104945f52600160205260405f2060018060a01b0333165f526020528360405f209103905584610377565b634a1406b160e11b5f525f60045260245ffd5b63e602df0560e01b5f525f60045260245ffd5b8390637dc7a0d960e11b5f523360045260245260445260645ffd5b346100da575f3660031901126100da576020600254604051908152f35b346100da5760403660031901126100da5761043861059a565b6024359033156103d4576001600160a01b03169081156103c157335f52600160205260405f20825f526020528060405f20556040519081527f8c5be1e5ebec7d5bd14f71427d1e84f3dd0314c0f7b2291e5b200ac8c7c3b92560203392a3602060405160018152f35b346100da575f3660031901126100da575f6003548060011c90600181168015610566575b60208310811461020c578285529081156101f057506001146105115750819003601f01601f191681019067ffffffffffffffff8211818310176101875761018382918260405282610570565b905060035f527fc2575a0e9e593c00f959f8c92f12db2869c3395a3b0502d05e2516446f71f85b5f905b82821061055057506020915082010182610153565b600181602092548385880101520191019061053b565b91607f16916104c5565b602060409281835280519182918282860152018484015e5f828201840152601f01601f1916010190565b600435906001600160a01b03821682036100da57565b602435906001600160a01b03821682036100da57565b6001600160a01b031690811561065d576001600160a01b03169182156102f057815f525f60205260405f205481811061064457817fddf252ad1be2c89b69c2b068fc378daa952ba7f163c4a11628f55a4df523b3ef92602092855f525f84520360405f2055845f525f825260405f20818154019055604051908152a3565b8263391434e360e21b5f5260045260245260445260645ffd5b634b637e8f60e11b5f525f60045260245ffdfea264697066735822122048ebcefda15cdae2ea5f992efa9986e4528f40f7a32192bd756c1f978129f7c864736f6c634300081a0033000000000000000000000000000000000000000000000000000000000000008000000000000000000000000000000000000000000000000000000000000000c00000000000000000000000000000000000000000000000000000000000000006000000000000000000000000000000000000000000000000000000e8d4a51000000000000000000000000000000000000000000000000000000000000000000a546574686572205553440000000000000000000000000000000000000000000000000000000000000000000000000000000000000000000000000000000000045553445400000000000000000000000000000000000000000000000000000000",
        "nonce": "0xc",
        "chainId": "0xaa36a7"
      },
      "additionalContracts": [],
      "isFixedGasLimit": false
    },
    {
      "hash": "0x77b5273635e57148692b5491cb1e4a452b6df7e3d6f7bd579b2e45808c4132ba",
      "transactionType": "CREATE",
      "contractName": "MockERC20",
      "contractAddress": "0x9a89fb55663e874f2313fc38d6af6b83bfbde6e6",
      "function": null,
      "arguments": [
        "PayPal USD",
        "PYUSD",
        "6",
        "1000000000000"
      ],
      "transaction": {
        "from": "0xf59da181591dbb122a894372c6e44cc079a7bb3f",
        "gas": "0xaf996",
        "value": "0x0",
        "input": "0x6080604052346103b657610ad780380380610019816103ba565b9283398101906080818303126103b65780516001600160401b0381116103b657826100459183016103df565b602082015190926001600160401b0382116103b6576100659183016103df565b9060408101519060ff82168092036103b6576060015183519091906001600160401b0381116102c757600354600181811c911680156103ac575b60208210146102a957601f8111610349575b50602094601f82116001146102e6579481929394955f926102db575b50508160011b915f199060031b1c1916176003555b82516001600160401b0381116102c757600454600181811c911680156102bd575b60208210146102a957601f8111610246575b506020601f82116001146101e357819293945f926101d8575b50508160011b915f199060031b1c1916176004555b60ff19600554161760055533156101c5576002548181018091116101b157600255335f525f60205260405f208181540190556040519081525f7fddf252ad1be2c89b69c2b068fc378daa952ba7f163c4a11628f55a4df523b3ef60203393a36040516106a690816104318239f35b634e487b7160e01b5f52601160045260245ffd5b63ec442f0560e01b5f525f60045260245ffd5b015190505f8061012e565b601f1982169060045f52805f20915f5b81811061022e57509583600195969710610216575b505050811b01600455610143565b01515f1960f88460031b161c191690555f8080610208565b9192602060018192868b0151815501940192016101f3565b60045f527f8a35acfbc15ff81a39ae7d344fd709f28e8600b4aa8c65c6b64bfe7fe36bd19b601f830160051c8101916020841061029f575b601f0160051c01905b8181106102945750610115565b5f8155600101610287565b909150819061027e565b634e487b7160e01b5f52602260045260245ffd5b90607f1690610103565b634e487b7160e01b5f52604160045260245ffd5b015190505f806100cd565b601f1982169560035f52805f20915f5b88811061033157508360019596979810610319575b505050811b016003556100e2565b01515f1960f88460031b161c191690555f808061030b565b919260206001819286850151815501940192016102f6565b60035f527fc2575a0e9e593c00f959f8c92f12db2869c3395a3b0502d05e2516446f71f85b601f830160051c810191602084106103a2575b601f0160051c01905b81811061039757506100b1565b5f815560010161038a565b9091508190610381565b90607f169061009f565b5f80fd5b6040519190601f01601f191682016001600160401b038111838210176102c757604052565b81601f820112156103b6578051906001600160401b0382116102c75761040e601f8301601f19166020016103ba565b92828452602083830101116103b657815f9260208093018386015e830101529056fe6080806040526004361015610012575f80fd5b5f3560e01c90816306fdde03146104a157508063095ea7b31461041f57806318160ddd1461040257806323b872dd14610323578063313ce5671461030357806340c10f191461026157806370a082311461022a57806395d89b411461010f578063a9059cbb146100de5763dd62ed3e1461008a575f80fd5b346100da5760403660031901126100da576100a361059a565b6100ab6105b0565b6001600160a01b039182165f908152600160209081526040808320949093168252928352819020549051908152f35b5f80fd5b346100da5760403660031901126100da576101046100fa61059a565b60243590336105c6565b602060405160018152f35b346100da575f3660031901126100da576040515f6004548060011c90600181168015610220575b60208310811461020c578285529081156101f0575060011461019b575b50819003601f01601f191681019067ffffffffffffffff8211818310176101875761018382918260405282610570565b0390f35b634e487b7160e01b5f52604160045260245ffd5b905060045f527f8a35acfbc15ff81a39ae7d344fd709f28e8600b4aa8c65c6b64bfe7fe36bd19b5f905b8282106101da57506020915082010182610153565b60018160209254838588010152019101906101c5565b90506020925060ff191682840152151560051b82010182610153565b634e487b7160e01b5f52602260045260245ffd5b91607f1691610136565b346100da5760203660031901126100da576001600160a01b0361024b61059a565b165f525f602052602060405f2054604051908152f35b346100da5760403660031901126100da5761027a61059a565b6001600160a01b031660243581156102f057600254908082018092116102dc5760207fddf252ad1be2c89b69c2b068fc378daa952ba7f163c4a11628f55a4df523b3ef915f9360025584845283825260408420818154019055604051908152a3005b634e487b7160e01b5f52601160045260245ffd5b63ec442f0560e01b5f525f60045260245ffd5b346100da575f3660031901126100da57602060ff60055416604051908152f35b346100da5760603660031901126100da5761033c61059a565b6103446105b0565b6001600160a01b0382165f818152600160209081526040808320338452909152902054909260443592915f198110610382575b5061010493506105c6565b8381106103e75784156103d45733156103c157610104945f52600160205260405f2060018060a01b0333165f526020528360405f209103905584610377565b634a1406b160e11b5f525f60045260245ffd5b63e602df0560e01b5f525f60045260245ffd5b8390637dc7a0d960e11b5f523360045260245260445260645ffd5b346100da575f3660031901126100da576020600254604051908152f35b346100da5760403660031901126100da5761043861059a565b6024359033156103d4576001600160a01b03169081156103c157335f52600160205260405f20825f526020528060405f20556040519081527f8c5be1e5ebec7d5bd14f71427d1e84f3dd0314c0f7b2291e5b200ac8c7c3b92560203392a3602060405160018152f35b346100da575f3660031901126100da575f6003548060011c90600181168015610566575b60208310811461020c578285529081156101f057506001146105115750819003601f01601f191681019067ffffffffffffffff8211818310176101875761018382918260405282610570565b905060035f527fc2575a0e9e593c00f959f8c92f12db2869c3395a3b0502d05e2516446f71f85b5f905b82821061055057506020915082010182610153565b600181602092548385880101520191019061053b565b91607f16916104c5565b602060409281835280519182918282860152018484015e5f828201840152601f01601f1916010190565b600435906001600160a01b03821682036100da57565b602435906001600160a01b03821682036100da57565b6001600160a01b031690811561065d576001600160a01b03169182156102f057815f525f60205260405f205481811061064457817fddf252ad1be2c89b69c2b068fc378daa952ba7f163c4a11628f55a4df523b3ef92602092855f525f84520360405f2055845f525f825260405f20818154019055604051908152a3565b8263391434e360e21b5f5260045260245260445260645ffd5b634b637e8f60e11b5f525f60045260245ffdfea264697066735822122048ebcefda15cdae2ea5f992efa9986e4528f40f7a32192bd756c1f978129f7c864736f6c634300081a0033000000000000000000000000000000000000000000000000000000000000008000000000000000000000000000000000000000000000000000000000000000c00000000000000000000000000000000000000000000000000000000000000006000000000000000000000000000000000000000000000000000000e8d4a51000000000000000000000000000000000000000000000000000000000000000000a50617950616c205553440000000000000000000000000000000000000000000000000000000000000000000000000000000000000000000000000000000000055059555344000000000000000000000000000000000000000000000000000000",
        "nonce": "0xd",
        "chainId": "0xaa36a7"
      },
      "additionalContracts": [],
      "isFixedGasLimit": false
    },
    {
      "hash": "0x43ba554d7e6d6e28cf99fea4d5da4ddf7f0ca821fa2ea7ff312b6a44eb01ca80",
      "transactionType": "CREATE",
      "contractName": "MockERC20",
      "contractAddress": "0xa8738aab0b22bfe6c335e05300b7d30c018456cd",
      "function": null,
      "arguments": [
        "Ethena USD",
        "USDe",
        "18",
        "1000000000000000000000000"
      ],
      "transaction": {
        "from": "0xf59da181591dbb122a894372c6e44cc079a7bb3f",
        "gas": "0xaf9b6",
        "value": "0x0",
        "input": "0x6080604052346103b657610ad780380380610019816103ba565b9283398101906080818303126103b65780516001600160401b0381116103b657826100459183016103df565b602082015190926001600160401b0382116103b6576100659183016103df565b9060408101519060ff82168092036103b6576060015183519091906001600160401b0381116102c757600354600181811c911680156103ac575b60208210146102a957601f8111610349575b50602094601f82116001146102e6579481929394955f926102db575b50508160011b915f199060031b1c1916176003555b82516001600160401b0381116102c757600454600181811c911680156102bd575b60208210146102a957601f8111610246575b506020601f82116001146101e357819293945f926101d8575b50508160011b915f199060031b1c1916176004555b60ff19600554161760055533156101c5576002548181018091116101b157600255335f525f60205260405f208181540190556040519081525f7fddf252ad1be2c89b69c2b068fc378daa952ba7f163c4a11628f55a4df523b3ef60203393a36040516106a690816104318239f35b634e487b7160e01b5f52601160045260245ffd5b63ec442f0560e01b5f525f60045260245ffd5b015190505f8061012e565b601f1982169060045f52805f20915f5b81811061022e57509583600195969710610216575b505050811b01600455610143565b01515f1960f88460031b161c191690555f8080610208565b9192602060018192868b0151815501940192016101f3565b60045f527f8a35acfbc15ff81a39ae7d344fd709f28e8600b4aa8c65c6b64bfe7fe36bd19b601f830160051c8101916020841061029f575b601f0160051c01905b8181106102945750610115565b5f8155600101610287565b909150819061027e565b634e487b7160e01b5f52602260045260245ffd5b90607f1690610103565b634e487b7160e01b5f52604160045260245ffd5b015190505f806100cd565b601f1982169560035f52805f20915f5b88811061033157508360019596979810610319575b505050811b016003556100e2565b01515f1960f88460031b161c191690555f808061030b565b919260206001819286850151815501940192016102f6565b60035f527fc2575a0e9e593c00f959f8c92f12db2869c3395a3b0502d05e2516446f71f85b601f830160051c810191602084106103a2575b601f0160051c01905b81811061039757506100b1565b5f815560010161038a565b9091508190610381565b90607f169061009f565b5f80fd5b6040519190601f01601f191682016001600160401b038111838210176102c757604052565b81601f820112156103b6578051906001600160401b0382116102c75761040e601f8301601f19166020016103ba565b92828452602083830101116103b657815f9260208093018386015e830101529056fe6080806040526004361015610012575f80fd5b5f3560e01c90816306fdde03146104a157508063095ea7b31461041f57806318160ddd1461040257806323b872dd14610323578063313ce5671461030357806340c10f191461026157806370a082311461022a57806395d89b411461010f578063a9059cbb146100de5763dd62ed3e1461008a575f80fd5b346100da5760403660031901126100da576100a361059a565b6100ab6105b0565b6001600160a01b039182165f908152600160209081526040808320949093168252928352819020549051908152f35b5f80fd5b346100da5760403660031901126100da576101046100fa61059a565b60243590336105c6565b602060405160018152f35b346100da575f3660031901126100da576040515f6004548060011c90600181168015610220575b60208310811461020c578285529081156101f0575060011461019b575b50819003601f01601f191681019067ffffffffffffffff8211818310176101875761018382918260405282610570565b0390f35b634e487b7160e01b5f52604160045260245ffd5b905060045f527f8a35acfbc15ff81a39ae7d344fd709f28e8600b4aa8c65c6b64bfe7fe36bd19b5f905b8282106101da57506020915082010182610153565b60018160209254838588010152019101906101c5565b90506020925060ff191682840152151560051b82010182610153565b634e487b7160e01b5f52602260045260245ffd5b91607f1691610136565b346100da5760203660031901126100da576001600160a01b0361024b61059a565b165f525f602052602060405f2054604051908152f35b346100da5760403660031901126100da5761027a61059a565b6001600160a01b031660243581156102f057600254908082018092116102dc5760207fddf252ad1be2c89b69c2b068fc378daa952ba7f163c4a11628f55a4df523b3ef915f9360025584845283825260408420818154019055604051908152a3005b634e487b7160e01b5f52601160045260245ffd5b63ec442f0560e01b5f525f60045260245ffd5b346100da575f3660031901126100da57602060ff60055416604051908152f35b346100da5760603660031901126100da5761033c61059a565b6103446105b0565b6001600160a01b0382165f818152600160209081526040808320338452909152902054909260443592915f198110610382575b5061010493506105c6565b8381106103e75784156103d45733156103c157610104945f52600160205260405f2060018060a01b0333165f526020528360405f209103905584610377565b634a1406b160e11b5f525f60045260245ffd5b63e602df0560e01b5f525f60045260245ffd5b8390637dc7a0d960e11b5f523360045260245260445260645ffd5b346100da575f3660031901126100da576020600254604051908152f35b346100da5760403660031901126100da5761043861059a565b6024359033156103d4576001600160a01b03169081156103c157335f52600160205260405f20825f526020528060405f20556040519081527f8c5be1e5ebec7d5bd14f71427d1e84f3dd0314c0f7b2291e5b200ac8c7c3b92560203392a3602060405160018152f35b346100da575f3660031901126100da575f6003548060011c90600181168015610566575b60208310811461020c578285529081156101f057506001146105115750819003601f01601f191681019067ffffffffffffffff8211818310176101875761018382918260405282610570565b905060035f527fc2575a0e9e593c00f959f8c92f12db2869c3395a3b0502d05e2516446f71f85b5f905b82821061055057506020915082010182610153565b600181602092548385880101520191019061053b565b91607f16916104c5565b602060409281835280519182918282860152018484015e5f828201840152601f01601f1916010190565b600435906001600160a01b03821682036100da57565b602435906001600160a01b03821682036100da57565b6001600160a01b031690811561065d576001600160a01b03169182156102f057815f525f60205260405f205481811061064457817fddf252ad1be2c89b69c2b068fc378daa952ba7f163c4a11628f55a4df523b3ef92602092855f525f84520360405f2055845f525f825260405f20818154019055604051908152a3565b8263391434e360e21b5f5260045260245260445260645ffd5b634b637e8f60e11b5f525f60045260245ffdfea264697066735822122048ebcefda15cdae2ea5f992efa9986e4528f40f7a32192bd756c1f978129f7c864736f6c634300081a0033000000000000000000000000000000000000000000000000000000000000008000000000000000000000000000000000000000000000000000000000000000c0000000000000000000000000000000000000000000000000000000000000001200000000000000000000000000000000000000000000d3c21bcecceda1000000000000000000000000000000000000000000000000000000000000000000000a457468656e61205553440000000000000000000000000000000000000000000000000000000000000000000000000000000000000000000000000000000000045553446500000000000000000000000000000000000000000000000000000000",
        "nonce": "0xe",
        "chainId": "0xaa36a7"
      },
      "additionalContracts": [],
      "isFixedGasLimit": false
    },
    {
      "hash": "0xfd95ea196cc531741238a41088c880d78fcfc6038f62d5be3bffaab49068c634",
      "transactionType": "CALL",
      "contractName": "MockERC20",
      "contractAddress": "0xf97677b75914208590150813cfd2e5d3f2973d7c",
      "function": "mint(address,uint256)",
      "arguments": [
        "0xf59dA181591dbB122A894372C6E44cC079A7Bb3F",
        "100000000000"
      ],
      "transaction": {
        "from": "0xf59da181591dbb122a894372c6e44cc079a7bb3f",
        "to": "0xf97677b75914208590150813cfd2e5d3f2973d7c",
        "gas": "0xc183",
        "value": "0x0",
        "input": "0x40c10f19000000000000000000000000f59da181591dbb122a894372c6e44cc079a7bb3f000000000000000000000000000000000000000000000000000000174876e800",
        "nonce": "0xf",
        "chainId": "0xaa36a7"
      },
      "additionalContracts": [],
      "isFixedGasLimit": false
    },
    {
      "hash": "0xe1574e2d67b0dea31bb10ce90b7693b2781511e3eaf3eb4c1797f7ddbca93493",
      "transactionType": "CALL",
      "contractName": "MockERC20",
      "contractAddress": "0xf97677b75914208590150813cfd2e5d3f2973d7c",
      "function": "mint(address,uint256)",
      "arguments": [
        "0x3173Ed1Ec423f5071045D861CaB532C2909fB4c0",
        "100000000000"
      ],
      "transaction": {
        "from": "0xf59da181591dbb122a894372c6e44cc079a7bb3f",
        "to": "0xf97677b75914208590150813cfd2e5d3f2973d7c",
        "gas": "0x11305",
        "value": "0x0",
        "input": "0x40c10f190000000000000000000000003173ed1ec423f5071045d861cab532c2909fb4c0000000000000000000000000000000000000000000000000000000174876e800",
        "nonce": "0x10",
        "chainId": "0xaa36a7"
      },
      "additionalContracts": [],
      "isFixedGasLimit": false
    },
    {
      "hash": "0x62f9fd0601a4baedc68359a11dbb8c71934ddb2465f5a4683788c0e98ea77bc1",
      "transactionType": "CALL",
      "contractName": "MockERC20",
      "contractAddress": "0xf97677b75914208590150813cfd2e5d3f2973d7c",
      "function": "mint(address,uint256)",
      "arguments": [
        "0x806B7DE4adD0A154262Bae6A2ed08Ab4DEd757af",
        "100000000000"
      ],
      "transaction": {
        "from": "0xf59da181591dbb122a894372c6e44cc079a7bb3f",
        "to": "0xf97677b75914208590150813cfd2e5d3f2973d7c",
        "gas": "0x11305",
        "value": "0x0",
        "input": "0x40c10f19000000000000000000000000806b7de4add0a154262bae6a2ed08ab4ded757af000000000000000000000000000000000000000000000000000000174876e800",
        "nonce": "0x11",
        "chainId": "0xaa36a7"
      },
      "additionalContracts": [],
      "isFixedGasLimit": false
    },
    {
      "hash": "0xf21ec9b1830dffedb305fd07d1868ed7d99fa4bc0780d91f47fe5448e346a524",
      "transactionType": "CALL",
      "contractName": "MockERC20",
      "contractAddress": "0xca8305435efe1152134e6a805aa4ca08a17725b5",
      "function": "mint(address,uint256)",
      "arguments": [
        "0xf59dA181591dbB122A894372C6E44cC079A7Bb3F",
        "100000000000"
      ],
      "transaction": {
        "from": "0xf59da181591dbb122a894372c6e44cc079a7bb3f",
        "to": "0xca8305435efe1152134e6a805aa4ca08a17725b5",
        "gas": "0xc183",
        "value": "0x0",
        "input": "0x40c10f19000000000000000000000000f59da181591dbb122a894372c6e44cc079a7bb3f000000000000000000000000000000000000000000000000000000174876e800",
        "nonce": "0x12",
        "chainId": "0xaa36a7"
      },
      "additionalContracts": [],
      "isFixedGasLimit": false
    },
    {
      "hash": "0x963231d9ae1bbd5533d9d4c0af07ef13d5e1261a3b405b801fb3ced11c3ca786",
      "transactionType": "CALL",
      "contractName": "MockERC20",
      "contractAddress": "0xca8305435efe1152134e6a805aa4ca08a17725b5",
      "function": "mint(address,uint256)",
      "arguments": [
        "0x3173Ed1Ec423f5071045D861CaB532C2909fB4c0",
        "100000000000"
      ],
      "transaction": {
        "from": "0xf59da181591dbb122a894372c6e44cc079a7bb3f",
        "to": "0xca8305435efe1152134e6a805aa4ca08a17725b5",
        "gas": "0x11305",
        "value": "0x0",
        "input": "0x40c10f190000000000000000000000003173ed1ec423f5071045d861cab532c2909fb4c0000000000000000000000000000000000000000000000000000000174876e800",
        "nonce": "0x13",
        "chainId": "0xaa36a7"
      },
      "additionalContracts": [],
      "isFixedGasLimit": false
    },
    {
      "hash": "0xf36e5559d3f7405d0155eb1ca9fb7efe3ff4564be26b40d63eebf6cc3c9b47c9",
      "transactionType": "CALL",
      "contractName": "MockERC20",
      "contractAddress": "0xca8305435efe1152134e6a805aa4ca08a17725b5",
      "function": "mint(address,uint256)",
      "arguments": [
        "0x806B7DE4adD0A154262Bae6A2ed08Ab4DEd757af",
        "100000000000"
      ],
      "transaction": {
        "from": "0xf59da181591dbb122a894372c6e44cc079a7bb3f",
        "to": "0xca8305435efe1152134e6a805aa4ca08a17725b5",
        "gas": "0x11305",
        "value": "0x0",
        "input": "0x40c10f19000000000000000000000000806b7de4add0a154262bae6a2ed08ab4ded757af000000000000000000000000000000000000000000000000000000174876e800",
        "nonce": "0x14",
        "chainId": "0xaa36a7"
      },
      "additionalContracts": [],
      "isFixedGasLimit": false
    },
    {
      "hash": "0x43d0965fbb2bad6a58efad014bc58c7cfe5dcc11d8a057c25f35f35427c8292a",
      "transactionType": "CALL",
      "contractName": "MockERC20",
      "contractAddress": "0x9a89fb55663e874f2313fc38d6af6b83bfbde6e6",
      "function": "mint(address,uint256)",
      "arguments": [
        "0xf59dA181591dbB122A894372C6E44cC079A7Bb3F",
        "100000000000"
      ],
      "transaction": {
        "from": "0xf59da181591dbb122a894372c6e44cc079a7bb3f",
        "to": "0x9a89fb55663e874f2313fc38d6af6b83bfbde6e6",
        "gas": "0xc183",
        "value": "0x0",
        "input": "0x40c10f19000000000000000000000000f59da181591dbb122a894372c6e44cc079a7bb3f000000000000000000000000000000000000000000000000000000174876e800",
        "nonce": "0x15",
        "chainId": "0xaa36a7"
      },
      "additionalContracts": [],
      "isFixedGasLimit": false
    },
    {
      "hash": "0xd0379cff54dfa71001d7697c71f977de51a659b7940c0e3e2a4b5424f013bb92",
      "transactionType": "CALL",
      "contractName": "MockERC20",
      "contractAddress": "0x9a89fb55663e874f2313fc38d6af6b83bfbde6e6",
      "function": "mint(address,uint256)",
      "arguments": [
        "0x3173Ed1Ec423f5071045D861CaB532C2909fB4c0",
        "100000000000"
      ],
      "transaction": {
        "from": "0xf59da181591dbb122a894372c6e44cc079a7bb3f",
        "to": "0x9a89fb55663e874f2313fc38d6af6b83bfbde6e6",
        "gas": "0x11305",
        "value": "0x0",
        "input": "0x40c10f190000000000000000000000003173ed1ec423f5071045d861cab532c2909fb4c0000000000000000000000000000000000000000000000000000000174876e800",
        "nonce": "0x16",
        "chainId": "0xaa36a7"
      },
      "additionalContracts": [],
      "isFixedGasLimit": false
    },
    {
      "hash": "0x9a5dfc20738efbe28eae60029a115b57b9fe114256ec147b462c15e7e9dfe906",
      "transactionType": "CALL",
      "contractName": "MockERC20",
      "contractAddress": "0x9a89fb55663e874f2313fc38d6af6b83bfbde6e6",
      "function": "mint(address,uint256)",
      "arguments": [
        "0x806B7DE4adD0A154262Bae6A2ed08Ab4DEd757af",
        "100000000000"
      ],
      "transaction": {
        "from": "0xf59da181591dbb122a894372c6e44cc079a7bb3f",
        "to": "0x9a89fb55663e874f2313fc38d6af6b83bfbde6e6",
        "gas": "0x11305",
        "value": "0x0",
        "input": "0x40c10f19000000000000000000000000806b7de4add0a154262bae6a2ed08ab4ded757af000000000000000000000000000000000000000000000000000000174876e800",
        "nonce": "0x17",
        "chainId": "0xaa36a7"
      },
      "additionalContracts": [],
      "isFixedGasLimit": false
    },
    {
      "hash": "0xfa08a8149e8ccebce723357a4e971f18b12c233bae2b07a3d06f24038b2c0f9d",
      "transactionType": "CALL",
      "contractName": "MockERC20",
      "contractAddress": "0xa8738aab0b22bfe6c335e05300b7d30c018456cd",
      "function": "mint(address,uint256)",
      "arguments": [
        "0xf59dA181591dbB122A894372C6E44cC079A7Bb3F",
        "100000000000000000000000"
      ],
      "transaction": {
        "from": "0xf59da181591dbb122a894372c6e44cc079a7bb3f",
        "to": "0xa8738aab0b22bfe6c335e05300b7d30c018456cd",
        "gas": "0xc1c9",
        "value": "0x0",
        "input": "0x40c10f19000000000000000000000000f59da181591dbb122a894372c6e44cc079a7bb3f00000000000000000000000000000000000000000000152d02c7e14af6800000",
        "nonce": "0x18",
        "chainId": "0xaa36a7"
      },
      "additionalContracts": [],
      "isFixedGasLimit": false
    },
    {
      "hash": "0x85bae3e620a0ba6cc6dc390d856a8c8eda9aa881f0346ee9bddf955b40d55e4b",
      "transactionType": "CALL",
      "contractName": "MockERC20",
      "contractAddress": "0xa8738aab0b22bfe6c335e05300b7d30c018456cd",
      "function": "mint(address,uint256)",
      "arguments": [
        "0x3173Ed1Ec423f5071045D861CaB532C2909fB4c0",
        "100000000000000000000000"
      ],
      "transaction": {
        "from": "0xf59da181591dbb122a894372c6e44cc079a7bb3f",
        "to": "0xa8738aab0b22bfe6c335e05300b7d30c018456cd",
        "gas": "0x11347",
        "value": "0x0",
        "input": "0x40c10f190000000000000000000000003173ed1ec423f5071045d861cab532c2909fb4c000000000000000000000000000000000000000000000152d02c7e14af6800000",
        "nonce": "0x19",
        "chainId": "0xaa36a7"
      },
      "additionalContracts": [],
      "isFixedGasLimit": false
    },
    {
      "hash": "0x435020b3bad7a210fffe4c5521797477e760e3296335825e096bf6c08df3daa5",
      "transactionType": "CALL",
      "contractName": "MockERC20",
      "contractAddress": "0xa8738aab0b22bfe6c335e05300b7d30c018456cd",
      "function": "mint(address,uint256)",
      "arguments": [
        "0x806B7DE4adD0A154262Bae6A2ed08Ab4DEd757af",
        "100000000000000000000000"
      ],
      "transaction": {
        "from": "0xf59da181591dbb122a894372c6e44cc079a7bb3f",
        "to": "0xa8738aab0b22bfe6c335e05300b7d30c018456cd",
        "gas": "0x11347",
        "value": "0x0",
        "input": "0x40c10f19000000000000000000000000806b7de4add0a154262bae6a2ed08ab4ded757af00000000000000000000000000000000000000000000152d02c7e14af6800000",
        "nonce": "0x1a",
        "chainId": "0xaa36a7"
      },
      "additionalContracts": [],
      "isFixedGasLimit": false
    }
  ],
  "receipts": [
    {
      "status": "0x1",
      "cumulativeGasUsed": "0xa6b210",
      "logs": [
        {
          "address": "0xf97677b75914208590150813cfd2e5d3f2973d7c",
          "topics": [
            "0xddf252ad1be2c89b69c2b068fc378daa952ba7f163c4a11628f55a4df523b3ef",
            "0x0000000000000000000000000000000000000000000000000000000000000000",
            "0x000000000000000000000000f59da181591dbb122a894372c6e44cc079a7bb3f"
          ],
          "data": "0x000000000000000000000000000000000000000000000000000000e8d4a51000",
          "blockHash": "0xd548694b71ba62188bf2c0a8bfca2ae31813cfe6e79769f23088d3c6274a2d23",
          "blockNumber": "0x89535d",
          "blockTimestamp": "0x68a10824",
          "transactionHash": "0xf1c50767533d16994c191eb3cbc2a358d43b40190ce6634891eb9dd3a4a7405b",
          "transactionIndex": "0x65",
          "logIndex": "0xfc",
          "removed": false
        }
      ],
      "logsBloom": "0x00000000000000000000000000000000000000000000000000000000000000000000000000000002000000000000000000000000080000000000000000000000000000000000000000001008000000000000000000000000000000000000000000000000020000000000000000000800000000000000000000200010000000000004000000000000000000000000000000000000000000800000000000000000000000000000000000000000000000000000000000000000000000000000000000000002000000000000000000000000000000000000000000000000000020000000000000000000000000000000000000000000000000000000000000000000",
      "type": "0x2",
      "transactionHash": "0xf1c50767533d16994c191eb3cbc2a358d43b40190ce6634891eb9dd3a4a7405b",
      "transactionIndex": "0x65",
      "blockHash": "0xd548694b71ba62188bf2c0a8bfca2ae31813cfe6e79769f23088d3c6274a2d23",
      "blockNumber": "0x89535d",
      "gasUsed": "0x87115",
      "effectiveGasPrice": "0x672e04",
      "from": "0xf59da181591dbb122a894372c6e44cc079a7bb3f",
      "to": null,
      "contractAddress": "0xf97677b75914208590150813cfd2e5d3f2973d7c"
    },
    {
      "status": "0x1",
      "cumulativeGasUsed": "0xaf233d",
      "logs": [
        {
          "address": "0xca8305435efe1152134e6a805aa4ca08a17725b5",
          "topics": [
            "0xddf252ad1be2c89b69c2b068fc378daa952ba7f163c4a11628f55a4df523b3ef",
            "0x0000000000000000000000000000000000000000000000000000000000000000",
            "0x000000000000000000000000f59da181591dbb122a894372c6e44cc079a7bb3f"
          ],
          "data": "0x000000000000000000000000000000000000000000000000000000e8d4a51000",
          "blockHash": "0xd548694b71ba62188bf2c0a8bfca2ae31813cfe6e79769f23088d3c6274a2d23",
          "blockNumber": "0x89535d",
          "blockTimestamp": "0x68a10824",
          "transactionHash": "0x149e41f86ccdb7b439bd3364924faadfde1ff9a0266aaa57d685d7dbb9cb545f",
          "transactionIndex": "0x66",
          "logIndex": "0xfd",
          "removed": false
        }
      ],
      "logsBloom": "0x00000000000000000000000000000000000000000000000000000000000000000000000000000002000000000000000000000000000000000000000000000000000000040000000000001008000100000000000000000000000000000000000000000000020000000000000000000800000000000000000000200010000000000000000000000000000000000000000000000000000000000000000000000000000000000000000000000000000000000000000000000000000000080000000000000002000000000000000000000000000000000000000000000000000020000000000000000000000000000000000000000000000000000000000000000000",
      "type": "0x2",
      "transactionHash": "0x149e41f86ccdb7b439bd3364924faadfde1ff9a0266aaa57d685d7dbb9cb545f",
      "transactionIndex": "0x66",
      "blockHash": "0xd548694b71ba62188bf2c0a8bfca2ae31813cfe6e79769f23088d3c6274a2d23",
      "blockNumber": "0x89535d",
      "gasUsed": "0x8712d",
      "effectiveGasPrice": "0x672e04",
      "from": "0xf59da181591dbb122a894372c6e44cc079a7bb3f",
      "to": null,
      "contractAddress": "0xca8305435efe1152134e6a805aa4ca08a17725b5"
    },
    {
      "status": "0x1",
      "cumulativeGasUsed": "0xb79476",
      "logs": [
        {
          "address": "0x9a89fb55663e874f2313fc38d6af6b83bfbde6e6",
          "topics": [
            "0xddf252ad1be2c89b69c2b068fc378daa952ba7f163c4a11628f55a4df523b3ef",
            "0x0000000000000000000000000000000000000000000000000000000000000000",
            "0x000000000000000000000000f59da181591dbb122a894372c6e44cc079a7bb3f"
          ],
          "data": "0x000000000000000000000000000000000000000000000000000000e8d4a51000",
          "blockHash": "0xd548694b71ba62188bf2c0a8bfca2ae31813cfe6e79769f23088d3c6274a2d23",
          "blockNumber": "0x89535d",
          "blockTimestamp": "0x68a10824",
          "transactionHash": "0x77b5273635e57148692b5491cb1e4a452b6df7e3d6f7bd579b2e45808c4132ba",
          "transactionIndex": "0x67",
          "logIndex": "0xfe",
          "removed": false
        }
      ],
      "logsBloom": "0x00000000000000000000000000000000000000000000000000000000000000000004000000000002000000000000000000000000000000000000000000000000000000000000000000001008000000000000000000000000000000000000000000000000020000000000000000000800000000000000000000200010000000000000000000000000000000000000000000000000000000000000000000000000000000000000000000080000000000000000000000000000000000000000000000000002000040000000000000000000000000000000000000000000000020000000000000000000000000000000000000000000000000000000000000000000",
      "type": "0x2",
      "transactionHash": "0x77b5273635e57148692b5491cb1e4a452b6df7e3d6f7bd579b2e45808c4132ba",
      "transactionIndex": "0x67",
      "blockHash": "0xd548694b71ba62188bf2c0a8bfca2ae31813cfe6e79769f23088d3c6274a2d23",
      "blockNumber": "0x89535d",
      "gasUsed": "0x87139",
      "effectiveGasPrice": "0x672e04",
      "from": "0xf59da181591dbb122a894372c6e44cc079a7bb3f",
      "to": null,
      "contractAddress": "0x9a89fb55663e874f2313fc38d6af6b83bfbde6e6"
    },
    {
      "status": "0x1",
      "cumulativeGasUsed": "0xc005c7",
      "logs": [
        {
          "address": "0xa8738aab0b22bfe6c335e05300b7d30c018456cd",
          "topics": [
            "0xddf252ad1be2c89b69c2b068fc378daa952ba7f163c4a11628f55a4df523b3ef",
            "0x0000000000000000000000000000000000000000000000000000000000000000",
            "0x000000000000000000000000f59da181591dbb122a894372c6e44cc079a7bb3f"
          ],
          "data": "0x00000000000000000000000000000000000000000000d3c21bcecceda1000000",
          "blockHash": "0xd548694b71ba62188bf2c0a8bfca2ae31813cfe6e79769f23088d3c6274a2d23",
          "blockNumber": "0x89535d",
          "blockTimestamp": "0x68a10824",
          "transactionHash": "0x43ba554d7e6d6e28cf99fea4d5da4ddf7f0ca821fa2ea7ff312b6a44eb01ca80",
          "transactionIndex": "0x68",
          "logIndex": "0xff",
          "removed": false
        }
      ],
      "logsBloom": "0x00000000000000000000000000000000080000000000000200000000000000000000000000000002000000000000010000000000000000000000000000000000000000000000000000001008000000000000000000000000000000000000000000000000020000000000000000000800000000000000000000200010000000000000000000000000000000000000000000000000000000000000000000000000000000000000000000000000000000000000000000000000000000000000000000000002000000000000000000000000000000000000000000000000000020000000000000000000000000000000000000000000000000000000000000000000",
      "type": "0x2",
      "transactionHash": "0x43ba554d7e6d6e28cf99fea4d5da4ddf7f0ca821fa2ea7ff312b6a44eb01ca80",
      "transactionIndex": "0x68",
      "blockHash": "0xd548694b71ba62188bf2c0a8bfca2ae31813cfe6e79769f23088d3c6274a2d23",
      "blockNumber": "0x89535d",
      "gasUsed": "0x87151",
      "effectiveGasPrice": "0x672e04",
      "from": "0xf59da181591dbb122a894372c6e44cc079a7bb3f",
      "to": null,
      "contractAddress": "0xa8738aab0b22bfe6c335e05300b7d30c018456cd"
    },
    {
      "status": "0x1",
      "cumulativeGasUsed": "0xc08a18",
      "logs": [
        {
          "address": "0xf97677b75914208590150813cfd2e5d3f2973d7c",
          "topics": [
            "0xddf252ad1be2c89b69c2b068fc378daa952ba7f163c4a11628f55a4df523b3ef",
            "0x0000000000000000000000000000000000000000000000000000000000000000",
            "0x000000000000000000000000f59da181591dbb122a894372c6e44cc079a7bb3f"
          ],
          "data": "0x000000000000000000000000000000000000000000000000000000174876e800",
          "blockHash": "0xd548694b71ba62188bf2c0a8bfca2ae31813cfe6e79769f23088d3c6274a2d23",
          "blockNumber": "0x89535d",
          "blockTimestamp": "0x68a10824",
          "transactionHash": "0xfd95ea196cc531741238a41088c880d78fcfc6038f62d5be3bffaab49068c634",
          "transactionIndex": "0x69",
          "logIndex": "0x100",
          "removed": false
        }
      ],
      "logsBloom": "0x00000000000000000000000000000000000000000000000000000000000000000000000000000002000000000000000000000000080000000000000000000000000000000000000000001008000000000000000000000000000000000000000000000000020000000000000000000800000000000000000000200010000000000004000000000000000000000000000000000000000000800000000000000000000000000000000000000000000000000000000000000000000000000000000000000002000000000000000000000000000000000000000000000000000020000000000000000000000000000000000000000000000000000000000000000000",
      "type": "0x2",
      "transactionHash": "0xfd95ea196cc531741238a41088c880d78fcfc6038f62d5be3bffaab49068c634",
      "transactionIndex": "0x69",
      "blockHash": "0xd548694b71ba62188bf2c0a8bfca2ae31813cfe6e79769f23088d3c6274a2d23",
      "blockNumber": "0x89535d",
      "gasUsed": "0x8451",
      "effectiveGasPrice": "0x672e04",
      "from": "0xf59da181591dbb122a894372c6e44cc079a7bb3f",
      "to": "0xf97677b75914208590150813cfd2e5d3f2973d7c",
      "contractAddress": null
    },
    {
      "status": "0x1",
      "cumulativeGasUsed": "0xc15135",
      "logs": [
        {
          "address": "0xf97677b75914208590150813cfd2e5d3f2973d7c",
          "topics": [
            "0xddf252ad1be2c89b69c2b068fc378daa952ba7f163c4a11628f55a4df523b3ef",
            "0x0000000000000000000000000000000000000000000000000000000000000000",
            "0x0000000000000000000000003173ed1ec423f5071045d861cab532c2909fb4c0"
          ],
          "data": "0x000000000000000000000000000000000000000000000000000000174876e800",
          "blockHash": "0xd548694b71ba62188bf2c0a8bfca2ae31813cfe6e79769f23088d3c6274a2d23",
          "blockNumber": "0x89535d",
          "blockTimestamp": "0x68a10824",
          "transactionHash": "0xe1574e2d67b0dea31bb10ce90b7693b2781511e3eaf3eb4c1797f7ddbca93493",
          "transactionIndex": "0x6a",
          "logIndex": "0x101",
          "removed": false
        }
      ],
      "logsBloom": "0x00000000000000000000000000000000000000000000000001000000000000000000000000000000000000000000000000000000080000000000000000000000000000000000000000000008000000000000000000000000000001000000000000000000020000000000000000000800000000800000000000000010000000000004000000000000000000000000000000000000000000800000000000000000000000000000000000000000000000000000000000000000000000000000000000000002000000000000000000000000000000000000000000000000000020000000000000000000000000000000000000000000000000000000000000000000",
      "type": "0x2",
      "transactionHash": "0xe1574e2d67b0dea31bb10ce90b7693b2781511e3eaf3eb4c1797f7ddbca93493",
      "transactionIndex": "0x6a",
      "blockHash": "0xd548694b71ba62188bf2c0a8bfca2ae31813cfe6e79769f23088d3c6274a2d23",
      "blockNumber": "0x89535d",
      "gasUsed": "0xc71d",
      "effectiveGasPrice": "0x672e04",
      "from": "0xf59da181591dbb122a894372c6e44cc079a7bb3f",
      "to": "0xf97677b75914208590150813cfd2e5d3f2973d7c",
      "contractAddress": null
    },
    {
      "status": "0x1",
      "cumulativeGasUsed": "0x3b3e20",
      "logs": [
        {
          "address": "0xf97677b75914208590150813cfd2e5d3f2973d7c",
          "topics": [
            "0xddf252ad1be2c89b69c2b068fc378daa952ba7f163c4a11628f55a4df523b3ef",
            "0x0000000000000000000000000000000000000000000000000000000000000000",
            "0x000000000000000000000000806b7de4add0a154262bae6a2ed08ab4ded757af"
          ],
          "data": "0x000000000000000000000000000000000000000000000000000000174876e800",
          "blockHash": "0x6a7c1e0a1912daa63dc1b547a91f3bb78c60bd721c5d2aedfa98605d770da177",
          "blockNumber": "0x89535e",
          "blockTimestamp": "0x68a10830",
          "transactionHash": "0x62f9fd0601a4baedc68359a11dbb8c71934ddb2465f5a4683788c0e98ea77bc1",
          "transactionIndex": "0x27",
          "logIndex": "0x60",
          "removed": false
        }
      ],
      "logsBloom": "0x00000000000000000000000000000000000000000000000000000000000000000000001000000000000000000000000000000000080000000000000000000000000000000000010000000008000000000000000000000000000000000000000000000000020000000000000000000800000000000000001000000010000000000004000000000000000000000000000000000000000000800000000000000000000000000000000000000000000000000000000000000000000000000000000000000002000000000000000000000000000000000000000000000000000020000000000000000000000000000000000000000000000000000000000000000000",
      "type": "0x2",
      "transactionHash": "0x62f9fd0601a4baedc68359a11dbb8c71934ddb2465f5a4683788c0e98ea77bc1",
      "transactionIndex": "0x27",
      "blockHash": "0x6a7c1e0a1912daa63dc1b547a91f3bb78c60bd721c5d2aedfa98605d770da177",
      "blockNumber": "0x89535e",
      "gasUsed": "0xc71d",
      "effectiveGasPrice": "0x65a452",
      "from": "0xf59da181591dbb122a894372c6e44cc079a7bb3f",
      "to": "0xf97677b75914208590150813cfd2e5d3f2973d7c",
      "contractAddress": null
    },
    {
      "status": "0x1",
      "cumulativeGasUsed": "0x3bc271",
      "logs": [
        {
          "address": "0xca8305435efe1152134e6a805aa4ca08a17725b5",
          "topics": [
            "0xddf252ad1be2c89b69c2b068fc378daa952ba7f163c4a11628f55a4df523b3ef",
            "0x0000000000000000000000000000000000000000000000000000000000000000",
            "0x000000000000000000000000f59da181591dbb122a894372c6e44cc079a7bb3f"
          ],
          "data": "0x000000000000000000000000000000000000000000000000000000174876e800",
          "blockHash": "0x6a7c1e0a1912daa63dc1b547a91f3bb78c60bd721c5d2aedfa98605d770da177",
          "blockNumber": "0x89535e",
          "blockTimestamp": "0x68a10830",
          "transactionHash": "0xf21ec9b1830dffedb305fd07d1868ed7d99fa4bc0780d91f47fe5448e346a524",
          "transactionIndex": "0x28",
          "logIndex": "0x61",
          "removed": false
        }
      ],
      "logsBloom": "0x00000000000000000000000000000000000000000000000000000000000000000000000000000002000000000000000000000000000000000000000000000000000000040000000000001008000100000000000000000000000000000000000000000000020000000000000000000800000000000000000000200010000000000000000000000000000000000000000000000000000000000000000000000000000000000000000000000000000000000000000000000000000000080000000000000002000000000000000000000000000000000000000000000000000020000000000000000000000000000000000000000000000000000000000000000000",
      "type": "0x2",
      "transactionHash": "0xf21ec9b1830dffedb305fd07d1868ed7d99fa4bc0780d91f47fe5448e346a524",
      "transactionIndex": "0x28",
      "blockHash": "0x6a7c1e0a1912daa63dc1b547a91f3bb78c60bd721c5d2aedfa98605d770da177",
      "blockNumber": "0x89535e",
      "gasUsed": "0x8451",
      "effectiveGasPrice": "0x65a452",
      "from": "0xf59da181591dbb122a894372c6e44cc079a7bb3f",
      "to": "0xca8305435efe1152134e6a805aa4ca08a17725b5",
      "contractAddress": null
    },
    {
      "status": "0x1",
      "cumulativeGasUsed": "0x3c898e",
      "logs": [
        {
          "address": "0xca8305435efe1152134e6a805aa4ca08a17725b5",
          "topics": [
            "0xddf252ad1be2c89b69c2b068fc378daa952ba7f163c4a11628f55a4df523b3ef",
            "0x0000000000000000000000000000000000000000000000000000000000000000",
            "0x0000000000000000000000003173ed1ec423f5071045d861cab532c2909fb4c0"
          ],
          "data": "0x000000000000000000000000000000000000000000000000000000174876e800",
          "blockHash": "0x6a7c1e0a1912daa63dc1b547a91f3bb78c60bd721c5d2aedfa98605d770da177",
          "blockNumber": "0x89535e",
          "blockTimestamp": "0x68a10830",
          "transactionHash": "0x963231d9ae1bbd5533d9d4c0af07ef13d5e1261a3b405b801fb3ced11c3ca786",
          "transactionIndex": "0x29",
          "logIndex": "0x62",
          "removed": false
        }
      ],
      "logsBloom": "0x00000000000000000000000000000000000000000000000001000000000000000000000000000000000000000000000000000000000000000000000000000000000000040000000000000008000100000000000000000000000001000000000000000000020000000000000000000800000000800000000000000010000000000000000000000000000000000000000000000000000000000000000000000000000000000000000000000000000000000000000000000000000000080000000000000002000000000000000000000000000000000000000000000000000020000000000000000000000000000000000000000000000000000000000000000000",
      "type": "0x2",
      "transactionHash": "0x963231d9ae1bbd5533d9d4c0af07ef13d5e1261a3b405b801fb3ced11c3ca786",
      "transactionIndex": "0x29",
      "blockHash": "0x6a7c1e0a1912daa63dc1b547a91f3bb78c60bd721c5d2aedfa98605d770da177",
      "blockNumber": "0x89535e",
      "gasUsed": "0xc71d",
      "effectiveGasPrice": "0x65a452",
      "from": "0xf59da181591dbb122a894372c6e44cc079a7bb3f",
      "to": "0xca8305435efe1152134e6a805aa4ca08a17725b5",
      "contractAddress": null
    },
    {
      "status": "0x1",
      "cumulativeGasUsed": "0x3d50ab",
      "logs": [
        {
          "address": "0xca8305435efe1152134e6a805aa4ca08a17725b5",
          "topics": [
            "0xddf252ad1be2c89b69c2b068fc378daa952ba7f163c4a11628f55a4df523b3ef",
            "0x0000000000000000000000000000000000000000000000000000000000000000",
            "0x000000000000000000000000806b7de4add0a154262bae6a2ed08ab4ded757af"
          ],
          "data": "0x000000000000000000000000000000000000000000000000000000174876e800",
          "blockHash": "0x6a7c1e0a1912daa63dc1b547a91f3bb78c60bd721c5d2aedfa98605d770da177",
          "blockNumber": "0x89535e",
          "blockTimestamp": "0x68a10830",
          "transactionHash": "0xf36e5559d3f7405d0155eb1ca9fb7efe3ff4564be26b40d63eebf6cc3c9b47c9",
          "transactionIndex": "0x2a",
          "logIndex": "0x63",
          "removed": false
        }
      ],
      "logsBloom": "0x00000000000000000000000000000000000000000000000000000000000000000000001000000000000000000000000000000000000000000000000000000000000000040000010000000008000100000000000000000000000000000000000000000000020000000000000000000800000000000000001000000010000000000000000000000000000000000000000000000000000000000000000000000000000000000000000000000000000000000000000000000000000000080000000000000002000000000000000000000000000000000000000000000000000020000000000000000000000000000000000000000000000000000000000000000000",
      "type": "0x2",
      "transactionHash": "0xf36e5559d3f7405d0155eb1ca9fb7efe3ff4564be26b40d63eebf6cc3c9b47c9",
      "transactionIndex": "0x2a",
      "blockHash": "0x6a7c1e0a1912daa63dc1b547a91f3bb78c60bd721c5d2aedfa98605d770da177",
      "blockNumber": "0x89535e",
      "gasUsed": "0xc71d",
      "effectiveGasPrice": "0x65a452",
      "from": "0xf59da181591dbb122a894372c6e44cc079a7bb3f",
      "to": "0xca8305435efe1152134e6a805aa4ca08a17725b5",
      "contractAddress": null
    },
    {
      "status": "0x1",
      "cumulativeGasUsed": "0x3dd4fc",
      "logs": [
        {
          "address": "0x9a89fb55663e874f2313fc38d6af6b83bfbde6e6",
          "topics": [
            "0xddf252ad1be2c89b69c2b068fc378daa952ba7f163c4a11628f55a4df523b3ef",
            "0x0000000000000000000000000000000000000000000000000000000000000000",
            "0x000000000000000000000000f59da181591dbb122a894372c6e44cc079a7bb3f"
          ],
          "data": "0x000000000000000000000000000000000000000000000000000000174876e800",
          "blockHash": "0x6a7c1e0a1912daa63dc1b547a91f3bb78c60bd721c5d2aedfa98605d770da177",
          "blockNumber": "0x89535e",
          "blockTimestamp": "0x68a10830",
          "transactionHash": "0x43d0965fbb2bad6a58efad014bc58c7cfe5dcc11d8a057c25f35f35427c8292a",
          "transactionIndex": "0x2b",
          "logIndex": "0x64",
          "removed": false
        }
      ],
      "logsBloom": "0x00000000000000000000000000000000000000000000000000000000000000000004000000000002000000000000000000000000000000000000000000000000000000000000000000001008000000000000000000000000000000000000000000000000020000000000000000000800000000000000000000200010000000000000000000000000000000000000000000000000000000000000000000000000000000000000000000080000000000000000000000000000000000000000000000000002000040000000000000000000000000000000000000000000000020000000000000000000000000000000000000000000000000000000000000000000",
      "type": "0x2",
      "transactionHash": "0x43d0965fbb2bad6a58efad014bc58c7cfe5dcc11d8a057c25f35f35427c8292a",
      "transactionIndex": "0x2b",
      "blockHash": "0x6a7c1e0a1912daa63dc1b547a91f3bb78c60bd721c5d2aedfa98605d770da177",
      "blockNumber": "0x89535e",
      "gasUsed": "0x8451",
      "effectiveGasPrice": "0x65a452",
      "from": "0xf59da181591dbb122a894372c6e44cc079a7bb3f",
      "to": "0x9a89fb55663e874f2313fc38d6af6b83bfbde6e6",
      "contractAddress": null
    },
    {
      "status": "0x1",
      "cumulativeGasUsed": "0x3e9c19",
      "logs": [
        {
          "address": "0x9a89fb55663e874f2313fc38d6af6b83bfbde6e6",
          "topics": [
            "0xddf252ad1be2c89b69c2b068fc378daa952ba7f163c4a11628f55a4df523b3ef",
            "0x0000000000000000000000000000000000000000000000000000000000000000",
            "0x0000000000000000000000003173ed1ec423f5071045d861cab532c2909fb4c0"
          ],
          "data": "0x000000000000000000000000000000000000000000000000000000174876e800",
          "blockHash": "0x6a7c1e0a1912daa63dc1b547a91f3bb78c60bd721c5d2aedfa98605d770da177",
          "blockNumber": "0x89535e",
          "blockTimestamp": "0x68a10830",
          "transactionHash": "0xd0379cff54dfa71001d7697c71f977de51a659b7940c0e3e2a4b5424f013bb92",
          "transactionIndex": "0x2c",
          "logIndex": "0x65",
          "removed": false
        }
      ],
      "logsBloom": "0x00000000000000000000000000000000000000000000000001000000000000000004000000000000000000000000000000000000000000000000000000000000000000000000000000000008000000000000000000000000000001000000000000000000020000000000000000000800000000800000000000000010000000000000000000000000000000000000000000000000000000000000000000000000000000000000000000080000000000000000000000000000000000000000000000000002000040000000000000000000000000000000000000000000000020000000000000000000000000000000000000000000000000000000000000000000",
      "type": "0x2",
      "transactionHash": "0xd0379cff54dfa71001d7697c71f977de51a659b7940c0e3e2a4b5424f013bb92",
      "transactionIndex": "0x2c",
      "blockHash": "0x6a7c1e0a1912daa63dc1b547a91f3bb78c60bd721c5d2aedfa98605d770da177",
      "blockNumber": "0x89535e",
      "gasUsed": "0xc71d",
      "effectiveGasPrice": "0x65a452",
      "from": "0xf59da181591dbb122a894372c6e44cc079a7bb3f",
      "to": "0x9a89fb55663e874f2313fc38d6af6b83bfbde6e6",
      "contractAddress": null
    },
    {
      "status": "0x1",
      "cumulativeGasUsed": "0x3f6336",
      "logs": [
        {
          "address": "0x9a89fb55663e874f2313fc38d6af6b83bfbde6e6",
          "topics": [
            "0xddf252ad1be2c89b69c2b068fc378daa952ba7f163c4a11628f55a4df523b3ef",
            "0x0000000000000000000000000000000000000000000000000000000000000000",
            "0x000000000000000000000000806b7de4add0a154262bae6a2ed08ab4ded757af"
          ],
          "data": "0x000000000000000000000000000000000000000000000000000000174876e800",
          "blockHash": "0x6a7c1e0a1912daa63dc1b547a91f3bb78c60bd721c5d2aedfa98605d770da177",
          "blockNumber": "0x89535e",
          "blockTimestamp": "0x68a10830",
          "transactionHash": "0x9a5dfc20738efbe28eae60029a115b57b9fe114256ec147b462c15e7e9dfe906",
          "transactionIndex": "0x2d",
          "logIndex": "0x66",
          "removed": false
        }
      ],
      "logsBloom": "0x00000000000000000000000000000000000000000000000000000000000000000004001000000000000000000000000000000000000000000000000000000000000000000000010000000008000000000000000000000000000000000000000000000000020000000000000000000800000000000000001000000010000000000000000000000000000000000000000000000000000000000000000000000000000000000000000000080000000000000000000000000000000000000000000000000002000040000000000000000000000000000000000000000000000020000000000000000000000000000000000000000000000000000000000000000000",
      "type": "0x2",
      "transactionHash": "0x9a5dfc20738efbe28eae60029a115b57b9fe114256ec147b462c15e7e9dfe906",
      "transactionIndex": "0x2d",
      "blockHash": "0x6a7c1e0a1912daa63dc1b547a91f3bb78c60bd721c5d2aedfa98605d770da177",
      "blockNumber": "0x89535e",
      "gasUsed": "0xc71d",
      "effectiveGasPrice": "0x65a452",
      "from": "0xf59da181591dbb122a894372c6e44cc079a7bb3f",
      "to": "0x9a89fb55663e874f2313fc38d6af6b83bfbde6e6",
      "contractAddress": null
    },
    {
      "status": "0x1",
      "cumulativeGasUsed": "0x3fe7b7",
      "logs": [
        {
          "address": "0xa8738aab0b22bfe6c335e05300b7d30c018456cd",
          "topics": [
            "0xddf252ad1be2c89b69c2b068fc378daa952ba7f163c4a11628f55a4df523b3ef",
            "0x0000000000000000000000000000000000000000000000000000000000000000",
            "0x000000000000000000000000f59da181591dbb122a894372c6e44cc079a7bb3f"
          ],
          "data": "0x00000000000000000000000000000000000000000000152d02c7e14af6800000",
          "blockHash": "0x6a7c1e0a1912daa63dc1b547a91f3bb78c60bd721c5d2aedfa98605d770da177",
          "blockNumber": "0x89535e",
          "blockTimestamp": "0x68a10830",
          "transactionHash": "0xfa08a8149e8ccebce723357a4e971f18b12c233bae2b07a3d06f24038b2c0f9d",
          "transactionIndex": "0x2e",
          "logIndex": "0x67",
          "removed": false
        }
      ],
      "logsBloom": "0x00000000000000000000000000000000080000000000000200000000000000000000000000000002000000000000010000000000000000000000000000000000000000000000000000001008000000000000000000000000000000000000000000000000020000000000000000000800000000000000000000200010000000000000000000000000000000000000000000000000000000000000000000000000000000000000000000000000000000000000000000000000000000000000000000000002000000000000000000000000000000000000000000000000000020000000000000000000000000000000000000000000000000000000000000000000",
      "type": "0x2",
      "transactionHash": "0xfa08a8149e8ccebce723357a4e971f18b12c233bae2b07a3d06f24038b2c0f9d",
      "transactionIndex": "0x2e",
      "blockHash": "0x6a7c1e0a1912daa63dc1b547a91f3bb78c60bd721c5d2aedfa98605d770da177",
      "blockNumber": "0x89535e",
      "gasUsed": "0x8481",
      "effectiveGasPrice": "0x65a452",
      "from": "0xf59da181591dbb122a894372c6e44cc079a7bb3f",
      "to": "0xa8738aab0b22bfe6c335e05300b7d30c018456cd",
      "contractAddress": null
    },
    {
      "status": "0x1",
      "cumulativeGasUsed": "0x40af04",
      "logs": [
        {
          "address": "0xa8738aab0b22bfe6c335e05300b7d30c018456cd",
          "topics": [
            "0xddf252ad1be2c89b69c2b068fc378daa952ba7f163c4a11628f55a4df523b3ef",
            "0x0000000000000000000000000000000000000000000000000000000000000000",
            "0x0000000000000000000000003173ed1ec423f5071045d861cab532c2909fb4c0"
          ],
          "data": "0x00000000000000000000000000000000000000000000152d02c7e14af6800000",
          "blockHash": "0x6a7c1e0a1912daa63dc1b547a91f3bb78c60bd721c5d2aedfa98605d770da177",
          "blockNumber": "0x89535e",
          "blockTimestamp": "0x68a10830",
          "transactionHash": "0x85bae3e620a0ba6cc6dc390d856a8c8eda9aa881f0346ee9bddf955b40d55e4b",
          "transactionIndex": "0x2f",
          "logIndex": "0x68",
          "removed": false
        }
      ],
      "logsBloom": "0x00000000000000000000000000000000080000000000000201000000000000000000000000000000000000000000010000000000000000000000000000000000000000000000000000000008000000000000000000000000000001000000000000000000020000000000000000000800000000800000000000000010000000000000000000000000000000000000000000000000000000000000000000000000000000000000000000000000000000000000000000000000000000000000000000000002000000000000000000000000000000000000000000000000000020000000000000000000000000000000000000000000000000000000000000000000",
      "type": "0x2",
      "transactionHash": "0x85bae3e620a0ba6cc6dc390d856a8c8eda9aa881f0346ee9bddf955b40d55e4b",
      "transactionIndex": "0x2f",
      "blockHash": "0x6a7c1e0a1912daa63dc1b547a91f3bb78c60bd721c5d2aedfa98605d770da177",
      "blockNumber": "0x89535e",
      "gasUsed": "0xc74d",
      "effectiveGasPrice": "0x65a452",
      "from": "0xf59da181591dbb122a894372c6e44cc079a7bb3f",
      "to": "0xa8738aab0b22bfe6c335e05300b7d30c018456cd",
      "contractAddress": null
    },
    {
      "status": "0x1",
      "cumulativeGasUsed": "0x417651",
      "logs": [
        {
          "address": "0xa8738aab0b22bfe6c335e05300b7d30c018456cd",
          "topics": [
            "0xddf252ad1be2c89b69c2b068fc378daa952ba7f163c4a11628f55a4df523b3ef",
            "0x0000000000000000000000000000000000000000000000000000000000000000",
            "0x000000000000000000000000806b7de4add0a154262bae6a2ed08ab4ded757af"
          ],
          "data": "0x00000000000000000000000000000000000000000000152d02c7e14af6800000",
          "blockHash": "0x6a7c1e0a1912daa63dc1b547a91f3bb78c60bd721c5d2aedfa98605d770da177",
          "blockNumber": "0x89535e",
          "blockTimestamp": "0x68a10830",
          "transactionHash": "0x435020b3bad7a210fffe4c5521797477e760e3296335825e096bf6c08df3daa5",
          "transactionIndex": "0x30",
          "logIndex": "0x69",
          "removed": false
        }
      ],
      "logsBloom": "0x00000000000000000000000000000000080000000000000200000000000000000000001000000000000000000000010000000000000000000000000000000000000000000000010000000008000000000000000000000000000000000000000000000000020000000000000000000800000000000000001000000010000000000000000000000000000000000000000000000000000000000000000000000000000000000000000000000000000000000000000000000000000000000000000000000002000000000000000000000000000000000000000000000000000020000000000000000000000000000000000000000000000000000000000000000000",
      "type": "0x2",
      "transactionHash": "0x435020b3bad7a210fffe4c5521797477e760e3296335825e096bf6c08df3daa5",
      "transactionIndex": "0x30",
      "blockHash": "0x6a7c1e0a1912daa63dc1b547a91f3bb78c60bd721c5d2aedfa98605d770da177",
      "blockNumber": "0x89535e",
      "gasUsed": "0xc74d",
      "effectiveGasPrice": "0x65a452",
      "from": "0xf59da181591dbb122a894372c6e44cc079a7bb3f",
      "to": "0xa8738aab0b22bfe6c335e05300b7d30c018456cd",
      "contractAddress": null
    }
  ],
  "libraries": [],
  "pending": [],
  "returns": {},
  "timestamp": 1755383876533,
  "chain": 11155111,
  "commit": "f13b4d6"
}