{
  "transactions": [
    {
      "hash": "0x75e2631cdefe36718c0123367016784adc486986557c87f3f26d0621b9a7f4bb",
      "transactionType": "CREATE",
      "contractName": "MockStablecoinFactory",
      "contractAddress": "0x9c4fcd96d0cc7d4613f18555b272d65b1de97e86",
      "function": null,
      "arguments": [
        "0xf59dA181591dbB122A894372C6E44cC079A7Bb3F"
      ],
      "transaction": {
        "from": "0xf59da181591dbb122a894372c6e44cc079a7bb3f",
        "gas": "0x2e99d4",
        "value": "0x0",
        "input": "0x60803461034657601f61110638819003918201601f19168301916001600160401b038311848410176103325780849260209460405283398101031261034657516001600160a01b0381169081900361034657604051610cac90818101906001600160401b03821181831017610332576101208161045a938585833960a08152600860a0820152672aa9a21021b7b4b760c11b60c082015260e06020820152600460e0820152635553444360e01b610100820152600660408201525f60608201528660808201520301905ff08015610327575f80546001600160a01b0319166001600160a01b03929092169190911790556040518281016001600160401b038111828210176103325781610120918585833960a08152601160a0820152705465746865722055534420286d6f636b2960781b60c082015260e06020820152600560e082015264055534454360dc1b610100820152600660408201525f60608201528660808201520301905ff0801561032757600180546001600160a01b0319166001600160a01b03929092169190911790556040518281016001600160401b038111828210176103325781610120918585833960a08152601160a08201527050617950616c2055534420286d6f636b2960781b60c082015260e06020820152600560e08201526414165554d160da1b610100820152600660408201525f60608201528660808201520301905ff0801561032757600280546001600160a01b0319166001600160a01b039290921691909117905560405192828401906001600160401b0382118583101761033257610120938593843960a08252600b60a08301526a5553446520286d6f636b2960a81b60c083015260e06020830152600460e0830152635553446560e01b610100830152601260408301525f606083015260808201520301905ff0801561032757600380546001600160a01b0319166001600160a01b039283169081179091555f5460015460025460408051938616845291851660208401529093169281019290925260608201527fe9e6067a0dc26ccb3c9ba7ceede231475696ac1029fa2d8a52bcfe9feef8a5a490608090a160405161010f908161034b8239f35b6040513d5f823e3d90fd5b634e487b7160e01b5f52604160045260245ffd5b5f80fdfe60808060405260043610156011575f80fd5b5f3560e01c9081634d1a7dee1460b85750806389a302711460935780639e19789d14606d5763d1609502146043575f80fd5b346069575f3660031901126069576003546040516001600160a01b039091168152602090f35b5f80fd5b346069575f3660031901126069576002546040516001600160a01b039091168152602090f35b346069575f3660031901126069575f546040516001600160a01b039091168152602090f35b346069575f3660031901126069576001546001600160a01b03168152602090f3fea2646970667358221220171193a64f01ed2687b02839f05b1ce1ff15f54062a1d73e66018b2dc0b4dfeb64736f6c634300081a003360806040523461042d57610cac8038038061001981610431565b928339810160a08282031261042d5781516001600160401b03811161042d5781610044918401610456565b602083015190916001600160401b03821161042d57610064918401610456565b91604081015160ff8116810361042d5760608201516080909201516001600160a01b038116939084900361042d578051906001600160401b0382116103305760035490600182811c92168015610423575b60208310146103125781601f8493116103b5575b50602090601f831160011461034f575f92610344575b50508160011b915f199060031b1c1916176003555b83516001600160401b03811161033057600454600181811c91168015610326575b602082101461031257601f81116102af575b50602094601f821160011461024c579481929394955f92610241575b50508160011b915f199060031b1c1916176004555b821561022e57600554908390816001600160a01b0384167f8be0079c531659141344cd1fd0a4f28419497f9722a3daafe3b4186f6b6457e05f80a36001600160a81b03199092161760a09190911b60ff60a01b1617600555806101c5575b60405161080490816104a88239f35b6002549080820180921161021a5760207fddf252ad1be2c89b69c2b068fc378daa952ba7f163c4a11628f55a4df523b3ef915f9360025584845283825260408420818154019055604051908152a35f806101b6565b634e487b7160e01b5f52601160045260245ffd5b631e4fbdf760e01b5f525f60045260245ffd5b015190505f80610143565b601f1982169560045f52805f20915f5b8881106102975750836001959697981061027f575b505050811b01600455610158565b01515f1960f88460031b161c191690555f8080610271565b9192602060018192868501518155019401920161025c565b60045f527f8a35acfbc15ff81a39ae7d344fd709f28e8600b4aa8c65c6b64bfe7fe36bd19b601f830160051c81019160208410610308575b601f0160051c01905b8181106102fd5750610127565b5f81556001016102f0565b90915081906102e7565b634e487b7160e01b5f52602260045260245ffd5b90607f1690610115565b634e487b7160e01b5f52604160045260245ffd5b015190505f806100df565b60035f9081528281209350601f198516905b81811061039d5750908460019594939210610385575b505050811b016003556100f4565b01515f1960f88460031b161c191690555f8080610377565b92936020600181928786015181550195019301610361565b60035f529091507fc2575a0e9e593c00f959f8c92f12db2869c3395a3b0502d05e2516446f71f85b601f840160051c81019160208510610419575b90601f859493920160051c01905b81811061040b57506100c9565b5f81558493506001016103fe565b90915081906103f0565b91607f16916100b5565b5f80fd5b6040519190601f01601f191682016001600160401b0381118382101761033057604052565b81601f8201121561042d578051906001600160401b03821161033057610485601f8301601f1916602001610431565b928284526020838301011161042d57815f9260208093018386015e830101529056fe6080806040526004361015610012575f80fd5b5f3560e01c90816306fdde03146105d857508063095ea7b31461055657806318160ddd1461053957806323b872dd1461045a578063313ce5671461043757806340c10f191461038b57806370a0823114610354578063715018a6146102f95780638da5cb5b146102d157806395d89b41146101b6578063a9059cbb14610185578063dd62ed3e146101355763f2fde38b146100ab575f80fd5b34610131576020366003190112610131576100c46106d1565b6100cc6107a7565b6001600160a01b0316801561011e57600580546001600160a01b0319811683179091556001600160a01b03167f8be0079c531659141344cd1fd0a4f28419497f9722a3daafe3b4186f6b6457e05f80a3005b631e4fbdf760e01b5f525f60045260245ffd5b5f80fd5b346101315760403660031901126101315761014e6106d1565b6101566106e7565b6001600160a01b039182165f908152600160209081526040808320949093168252928352819020549051908152f35b34610131576040366003190112610131576101ab6101a16106d1565b60243590336106fd565b602060405160018152f35b34610131575f366003190112610131576040515f6004548060011c906001811680156102c7575b6020831081146102b3578285529081156102975750600114610242575b50819003601f01601f191681019067ffffffffffffffff82118183101761022e5761022a829182604052826106a7565b0390f35b634e487b7160e01b5f52604160045260245ffd5b905060045f527f8a35acfbc15ff81a39ae7d344fd709f28e8600b4aa8c65c6b64bfe7fe36bd19b5f905b828210610281575060209150820101826101fa565b600181602092548385880101520191019061026c565b90506020925060ff191682840152151560051b820101826101fa565b634e487b7160e01b5f52602260045260245ffd5b91607f16916101dd565b34610131575f366003190112610131576005546040516001600160a01b039091168152602090f35b34610131575f366003190112610131576103116107a7565b600580546001600160a01b031981169091555f906001600160a01b03167f8be0079c531659141344cd1fd0a4f28419497f9722a3daafe3b4186f6b6457e08280a3005b34610131576020366003190112610131576001600160a01b036103756106d1565b165f525f602052602060405f2054604051908152f35b34610131576040366003190112610131576103a46106d1565b602435906103b06107a7565b6001600160a01b031690811561042457600254908082018092116104105760207fddf252ad1be2c89b69c2b068fc378daa952ba7f163c4a11628f55a4df523b3ef915f9360025584845283825260408420818154019055604051908152a3005b634e487b7160e01b5f52601160045260245ffd5b63ec442f0560e01b5f525f60045260245ffd5b34610131575f36600319011261013157602060ff60055460a01c16604051908152f35b34610131576060366003190112610131576104736106d1565b61047b6106e7565b6001600160a01b0382165f818152600160209081526040808320338452909152902054909260443592915f1981106104b9575b506101ab93506106fd565b83811061051e57841561050b5733156104f8576101ab945f52600160205260405f2060018060a01b0333165f526020528360405f2091039055846104ae565b634a1406b160e11b5f525f60045260245ffd5b63e602df0560e01b5f525f60045260245ffd5b8390637dc7a0d960e11b5f523360045260245260445260645ffd5b34610131575f366003190112610131576020600254604051908152f35b346101315760403660031901126101315761056f6106d1565b60243590331561050b576001600160a01b03169081156104f857335f52600160205260405f20825f526020528060405f20556040519081527f8c5be1e5ebec7d5bd14f71427d1e84f3dd0314c0f7b2291e5b200ac8c7c3b92560203392a3602060405160018152f35b34610131575f366003190112610131575f6003548060011c9060018116801561069d575b6020831081146102b35782855290811561029757506001146106485750819003601f01601f191681019067ffffffffffffffff82118183101761022e5761022a829182604052826106a7565b905060035f527fc2575a0e9e593c00f959f8c92f12db2869c3395a3b0502d05e2516446f71f85b5f905b828210610687575060209150820101826101fa565b6001816020925483858801015201910190610672565b91607f16916105fc565b602060409281835280519182918282860152018484015e5f828201840152601f01601f1916010190565b600435906001600160a01b038216820361013157565b602435906001600160a01b038216820361013157565b6001600160a01b0316908115610794576001600160a01b031691821561042457815f525f60205260405f205481811061077b57817fddf252ad1be2c89b69c2b068fc378daa952ba7f163c4a11628f55a4df523b3ef92602092855f525f84520360405f2055845f525f825260405f20818154019055604051908152a3565b8263391434e360e21b5f5260045260245260445260645ffd5b634b637e8f60e11b5f525f60045260245ffd5b6005546001600160a01b031633036107bb57565b63118cdaa760e01b5f523360045260245ffdfea2646970667358221220f0f6fea99e0c5f75d4b53d44a379219baa09c5bb941f3984f30010e4952bd54a64736f6c634300081a0033000000000000000000000000f59da181591dbb122a894372c6e44cc079a7bb3f",
        "nonce": "0x15",
        "chainId": "0x66eee"
      },
      "additionalContracts": [
        {
          "transactionType": "CREATE",
          "contractName": "MockToken",
          "address": "0xd240fb3ab54d20a12c2d17a533f2fd35bc6cb45c",
          "initCode": "0x60806040523461042d57610cac8038038061001981610431565b928339810160a08282031261042d5781516001600160401b03811161042d5781610044918401610456565b602083015190916001600160401b03821161042d57610064918401610456565b91604081015160ff8116810361042d5760608201516080909201516001600160a01b038116939084900361042d578051906001600160401b0382116103305760035490600182811c92168015610423575b60208310146103125781601f8493116103b5575b50602090601f831160011461034f575f92610344575b50508160011b915f199060031b1c1916176003555b83516001600160401b03811161033057600454600181811c91168015610326575b602082101461031257601f81116102af575b50602094601f821160011461024c579481929394955f92610241575b50508160011b915f199060031b1c1916176004555b821561022e57600554908390816001600160a01b0384167f8be0079c531659141344cd1fd0a4f28419497f9722a3daafe3b4186f6b6457e05f80a36001600160a81b03199092161760a09190911b60ff60a01b1617600555806101c5575b60405161080490816104a88239f35b6002549080820180921161021a5760207fddf252ad1be2c89b69c2b068fc378daa952ba7f163c4a11628f55a4df523b3ef915f9360025584845283825260408420818154019055604051908152a35f806101b6565b634e487b7160e01b5f52601160045260245ffd5b631e4fbdf760e01b5f525f60045260245ffd5b015190505f80610143565b601f1982169560045f52805f20915f5b8881106102975750836001959697981061027f575b505050811b01600455610158565b01515f1960f88460031b161c191690555f8080610271565b9192602060018192868501518155019401920161025c565b60045f527f8a35acfbc15ff81a39ae7d344fd709f28e8600b4aa8c65c6b64bfe7fe36bd19b601f830160051c81019160208410610308575b601f0160051c01905b8181106102fd5750610127565b5f81556001016102f0565b90915081906102e7565b634e487b7160e01b5f52602260045260245ffd5b90607f1690610115565b634e487b7160e01b5f52604160045260245ffd5b015190505f806100df565b60035f9081528281209350601f198516905b81811061039d5750908460019594939210610385575b505050811b016003556100f4565b01515f1960f88460031b161c191690555f8080610377565b92936020600181928786015181550195019301610361565b60035f529091507fc2575a0e9e593c00f959f8c92f12db2869c3395a3b0502d05e2516446f71f85b601f840160051c81019160208510610419575b90601f859493920160051c01905b81811061040b57506100c9565b5f81558493506001016103fe565b90915081906103f0565b91607f16916100b5565b5f80fd5b6040519190601f01601f191682016001600160401b0381118382101761033057604052565b81601f8201121561042d578051906001600160401b03821161033057610485601f8301601f1916602001610431565b928284526020838301011161042d57815f9260208093018386015e830101529056fe6080806040526004361015610012575f80fd5b5f3560e01c90816306fdde03146105d857508063095ea7b31461055657806318160ddd1461053957806323b872dd1461045a578063313ce5671461043757806340c10f191461038b57806370a0823114610354578063715018a6146102f95780638da5cb5b146102d157806395d89b41146101b6578063a9059cbb14610185578063dd62ed3e146101355763f2fde38b146100ab575f80fd5b34610131576020366003190112610131576100c46106d1565b6100cc6107a7565b6001600160a01b0316801561011e57600580546001600160a01b0319811683179091556001600160a01b03167f8be0079c531659141344cd1fd0a4f28419497f9722a3daafe3b4186f6b6457e05f80a3005b631e4fbdf760e01b5f525f60045260245ffd5b5f80fd5b346101315760403660031901126101315761014e6106d1565b6101566106e7565b6001600160a01b039182165f908152600160209081526040808320949093168252928352819020549051908152f35b34610131576040366003190112610131576101ab6101a16106d1565b60243590336106fd565b602060405160018152f35b34610131575f366003190112610131576040515f6004548060011c906001811680156102c7575b6020831081146102b3578285529081156102975750600114610242575b50819003601f01601f191681019067ffffffffffffffff82118183101761022e5761022a829182604052826106a7565b0390f35b634e487b7160e01b5f52604160045260245ffd5b905060045f527f8a35acfbc15ff81a39ae7d344fd709f28e8600b4aa8c65c6b64bfe7fe36bd19b5f905b828210610281575060209150820101826101fa565b600181602092548385880101520191019061026c565b90506020925060ff191682840152151560051b820101826101fa565b634e487b7160e01b5f52602260045260245ffd5b91607f16916101dd565b34610131575f366003190112610131576005546040516001600160a01b039091168152602090f35b34610131575f366003190112610131576103116107a7565b600580546001600160a01b031981169091555f906001600160a01b03167f8be0079c531659141344cd1fd0a4f28419497f9722a3daafe3b4186f6b6457e08280a3005b34610131576020366003190112610131576001600160a01b036103756106d1565b165f525f602052602060405f2054604051908152f35b34610131576040366003190112610131576103a46106d1565b602435906103b06107a7565b6001600160a01b031690811561042457600254908082018092116104105760207fddf252ad1be2c89b69c2b068fc378daa952ba7f163c4a11628f55a4df523b3ef915f9360025584845283825260408420818154019055604051908152a3005b634e487b7160e01b5f52601160045260245ffd5b63ec442f0560e01b5f525f60045260245ffd5b34610131575f36600319011261013157602060ff60055460a01c16604051908152f35b34610131576060366003190112610131576104736106d1565b61047b6106e7565b6001600160a01b0382165f818152600160209081526040808320338452909152902054909260443592915f1981106104b9575b506101ab93506106fd565b83811061051e57841561050b5733156104f8576101ab945f52600160205260405f2060018060a01b0333165f526020528360405f2091039055846104ae565b634a1406b160e11b5f525f60045260245ffd5b63e602df0560e01b5f525f60045260245ffd5b8390637dc7a0d960e11b5f523360045260245260445260645ffd5b34610131575f366003190112610131576020600254604051908152f35b346101315760403660031901126101315761056f6106d1565b60243590331561050b576001600160a01b03169081156104f857335f52600160205260405f20825f526020528060405f20556040519081527f8c5be1e5ebec7d5bd14f71427d1e84f3dd0314c0f7b2291e5b200ac8c7c3b92560203392a3602060405160018152f35b34610131575f366003190112610131575f6003548060011c9060018116801561069d575b6020831081146102b35782855290811561029757506001146106485750819003601f01601f191681019067ffffffffffffffff82118183101761022e5761022a829182604052826106a7565b905060035f527fc2575a0e9e593c00f959f8c92f12db2869c3395a3b0502d05e2516446f71f85b5f905b828210610687575060209150820101826101fa565b6001816020925483858801015201910190610672565b91607f16916105fc565b602060409281835280519182918282860152018484015e5f828201840152601f01601f1916010190565b600435906001600160a01b038216820361013157565b602435906001600160a01b038216820361013157565b6001600160a01b0316908115610794576001600160a01b031691821561042457815f525f60205260405f205481811061077b57817fddf252ad1be2c89b69c2b068fc378daa952ba7f163c4a11628f55a4df523b3ef92602092855f525f84520360405f2055845f525f825260405f20818154019055604051908152a3565b8263391434e360e21b5f5260045260245260445260645ffd5b634b637e8f60e11b5f525f60045260245ffd5b6005546001600160a01b031633036107bb57565b63118cdaa760e01b5f523360045260245ffdfea2646970667358221220f0f6fea99e0c5f75d4b53d44a379219baa09c5bb941f3984f30010e4952bd54a64736f6c634300081a003300000000000000000000000000000000000000000000000000000000000000a000000000000000000000000000000000000000000000000000000000000000e000000000000000000000000000000000000000000000000000000000000000060000000000000000000000000000000000000000000000000000000000000000000000000000000000000000f59da181591dbb122a894372c6e44cc079a7bb3f000000000000000000000000000000000000000000000000000000000000000855534420436f696e00000000000000000000000000000000000000000000000000000000000000000000000000000000000000000000000000000000000000045553444300000000000000000000000000000000000000000000000000000000"
        },
        {
          "transactionType": "CREATE",
          "contractName": "MockToken",
          "address": "0x0a0549a2762281df13d0b74cb52dd6c1afc23f85",
          "initCode": "0x60806040523461042d57610cac8038038061001981610431565b928339810160a08282031261042d5781516001600160401b03811161042d5781610044918401610456565b602083015190916001600160401b03821161042d57610064918401610456565b91604081015160ff8116810361042d5760608201516080909201516001600160a01b038116939084900361042d578051906001600160401b0382116103305760035490600182811c92168015610423575b60208310146103125781601f8493116103b5575b50602090601f831160011461034f575f92610344575b50508160011b915f199060031b1c1916176003555b83516001600160401b03811161033057600454600181811c91168015610326575b602082101461031257601f81116102af575b50602094601f821160011461024c579481929394955f92610241575b50508160011b915f199060031b1c1916176004555b821561022e57600554908390816001600160a01b0384167f8be0079c531659141344cd1fd0a4f28419497f9722a3daafe3b4186f6b6457e05f80a36001600160a81b03199092161760a09190911b60ff60a01b1617600555806101c5575b60405161080490816104a88239f35b6002549080820180921161021a5760207fddf252ad1be2c89b69c2b068fc378daa952ba7f163c4a11628f55a4df523b3ef915f9360025584845283825260408420818154019055604051908152a35f806101b6565b634e487b7160e01b5f52601160045260245ffd5b631e4fbdf760e01b5f525f60045260245ffd5b015190505f80610143565b601f1982169560045f52805f20915f5b8881106102975750836001959697981061027f575b505050811b01600455610158565b01515f1960f88460031b161c191690555f8080610271565b9192602060018192868501518155019401920161025c565b60045f527f8a35acfbc15ff81a39ae7d344fd709f28e8600b4aa8c65c6b64bfe7fe36bd19b601f830160051c81019160208410610308575b601f0160051c01905b8181106102fd5750610127565b5f81556001016102f0565b90915081906102e7565b634e487b7160e01b5f52602260045260245ffd5b90607f1690610115565b634e487b7160e01b5f52604160045260245ffd5b015190505f806100df565b60035f9081528281209350601f198516905b81811061039d5750908460019594939210610385575b505050811b016003556100f4565b01515f1960f88460031b161c191690555f8080610377565b92936020600181928786015181550195019301610361565b60035f529091507fc2575a0e9e593c00f959f8c92f12db2869c3395a3b0502d05e2516446f71f85b601f840160051c81019160208510610419575b90601f859493920160051c01905b81811061040b57506100c9565b5f81558493506001016103fe565b90915081906103f0565b91607f16916100b5565b5f80fd5b6040519190601f01601f191682016001600160401b0381118382101761033057604052565b81601f8201121561042d578051906001600160401b03821161033057610485601f8301601f1916602001610431565b928284526020838301011161042d57815f9260208093018386015e830101529056fe6080806040526004361015610012575f80fd5b5f3560e01c90816306fdde03146105d857508063095ea7b31461055657806318160ddd1461053957806323b872dd1461045a578063313ce5671461043757806340c10f191461038b57806370a0823114610354578063715018a6146102f95780638da5cb5b146102d157806395d89b41146101b6578063a9059cbb14610185578063dd62ed3e146101355763f2fde38b146100ab575f80fd5b34610131576020366003190112610131576100c46106d1565b6100cc6107a7565b6001600160a01b0316801561011e57600580546001600160a01b0319811683179091556001600160a01b03167f8be0079c531659141344cd1fd0a4f28419497f9722a3daafe3b4186f6b6457e05f80a3005b631e4fbdf760e01b5f525f60045260245ffd5b5f80fd5b346101315760403660031901126101315761014e6106d1565b6101566106e7565b6001600160a01b039182165f908152600160209081526040808320949093168252928352819020549051908152f35b34610131576040366003190112610131576101ab6101a16106d1565b60243590336106fd565b602060405160018152f35b34610131575f366003190112610131576040515f6004548060011c906001811680156102c7575b6020831081146102b3578285529081156102975750600114610242575b50819003601f01601f191681019067ffffffffffffffff82118183101761022e5761022a829182604052826106a7565b0390f35b634e487b7160e01b5f52604160045260245ffd5b905060045f527f8a35acfbc15ff81a39ae7d344fd709f28e8600b4aa8c65c6b64bfe7fe36bd19b5f905b828210610281575060209150820101826101fa565b600181602092548385880101520191019061026c565b90506020925060ff191682840152151560051b820101826101fa565b634e487b7160e01b5f52602260045260245ffd5b91607f16916101dd565b34610131575f366003190112610131576005546040516001600160a01b039091168152602090f35b34610131575f366003190112610131576103116107a7565b600580546001600160a01b031981169091555f906001600160a01b03167f8be0079c531659141344cd1fd0a4f28419497f9722a3daafe3b4186f6b6457e08280a3005b34610131576020366003190112610131576001600160a01b036103756106d1565b165f525f602052602060405f2054604051908152f35b34610131576040366003190112610131576103a46106d1565b602435906103b06107a7565b6001600160a01b031690811561042457600254908082018092116104105760207fddf252ad1be2c89b69c2b068fc378daa952ba7f163c4a11628f55a4df523b3ef915f9360025584845283825260408420818154019055604051908152a3005b634e487b7160e01b5f52601160045260245ffd5b63ec442f0560e01b5f525f60045260245ffd5b34610131575f36600319011261013157602060ff60055460a01c16604051908152f35b34610131576060366003190112610131576104736106d1565b61047b6106e7565b6001600160a01b0382165f818152600160209081526040808320338452909152902054909260443592915f1981106104b9575b506101ab93506106fd565b83811061051e57841561050b5733156104f8576101ab945f52600160205260405f2060018060a01b0333165f526020528360405f2091039055846104ae565b634a1406b160e11b5f525f60045260245ffd5b63e602df0560e01b5f525f60045260245ffd5b8390637dc7a0d960e11b5f523360045260245260445260645ffd5b34610131575f366003190112610131576020600254604051908152f35b346101315760403660031901126101315761056f6106d1565b60243590331561050b576001600160a01b03169081156104f857335f52600160205260405f20825f526020528060405f20556040519081527f8c5be1e5ebec7d5bd14f71427d1e84f3dd0314c0f7b2291e5b200ac8c7c3b92560203392a3602060405160018152f35b34610131575f366003190112610131575f6003548060011c9060018116801561069d575b6020831081146102b35782855290811561029757506001146106485750819003601f01601f191681019067ffffffffffffffff82118183101761022e5761022a829182604052826106a7565b905060035f527fc2575a0e9e593c00f959f8c92f12db2869c3395a3b0502d05e2516446f71f85b5f905b828210610687575060209150820101826101fa565b6001816020925483858801015201910190610672565b91607f16916105fc565b602060409281835280519182918282860152018484015e5f828201840152601f01601f1916010190565b600435906001600160a01b038216820361013157565b602435906001600160a01b038216820361013157565b6001600160a01b0316908115610794576001600160a01b031691821561042457815f525f60205260405f205481811061077b57817fddf252ad1be2c89b69c2b068fc378daa952ba7f163c4a11628f55a4df523b3ef92602092855f525f84520360405f2055845f525f825260405f20818154019055604051908152a3565b8263391434e360e21b5f5260045260245260445260645ffd5b634b637e8f60e11b5f525f60045260245ffd5b6005546001600160a01b031633036107bb57565b63118cdaa760e01b5f523360045260245ffdfea2646970667358221220f0f6fea99e0c5f75d4b53d44a379219baa09c5bb941f3984f30010e4952bd54a64736f6c634300081a003300000000000000000000000000000000000000000000000000000000000000a000000000000000000000000000000000000000000000000000000000000000e000000000000000000000000000000000000000000000000000000000000000060000000000000000000000000000000000000000000000000000000000000000000000000000000000000000f59da181591dbb122a894372c6e44cc079a7bb3f00000000000000000000000000000000000000000000000000000000000000115465746865722055534420286d6f636b2900000000000000000000000000000000000000000000000000000000000000000000000000000000000000000000055553445430000000000000000000000000000000000000000000000000000000"
        },
        {
          "transactionType": "CREATE",
          "contractName": "MockToken",
          "address": "0xffb4426405f279ac3381d26b9e85161e8773cbb7",
          "initCode": "0x60806040523461042d57610cac8038038061001981610431565b928339810160a08282031261042d5781516001600160401b03811161042d5781610044918401610456565b602083015190916001600160401b03821161042d57610064918401610456565b91604081015160ff8116810361042d5760608201516080909201516001600160a01b038116939084900361042d578051906001600160401b0382116103305760035490600182811c92168015610423575b60208310146103125781601f8493116103b5575b50602090601f831160011461034f575f92610344575b50508160011b915f199060031b1c1916176003555b83516001600160401b03811161033057600454600181811c91168015610326575b602082101461031257601f81116102af575b50602094601f821160011461024c579481929394955f92610241575b50508160011b915f199060031b1c1916176004555b821561022e57600554908390816001600160a01b0384167f8be0079c531659141344cd1fd0a4f28419497f9722a3daafe3b4186f6b6457e05f80a36001600160a81b03199092161760a09190911b60ff60a01b1617600555806101c5575b60405161080490816104a88239f35b6002549080820180921161021a5760207fddf252ad1be2c89b69c2b068fc378daa952ba7f163c4a11628f55a4df523b3ef915f9360025584845283825260408420818154019055604051908152a35f806101b6565b634e487b7160e01b5f52601160045260245ffd5b631e4fbdf760e01b5f525f60045260245ffd5b015190505f80610143565b601f1982169560045f52805f20915f5b8881106102975750836001959697981061027f575b505050811b01600455610158565b01515f1960f88460031b161c191690555f8080610271565b9192602060018192868501518155019401920161025c565b60045f527f8a35acfbc15ff81a39ae7d344fd709f28e8600b4aa8c65c6b64bfe7fe36bd19b601f830160051c81019160208410610308575b601f0160051c01905b8181106102fd5750610127565b5f81556001016102f0565b90915081906102e7565b634e487b7160e01b5f52602260045260245ffd5b90607f1690610115565b634e487b7160e01b5f52604160045260245ffd5b015190505f806100df565b60035f9081528281209350601f198516905b81811061039d5750908460019594939210610385575b505050811b016003556100f4565b01515f1960f88460031b161c191690555f8080610377565b92936020600181928786015181550195019301610361565b60035f529091507fc2575a0e9e593c00f959f8c92f12db2869c3395a3b0502d05e2516446f71f85b601f840160051c81019160208510610419575b90601f859493920160051c01905b81811061040b57506100c9565b5f81558493506001016103fe565b90915081906103f0565b91607f16916100b5565b5f80fd5b6040519190601f01601f191682016001600160401b0381118382101761033057604052565b81601f8201121561042d578051906001600160401b03821161033057610485601f8301601f1916602001610431565b928284526020838301011161042d57815f9260208093018386015e830101529056fe6080806040526004361015610012575f80fd5b5f3560e01c90816306fdde03146105d857508063095ea7b31461055657806318160ddd1461053957806323b872dd1461045a578063313ce5671461043757806340c10f191461038b57806370a0823114610354578063715018a6146102f95780638da5cb5b146102d157806395d89b41146101b6578063a9059cbb14610185578063dd62ed3e146101355763f2fde38b146100ab575f80fd5b34610131576020366003190112610131576100c46106d1565b6100cc6107a7565b6001600160a01b0316801561011e57600580546001600160a01b0319811683179091556001600160a01b03167f8be0079c531659141344cd1fd0a4f28419497f9722a3daafe3b4186f6b6457e05f80a3005b631e4fbdf760e01b5f525f60045260245ffd5b5f80fd5b346101315760403660031901126101315761014e6106d1565b6101566106e7565b6001600160a01b039182165f908152600160209081526040808320949093168252928352819020549051908152f35b34610131576040366003190112610131576101ab6101a16106d1565b60243590336106fd565b602060405160018152f35b34610131575f366003190112610131576040515f6004548060011c906001811680156102c7575b6020831081146102b3578285529081156102975750600114610242575b50819003601f01601f191681019067ffffffffffffffff82118183101761022e5761022a829182604052826106a7565b0390f35b634e487b7160e01b5f52604160045260245ffd5b905060045f527f8a35acfbc15ff81a39ae7d344fd709f28e8600b4aa8c65c6b64bfe7fe36bd19b5f905b828210610281575060209150820101826101fa565b600181602092548385880101520191019061026c565b90506020925060ff191682840152151560051b820101826101fa565b634e487b7160e01b5f52602260045260245ffd5b91607f16916101dd565b34610131575f366003190112610131576005546040516001600160a01b039091168152602090f35b34610131575f366003190112610131576103116107a7565b600580546001600160a01b031981169091555f906001600160a01b03167f8be0079c531659141344cd1fd0a4f28419497f9722a3daafe3b4186f6b6457e08280a3005b34610131576020366003190112610131576001600160a01b036103756106d1565b165f525f602052602060405f2054604051908152f35b34610131576040366003190112610131576103a46106d1565b602435906103b06107a7565b6001600160a01b031690811561042457600254908082018092116104105760207fddf252ad1be2c89b69c2b068fc378daa952ba7f163c4a11628f55a4df523b3ef915f9360025584845283825260408420818154019055604051908152a3005b634e487b7160e01b5f52601160045260245ffd5b63ec442f0560e01b5f525f60045260245ffd5b34610131575f36600319011261013157602060ff60055460a01c16604051908152f35b34610131576060366003190112610131576104736106d1565b61047b6106e7565b6001600160a01b0382165f818152600160209081526040808320338452909152902054909260443592915f1981106104b9575b506101ab93506106fd565b83811061051e57841561050b5733156104f8576101ab945f52600160205260405f2060018060a01b0333165f526020528360405f2091039055846104ae565b634a1406b160e11b5f525f60045260245ffd5b63e602df0560e01b5f525f60045260245ffd5b8390637dc7a0d960e11b5f523360045260245260445260645ffd5b34610131575f366003190112610131576020600254604051908152f35b346101315760403660031901126101315761056f6106d1565b60243590331561050b576001600160a01b03169081156104f857335f52600160205260405f20825f526020528060405f20556040519081527f8c5be1e5ebec7d5bd14f71427d1e84f3dd0314c0f7b2291e5b200ac8c7c3b92560203392a3602060405160018152f35b34610131575f366003190112610131575f6003548060011c9060018116801561069d575b6020831081146102b35782855290811561029757506001146106485750819003601f01601f191681019067ffffffffffffffff82118183101761022e5761022a829182604052826106a7565b905060035f527fc2575a0e9e593c00f959f8c92f12db2869c3395a3b0502d05e2516446f71f85b5f905b828210610687575060209150820101826101fa565b6001816020925483858801015201910190610672565b91607f16916105fc565b602060409281835280519182918282860152018484015e5f828201840152601f01601f1916010190565b600435906001600160a01b038216820361013157565b602435906001600160a01b038216820361013157565b6001600160a01b0316908115610794576001600160a01b031691821561042457815f525f60205260405f205481811061077b57817fddf252ad1be2c89b69c2b068fc378daa952ba7f163c4a11628f55a4df523b3ef92602092855f525f84520360405f2055845f525f825260405f20818154019055604051908152a3565b8263391434e360e21b5f5260045260245260445260645ffd5b634b637e8f60e11b5f525f60045260245ffd5b6005546001600160a01b031633036107bb57565b63118cdaa760e01b5f523360045260245ffdfea2646970667358221220f0f6fea99e0c5f75d4b53d44a379219baa09c5bb941f3984f30010e4952bd54a64736f6c634300081a003300000000000000000000000000000000000000000000000000000000000000a000000000000000000000000000000000000000000000000000000000000000e000000000000000000000000000000000000000000000000000000000000000060000000000000000000000000000000000000000000000000000000000000000000000000000000000000000f59da181591dbb122a894372c6e44cc079a7bb3f000000000000000000000000000000000000000000000000000000000000001150617950616c2055534420286d6f636b2900000000000000000000000000000000000000000000000000000000000000000000000000000000000000000000055059555344000000000000000000000000000000000000000000000000000000"
        },
        {
          "transactionType": "CREATE",
          "contractName": "MockToken",
          "address": "0x3ed754d50f8d43e7bfa45c7a3ca4ecf6d4bf8136",
          "initCode": "0x60806040523461042d57610cac8038038061001981610431565b928339810160a08282031261042d5781516001600160401b03811161042d5781610044918401610456565b602083015190916001600160401b03821161042d57610064918401610456565b91604081015160ff8116810361042d5760608201516080909201516001600160a01b038116939084900361042d578051906001600160401b0382116103305760035490600182811c92168015610423575b60208310146103125781601f8493116103b5575b50602090601f831160011461034f575f92610344575b50508160011b915f199060031b1c1916176003555b83516001600160401b03811161033057600454600181811c91168015610326575b602082101461031257601f81116102af575b50602094601f821160011461024c579481929394955f92610241575b50508160011b915f199060031b1c1916176004555b821561022e57600554908390816001600160a01b0384167f8be0079c531659141344cd1fd0a4f28419497f9722a3daafe3b4186f6b6457e05f80a36001600160a81b03199092161760a09190911b60ff60a01b1617600555806101c5575b60405161080490816104a88239f35b6002549080820180921161021a5760207fddf252ad1be2c89b69c2b068fc378daa952ba7f163c4a11628f55a4df523b3ef915f9360025584845283825260408420818154019055604051908152a35f806101b6565b634e487b7160e01b5f52601160045260245ffd5b631e4fbdf760e01b5f525f60045260245ffd5b015190505f80610143565b601f1982169560045f52805f20915f5b8881106102975750836001959697981061027f575b505050811b01600455610158565b01515f1960f88460031b161c191690555f8080610271565b9192602060018192868501518155019401920161025c565b60045f527f8a35acfbc15ff81a39ae7d344fd709f28e8600b4aa8c65c6b64bfe7fe36bd19b601f830160051c81019160208410610308575b601f0160051c01905b8181106102fd5750610127565b5f81556001016102f0565b90915081906102e7565b634e487b7160e01b5f52602260045260245ffd5b90607f1690610115565b634e487b7160e01b5f52604160045260245ffd5b015190505f806100df565b60035f9081528281209350601f198516905b81811061039d5750908460019594939210610385575b505050811b016003556100f4565b01515f1960f88460031b161c191690555f8080610377565b92936020600181928786015181550195019301610361565b60035f529091507fc2575a0e9e593c00f959f8c92f12db2869c3395a3b0502d05e2516446f71f85b601f840160051c81019160208510610419575b90601f859493920160051c01905b81811061040b57506100c9565b5f81558493506001016103fe565b90915081906103f0565b91607f16916100b5565b5f80fd5b6040519190601f01601f191682016001600160401b0381118382101761033057604052565b81601f8201121561042d578051906001600160401b03821161033057610485601f8301601f1916602001610431565b928284526020838301011161042d57815f9260208093018386015e830101529056fe6080806040526004361015610012575f80fd5b5f3560e01c90816306fdde03146105d857508063095ea7b31461055657806318160ddd1461053957806323b872dd1461045a578063313ce5671461043757806340c10f191461038b57806370a0823114610354578063715018a6146102f95780638da5cb5b146102d157806395d89b41146101b6578063a9059cbb14610185578063dd62ed3e146101355763f2fde38b146100ab575f80fd5b34610131576020366003190112610131576100c46106d1565b6100cc6107a7565b6001600160a01b0316801561011e57600580546001600160a01b0319811683179091556001600160a01b03167f8be0079c531659141344cd1fd0a4f28419497f9722a3daafe3b4186f6b6457e05f80a3005b631e4fbdf760e01b5f525f60045260245ffd5b5f80fd5b346101315760403660031901126101315761014e6106d1565b6101566106e7565b6001600160a01b039182165f908152600160209081526040808320949093168252928352819020549051908152f35b34610131576040366003190112610131576101ab6101a16106d1565b60243590336106fd565b602060405160018152f35b34610131575f366003190112610131576040515f6004548060011c906001811680156102c7575b6020831081146102b3578285529081156102975750600114610242575b50819003601f01601f191681019067ffffffffffffffff82118183101761022e5761022a829182604052826106a7565b0390f35b634e487b7160e01b5f52604160045260245ffd5b905060045f527f8a35acfbc15ff81a39ae7d344fd709f28e8600b4aa8c65c6b64bfe7fe36bd19b5f905b828210610281575060209150820101826101fa565b600181602092548385880101520191019061026c565b90506020925060ff191682840152151560051b820101826101fa565b634e487b7160e01b5f52602260045260245ffd5b91607f16916101dd565b34610131575f366003190112610131576005546040516001600160a01b039091168152602090f35b34610131575f366003190112610131576103116107a7565b600580546001600160a01b031981169091555f906001600160a01b03167f8be0079c531659141344cd1fd0a4f28419497f9722a3daafe3b4186f6b6457e08280a3005b34610131576020366003190112610131576001600160a01b036103756106d1565b165f525f602052602060405f2054604051908152f35b34610131576040366003190112610131576103a46106d1565b602435906103b06107a7565b6001600160a01b031690811561042457600254908082018092116104105760207fddf252ad1be2c89b69c2b068fc378daa952ba7f163c4a11628f55a4df523b3ef915f9360025584845283825260408420818154019055604051908152a3005b634e487b7160e01b5f52601160045260245ffd5b63ec442f0560e01b5f525f60045260245ffd5b34610131575f36600319011261013157602060ff60055460a01c16604051908152f35b34610131576060366003190112610131576104736106d1565b61047b6106e7565b6001600160a01b0382165f818152600160209081526040808320338452909152902054909260443592915f1981106104b9575b506101ab93506106fd565b83811061051e57841561050b5733156104f8576101ab945f52600160205260405f2060018060a01b0333165f526020528360405f2091039055846104ae565b634a1406b160e11b5f525f60045260245ffd5b63e602df0560e01b5f525f60045260245ffd5b8390637dc7a0d960e11b5f523360045260245260445260645ffd5b34610131575f366003190112610131576020600254604051908152f35b346101315760403660031901126101315761056f6106d1565b60243590331561050b576001600160a01b03169081156104f857335f52600160205260405f20825f526020528060405f20556040519081527f8c5be1e5ebec7d5bd14f71427d1e84f3dd0314c0f7b2291e5b200ac8c7c3b92560203392a3602060405160018152f35b34610131575f366003190112610131575f6003548060011c9060018116801561069d575b6020831081146102b35782855290811561029757506001146106485750819003601f01601f191681019067ffffffffffffffff82118183101761022e5761022a829182604052826106a7565b905060035f527fc2575a0e9e593c00f959f8c92f12db2869c3395a3b0502d05e2516446f71f85b5f905b828210610687575060209150820101826101fa565b6001816020925483858801015201910190610672565b91607f16916105fc565b602060409281835280519182918282860152018484015e5f828201840152601f01601f1916010190565b600435906001600160a01b038216820361013157565b602435906001600160a01b038216820361013157565b6001600160a01b0316908115610794576001600160a01b031691821561042457815f525f60205260405f205481811061077b57817fddf252ad1be2c89b69c2b068fc378daa952ba7f163c4a11628f55a4df523b3ef92602092855f525f84520360405f2055845f525f825260405f20818154019055604051908152a3565b8263391434e360e21b5f5260045260245260445260645ffd5b634b637e8f60e11b5f525f60045260245ffd5b6005546001600160a01b031633036107bb57565b63118cdaa760e01b5f523360045260245ffdfea2646970667358221220f0f6fea99e0c5f75d4b53d44a379219baa09c5bb941f3984f30010e4952bd54a64736f6c634300081a003300000000000000000000000000000000000000000000000000000000000000a000000000000000000000000000000000000000000000000000000000000000e000000000000000000000000000000000000000000000000000000000000000120000000000000000000000000000000000000000000000000000000000000000000000000000000000000000f59da181591dbb122a894372c6e44cc079a7bb3f000000000000000000000000000000000000000000000000000000000000000b5553446520286d6f636b2900000000000000000000000000000000000000000000000000000000000000000000000000000000000000000000000000000000045553446500000000000000000000000000000000000000000000000000000000"
        }
      ],
      "isFixedGasLimit": false
    },
    {
      "hash": "0xde858055a966ee112d5d59e53242e3a86aaa260a9592a6aaa9398f06da59c6b7",
      "transactionType": "CALL",
      "contractName": "MockToken",
      "contractAddress": "0xd240fb3ab54d20a12c2d17a533f2fd35bc6cb45c",
      "function": "transferOwnership(address)",
      "arguments": [
        "0xf59dA181591dbB122A894372C6E44cC079A7Bb3F"
      ],
      "transaction": {
        "from": "0xf59da181591dbb122a894372c6e44cc079a7bb3f",
        "to": "0xd240fb3ab54d20a12c2d17a533f2fd35bc6cb45c",
        "gas": "0x7032",
        "value": "0x0",
        "input": "0xf2fde38b000000000000000000000000f59da181591dbb122a894372c6e44cc079a7bb3f",
        "nonce": "0x16",
        "chainId": "0x66eee"
      },
      "additionalContracts": [],
      "isFixedGasLimit": false
    },
    {
      "hash": "0x2f91174de4ca1cb2ee28dc2d63567df909e9a8daf77731866a4a5388c223baa2",
      "transactionType": "CALL",
      "contractName": "MockToken",
      "contractAddress": "0x0a0549a2762281df13d0b74cb52dd6c1afc23f85",
      "function": "transferOwnership(address)",
      "arguments": [
        "0xf59dA181591dbB122A894372C6E44cC079A7Bb3F"
      ],
      "transaction": {
        "from": "0xf59da181591dbb122a894372c6e44cc079a7bb3f",
        "to": "0x0a0549a2762281df13d0b74cb52dd6c1afc23f85",
        "gas": "0x7032",
        "value": "0x0",
        "input": "0xf2fde38b000000000000000000000000f59da181591dbb122a894372c6e44cc079a7bb3f",
        "nonce": "0x17",
        "chainId": "0x66eee"
      },
      "additionalContracts": [],
      "isFixedGasLimit": false
    },
    {
      "hash": "0x43aa2cd8d59d86bd0d55c957c17d616ca2e798d6668acb0000f19c9ee3b6767a",
      "transactionType": "CALL",
      "contractName": "MockToken",
      "contractAddress": "0xffb4426405f279ac3381d26b9e85161e8773cbb7",
      "function": "transferOwnership(address)",
      "arguments": [
        "0xf59dA181591dbB122A894372C6E44cC079A7Bb3F"
      ],
      "transaction": {
        "from": "0xf59da181591dbb122a894372c6e44cc079a7bb3f",
        "to": "0xffb4426405f279ac3381d26b9e85161e8773cbb7",
        "gas": "0x7032",
        "value": "0x0",
        "input": "0xf2fde38b000000000000000000000000f59da181591dbb122a894372c6e44cc079a7bb3f",
        "nonce": "0x18",
        "chainId": "0x66eee"
      },
      "additionalContracts": [],
      "isFixedGasLimit": false
    },
    {
      "hash": "0xd7cf40fc727208fdb25c1515eb82688dae5e73e67325e1723e29ecef02721a1d",
      "transactionType": "CALL",
      "contractName": "MockToken",
      "contractAddress": "0x3ed754d50f8d43e7bfa45c7a3ca4ecf6d4bf8136",
      "function": "transferOwnership(address)",
      "arguments": [
        "0xf59dA181591dbB122A894372C6E44cC079A7Bb3F"
      ],
      "transaction": {
        "from": "0xf59da181591dbb122a894372c6e44cc079a7bb3f",
        "to": "0x3ed754d50f8d43e7bfa45c7a3ca4ecf6d4bf8136",
        "gas": "0x7032",
        "value": "0x0",
        "input": "0xf2fde38b000000000000000000000000f59da181591dbb122a894372c6e44cc079a7bb3f",
        "nonce": "0x19",
        "chainId": "0x66eee"
      },
      "additionalContracts": [],
      "isFixedGasLimit": false
    },
    {
      "hash": "0xbb072199e452f3b7fedc558692fd438be8a8f2dbf73310330ca4ee704c29718f",
      "transactionType": "CALL",
      "contractName": "MockToken",
      "contractAddress": "0xd240fb3ab54d20a12c2d17a533f2fd35bc6cb45c",
      "function": "mint(address,uint256)",
      "arguments": [
        "0xf59dA181591dbB122A894372C6E44cC079A7Bb3F",
        "100000000000"
      ],
      "transaction": {
        "from": "0xf59da181591dbb122a894372c6e44cc079a7bb3f",
        "to": "0xd240fb3ab54d20a12c2d17a533f2fd35bc6cb45c",
        "gas": "0x7270",
        "value": "0x0",
        "input": "0x40c10f19000000000000000000000000f59da181591dbb122a894372c6e44cc079a7bb3f000000000000000000000000000000000000000000000000000000174876e800",
        "nonce": "0x1a",
        "chainId": "0x66eee"
      },
      "additionalContracts": [],
      "isFixedGasLimit": false
    },
    {
      "hash": "0x211954cc45d153d3cca61e229acac8bd88ec052bf8aaefe7aff958c8008f5ad9",
      "transactionType": "CALL",
      "contractName": "MockToken",
      "contractAddress": "0xd240fb3ab54d20a12c2d17a533f2fd35bc6cb45c",
      "function": "mint(address,uint256)",
      "arguments": [
        "0x3173Ed1Ec423f5071045D861CaB532C2909fB4c0",
        "100000000000"
      ],
      "transaction": {
        "from": "0xf59da181591dbb122a894372c6e44cc079a7bb3f",
        "to": "0xd240fb3ab54d20a12c2d17a533f2fd35bc6cb45c",
        "gas": "0x7270",
        "value": "0x0",
        "input": "0x40c10f190000000000000000000000003173ed1ec423f5071045d861cab532c2909fb4c0000000000000000000000000000000000000000000000000000000174876e800",
        "nonce": "0x1b",
        "chainId": "0x66eee"
      },
      "additionalContracts": [],
      "isFixedGasLimit": false
    },
    {
      "hash": "0x2506ab43e19f287a26160772a8e7a22e2d276765038aaa2ecbe57cbc6d6e835d",
      "transactionType": "CALL",
      "contractName": "MockToken",
      "contractAddress": "0xd240fb3ab54d20a12c2d17a533f2fd35bc6cb45c",
      "function": "mint(address,uint256)",
      "arguments": [
        "0x806B7DE4adD0A154262Bae6A2ed08Ab4DEd757af",
        "100000000000"
      ],
      "transaction": {
        "from": "0xf59da181591dbb122a894372c6e44cc079a7bb3f",
        "to": "0xd240fb3ab54d20a12c2d17a533f2fd35bc6cb45c",
        "gas": "0x7270",
        "value": "0x0",
        "input": "0x40c10f19000000000000000000000000806b7de4add0a154262bae6a2ed08ab4ded757af000000000000000000000000000000000000000000000000000000174876e800",
        "nonce": "0x1c",
        "chainId": "0x66eee"
      },
      "additionalContracts": [],
      "isFixedGasLimit": false
    },
    {
      "hash": "0xdb0636e40367a3eb309bb681d2d2b29baf93abcff0b570a7aaaca6e7789fa77e",
      "transactionType": "CALL",
      "contractName": "MockToken",
      "contractAddress": "0x0a0549a2762281df13d0b74cb52dd6c1afc23f85",
      "function": "mint(address,uint256)",
      "arguments": [
        "0xf59dA181591dbB122A894372C6E44cC079A7Bb3F",
        "100000000000"
      ],
      "transaction": {
        "from": "0xf59da181591dbb122a894372c6e44cc079a7bb3f",
        "to": "0x0a0549a2762281df13d0b74cb52dd6c1afc23f85",
        "gas": "0x7270",
        "value": "0x0",
        "input": "0x40c10f19000000000000000000000000f59da181591dbb122a894372c6e44cc079a7bb3f000000000000000000000000000000000000000000000000000000174876e800",
        "nonce": "0x1d",
        "chainId": "0x66eee"
      },
      "additionalContracts": [],
      "isFixedGasLimit": false
    },
    {
      "hash": "0x67545425303e2ca7a656f4783b4fa8a6001c0f0265e6022e52fe41a2a97827ce",
      "transactionType": "CALL",
      "contractName": "MockToken",
      "contractAddress": "0x0a0549a2762281df13d0b74cb52dd6c1afc23f85",
      "function": "mint(address,uint256)",
      "arguments": [
        "0x3173Ed1Ec423f5071045D861CaB532C2909fB4c0",
        "100000000000"
      ],
      "transaction": {
        "from": "0xf59da181591dbb122a894372c6e44cc079a7bb3f",
        "to": "0x0a0549a2762281df13d0b74cb52dd6c1afc23f85",
        "gas": "0x7270",
        "value": "0x0",
        "input": "0x40c10f190000000000000000000000003173ed1ec423f5071045d861cab532c2909fb4c0000000000000000000000000000000000000000000000000000000174876e800",
        "nonce": "0x1e",
        "chainId": "0x66eee"
      },
      "additionalContracts": [],
      "isFixedGasLimit": false
    },
    {
      "hash": "0x0afb054e6621c5e2a4af493e50feff8d8e34729df025eb29672fbfe0f22f4ca4",
      "transactionType": "CALL",
      "contractName": "MockToken",
      "contractAddress": "0x0a0549a2762281df13d0b74cb52dd6c1afc23f85",
      "function": "mint(address,uint256)",
      "arguments": [
        "0x806B7DE4adD0A154262Bae6A2ed08Ab4DEd757af",
        "100000000000"
      ],
      "transaction": {
        "from": "0xf59da181591dbb122a894372c6e44cc079a7bb3f",
        "to": "0x0a0549a2762281df13d0b74cb52dd6c1afc23f85",
        "gas": "0x7270",
        "value": "0x0",
        "input": "0x40c10f19000000000000000000000000806b7de4add0a154262bae6a2ed08ab4ded757af000000000000000000000000000000000000000000000000000000174876e800",
        "nonce": "0x1f",
        "chainId": "0x66eee"
      },
      "additionalContracts": [],
      "isFixedGasLimit": false
    },
    {
      "hash": "0xd77c86b481aca91da6b2d6af25d2e4cab4a1b958e4bd4ca2f474d87725390ec9",
      "transactionType": "CALL",
      "contractName": "MockToken",
      "contractAddress": "0xffb4426405f279ac3381d26b9e85161e8773cbb7",
      "function": "mint(address,uint256)",
      "arguments": [
        "0xf59dA181591dbB122A894372C6E44cC079A7Bb3F",
        "100000000000"
      ],
      "transaction": {
        "from": "0xf59da181591dbb122a894372c6e44cc079a7bb3f",
        "to": "0xffb4426405f279ac3381d26b9e85161e8773cbb7",
        "gas": "0x7270",
        "value": "0x0",
        "input": "0x40c10f19000000000000000000000000f59da181591dbb122a894372c6e44cc079a7bb3f000000000000000000000000000000000000000000000000000000174876e800",
        "nonce": "0x20",
        "chainId": "0x66eee"
      },
      "additionalContracts": [],
      "isFixedGasLimit": false
    },
    {
      "hash": "0xdbba5fb8dcb0ee79b18d2ac3f332a1667fc063c87f79b146acb98adeb6fe8494",
      "transactionType": "CALL",
      "contractName": "MockToken",
      "contractAddress": "0xffb4426405f279ac3381d26b9e85161e8773cbb7",
      "function": "mint(address,uint256)",
      "arguments": [
        "0x3173Ed1Ec423f5071045D861CaB532C2909fB4c0",
        "100000000000"
      ],
      "transaction": {
        "from": "0xf59da181591dbb122a894372c6e44cc079a7bb3f",
        "to": "0xffb4426405f279ac3381d26b9e85161e8773cbb7",
        "gas": "0x7270",
        "value": "0x0",
        "input": "0x40c10f190000000000000000000000003173ed1ec423f5071045d861cab532c2909fb4c0000000000000000000000000000000000000000000000000000000174876e800",
        "nonce": "0x21",
        "chainId": "0x66eee"
      },
      "additionalContracts": [],
      "isFixedGasLimit": false
    },
    {
      "hash": "0x2dc972bab359277715d2b7506566fad12e579df46b0f1061396aeadeff0826e0",
      "transactionType": "CALL",
      "contractName": "MockToken",
      "contractAddress": "0xffb4426405f279ac3381d26b9e85161e8773cbb7",
      "function": "mint(address,uint256)",
      "arguments": [
        "0x806B7DE4adD0A154262Bae6A2ed08Ab4DEd757af",
        "100000000000"
      ],
      "transaction": {
        "from": "0xf59da181591dbb122a894372c6e44cc079a7bb3f",
        "to": "0xffb4426405f279ac3381d26b9e85161e8773cbb7",
        "gas": "0x7270",
        "value": "0x0",
        "input": "0x40c10f19000000000000000000000000806b7de4add0a154262bae6a2ed08ab4ded757af000000000000000000000000000000000000000000000000000000174876e800",
        "nonce": "0x22",
        "chainId": "0x66eee"
      },
      "additionalContracts": [],
      "isFixedGasLimit": false
    },
    {
      "hash": "0x9c0d2371f9d82ba81bcbfd0e2273077828c86da940c81d73553fdbea222c5bcd",
      "transactionType": "CALL",
      "contractName": "MockToken",
      "contractAddress": "0x3ed754d50f8d43e7bfa45c7a3ca4ecf6d4bf8136",
      "function": "mint(address,uint256)",
      "arguments": [
        "0xf59dA181591dbB122A894372C6E44cC079A7Bb3F",
        "100000000000000000000000"
      ],
      "transaction": {
        "from": "0xf59da181591dbb122a894372c6e44cc079a7bb3f",
        "to": "0x3ed754d50f8d43e7bfa45c7a3ca4ecf6d4bf8136",
        "gas": "0x72af",
        "value": "0x0",
        "input": "0x40c10f19000000000000000000000000f59da181591dbb122a894372c6e44cc079a7bb3f00000000000000000000000000000000000000000000152d02c7e14af6800000",
        "nonce": "0x23",
        "chainId": "0x66eee"
      },
      "additionalContracts": [],
      "isFixedGasLimit": false
    },
    {
      "hash": "0xc935b795d09c5a48e73e609feefc7358a6da9e80f3ecb7696e1099a1d6c4c7e3",
      "transactionType": "CALL",
      "contractName": "MockToken",
      "contractAddress": "0x3ed754d50f8d43e7bfa45c7a3ca4ecf6d4bf8136",
      "function": "mint(address,uint256)",
      "arguments": [
        "0x3173Ed1Ec423f5071045D861CaB532C2909fB4c0",
        "100000000000000000000000"
      ],
      "transaction": {
        "from": "0xf59da181591dbb122a894372c6e44cc079a7bb3f",
        "to": "0x3ed754d50f8d43e7bfa45c7a3ca4ecf6d4bf8136",
        "gas": "0x72af",
        "value": "0x0",
        "input": "0x40c10f190000000000000000000000003173ed1ec423f5071045d861cab532c2909fb4c000000000000000000000000000000000000000000000152d02c7e14af6800000",
        "nonce": "0x24",
        "chainId": "0x66eee"
      },
      "additionalContracts": [],
      "isFixedGasLimit": false
    },
    {
      "hash": "0x5fc173f91d898b916280e76719c85f8799af21ab661c861ea0ba984bc9d34e1e",
      "transactionType": "CALL",
      "contractName": "MockToken",
      "contractAddress": "0x3ed754d50f8d43e7bfa45c7a3ca4ecf6d4bf8136",
      "function": "mint(address,uint256)",
      "arguments": [
        "0x806B7DE4adD0A154262Bae6A2ed08Ab4DEd757af",
        "100000000000000000000000"
      ],
      "transaction": {
        "from": "0xf59da181591dbb122a894372c6e44cc079a7bb3f",
        "to": "0x3ed754d50f8d43e7bfa45c7a3ca4ecf6d4bf8136",
        "gas": "0x72af",
        "value": "0x0",
        "input": "0x40c10f19000000000000000000000000806b7de4add0a154262bae6a2ed08ab4ded757af00000000000000000000000000000000000000000000152d02c7e14af6800000",
        "nonce": "0x25",
        "chainId": "0x66eee"
      },
      "additionalContracts": [],
      "isFixedGasLimit": false
    },
    {
      "hash": "0x5770600f9a10fa2ea4bb8faf8046dd3c43f2b530ad6f82a51390ce68c84038de",
      "transactionType": "CALL",
      "contractName": "MockToken",
      "contractAddress": "0xd240fb3ab54d20a12c2d17a533f2fd35bc6cb45c",
      "function": "transferOwnership(address)",
      "arguments": [
        "0xf59dA181591dbB122A894372C6E44cC079A7Bb3F"
      ],
      "transaction": {
        "from": "0xf59da181591dbb122a894372c6e44cc079a7bb3f",
        "to": "0xd240fb3ab54d20a12c2d17a533f2fd35bc6cb45c",
        "gas": "0x7032",
        "value": "0x0",
        "input": "0xf2fde38b000000000000000000000000f59da181591dbb122a894372c6e44cc079a7bb3f",
        "nonce": "0x26",
        "chainId": "0x66eee"
      },
      "additionalContracts": [],
      "isFixedGasLimit": false
    },
    {
      "hash": "0xb314038e12b4ef6455553aa2005830a2a799829cd27a6a8a477c72448699116d",
      "transactionType": "CALL",
      "contractName": "MockToken",
      "contractAddress": "0x0a0549a2762281df13d0b74cb52dd6c1afc23f85",
      "function": "transferOwnership(address)",
      "arguments": [
        "0xf59dA181591dbB122A894372C6E44cC079A7Bb3F"
      ],
      "transaction": {
        "from": "0xf59da181591dbb122a894372c6e44cc079a7bb3f",
        "to": "0x0a0549a2762281df13d0b74cb52dd6c1afc23f85",
        "gas": "0x7032",
        "value": "0x0",
        "input": "0xf2fde38b000000000000000000000000f59da181591dbb122a894372c6e44cc079a7bb3f",
        "nonce": "0x27",
        "chainId": "0x66eee"
      },
      "additionalContracts": [],
      "isFixedGasLimit": false
    },
    {
      "hash": "0xd88f2d9eb3bcb4e11fefbc1282e766981e2311e2fe251cfc2c68d738248b746c",
      "transactionType": "CALL",
      "contractName": "MockToken",
      "contractAddress": "0xffb4426405f279ac3381d26b9e85161e8773cbb7",
      "function": "transferOwnership(address)",
      "arguments": [
        "0xf59dA181591dbB122A894372C6E44cC079A7Bb3F"
      ],
      "transaction": {
        "from": "0xf59da181591dbb122a894372c6e44cc079a7bb3f",
        "to": "0xffb4426405f279ac3381d26b9e85161e8773cbb7",
        "gas": "0x7032",
        "value": "0x0",
        "input": "0xf2fde38b000000000000000000000000f59da181591dbb122a894372c6e44cc079a7bb3f",
        "nonce": "0x28",
        "chainId": "0x66eee"
      },
      "additionalContracts": [],
      "isFixedGasLimit": false
    },
    {
      "hash": "0x3ac2833f1bc847502846157a9020f6eacb2c94d41cc15ce5717f32a39e6b3dbb",
      "transactionType": "CALL",
      "contractName": "MockToken",
      "contractAddress": "0x3ed754d50f8d43e7bfa45c7a3ca4ecf6d4bf8136",
      "function": "transferOwnership(address)",
      "arguments": [
        "0xf59dA181591dbB122A894372C6E44cC079A7Bb3F"
      ],
      "transaction": {
        "from": "0xf59da181591dbb122a894372c6e44cc079a7bb3f",
        "to": "0x3ed754d50f8d43e7bfa45c7a3ca4ecf6d4bf8136",
        "gas": "0x7032",
        "value": "0x0",
        "input": "0xf2fde38b000000000000000000000000f59da181591dbb122a894372c6e44cc079a7bb3f",
        "nonce": "0x29",
        "chainId": "0x66eee"
      },
      "additionalContracts": [],
      "isFixedGasLimit": false
    }
  ],
  "receipts": [
    {
      "status": "0x1",
      "cumulativeGasUsed": "0x257dd7",
      "logs": [
        {
          "address": "0xd240fb3ab54d20a12c2d17a533f2fd35bc6cb45c",
          "topics": [
            "0x8be0079c531659141344cd1fd0a4f28419497f9722a3daafe3b4186f6b6457e0",
            "0x0000000000000000000000000000000000000000000000000000000000000000",
            "0x000000000000000000000000f59da181591dbb122a894372c6e44cc079a7bb3f"
          ],
          "data": "0x",
          "blockHash": "0x6ea23f2f43b2445ab45afa88de31217795f704b5d411c1f100220a7cb6e1fab6",
          "blockNumber": "0xb01073b",
          "transactionHash": "0x75e2631cdefe36718c0123367016784adc486986557c87f3f26d0621b9a7f4bb",
          "transactionIndex": "0x2",
          "logIndex": "0x3",
          "removed": false
        },
        {
          "address": "0x0a0549a2762281df13d0b74cb52dd6c1afc23f85",
          "topics": [
            "0x8be0079c531659141344cd1fd0a4f28419497f9722a3daafe3b4186f6b6457e0",
            "0x0000000000000000000000000000000000000000000000000000000000000000",
            "0x000000000000000000000000f59da181591dbb122a894372c6e44cc079a7bb3f"
          ],
          "data": "0x",
          "blockHash": "0x6ea23f2f43b2445ab45afa88de31217795f704b5d411c1f100220a7cb6e1fab6",
          "blockNumber": "0xb01073b",
          "transactionHash": "0x75e2631cdefe36718c0123367016784adc486986557c87f3f26d0621b9a7f4bb",
          "transactionIndex": "0x2",
          "logIndex": "0x4",
          "removed": false
        },
        {
          "address": "0xffb4426405f279ac3381d26b9e85161e8773cbb7",
          "topics": [
            "0x8be0079c531659141344cd1fd0a4f28419497f9722a3daafe3b4186f6b6457e0",
            "0x0000000000000000000000000000000000000000000000000000000000000000",
            "0x000000000000000000000000f59da181591dbb122a894372c6e44cc079a7bb3f"
          ],
          "data": "0x",
          "blockHash": "0x6ea23f2f43b2445ab45afa88de31217795f704b5d411c1f100220a7cb6e1fab6",
          "blockNumber": "0xb01073b",
          "transactionHash": "0x75e2631cdefe36718c0123367016784adc486986557c87f3f26d0621b9a7f4bb",
          "transactionIndex": "0x2",
          "logIndex": "0x5",
          "removed": false
        },
        {
          "address": "0x3ed754d50f8d43e7bfa45c7a3ca4ecf6d4bf8136",
          "topics": [
            "0x8be0079c531659141344cd1fd0a4f28419497f9722a3daafe3b4186f6b6457e0",
            "0x0000000000000000000000000000000000000000000000000000000000000000",
            "0x000000000000000000000000f59da181591dbb122a894372c6e44cc079a7bb3f"
          ],
          "data": "0x",
          "blockHash": "0x6ea23f2f43b2445ab45afa88de31217795f704b5d411c1f100220a7cb6e1fab6",
          "blockNumber": "0xb01073b",
          "transactionHash": "0x75e2631cdefe36718c0123367016784adc486986557c87f3f26d0621b9a7f4bb",
          "transactionIndex": "0x2",
          "logIndex": "0x6",
          "removed": false
        },
        {
          "address": "0x9c4fcd96d0cc7d4613f18555b272d65b1de97e86",
          "topics": [
            "0xe9e6067a0dc26ccb3c9ba7ceede231475696ac1029fa2d8a52bcfe9feef8a5a4"
          ],
          "data": "0x000000000000000000000000d240fb3ab54d20a12c2d17a533f2fd35bc6cb45c0000000000000000000000000a0549a2762281df13d0b74cb52dd6c1afc23f85000000000000000000000000ffb4426405f279ac3381d26b9e85161e8773cbb70000000000000000000000003ed754d50f8d43e7bfa45c7a3ca4ecf6d4bf8136",
          "blockHash": "0x6ea23f2f43b2445ab45afa88de31217795f704b5d411c1f100220a7cb6e1fab6",
          "blockNumber": "0xb01073b",
          "transactionHash": "0x75e2631cdefe36718c0123367016784adc486986557c87f3f26d0621b9a7f4bb",
          "transactionIndex": "0x2",
          "logIndex": "0x7",
          "removed": false
        }
      ],
      "logsBloom": "0x00000000000000000000000000000000000000000000000000800000000400000040000000000002000000000000000000000000000000000000002000000002000000000100000000001000000000000001000240000000000008000000000000000000020000000000000000000800100000000000000000200000000200400000000000000000000000000000000000000000010020000000000000020000000000000000000000000000000000400000000000000000000000010000000000000000000800000000000000000000001000000000000000000000000020000000000000000000000000000000000000200000000000000000000000000000",
      "type": "0x2",
      "transactionHash": "0x75e2631cdefe36718c0123367016784adc486986557c87f3f26d0621b9a7f4bb",
      "transactionIndex": "0x2",
      "blockHash": "0x6ea23f2f43b2445ab45afa88de31217795f704b5d411c1f100220a7cb6e1fab6",
      "blockNumber": "0xb01073b",
      "gasUsed": "0x2388dd",
      "effectiveGasPrice": "0x5f5e100",
      "from": "0xf59da181591dbb122a894372c6e44cc079a7bb3f",
      "to": null,
      "contractAddress": "0x9c4fcd96d0cc7d4613f18555b272d65b1de97e86",
      "gasUsedForL1": "0x1ad3",
      "l1BlockNumber": "0x894b40",
      "timeboosted": false
    },
    {
      "status": "0x1",
      "cumulativeGasUsed": "0x668d",
      "logs": [
        {
          "address": "0xd240fb3ab54d20a12c2d17a533f2fd35bc6cb45c",
          "topics": [
            "0x8be0079c531659141344cd1fd0a4f28419497f9722a3daafe3b4186f6b6457e0",
            "0x000000000000000000000000f59da181591dbb122a894372c6e44cc079a7bb3f",
            "0x000000000000000000000000f59da181591dbb122a894372c6e44cc079a7bb3f"
          ],
          "data": "0x",
          "blockHash": "0xff61927121872349ba591d81d353d9ef49cf87b3e766913014669fd9d9486671",
          "blockNumber": "0xb01073e",
          "transactionHash": "0xde858055a966ee112d5d59e53242e3a86aaa260a9592a6aaa9398f06da59c6b7",
          "transactionIndex": "0x1",
          "logIndex": "0x0",
          "removed": false
        }
      ],
      "logsBloom": "0x00000000000000000000000000000000000000000000000000800000000000000000000000000002000000000000000000000000000000000000000000000002000000000000000000001000000000000001000040000000000000000000000000000000000000000000000000000000000000000000000000200000000000400000000000000000000000000000000000000000000000000000000000000000000000000000000000000000000000000000000000000000000000000000000000000000000800000000000000000000000000000000000000000000000000000000000000000000000000000000000000000000000000000000000000000000",
      "type": "0x2",
      "transactionHash": "0xde858055a966ee112d5d59e53242e3a86aaa260a9592a6aaa9398f06da59c6b7",
      "transactionIndex": "0x1",
      "blockHash": "0xff61927121872349ba591d81d353d9ef49cf87b3e766913014669fd9d9486671",
      "blockNumber": "0xb01073e",
      "gasUsed": "0x668d",
      "effectiveGasPrice": "0x5f5e100",
      "from": "0xf59da181591dbb122a894372c6e44cc079a7bb3f",
      "to": "0xd240fb3ab54d20a12c2d17a533f2fd35bc6cb45c",
      "contractAddress": null,
      "gasUsedForL1": "0x185",
      "l1BlockNumber": "0x894b40",
      "timeboosted": false
    },
    {
      "status": "0x1",
      "cumulativeGasUsed": "0x4bee8",
      "logs": [
        {
          "address": "0x0a0549a2762281df13d0b74cb52dd6c1afc23f85",
          "topics": [
            "0x8be0079c531659141344cd1fd0a4f28419497f9722a3daafe3b4186f6b6457e0",
            "0x000000000000000000000000f59da181591dbb122a894372c6e44cc079a7bb3f",
            "0x000000000000000000000000f59da181591dbb122a894372c6e44cc079a7bb3f"
          ],
          "data": "0x",
          "blockHash": "0x2cc69c966e9f4e1b6aa94be0d43edeb7fa4b9841cef810ac8de53e5fb269fdab",
          "blockNumber": "0xb010740",
          "transactionHash": "0x2f91174de4ca1cb2ee28dc2d63567df909e9a8daf77731866a4a5388c223baa2",
          "transactionIndex": "0x3",
          "logIndex": "0xc",
          "removed": false
        }
      ],
      "logsBloom": "0x00000000000000000000000000000000000000000000000000800000000000000040000000000002000000000000000000000000000000000000000000000000000000000100000000001000000000000001000000000000000000000000000000000000000000000000000000000000000000000000000000200000000000400000000000000000000000000000000000000000000000000000000000000000000000000000000000000000000000400000000000000000000000000000000000000000000000000000000000000000000000000000000000000000000000000000000000000000000000000000000000000000000000000000000000000000",
      "type": "0x2",
      "transactionHash": "0x2f91174de4ca1cb2ee28dc2d63567df909e9a8daf77731866a4a5388c223baa2",
      "transactionIndex": "0x3",
      "blockHash": "0x2cc69c966e9f4e1b6aa94be0d43edeb7fa4b9841cef810ac8de53e5fb269fdab",
      "blockNumber": "0xb010740",
      "gasUsed": "0x668d",
      "effectiveGasPrice": "0x5f5e100",
      "from": "0xf59da181591dbb122a894372c6e44cc079a7bb3f",
      "to": "0x0a0549a2762281df13d0b74cb52dd6c1afc23f85",
      "contractAddress": null,
      "gasUsedForL1": "0x185",
      "l1BlockNumber": "0x894b40",
      "timeboosted": false
    },
    {
      "status": "0x1",
      "cumulativeGasUsed": "0x32307",
      "logs": [
        {
          "address": "0xffb4426405f279ac3381d26b9e85161e8773cbb7",
          "topics": [
            "0x8be0079c531659141344cd1fd0a4f28419497f9722a3daafe3b4186f6b6457e0",
            "0x000000000000000000000000f59da181591dbb122a894372c6e44cc079a7bb3f",
            "0x000000000000000000000000f59da181591dbb122a894372c6e44cc079a7bb3f"
          ],
          "data": "0x",
          "blockHash": "0x63af5a0c8ce5f57895f92810b5d51b99cb31c1bafd5a9842c10e41a62ebe359e",
          "blockNumber": "0xb010743",
          "transactionHash": "0x43aa2cd8d59d86bd0d55c957c17d616ca2e798d6668acb0000f19c9ee3b6767a",
          "transactionIndex": "0x2",
          "logIndex": "0x8",
          "removed": false
        }
      ],
      "logsBloom": "0x00000000000000000000000000000000000000000000000000800000000000000000000000000002000000000000000000000000000000000000000000000000000000000000000000001000000000000001000000000000000008000000000000000000000000000000000000000000000000000000000000200000000000400000000000000000000000000000000000000000010020000000000000000000000000000000000000000000000000000000000000000000000000000000000000000000000000000000000000000000000000000000000000000000000000000000000000000000000000000000000000000000000000000000000000000000",
      "type": "0x2",
      "transactionHash": "0x43aa2cd8d59d86bd0d55c957c17d616ca2e798d6668acb0000f19c9ee3b6767a",
      "transactionIndex": "0x2",
      "blockHash": "0x63af5a0c8ce5f57895f92810b5d51b99cb31c1bafd5a9842c10e41a62ebe359e",
      "blockNumber": "0xb010743",
      "gasUsed": "0x668d",
      "effectiveGasPrice": "0x5f5e100",
      "from": "0xf59da181591dbb122a894372c6e44cc079a7bb3f",
      "to": "0xffb4426405f279ac3381d26b9e85161e8773cbb7",
      "contractAddress": null,
      "gasUsedForL1": "0x185",
      "l1BlockNumber": "0x894b40",
      "timeboosted": false
    },
    {
      "status": "0x1",
      "cumulativeGasUsed": "0x8dce4",
      "logs": [
        {
          "address": "0x3ed754d50f8d43e7bfa45c7a3ca4ecf6d4bf8136",
          "topics": [
            "0x8be0079c531659141344cd1fd0a4f28419497f9722a3daafe3b4186f6b6457e0",
            "0x000000000000000000000000f59da181591dbb122a894372c6e44cc079a7bb3f",
            "0x000000000000000000000000f59da181591dbb122a894372c6e44cc079a7bb3f"
          ],
          "data": "0x",
          "blockHash": "0x3c785cb73d5df12b7627e3d32add01b63481d7fa645cd3ef5441bbd5172fd89e",
          "blockNumber": "0xb010745",
          "transactionHash": "0xd7cf40fc727208fdb25c1515eb82688dae5e73e67325e1723e29ecef02721a1d",
          "transactionIndex": "0x5",
          "logIndex": "0xb",
          "removed": false
        }
      ],
      "logsBloom": "0x00000000000000000000000000000000000000000000000000800000000400000000000000000002000000000000000000000000000000000000000000000000000000000000000000001000000000000001000200000000000000000000000000000000000000000000000000000000000000000000000000200000000200400000000000000000000000000000000000000000000000000000000000000000000000000000000000000000000000000000000000000000000000000000000000000000000000000000000000000000000000000000000000000000000000000000000000000000000000000000000000000000000000000000000000000000",
      "type": "0x2",
      "transactionHash": "0xd7cf40fc727208fdb25c1515eb82688dae5e73e67325e1723e29ecef02721a1d",
      "transactionIndex": "0x5",
      "blockHash": "0x3c785cb73d5df12b7627e3d32add01b63481d7fa645cd3ef5441bbd5172fd89e",
      "blockNumber": "0xb010745",
      "gasUsed": "0x668d",
      "effectiveGasPrice": "0x5f5e100",
      "from": "0xf59da181591dbb122a894372c6e44cc079a7bb3f",
      "to": "0x3ed754d50f8d43e7bfa45c7a3ca4ecf6d4bf8136",
      "contractAddress": null,
      "gasUsedForL1": "0x185",
      "l1BlockNumber": "0x894b40",
      "timeboosted": false
    },
    {
      "status": "0x1",
      "cumulativeGasUsed": "0x11440",
      "logs": [
        {
          "address": "0xd240fb3ab54d20a12c2d17a533f2fd35bc6cb45c",
          "topics": [
            "0xddf252ad1be2c89b69c2b068fc378daa952ba7f163c4a11628f55a4df523b3ef",
            "0x0000000000000000000000000000000000000000000000000000000000000000",
            "0x000000000000000000000000f59da181591dbb122a894372c6e44cc079a7bb3f"
          ],
          "data": "0x000000000000000000000000000000000000000000000000000000174876e800",
          "blockHash": "0x16e72484a8a5cb28ec4bf5c56ef8bb71f5b7e9fa77ded76526693a6929e8cbec",
          "blockNumber": "0xb010749",
          "transactionHash": "0xbb072199e452f3b7fedc558692fd438be8a8f2dbf73310330ca4ee704c29718f",
          "transactionIndex": "0x1",
          "logIndex": "0x0",
          "removed": false
        }
      ],
      "logsBloom": "0x00000000000000000000000000000000000000000000000000000000000000000000000000000002000000000000000000000000000000000000000000000002000000000000000000001008000000000000000040000000000000000000000000000000020000000000000000000800000000000000000000200010000000000000000000000000000000000000000000000000000000000000000000000000000000000000000000000000000000000000000000000000000000000000000000000002000800000000000000000000000000000000000000000000000020000000000000000000000000000000000000000000000000000000000000000000",
      "type": "0x2",
      "transactionHash": "0xbb072199e452f3b7fedc558692fd438be8a8f2dbf73310330ca4ee704c29718f",
      "transactionIndex": "0x1",
      "blockHash": "0x16e72484a8a5cb28ec4bf5c56ef8bb71f5b7e9fa77ded76526693a6929e8cbec",
      "blockNumber": "0xb010749",
      "gasUsed": "0x11440",
      "effectiveGasPrice": "0x5f5e100",
      "from": "0xf59da181591dbb122a894372c6e44cc079a7bb3f",
      "to": "0xd240fb3ab54d20a12c2d17a533f2fd35bc6cb45c",
      "contractAddress": null,
      "gasUsedForL1": "0x1de",
      "l1BlockNumber": "0x894b40",
      "timeboosted": false
    },
    {
      "status": "0x1",
      "cumulativeGasUsed": "0xd174",
      "logs": [
        {
          "address": "0xd240fb3ab54d20a12c2d17a533f2fd35bc6cb45c",
          "topics": [
            "0xddf252ad1be2c89b69c2b068fc378daa952ba7f163c4a11628f55a4df523b3ef",
            "0x0000000000000000000000000000000000000000000000000000000000000000",
            "0x0000000000000000000000003173ed1ec423f5071045d861cab532c2909fb4c0"
          ],
          "data": "0x000000000000000000000000000000000000000000000000000000174876e800",
          "blockHash": "0x496f3a4c1afa03d1e4de25bfe84ace67ff2240de13e4b8664a767c96c3e7bd91",
          "blockNumber": "0xb01074d",
          "transactionHash": "0x211954cc45d153d3cca61e229acac8bd88ec052bf8aaefe7aff958c8008f5ad9",
          "transactionIndex": "0x1",
          "logIndex": "0x0",
          "removed": false
        }
      ],
      "logsBloom": "0x00000000000000000000000000000000000000000000000001000000000000000000000000000000000000000000000000000000000000000000000000000002000000000000000000000008000000000000000040000000000001000000000000000000020000000000000000000800000000800000000000000010000000000000000000000000000000000000000000000000000000000000000000000000000000000000000000000000000000000000000000000000000000000000000000000002000800000000000000000000000000000000000000000000000020000000000000000000000000000000000000000000000000000000000000000000",
      "type": "0x2",
      "transactionHash": "0x211954cc45d153d3cca61e229acac8bd88ec052bf8aaefe7aff958c8008f5ad9",
      "transactionIndex": "0x1",
      "blockHash": "0x496f3a4c1afa03d1e4de25bfe84ace67ff2240de13e4b8664a767c96c3e7bd91",
      "blockNumber": "0xb01074d",
      "gasUsed": "0xd174",
      "effectiveGasPrice": "0x5f5e100",
      "from": "0xf59da181591dbb122a894372c6e44cc079a7bb3f",
      "to": "0xd240fb3ab54d20a12c2d17a533f2fd35bc6cb45c",
      "contractAddress": null,
      "gasUsedForL1": "0x1de",
      "l1BlockNumber": "0x894b40",
      "timeboosted": false
    },
    {
      "status": "0x1",
      "cumulativeGasUsed": "0x30f64",
      "logs": [
        {
          "address": "0xd240fb3ab54d20a12c2d17a533f2fd35bc6cb45c",
          "topics": [
            "0xddf252ad1be2c89b69c2b068fc378daa952ba7f163c4a11628f55a4df523b3ef",
            "0x0000000000000000000000000000000000000000000000000000000000000000",
            "0x000000000000000000000000806b7de4add0a154262bae6a2ed08ab4ded757af"
          ],
          "data": "0x000000000000000000000000000000000000000000000000000000174876e800",
          "blockHash": "0xef39350a61ff8c74ae6273512aad27ff3a3b40b966c49d371c7aa096a02d32c7",
          "blockNumber": "0xb010750",
          "transactionHash": "0x2506ab43e19f287a26160772a8e7a22e2d276765038aaa2ecbe57cbc6d6e835d",
          "transactionIndex": "0x2",
          "logIndex": "0x5",
          "removed": false
        }
      ],
      "logsBloom": "0x00000000000000000000000000000000000000000000000000000000000000000000001000000000000000000000000000000000000000000000000000000002000000000000010000000008000000000000000040000000000000000000000000000000020000000000000000000800000000000000001000000010000000000000000000000000000000000000000000000000000000000000000000000000000000000000000000000000000000000000000000000000000000000000000000000002000800000000000000000000000000000000000000000000000020000000000000000000000000000000000000000000000000000000000000000000",
      "type": "0x2",
      "transactionHash": "0x2506ab43e19f287a26160772a8e7a22e2d276765038aaa2ecbe57cbc6d6e835d",
      "transactionIndex": "0x2",
      "blockHash": "0xef39350a61ff8c74ae6273512aad27ff3a3b40b966c49d371c7aa096a02d32c7",
      "blockNumber": "0xb010750",
      "gasUsed": "0xd174",
      "effectiveGasPrice": "0x5f5e100",
      "from": "0xf59da181591dbb122a894372c6e44cc079a7bb3f",
      "to": "0xd240fb3ab54d20a12c2d17a533f2fd35bc6cb45c",
      "contractAddress": null,
      "gasUsedForL1": "0x1de",
      "l1BlockNumber": "0x894b40",
      "timeboosted": false
    },
    {
      "status": "0x1",
      "cumulativeGasUsed": "0xe393f",
      "logs": [
        {
          "address": "0x0a0549a2762281df13d0b74cb52dd6c1afc23f85",
          "topics": [
            "0xddf252ad1be2c89b69c2b068fc378daa952ba7f163c4a11628f55a4df523b3ef",
            "0x0000000000000000000000000000000000000000000000000000000000000000",
            "0x000000000000000000000000f59da181591dbb122a894372c6e44cc079a7bb3f"
          ],
          "data": "0x000000000000000000000000000000000000000000000000000000174876e800",
          "blockHash": "0x8b2381974d6da1c772dbcfdb5c53d6449b469141e7c5c084724cefc5c27e5159",
          "blockNumber": "0xb010752",
          "transactionHash": "0xdb0636e40367a3eb309bb681d2d2b29baf93abcff0b570a7aaaca6e7789fa77e",
          "transactionIndex": "0x5",
          "logIndex": "0xf",
          "removed": false
        }
      ],
      "logsBloom": "0x00000000000000000000000000000000000000000000000000000000000000000040000000000002000000000000000000000000000000000000000000000000000000000100000000001008000000000000000000000000000000000000000000000000020000000000000000000800000000000000000000200010000000000000000000000000000000000000000000000000000000000000000000000000000000000000000000000000000000400000000000000000000000000000000000000002000000000000000000000000000000000000000000000000000020000000000000000000000000000000000000000000000000000000000000000000",
      "type": "0x2",
      "transactionHash": "0xdb0636e40367a3eb309bb681d2d2b29baf93abcff0b570a7aaaca6e7789fa77e",
      "transactionIndex": "0x5",
      "blockHash": "0x8b2381974d6da1c772dbcfdb5c53d6449b469141e7c5c084724cefc5c27e5159",
      "blockNumber": "0xb010752",
      "gasUsed": "0x11440",
      "effectiveGasPrice": "0x5f5e100",
      "from": "0xf59da181591dbb122a894372c6e44cc079a7bb3f",
      "to": "0x0a0549a2762281df13d0b74cb52dd6c1afc23f85",
      "contractAddress": null,
      "gasUsedForL1": "0x1de",
      "l1BlockNumber": "0x894b40",
      "timeboosted": false
    },
    {
      "status": "0x1",
      "cumulativeGasUsed": "0xd174",
      "logs": [
        {
          "address": "0x0a0549a2762281df13d0b74cb52dd6c1afc23f85",
          "topics": [
            "0xddf252ad1be2c89b69c2b068fc378daa952ba7f163c4a11628f55a4df523b3ef",
            "0x0000000000000000000000000000000000000000000000000000000000000000",
            "0x0000000000000000000000003173ed1ec423f5071045d861cab532c2909fb4c0"
          ],
          "data": "0x000000000000000000000000000000000000000000000000000000174876e800",
          "blockHash": "0x78e1250da2ecd6e438e35072fa097e08122c404cd168582d1e5a27b44b3b9198",
          "blockNumber": "0xb010755",
          "transactionHash": "0x67545425303e2ca7a656f4783b4fa8a6001c0f0265e6022e52fe41a2a97827ce",
          "transactionIndex": "0x1",
          "logIndex": "0x0",
          "removed": false
        }
      ],
      "logsBloom": "0x00000000000000000000000000000000000000000000000001000000000000000040000000000000000000000000000000000000000000000000000000000000000000000100000000000008000000000000000000000000000001000000000000000000020000000000000000000800000000800000000000000010000000000000000000000000000000000000000000000000000000000000000000000000000000000000000000000000000000400000000000000000000000000000000000000002000000000000000000000000000000000000000000000000000020000000000000000000000000000000000000000000000000000000000000000000",
      "type": "0x2",
      "transactionHash": "0x67545425303e2ca7a656f4783b4fa8a6001c0f0265e6022e52fe41a2a97827ce",
      "transactionIndex": "0x1",
      "blockHash": "0x78e1250da2ecd6e438e35072fa097e08122c404cd168582d1e5a27b44b3b9198",
      "blockNumber": "0xb010755",
      "gasUsed": "0xd174",
      "effectiveGasPrice": "0x5f5e100",
      "from": "0xf59da181591dbb122a894372c6e44cc079a7bb3f",
      "to": "0x0a0549a2762281df13d0b74cb52dd6c1afc23f85",
      "contractAddress": null,
      "gasUsedForL1": "0x1de",
      "l1BlockNumber": "0x894b40",
      "timeboosted": false
    },
    {
      "status": "0x1",
      "cumulativeGasUsed": "0xd174",
      "logs": [
        {
          "address": "0x0a0549a2762281df13d0b74cb52dd6c1afc23f85",
          "topics": [
            "0xddf252ad1be2c89b69c2b068fc378daa952ba7f163c4a11628f55a4df523b3ef",
            "0x0000000000000000000000000000000000000000000000000000000000000000",
            "0x000000000000000000000000806b7de4add0a154262bae6a2ed08ab4ded757af"
          ],
          "data": "0x000000000000000000000000000000000000000000000000000000174876e800",
          "blockHash": "0xd86fbf4aa8b26ab3c53f31b28c3a56d1be0e92745cee0775b5af11e1642260dc",
          "blockNumber": "0xb010758",
          "transactionHash": "0x0afb054e6621c5e2a4af493e50feff8d8e34729df025eb29672fbfe0f22f4ca4",
          "transactionIndex": "0x1",
          "logIndex": "0x0",
          "removed": false
        }
      ],
      "logsBloom": "0x00000000000000000000000000000000000000000000000000000000000000000040001000000000000000000000000000000000000000000000000000000000000000000100010000000008000000000000000000000000000000000000000000000000020000000000000000000800000000000000001000000010000000000000000000000000000000000000000000000000000000000000000000000000000000000000000000000000000000400000000000000000000000000000000000000002000000000000000000000000000000000000000000000000000020000000000000000000000000000000000000000000000000000000000000000000",
      "type": "0x2",
      "transactionHash": "0x0afb054e6621c5e2a4af493e50feff8d8e34729df025eb29672fbfe0f22f4ca4",
      "transactionIndex": "0x1",
      "blockHash": "0xd86fbf4aa8b26ab3c53f31b28c3a56d1be0e92745cee0775b5af11e1642260dc",
      "blockNumber": "0xb010758",
      "gasUsed": "0xd174",
      "effectiveGasPrice": "0x5f5e100",
      "from": "0xf59da181591dbb122a894372c6e44cc079a7bb3f",
      "to": "0x0a0549a2762281df13d0b74cb52dd6c1afc23f85",
      "contractAddress": null,
      "gasUsedForL1": "0x1de",
      "l1BlockNumber": "0x894b42",
      "timeboosted": false
    },
    {
      "status": "0x1",
      "cumulativeGasUsed": "0x310ba",
      "logs": [
        {
          "address": "0xffb4426405f279ac3381d26b9e85161e8773cbb7",
          "topics": [
            "0xddf252ad1be2c89b69c2b068fc378daa952ba7f163c4a11628f55a4df523b3ef",
            "0x0000000000000000000000000000000000000000000000000000000000000000",
            "0x000000000000000000000000f59da181591dbb122a894372c6e44cc079a7bb3f"
          ],
          "data": "0x000000000000000000000000000000000000000000000000000000174876e800",
          "blockHash": "0xce4ce5147c7ac63eecd13664cfeb1131355d2162bc56b7003bb1bdd90bbfa9d3",
          "blockNumber": "0xb01075b",
          "transactionHash": "0xd77c86b481aca91da6b2d6af25d2e4cab4a1b958e4bd4ca2f474d87725390ec9",
          "transactionIndex": "0x2",
          "logIndex": "0x3",
          "removed": false
        }
      ],
      "logsBloom": "0x00000000000000000000000000000000000000000000000000000000000000000000000000000002000000000000000000000000000000000000000000000000000000000000000000001008000000000000000000000000000008000000000000000000020000000000000000000800000000000000000000200010000000000000000000000000000000000000000000000000010020000000000000000000000000000000000000000000000000000000000000000000000000000000000000000002000000000000000000000000000000000000000000000000000020000000000000000000000000000000000000000000000000000000000000000000",
      "type": "0x2",
      "transactionHash": "0xd77c86b481aca91da6b2d6af25d2e4cab4a1b958e4bd4ca2f474d87725390ec9",
      "transactionIndex": "0x2",
      "blockHash": "0xce4ce5147c7ac63eecd13664cfeb1131355d2162bc56b7003bb1bdd90bbfa9d3",
      "blockNumber": "0xb01075b",
      "gasUsed": "0x11440",
      "effectiveGasPrice": "0x5f5e100",
      "from": "0xf59da181591dbb122a894372c6e44cc079a7bb3f",
      "to": "0xffb4426405f279ac3381d26b9e85161e8773cbb7",
      "contractAddress": null,
      "gasUsedForL1": "0x1de",
      "l1BlockNumber": "0x894b42",
      "timeboosted": false
    },
    {
      "status": "0x1",
      "cumulativeGasUsed": "0x2c139",
      "logs": [
        {
          "address": "0xffb4426405f279ac3381d26b9e85161e8773cbb7",
          "topics": [
            "0xddf252ad1be2c89b69c2b068fc378daa952ba7f163c4a11628f55a4df523b3ef",
            "0x0000000000000000000000000000000000000000000000000000000000000000",
            "0x0000000000000000000000003173ed1ec423f5071045d861cab532c2909fb4c0"
          ],
          "data": "0x000000000000000000000000000000000000000000000000000000174876e800",
          "blockHash": "0x3739b29422a8a4fee7f33f5fc747c4beb3463eae9421af7043d84fb053c4c3e1",
          "blockNumber": "0xb01075f",
          "transactionHash": "0xdbba5fb8dcb0ee79b18d2ac3f332a1667fc063c87f79b146acb98adeb6fe8494",
          "transactionIndex": "0x2",
          "logIndex": "0x3",
          "removed": false
        }
      ],
      "logsBloom": "0x00000000000000000000000000000000000000000000000001000000000000000000000000000000000000000000000000000000000000000000000000000000000000000000000000000008000000000000000000000000000009000000000000000000020000000000000000000800000000800000000000000010000000000000000000000000000000000000000000000000010020000000000000000000000000000000000000000000000000000000000000000000000000000000000000000002000000000000000000000000000000000000000000000000000020000000000000000000000000000000000000000000000000000000000000000000",
      "type": "0x2",
      "transactionHash": "0xdbba5fb8dcb0ee79b18d2ac3f332a1667fc063c87f79b146acb98adeb6fe8494",
      "transactionIndex": "0x2",
      "blockHash": "0x3739b29422a8a4fee7f33f5fc747c4beb3463eae9421af7043d84fb053c4c3e1",
      "blockNumber": "0xb01075f",
      "gasUsed": "0xd174",
      "effectiveGasPrice": "0x5f5e100",
      "from": "0xf59da181591dbb122a894372c6e44cc079a7bb3f",
      "to": "0xffb4426405f279ac3381d26b9e85161e8773cbb7",
      "contractAddress": null,
      "gasUsedForL1": "0x1de",
      "l1BlockNumber": "0x894b42",
      "timeboosted": false
    },
    {
      "status": "0x1",
      "cumulativeGasUsed": "0xd174",
      "logs": [
        {
          "address": "0xffb4426405f279ac3381d26b9e85161e8773cbb7",
          "topics": [
            "0xddf252ad1be2c89b69c2b068fc378daa952ba7f163c4a11628f55a4df523b3ef",
            "0x0000000000000000000000000000000000000000000000000000000000000000",
            "0x000000000000000000000000806b7de4add0a154262bae6a2ed08ab4ded757af"
          ],
          "data": "0x000000000000000000000000000000000000000000000000000000174876e800",
          "blockHash": "0xed1c7504b1afc7e48ab7fbd426cdf1a5f71ffdcc0940e48a0afa9c3f2e7c2aa4",
          "blockNumber": "0xb010762",
          "transactionHash": "0x2dc972bab359277715d2b7506566fad12e579df46b0f1061396aeadeff0826e0",
          "transactionIndex": "0x1",
          "logIndex": "0x0",
          "removed": false
        }
      ],
      "logsBloom": "0x00000000000000000000000000000000000000000000000000000000000000000000001000000000000000000000000000000000000000000000000000000000000000000000010000000008000000000000000000000000000008000000000000000000020000000000000000000800000000000000001000000010000000000000000000000000000000000000000000000000010020000000000000000000000000000000000000000000000000000000000000000000000000000000000000000002000000000000000000000000000000000000000000000000000020000000000000000000000000000000000000000000000000000000000000000000",
      "type": "0x2",
      "transactionHash": "0x2dc972bab359277715d2b7506566fad12e579df46b0f1061396aeadeff0826e0",
      "transactionIndex": "0x1",
      "blockHash": "0xed1c7504b1afc7e48ab7fbd426cdf1a5f71ffdcc0940e48a0afa9c3f2e7c2aa4",
      "blockNumber": "0xb010762",
      "gasUsed": "0xd174",
      "effectiveGasPrice": "0x5f5e100",
      "from": "0xf59da181591dbb122a894372c6e44cc079a7bb3f",
      "to": "0xffb4426405f279ac3381d26b9e85161e8773cbb7",
      "contractAddress": null,
      "gasUsedForL1": "0x1de",
      "l1BlockNumber": "0x894b42",
      "timeboosted": false
    },
    {
      "status": "0x1",
      "cumulativeGasUsed": "0x72065",
      "logs": [
        {
          "address": "0x3ed754d50f8d43e7bfa45c7a3ca4ecf6d4bf8136",
          "topics": [
            "0xddf252ad1be2c89b69c2b068fc378daa952ba7f163c4a11628f55a4df523b3ef",
            "0x0000000000000000000000000000000000000000000000000000000000000000",
            "0x000000000000000000000000f59da181591dbb122a894372c6e44cc079a7bb3f"
          ],
          "data": "0x00000000000000000000000000000000000000000000152d02c7e14af6800000",
          "blockHash": "0x4d414912631b590aa318020238ad766c167326d0a68d024fdb327e4b84951972",
          "blockNumber": "0xb010765",
          "transactionHash": "0x9c0d2371f9d82ba81bcbfd0e2273077828c86da940c81d73553fdbea222c5bcd",
          "transactionIndex": "0x3",
          "logIndex": "0xe",
          "removed": false
        }
      ],
      "logsBloom": "0x00000000000000000000000000000000000000000000000000000000000400000000000000000002000000000000000000000000000000000000000000000000000000000000000000001008000000000000000200000000000000000000000000000000020000000000000000000800000000000000000000200010000200000000000000000000000000000000000000000000000000000000000000000000000000000000000000000000000000000000000000000000000000000000000000000002000000000000000000000000000000000000000000000000000020000000000000000000000000000000000000000000000000000000000000000000",
      "type": "0x2",
      "transactionHash": "0x9c0d2371f9d82ba81bcbfd0e2273077828c86da940c81d73553fdbea222c5bcd",
      "transactionIndex": "0x3",
      "blockHash": "0x4d414912631b590aa318020238ad766c167326d0a68d024fdb327e4b84951972",
      "blockNumber": "0xb010765",
      "gasUsed": "0x11470",
      "effectiveGasPrice": "0x5f5e100",
      "from": "0xf59da181591dbb122a894372c6e44cc079a7bb3f",
      "to": "0x3ed754d50f8d43e7bfa45c7a3ca4ecf6d4bf8136",
      "contractAddress": null,
      "gasUsedForL1": "0x1de",
      "l1BlockNumber": "0x894b42",
      "timeboosted": false
    },
    {
      "status": "0x1",
      "cumulativeGasUsed": "0xd1a4",
      "logs": [
        {
          "address": "0x3ed754d50f8d43e7bfa45c7a3ca4ecf6d4bf8136",
          "topics": [
            "0xddf252ad1be2c89b69c2b068fc378daa952ba7f163c4a11628f55a4df523b3ef",
            "0x0000000000000000000000000000000000000000000000000000000000000000",
            "0x0000000000000000000000003173ed1ec423f5071045d861cab532c2909fb4c0"
          ],
          "data": "0x00000000000000000000000000000000000000000000152d02c7e14af6800000",
          "blockHash": "0x37cf4b7226086ccc93708db58c5e6d39a6a9f981bd31b1679929ea5d17f338ef",
          "blockNumber": "0xb010768",
          "transactionHash": "0xc935b795d09c5a48e73e609feefc7358a6da9e80f3ecb7696e1099a1d6c4c7e3",
          "transactionIndex": "0x1",
          "logIndex": "0x0",
          "removed": false
        }
      ],
      "logsBloom": "0x00000000000000000000000000000000000000000000000001000000000400000000000000000000000000000000000000000000000000000000000000000000000000000000000000000008000000000000000200000000000001000000000000000000020000000000000000000800000000800000000000000010000200000000000000000000000000000000000000000000000000000000000000000000000000000000000000000000000000000000000000000000000000000000000000000002000000000000000000000000000000000000000000000000000020000000000000000000000000000000000000000000000000000000000000000000",
      "type": "0x2",
      "transactionHash": "0xc935b795d09c5a48e73e609feefc7358a6da9e80f3ecb7696e1099a1d6c4c7e3",
      "transactionIndex": "0x1",
      "blockHash": "0x37cf4b7226086ccc93708db58c5e6d39a6a9f981bd31b1679929ea5d17f338ef",
      "blockNumber": "0xb010768",
      "gasUsed": "0xd1a4",
      "effectiveGasPrice": "0x5f5e100",
      "from": "0xf59da181591dbb122a894372c6e44cc079a7bb3f",
      "to": "0x3ed754d50f8d43e7bfa45c7a3ca4ecf6d4bf8136",
      "contractAddress": null,
      "gasUsedForL1": "0x1de",
      "l1BlockNumber": "0x894b42",
      "timeboosted": false
    },
    {
      "status": "0x1",
      "cumulativeGasUsed": "0x2f5c3",
      "logs": [
        {
          "address": "0x3ed754d50f8d43e7bfa45c7a3ca4ecf6d4bf8136",
          "topics": [
            "0xddf252ad1be2c89b69c2b068fc378daa952ba7f163c4a11628f55a4df523b3ef",
            "0x0000000000000000000000000000000000000000000000000000000000000000",
            "0x000000000000000000000000806b7de4add0a154262bae6a2ed08ab4ded757af"
          ],
          "data": "0x00000000000000000000000000000000000000000000152d02c7e14af6800000",
          "blockHash": "0xac3a3d14c36bc3d78c69e2bf4036b71b7bd1c4d5c5313d0a1bea898c4909937e",
          "blockNumber": "0xb01076b",
          "transactionHash": "0x5fc173f91d898b916280e76719c85f8799af21ab661c861ea0ba984bc9d34e1e",
          "transactionIndex": "0x2",
          "logIndex": "0x2",
          "removed": false
        }
      ],
      "logsBloom": "0x00000000000000000000000000000000000000000000000000000000000400000000001000000000000000000000000000000000000000000000000000000000000000000000010000000008000000000000000200000000000000000000000000000000020000000000000000000800000000000000001000000010000200000000000000000000000000000000000000000000000000000000000000000000000000000000000000000000000000000000000000000000000000000000000000000002000000000000000000000000000000000000000000000000000020000000000000000000000000000000000000000000000000000000000000000000",
      "type": "0x2",
      "transactionHash": "0x5fc173f91d898b916280e76719c85f8799af21ab661c861ea0ba984bc9d34e1e",
      "transactionIndex": "0x2",
      "blockHash": "0xac3a3d14c36bc3d78c69e2bf4036b71b7bd1c4d5c5313d0a1bea898c4909937e",
      "blockNumber": "0xb01076b",
      "gasUsed": "0xd1a4",
      "effectiveGasPrice": "0x5f5e100",
      "from": "0xf59da181591dbb122a894372c6e44cc079a7bb3f",
      "to": "0x3ed754d50f8d43e7bfa45c7a3ca4ecf6d4bf8136",
      "contractAddress": null,
      "gasUsedForL1": "0x1de",
      "l1BlockNumber": "0x894b42",
      "timeboosted": false
    },
    {
      "status": "0x1",
      "cumulativeGasUsed": "0x11fcf",
      "logs": [
        {
          "address": "0xd240fb3ab54d20a12c2d17a533f2fd35bc6cb45c",
          "topics": [
            "0x8be0079c531659141344cd1fd0a4f28419497f9722a3daafe3b4186f6b6457e0",
            "0x000000000000000000000000f59da181591dbb122a894372c6e44cc079a7bb3f",
            "0x000000000000000000000000f59da181591dbb122a894372c6e44cc079a7bb3f"
          ],
          "data": "0x",
          "blockHash": "0x062574ece34ee52e0cc6106a82f761b8fa574318b730fef4a0e815200d52f8f8",
          "blockNumber": "0xb01076e",
          "transactionHash": "0x5770600f9a10fa2ea4bb8faf8046dd3c43f2b530ad6f82a51390ce68c84038de",
          "transactionIndex": "0x2",
          "logIndex": "0x1",
          "removed": false
        }
      ],
      "logsBloom": "0x00000000000000000000000000000000000000000000000000800000000000000000000000000002000000000000000000000000000000000000000000000002000000000000000000001000000000000001000040000000000000000000000000000000000000000000000000000000000000000000000000200000000000400000000000000000000000000000000000000000000000000000000000000000000000000000000000000000000000000000000000000000000000000000000000000000000800000000000000000000000000000000000000000000000000000000000000000000000000000000000000000000000000000000000000000000",
      "type": "0x2",
      "transactionHash": "0x5770600f9a10fa2ea4bb8faf8046dd3c43f2b530ad6f82a51390ce68c84038de",
      "transactionIndex": "0x2",
      "blockHash": "0x062574ece34ee52e0cc6106a82f761b8fa574318b730fef4a0e815200d52f8f8",
      "blockNumber": "0xb01076e",
      "gasUsed": "0x668d",
      "effectiveGasPrice": "0x5f5e100",
      "from": "0xf59da181591dbb122a894372c6e44cc079a7bb3f",
      "to": "0xd240fb3ab54d20a12c2d17a533f2fd35bc6cb45c",
      "contractAddress": null,
      "gasUsedForL1": "0x185",
      "l1BlockNumber": "0x894b42",
      "timeboosted": false
    },
    {
      "status": "0x1",
      "cumulativeGasUsed": "0x668d",
      "logs": [
        {
          "address": "0x0a0549a2762281df13d0b74cb52dd6c1afc23f85",
          "topics": [
            "0x8be0079c531659141344cd1fd0a4f28419497f9722a3daafe3b4186f6b6457e0",
            "0x000000000000000000000000f59da181591dbb122a894372c6e44cc079a7bb3f",
            "0x000000000000000000000000f59da181591dbb122a894372c6e44cc079a7bb3f"
          ],
          "data": "0x",
          "blockHash": "0x2c00e922c9bc7395afcdd7ff2670e5ad5bb636f1252583babda686d8c2e0ec75",
          "blockNumber": "0xb010771",
          "transactionHash": "0xb314038e12b4ef6455553aa2005830a2a799829cd27a6a8a477c72448699116d",
          "transactionIndex": "0x1",
          "logIndex": "0x0",
          "removed": false
        }
      ],
      "logsBloom": "0x00000000000000000000000000000000000000000000000000800000000000000040000000000002000000000000000000000000000000000000000000000000000000000100000000001000000000000001000000000000000000000000000000000000000000000000000000000000000000000000000000200000000000400000000000000000000000000000000000000000000000000000000000000000000000000000000000000000000000400000000000000000000000000000000000000000000000000000000000000000000000000000000000000000000000000000000000000000000000000000000000000000000000000000000000000000",
      "type": "0x2",
      "transactionHash": "0xb314038e12b4ef6455553aa2005830a2a799829cd27a6a8a477c72448699116d",
      "transactionIndex": "0x1",
      "blockHash": "0x2c00e922c9bc7395afcdd7ff2670e5ad5bb636f1252583babda686d8c2e0ec75",
      "blockNumber": "0xb010771",
      "gasUsed": "0x668d",
      "effectiveGasPrice": "0x5f5e100",
      "from": "0xf59da181591dbb122a894372c6e44cc079a7bb3f",
      "to": "0x0a0549a2762281df13d0b74cb52dd6c1afc23f85",
      "contractAddress": null,
      "gasUsedForL1": "0x185",
      "l1BlockNumber": "0x894b42",
      "timeboosted": false
    },
    {
      "status": "0x1",
      "cumulativeGasUsed": "0xca461",
      "logs": [
        {
          "address": "0xffb4426405f279ac3381d26b9e85161e8773cbb7",
          "topics": [
            "0x8be0079c531659141344cd1fd0a4f28419497f9722a3daafe3b4186f6b6457e0",
            "0x000000000000000000000000f59da181591dbb122a894372c6e44cc079a7bb3f",
            "0x000000000000000000000000f59da181591dbb122a894372c6e44cc079a7bb3f"
          ],
          "data": "0x",
          "blockHash": "0x100897b95a69da102d0c173756e34437c3706ee146c2effb4a59a1c8ee6b7c20",
          "blockNumber": "0xb010773",
          "transactionHash": "0xd88f2d9eb3bcb4e11fefbc1282e766981e2311e2fe251cfc2c68d738248b746c",
          "transactionIndex": "0x7",
          "logIndex": "0x13",
          "removed": false
        }
      ],
      "logsBloom": "0x00000000000000000000000000000000000000000000000000800000000000000000000000000002000000000000000000000000000000000000000000000000000000000000000000001000000000000001000000000000000008000000000000000000000000000000000000000000000000000000000000200000000000400000000000000000000000000000000000000000010020000000000000000000000000000000000000000000000000000000000000000000000000000000000000000000000000000000000000000000000000000000000000000000000000000000000000000000000000000000000000000000000000000000000000000000",
      "type": "0x2",
      "transactionHash": "0xd88f2d9eb3bcb4e11fefbc1282e766981e2311e2fe251cfc2c68d738248b746c",
      "transactionIndex": "0x7",
      "blockHash": "0x100897b95a69da102d0c173756e34437c3706ee146c2effb4a59a1c8ee6b7c20",
      "blockNumber": "0xb010773",
      "gasUsed": "0x668d",
      "effectiveGasPrice": "0x5f5e100",
      "from": "0xf59da181591dbb122a894372c6e44cc079a7bb3f",
      "to": "0xffb4426405f279ac3381d26b9e85161e8773cbb7",
      "contractAddress": null,
      "gasUsedForL1": "0x185",
      "l1BlockNumber": "0x894b42",
      "timeboosted": false
    },
    {
      "status": "0x1",
      "cumulativeGasUsed": "0x25652",
      "logs": [
        {
          "address": "0x3ed754d50f8d43e7bfa45c7a3ca4ecf6d4bf8136",
          "topics": [
            "0x8be0079c531659141344cd1fd0a4f28419497f9722a3daafe3b4186f6b6457e0",
            "0x000000000000000000000000f59da181591dbb122a894372c6e44cc079a7bb3f",
            "0x000000000000000000000000f59da181591dbb122a894372c6e44cc079a7bb3f"
          ],
          "data": "0x",
          "blockHash": "0xb19b4ddabd71e31a774e5df8a0cd91842e7a31993d5eb735a33ad34b4200f5f8",
          "blockNumber": "0xb010776",
          "transactionHash": "0x3ac2833f1bc847502846157a9020f6eacb2c94d41cc15ce5717f32a39e6b3dbb",
          "transactionIndex": "0x2",
          "logIndex": "0x3",
          "removed": false
        }
      ],
      "logsBloom": "0x00000000000000000000000000000000000000000000000000800000000400000000000000000002000000000000000000000000000000000000000000000000000000000000000000001000000000000001000200000000000000000000000000000000000000000000000000000000000000000000000000200000000200400000000000000000000000000000000000000000000000000000000000000000000000000000000000000000000000000000000000000000000000000000000000000000000000000000000000000000000000000000000000000000000000000000000000000000000000000000000000000000000000000000000000000000",
      "type": "0x2",
      "transactionHash": "0x3ac2833f1bc847502846157a9020f6eacb2c94d41cc15ce5717f32a39e6b3dbb",
      "transactionIndex": "0x2",
      "blockHash": "0xb19b4ddabd71e31a774e5df8a0cd91842e7a31993d5eb735a33ad34b4200f5f8",
      "blockNumber": "0xb010776",
      "gasUsed": "0x668d",
      "effectiveGasPrice": "0x5f5e100",
      "from": "0xf59da181591dbb122a894372c6e44cc079a7bb3f",
      "to": "0x3ed754d50f8d43e7bfa45c7a3ca4ecf6d4bf8136",
      "contractAddress": null,
      "gasUsedForL1": "0x185",
      "l1BlockNumber": "0x894b42",
      "timeboosted": false
    }
  ],
  "libraries": [],
  "pending": [],
  "returns": {},
  "timestamp": 1755358865492,
  "chain": 421614,
  "commit": "f13b4d6"
}