{
  "transactions": [
    {
      "hash": "0x217773b49eaf7941c5f25e41b0b7427a2d5b63202414f20df7f480291138ceca",
      "transactionType": "CREATE",
      "contractName": "MockStablecoinFactory",
      "contractAddress": "0xa848ab1d636929a4194d5e2d65e88c83449a15d3",
      "function": null,
      "arguments": [
        "0xf59dA181591dbB122A894372C6E44cC079A7Bb3F"
      ],
      "transaction": {
        "from": "0xf59da181591dbb122a894372c6e44cc079a7bb3f",
        "gas": "0x2e93aa",
        "value": "0x0",
        "input": "0x60803461034657601f61110638819003918201601f19168301916001600160401b038311848410176103325780849260209460405283398101031261034657516001600160a01b0381169081900361034657604051610cac90818101906001600160401b03821181831017610332576101208161045a938585833960a08152600860a0820152672aa9a21021b7b4b760c11b60c082015260e06020820152600460e0820152635553444360e01b610100820152600660408201525f60608201528660808201520301905ff08015610327575f80546001600160a01b0319166001600160a01b03929092169190911790556040518281016001600160401b038111828210176103325781610120918585833960a08152601160a0820152705465746865722055534420286d6f636b2960781b60c082015260e06020820152600560e082015264055534454360dc1b610100820152600660408201525f60608201528660808201520301905ff0801561032757600180546001600160a01b0319166001600160a01b03929092169190911790556040518281016001600160401b038111828210176103325781610120918585833960a08152601160a08201527050617950616c2055534420286d6f636b2960781b60c082015260e06020820152600560e08201526414165554d160da1b610100820152600660408201525f60608201528660808201520301905ff0801561032757600280546001600160a01b0319166001600160a01b039290921691909117905560405192828401906001600160401b0382118583101761033257610120938593843960a08252600b60a08301526a5553446520286d6f636b2960a81b60c083015260e06020830152600460e0830152635553446560e01b610100830152601260408301525f606083015260808201520301905ff0801561032757600380546001600160a01b0319166001600160a01b039283169081179091555f5460015460025460408051938616845291851660208401529093169281019290925260608201527fe9e6067a0dc26ccb3c9ba7ceede231475696ac1029fa2d8a52bcfe9feef8a5a490608090a160405161010f908161034b8239f35b6040513d5f823e3d90fd5b634e487b7160e01b5f52604160045260245ffd5b5f80fdfe60808060405260043610156011575f80fd5b5f3560e01c9081634d1a7dee1460b85750806389a302711460935780639e19789d14606d5763d1609502146043575f80fd5b346069575f3660031901126069576003546040516001600160a01b039091168152602090f35b5f80fd5b346069575f3660031901126069576002546040516001600160a01b039091168152602090f35b346069575f3660031901126069575f546040516001600160a01b039091168152602090f35b346069575f3660031901126069576001546001600160a01b03168152602090f3fea2646970667358221220171193a64f01ed2687b02839f05b1ce1ff15f54062a1d73e66018b2dc0b4dfeb64736f6c634300081a003360806040523461042d57610cac8038038061001981610431565b928339810160a08282031261042d5781516001600160401b03811161042d5781610044918401610456565b602083015190916001600160401b03821161042d57610064918401610456565b91604081015160ff8116810361042d5760608201516080909201516001600160a01b038116939084900361042d578051906001600160401b0382116103305760035490600182811c92168015610423575b60208310146103125781601f8493116103b5575b50602090601f831160011461034f575f92610344575b50508160011b915f199060031b1c1916176003555b83516001600160401b03811161033057600454600181811c91168015610326575b602082101461031257601f81116102af575b50602094601f821160011461024c579481929394955f92610241575b50508160011b915f199060031b1c1916176004555b821561022e57600554908390816001600160a01b0384167f8be0079c531659141344cd1fd0a4f28419497f9722a3daafe3b4186f6b6457e05f80a36001600160a81b03199092161760a09190911b60ff60a01b1617600555806101c5575b60405161080490816104a88239f35b6002549080820180921161021a5760207fddf252ad1be2c89b69c2b068fc378daa952ba7f163c4a11628f55a4df523b3ef915f9360025584845283825260408420818154019055604051908152a35f806101b6565b634e487b7160e01b5f52601160045260245ffd5b631e4fbdf760e01b5f525f60045260245ffd5b015190505f80610143565b601f1982169560045f52805f20915f5b8881106102975750836001959697981061027f575b505050811b01600455610158565b01515f1960f88460031b161c191690555f8080610271565b9192602060018192868501518155019401920161025c565b60045f527f8a35acfbc15ff81a39ae7d344fd709f28e8600b4aa8c65c6b64bfe7fe36bd19b601f830160051c81019160208410610308575b601f0160051c01905b8181106102fd5750610127565b5f81556001016102f0565b90915081906102e7565b634e487b7160e01b5f52602260045260245ffd5b90607f1690610115565b634e487b7160e01b5f52604160045260245ffd5b015190505f806100df565b60035f9081528281209350601f198516905b81811061039d5750908460019594939210610385575b505050811b016003556100f4565b01515f1960f88460031b161c191690555f8080610377565b92936020600181928786015181550195019301610361565b60035f529091507fc2575a0e9e593c00f959f8c92f12db2869c3395a3b0502d05e2516446f71f85b601f840160051c81019160208510610419575b90601f859493920160051c01905b81811061040b57506100c9565b5f81558493506001016103fe565b90915081906103f0565b91607f16916100b5565b5f80fd5b6040519190601f01601f191682016001600160401b0381118382101761033057604052565b81601f8201121561042d578051906001600160401b03821161033057610485601f8301601f1916602001610431565b928284526020838301011161042d57815f9260208093018386015e830101529056fe6080806040526004361015610012575f80fd5b5f3560e01c90816306fdde03146105d857508063095ea7b31461055657806318160ddd1461053957806323b872dd1461045a578063313ce5671461043757806340c10f191461038b57806370a0823114610354578063715018a6146102f95780638da5cb5b146102d157806395d89b41146101b6578063a9059cbb14610185578063dd62ed3e146101355763f2fde38b146100ab575f80fd5b34610131576020366003190112610131576100c46106d1565b6100cc6107a7565b6001600160a01b0316801561011e57600580546001600160a01b0319811683179091556001600160a01b03167f8be0079c531659141344cd1fd0a4f28419497f9722a3daafe3b4186f6b6457e05f80a3005b631e4fbdf760e01b5f525f60045260245ffd5b5f80fd5b346101315760403660031901126101315761014e6106d1565b6101566106e7565b6001600160a01b039182165f908152600160209081526040808320949093168252928352819020549051908152f35b34610131576040366003190112610131576101ab6101a16106d1565b60243590336106fd565b602060405160018152f35b34610131575f366003190112610131576040515f6004548060011c906001811680156102c7575b6020831081146102b3578285529081156102975750600114610242575b50819003601f01601f191681019067ffffffffffffffff82118183101761022e5761022a829182604052826106a7565b0390f35b634e487b7160e01b5f52604160045260245ffd5b905060045f527f8a35acfbc15ff81a39ae7d344fd709f28e8600b4aa8c65c6b64bfe7fe36bd19b5f905b828210610281575060209150820101826101fa565b600181602092548385880101520191019061026c565b90506020925060ff191682840152151560051b820101826101fa565b634e487b7160e01b5f52602260045260245ffd5b91607f16916101dd565b34610131575f366003190112610131576005546040516001600160a01b039091168152602090f35b34610131575f366003190112610131576103116107a7565b600580546001600160a01b031981169091555f906001600160a01b03167f8be0079c531659141344cd1fd0a4f28419497f9722a3daafe3b4186f6b6457e08280a3005b34610131576020366003190112610131576001600160a01b036103756106d1565b165f525f602052602060405f2054604051908152f35b34610131576040366003190112610131576103a46106d1565b602435906103b06107a7565b6001600160a01b031690811561042457600254908082018092116104105760207fddf252ad1be2c89b69c2b068fc378daa952ba7f163c4a11628f55a4df523b3ef915f9360025584845283825260408420818154019055604051908152a3005b634e487b7160e01b5f52601160045260245ffd5b63ec442f0560e01b5f525f60045260245ffd5b34610131575f36600319011261013157602060ff60055460a01c16604051908152f35b34610131576060366003190112610131576104736106d1565b61047b6106e7565b6001600160a01b0382165f818152600160209081526040808320338452909152902054909260443592915f1981106104b9575b506101ab93506106fd565b83811061051e57841561050b5733156104f8576101ab945f52600160205260405f2060018060a01b0333165f526020528360405f2091039055846104ae565b634a1406b160e11b5f525f60045260245ffd5b63e602df0560e01b5f525f60045260245ffd5b8390637dc7a0d960e11b5f523360045260245260445260645ffd5b34610131575f366003190112610131576020600254604051908152f35b346101315760403660031901126101315761056f6106d1565b60243590331561050b576001600160a01b03169081156104f857335f52600160205260405f20825f526020528060405f20556040519081527f8c5be1e5ebec7d5bd14f71427d1e84f3dd0314c0f7b2291e5b200ac8c7c3b92560203392a3602060405160018152f35b34610131575f366003190112610131575f6003548060011c9060018116801561069d575b6020831081146102b35782855290811561029757506001146106485750819003601f01601f191681019067ffffffffffffffff82118183101761022e5761022a829182604052826106a7565b905060035f527fc2575a0e9e593c00f959f8c92f12db2869c3395a3b0502d05e2516446f71f85b5f905b828210610687575060209150820101826101fa565b6001816020925483858801015201910190610672565b91607f16916105fc565b602060409281835280519182918282860152018484015e5f828201840152601f01601f1916010190565b600435906001600160a01b038216820361013157565b602435906001600160a01b038216820361013157565b6001600160a01b0316908115610794576001600160a01b031691821561042457815f525f60205260405f205481811061077b57817fddf252ad1be2c89b69c2b068fc378daa952ba7f163c4a11628f55a4df523b3ef92602092855f525f84520360405f2055845f525f825260405f20818154019055604051908152a3565b8263391434e360e21b5f5260045260245260445260645ffd5b634b637e8f60e11b5f525f60045260245ffd5b6005546001600160a01b031633036107bb57565b63118cdaa760e01b5f523360045260245ffdfea2646970667358221220f0f6fea99e0c5f75d4b53d44a379219baa09c5bb941f3984f30010e4952bd54a64736f6c634300081a0033000000000000000000000000f59da181591dbb122a894372c6e44cc079a7bb3f",
        "nonce": "0x0",
        "chainId": "0x66eee"
      },
      "additionalContracts": [
        {
          "transactionType": "CREATE",
          "contractName": "MockToken",
          "address": "0xcda5a8763a70dbe9b3f62a649595b468ddf7bd3b",
          "initCode": "0x60806040523461042d57610cac8038038061001981610431565b928339810160a08282031261042d5781516001600160401b03811161042d5781610044918401610456565b602083015190916001600160401b03821161042d57610064918401610456565b91604081015160ff8116810361042d5760608201516080909201516001600160a01b038116939084900361042d578051906001600160401b0382116103305760035490600182811c92168015610423575b60208310146103125781601f8493116103b5575b50602090601f831160011461034f575f92610344575b50508160011b915f199060031b1c1916176003555b83516001600160401b03811161033057600454600181811c91168015610326575b602082101461031257601f81116102af575b50602094601f821160011461024c579481929394955f92610241575b50508160011b915f199060031b1c1916176004555b821561022e57600554908390816001600160a01b0384167f8be0079c531659141344cd1fd0a4f28419497f9722a3daafe3b4186f6b6457e05f80a36001600160a81b03199092161760a09190911b60ff60a01b1617600555806101c5575b60405161080490816104a88239f35b6002549080820180921161021a5760207fddf252ad1be2c89b69c2b068fc378daa952ba7f163c4a11628f55a4df523b3ef915f9360025584845283825260408420818154019055604051908152a35f806101b6565b634e487b7160e01b5f52601160045260245ffd5b631e4fbdf760e01b5f525f60045260245ffd5b015190505f80610143565b601f1982169560045f52805f20915f5b8881106102975750836001959697981061027f575b505050811b01600455610158565b01515f1960f88460031b161c191690555f8080610271565b9192602060018192868501518155019401920161025c565b60045f527f8a35acfbc15ff81a39ae7d344fd709f28e8600b4aa8c65c6b64bfe7fe36bd19b601f830160051c81019160208410610308575b601f0160051c01905b8181106102fd5750610127565b5f81556001016102f0565b90915081906102e7565b634e487b7160e01b5f52602260045260245ffd5b90607f1690610115565b634e487b7160e01b5f52604160045260245ffd5b015190505f806100df565b60035f9081528281209350601f198516905b81811061039d5750908460019594939210610385575b505050811b016003556100f4565b01515f1960f88460031b161c191690555f8080610377565b92936020600181928786015181550195019301610361565b60035f529091507fc2575a0e9e593c00f959f8c92f12db2869c3395a3b0502d05e2516446f71f85b601f840160051c81019160208510610419575b90601f859493920160051c01905b81811061040b57506100c9565b5f81558493506001016103fe565b90915081906103f0565b91607f16916100b5565b5f80fd5b6040519190601f01601f191682016001600160401b0381118382101761033057604052565b81601f8201121561042d578051906001600160401b03821161033057610485601f8301601f1916602001610431565b928284526020838301011161042d57815f9260208093018386015e830101529056fe6080806040526004361015610012575f80fd5b5f3560e01c90816306fdde03146105d857508063095ea7b31461055657806318160ddd1461053957806323b872dd1461045a578063313ce5671461043757806340c10f191461038b57806370a0823114610354578063715018a6146102f95780638da5cb5b146102d157806395d89b41146101b6578063a9059cbb14610185578063dd62ed3e146101355763f2fde38b146100ab575f80fd5b34610131576020366003190112610131576100c46106d1565b6100cc6107a7565b6001600160a01b0316801561011e57600580546001600160a01b0319811683179091556001600160a01b03167f8be0079c531659141344cd1fd0a4f28419497f9722a3daafe3b4186f6b6457e05f80a3005b631e4fbdf760e01b5f525f60045260245ffd5b5f80fd5b346101315760403660031901126101315761014e6106d1565b6101566106e7565b6001600160a01b039182165f908152600160209081526040808320949093168252928352819020549051908152f35b34610131576040366003190112610131576101ab6101a16106d1565b60243590336106fd565b602060405160018152f35b34610131575f366003190112610131576040515f6004548060011c906001811680156102c7575b6020831081146102b3578285529081156102975750600114610242575b50819003601f01601f191681019067ffffffffffffffff82118183101761022e5761022a829182604052826106a7565b0390f35b634e487b7160e01b5f52604160045260245ffd5b905060045f527f8a35acfbc15ff81a39ae7d344fd709f28e8600b4aa8c65c6b64bfe7fe36bd19b5f905b828210610281575060209150820101826101fa565b600181602092548385880101520191019061026c565b90506020925060ff191682840152151560051b820101826101fa565b634e487b7160e01b5f52602260045260245ffd5b91607f16916101dd565b34610131575f366003190112610131576005546040516001600160a01b039091168152602090f35b34610131575f366003190112610131576103116107a7565b600580546001600160a01b031981169091555f906001600160a01b03167f8be0079c531659141344cd1fd0a4f28419497f9722a3daafe3b4186f6b6457e08280a3005b34610131576020366003190112610131576001600160a01b036103756106d1565b165f525f602052602060405f2054604051908152f35b34610131576040366003190112610131576103a46106d1565b602435906103b06107a7565b6001600160a01b031690811561042457600254908082018092116104105760207fddf252ad1be2c89b69c2b068fc378daa952ba7f163c4a11628f55a4df523b3ef915f9360025584845283825260408420818154019055604051908152a3005b634e487b7160e01b5f52601160045260245ffd5b63ec442f0560e01b5f525f60045260245ffd5b34610131575f36600319011261013157602060ff60055460a01c16604051908152f35b34610131576060366003190112610131576104736106d1565b61047b6106e7565b6001600160a01b0382165f818152600160209081526040808320338452909152902054909260443592915f1981106104b9575b506101ab93506106fd565b83811061051e57841561050b5733156104f8576101ab945f52600160205260405f2060018060a01b0333165f526020528360405f2091039055846104ae565b634a1406b160e11b5f525f60045260245ffd5b63e602df0560e01b5f525f60045260245ffd5b8390637dc7a0d960e11b5f523360045260245260445260645ffd5b34610131575f366003190112610131576020600254604051908152f35b346101315760403660031901126101315761056f6106d1565b60243590331561050b576001600160a01b03169081156104f857335f52600160205260405f20825f526020528060405f20556040519081527f8c5be1e5ebec7d5bd14f71427d1e84f3dd0314c0f7b2291e5b200ac8c7c3b92560203392a3602060405160018152f35b34610131575f366003190112610131575f6003548060011c9060018116801561069d575b6020831081146102b35782855290811561029757506001146106485750819003601f01601f191681019067ffffffffffffffff82118183101761022e5761022a829182604052826106a7565b905060035f527fc2575a0e9e593c00f959f8c92f12db2869c3395a3b0502d05e2516446f71f85b5f905b828210610687575060209150820101826101fa565b6001816020925483858801015201910190610672565b91607f16916105fc565b602060409281835280519182918282860152018484015e5f828201840152601f01601f1916010190565b600435906001600160a01b038216820361013157565b602435906001600160a01b038216820361013157565b6001600160a01b0316908115610794576001600160a01b031691821561042457815f525f60205260405f205481811061077b57817fddf252ad1be2c89b69c2b068fc378daa952ba7f163c4a11628f55a4df523b3ef92602092855f525f84520360405f2055845f525f825260405f20818154019055604051908152a3565b8263391434e360e21b5f5260045260245260445260645ffd5b634b637e8f60e11b5f525f60045260245ffd5b6005546001600160a01b031633036107bb57565b63118cdaa760e01b5f523360045260245ffdfea2646970667358221220f0f6fea99e0c5f75d4b53d44a379219baa09c5bb941f3984f30010e4952bd54a64736f6c634300081a003300000000000000000000000000000000000000000000000000000000000000a000000000000000000000000000000000000000000000000000000000000000e000000000000000000000000000000000000000000000000000000000000000060000000000000000000000000000000000000000000000000000000000000000000000000000000000000000f59da181591dbb122a894372c6e44cc079a7bb3f000000000000000000000000000000000000000000000000000000000000000855534420436f696e00000000000000000000000000000000000000000000000000000000000000000000000000000000000000000000000000000000000000045553444300000000000000000000000000000000000000000000000000000000"
        },
        {
          "transactionType": "CREATE",
          "contractName": "MockToken",
          "address": "0x95834250bc43c748a0268d42bec243304929c7d3",
          "initCode": "0x60806040523461042d57610cac8038038061001981610431565b928339810160a08282031261042d5781516001600160401b03811161042d5781610044918401610456565b602083015190916001600160401b03821161042d57610064918401610456565b91604081015160ff8116810361042d5760608201516080909201516001600160a01b038116939084900361042d578051906001600160401b0382116103305760035490600182811c92168015610423575b60208310146103125781601f8493116103b5575b50602090601f831160011461034f575f92610344575b50508160011b915f199060031b1c1916176003555b83516001600160401b03811161033057600454600181811c91168015610326575b602082101461031257601f81116102af575b50602094601f821160011461024c579481929394955f92610241575b50508160011b915f199060031b1c1916176004555b821561022e57600554908390816001600160a01b0384167f8be0079c531659141344cd1fd0a4f28419497f9722a3daafe3b4186f6b6457e05f80a36001600160a81b03199092161760a09190911b60ff60a01b1617600555806101c5575b60405161080490816104a88239f35b6002549080820180921161021a5760207fddf252ad1be2c89b69c2b068fc378daa952ba7f163c4a11628f55a4df523b3ef915f9360025584845283825260408420818154019055604051908152a35f806101b6565b634e487b7160e01b5f52601160045260245ffd5b631e4fbdf760e01b5f525f60045260245ffd5b015190505f80610143565b601f1982169560045f52805f20915f5b8881106102975750836001959697981061027f575b505050811b01600455610158565b01515f1960f88460031b161c191690555f8080610271565b9192602060018192868501518155019401920161025c565b60045f527f8a35acfbc15ff81a39ae7d344fd709f28e8600b4aa8c65c6b64bfe7fe36bd19b601f830160051c81019160208410610308575b601f0160051c01905b8181106102fd5750610127565b5f81556001016102f0565b90915081906102e7565b634e487b7160e01b5f52602260045260245ffd5b90607f1690610115565b634e487b7160e01b5f52604160045260245ffd5b015190505f806100df565b60035f9081528281209350601f198516905b81811061039d5750908460019594939210610385575b505050811b016003556100f4565b01515f1960f88460031b161c191690555f8080610377565b92936020600181928786015181550195019301610361565b60035f529091507fc2575a0e9e593c00f959f8c92f12db2869c3395a3b0502d05e2516446f71f85b601f840160051c81019160208510610419575b90601f859493920160051c01905b81811061040b57506100c9565b5f81558493506001016103fe565b90915081906103f0565b91607f16916100b5565b5f80fd5b6040519190601f01601f191682016001600160401b0381118382101761033057604052565b81601f8201121561042d578051906001600160401b03821161033057610485601f8301601f1916602001610431565b928284526020838301011161042d57815f9260208093018386015e830101529056fe6080806040526004361015610012575f80fd5b5f3560e01c90816306fdde03146105d857508063095ea7b31461055657806318160ddd1461053957806323b872dd1461045a578063313ce5671461043757806340c10f191461038b57806370a0823114610354578063715018a6146102f95780638da5cb5b146102d157806395d89b41146101b6578063a9059cbb14610185578063dd62ed3e146101355763f2fde38b146100ab575f80fd5b34610131576020366003190112610131576100c46106d1565b6100cc6107a7565b6001600160a01b0316801561011e57600580546001600160a01b0319811683179091556001600160a01b03167f8be0079c531659141344cd1fd0a4f28419497f9722a3daafe3b4186f6b6457e05f80a3005b631e4fbdf760e01b5f525f60045260245ffd5b5f80fd5b346101315760403660031901126101315761014e6106d1565b6101566106e7565b6001600160a01b039182165f908152600160209081526040808320949093168252928352819020549051908152f35b34610131576040366003190112610131576101ab6101a16106d1565b60243590336106fd565b602060405160018152f35b34610131575f366003190112610131576040515f6004548060011c906001811680156102c7575b6020831081146102b3578285529081156102975750600114610242575b50819003601f01601f191681019067ffffffffffffffff82118183101761022e5761022a829182604052826106a7565b0390f35b634e487b7160e01b5f52604160045260245ffd5b905060045f527f8a35acfbc15ff81a39ae7d344fd709f28e8600b4aa8c65c6b64bfe7fe36bd19b5f905b828210610281575060209150820101826101fa565b600181602092548385880101520191019061026c565b90506020925060ff191682840152151560051b820101826101fa565b634e487b7160e01b5f52602260045260245ffd5b91607f16916101dd565b34610131575f366003190112610131576005546040516001600160a01b039091168152602090f35b34610131575f366003190112610131576103116107a7565b600580546001600160a01b031981169091555f906001600160a01b03167f8be0079c531659141344cd1fd0a4f28419497f9722a3daafe3b4186f6b6457e08280a3005b34610131576020366003190112610131576001600160a01b036103756106d1565b165f525f602052602060405f2054604051908152f35b34610131576040366003190112610131576103a46106d1565b602435906103b06107a7565b6001600160a01b031690811561042457600254908082018092116104105760207fddf252ad1be2c89b69c2b068fc378daa952ba7f163c4a11628f55a4df523b3ef915f9360025584845283825260408420818154019055604051908152a3005b634e487b7160e01b5f52601160045260245ffd5b63ec442f0560e01b5f525f60045260245ffd5b34610131575f36600319011261013157602060ff60055460a01c16604051908152f35b34610131576060366003190112610131576104736106d1565b61047b6106e7565b6001600160a01b0382165f818152600160209081526040808320338452909152902054909260443592915f1981106104b9575b506101ab93506106fd565b83811061051e57841561050b5733156104f8576101ab945f52600160205260405f2060018060a01b0333165f526020528360405f2091039055846104ae565b634a1406b160e11b5f525f60045260245ffd5b63e602df0560e01b5f525f60045260245ffd5b8390637dc7a0d960e11b5f523360045260245260445260645ffd5b34610131575f366003190112610131576020600254604051908152f35b346101315760403660031901126101315761056f6106d1565b60243590331561050b576001600160a01b03169081156104f857335f52600160205260405f20825f526020528060405f20556040519081527f8c5be1e5ebec7d5bd14f71427d1e84f3dd0314c0f7b2291e5b200ac8c7c3b92560203392a3602060405160018152f35b34610131575f366003190112610131575f6003548060011c9060018116801561069d575b6020831081146102b35782855290811561029757506001146106485750819003601f01601f191681019067ffffffffffffffff82118183101761022e5761022a829182604052826106a7565b905060035f527fc2575a0e9e593c00f959f8c92f12db2869c3395a3b0502d05e2516446f71f85b5f905b828210610687575060209150820101826101fa565b6001816020925483858801015201910190610672565b91607f16916105fc565b602060409281835280519182918282860152018484015e5f828201840152601f01601f1916010190565b600435906001600160a01b038216820361013157565b602435906001600160a01b038216820361013157565b6001600160a01b0316908115610794576001600160a01b031691821561042457815f525f60205260405f205481811061077b57817fddf252ad1be2c89b69c2b068fc378daa952ba7f163c4a11628f55a4df523b3ef92602092855f525f84520360405f2055845f525f825260405f20818154019055604051908152a3565b8263391434e360e21b5f5260045260245260445260645ffd5b634b637e8f60e11b5f525f60045260245ffd5b6005546001600160a01b031633036107bb57565b63118cdaa760e01b5f523360045260245ffdfea2646970667358221220f0f6fea99e0c5f75d4b53d44a379219baa09c5bb941f3984f30010e4952bd54a64736f6c634300081a003300000000000000000000000000000000000000000000000000000000000000a000000000000000000000000000000000000000000000000000000000000000e000000000000000000000000000000000000000000000000000000000000000060000000000000000000000000000000000000000000000000000000000000000000000000000000000000000f59da181591dbb122a894372c6e44cc079a7bb3f00000000000000000000000000000000000000000000000000000000000000115465746865722055534420286d6f636b2900000000000000000000000000000000000000000000000000000000000000000000000000000000000000000000055553445430000000000000000000000000000000000000000000000000000000"
        },
        {
          "transactionType": "CREATE",
          "contractName": "MockToken",
          "address": "0xde404d710d05ff7bece1a1b9754b22e74b20acf7",
          "initCode": "0x60806040523461042d57610cac8038038061001981610431565b928339810160a08282031261042d5781516001600160401b03811161042d5781610044918401610456565b602083015190916001600160401b03821161042d57610064918401610456565b91604081015160ff8116810361042d5760608201516080909201516001600160a01b038116939084900361042d578051906001600160401b0382116103305760035490600182811c92168015610423575b60208310146103125781601f8493116103b5575b50602090601f831160011461034f575f92610344575b50508160011b915f199060031b1c1916176003555b83516001600160401b03811161033057600454600181811c91168015610326575b602082101461031257601f81116102af575b50602094601f821160011461024c579481929394955f92610241575b50508160011b915f199060031b1c1916176004555b821561022e57600554908390816001600160a01b0384167f8be0079c531659141344cd1fd0a4f28419497f9722a3daafe3b4186f6b6457e05f80a36001600160a81b03199092161760a09190911b60ff60a01b1617600555806101c5575b60405161080490816104a88239f35b6002549080820180921161021a5760207fddf252ad1be2c89b69c2b068fc378daa952ba7f163c4a11628f55a4df523b3ef915f9360025584845283825260408420818154019055604051908152a35f806101b6565b634e487b7160e01b5f52601160045260245ffd5b631e4fbdf760e01b5f525f60045260245ffd5b015190505f80610143565b601f1982169560045f52805f20915f5b8881106102975750836001959697981061027f575b505050811b01600455610158565b01515f1960f88460031b161c191690555f8080610271565b9192602060018192868501518155019401920161025c565b60045f527f8a35acfbc15ff81a39ae7d344fd709f28e8600b4aa8c65c6b64bfe7fe36bd19b601f830160051c81019160208410610308575b601f0160051c01905b8181106102fd5750610127565b5f81556001016102f0565b90915081906102e7565b634e487b7160e01b5f52602260045260245ffd5b90607f1690610115565b634e487b7160e01b5f52604160045260245ffd5b015190505f806100df565b60035f9081528281209350601f198516905b81811061039d5750908460019594939210610385575b505050811b016003556100f4565b01515f1960f88460031b161c191690555f8080610377565b92936020600181928786015181550195019301610361565b60035f529091507fc2575a0e9e593c00f959f8c92f12db2869c3395a3b0502d05e2516446f71f85b601f840160051c81019160208510610419575b90601f859493920160051c01905b81811061040b57506100c9565b5f81558493506001016103fe565b90915081906103f0565b91607f16916100b5565b5f80fd5b6040519190601f01601f191682016001600160401b0381118382101761033057604052565b81601f8201121561042d578051906001600160401b03821161033057610485601f8301601f1916602001610431565b928284526020838301011161042d57815f9260208093018386015e830101529056fe6080806040526004361015610012575f80fd5b5f3560e01c90816306fdde03146105d857508063095ea7b31461055657806318160ddd1461053957806323b872dd1461045a578063313ce5671461043757806340c10f191461038b57806370a0823114610354578063715018a6146102f95780638da5cb5b146102d157806395d89b41146101b6578063a9059cbb14610185578063dd62ed3e146101355763f2fde38b146100ab575f80fd5b34610131576020366003190112610131576100c46106d1565b6100cc6107a7565b6001600160a01b0316801561011e57600580546001600160a01b0319811683179091556001600160a01b03167f8be0079c531659141344cd1fd0a4f28419497f9722a3daafe3b4186f6b6457e05f80a3005b631e4fbdf760e01b5f525f60045260245ffd5b5f80fd5b346101315760403660031901126101315761014e6106d1565b6101566106e7565b6001600160a01b039182165f908152600160209081526040808320949093168252928352819020549051908152f35b34610131576040366003190112610131576101ab6101a16106d1565b60243590336106fd565b602060405160018152f35b34610131575f366003190112610131576040515f6004548060011c906001811680156102c7575b6020831081146102b3578285529081156102975750600114610242575b50819003601f01601f191681019067ffffffffffffffff82118183101761022e5761022a829182604052826106a7565b0390f35b634e487b7160e01b5f52604160045260245ffd5b905060045f527f8a35acfbc15ff81a39ae7d344fd709f28e8600b4aa8c65c6b64bfe7fe36bd19b5f905b828210610281575060209150820101826101fa565b600181602092548385880101520191019061026c565b90506020925060ff191682840152151560051b820101826101fa565b634e487b7160e01b5f52602260045260245ffd5b91607f16916101dd565b34610131575f366003190112610131576005546040516001600160a01b039091168152602090f35b34610131575f366003190112610131576103116107a7565b600580546001600160a01b031981169091555f906001600160a01b03167f8be0079c531659141344cd1fd0a4f28419497f9722a3daafe3b4186f6b6457e08280a3005b34610131576020366003190112610131576001600160a01b036103756106d1565b165f525f602052602060405f2054604051908152f35b34610131576040366003190112610131576103a46106d1565b602435906103b06107a7565b6001600160a01b031690811561042457600254908082018092116104105760207fddf252ad1be2c89b69c2b068fc378daa952ba7f163c4a11628f55a4df523b3ef915f9360025584845283825260408420818154019055604051908152a3005b634e487b7160e01b5f52601160045260245ffd5b63ec442f0560e01b5f525f60045260245ffd5b34610131575f36600319011261013157602060ff60055460a01c16604051908152f35b34610131576060366003190112610131576104736106d1565b61047b6106e7565b6001600160a01b0382165f818152600160209081526040808320338452909152902054909260443592915f1981106104b9575b506101ab93506106fd565b83811061051e57841561050b5733156104f8576101ab945f52600160205260405f2060018060a01b0333165f526020528360405f2091039055846104ae565b634a1406b160e11b5f525f60045260245ffd5b63e602df0560e01b5f525f60045260245ffd5b8390637dc7a0d960e11b5f523360045260245260445260645ffd5b34610131575f366003190112610131576020600254604051908152f35b346101315760403660031901126101315761056f6106d1565b60243590331561050b576001600160a01b03169081156104f857335f52600160205260405f20825f526020528060405f20556040519081527f8c5be1e5ebec7d5bd14f71427d1e84f3dd0314c0f7b2291e5b200ac8c7c3b92560203392a3602060405160018152f35b34610131575f366003190112610131575f6003548060011c9060018116801561069d575b6020831081146102b35782855290811561029757506001146106485750819003601f01601f191681019067ffffffffffffffff82118183101761022e5761022a829182604052826106a7565b905060035f527fc2575a0e9e593c00f959f8c92f12db2869c3395a3b0502d05e2516446f71f85b5f905b828210610687575060209150820101826101fa565b6001816020925483858801015201910190610672565b91607f16916105fc565b602060409281835280519182918282860152018484015e5f828201840152601f01601f1916010190565b600435906001600160a01b038216820361013157565b602435906001600160a01b038216820361013157565b6001600160a01b0316908115610794576001600160a01b031691821561042457815f525f60205260405f205481811061077b57817fddf252ad1be2c89b69c2b068fc378daa952ba7f163c4a11628f55a4df523b3ef92602092855f525f84520360405f2055845f525f825260405f20818154019055604051908152a3565b8263391434e360e21b5f5260045260245260445260645ffd5b634b637e8f60e11b5f525f60045260245ffd5b6005546001600160a01b031633036107bb57565b63118cdaa760e01b5f523360045260245ffdfea2646970667358221220f0f6fea99e0c5f75d4b53d44a379219baa09c5bb941f3984f30010e4952bd54a64736f6c634300081a003300000000000000000000000000000000000000000000000000000000000000a000000000000000000000000000000000000000000000000000000000000000e000000000000000000000000000000000000000000000000000000000000000060000000000000000000000000000000000000000000000000000000000000000000000000000000000000000f59da181591dbb122a894372c6e44cc079a7bb3f000000000000000000000000000000000000000000000000000000000000001150617950616c2055534420286d6f636b2900000000000000000000000000000000000000000000000000000000000000000000000000000000000000000000055059555344000000000000000000000000000000000000000000000000000000"
        },
        {
          "transactionType": "CREATE",
          "contractName": "MockToken",
          "address": "0x8f0cac2c61c3bc383f045e9d746e5a193011b342",
          "initCode": "0x60806040523461042d57610cac8038038061001981610431565b928339810160a08282031261042d5781516001600160401b03811161042d5781610044918401610456565b602083015190916001600160401b03821161042d57610064918401610456565b91604081015160ff8116810361042d5760608201516080909201516001600160a01b038116939084900361042d578051906001600160401b0382116103305760035490600182811c92168015610423575b60208310146103125781601f8493116103b5575b50602090601f831160011461034f575f92610344575b50508160011b915f199060031b1c1916176003555b83516001600160401b03811161033057600454600181811c91168015610326575b602082101461031257601f81116102af575b50602094601f821160011461024c579481929394955f92610241575b50508160011b915f199060031b1c1916176004555b821561022e57600554908390816001600160a01b0384167f8be0079c531659141344cd1fd0a4f28419497f9722a3daafe3b4186f6b6457e05f80a36001600160a81b03199092161760a09190911b60ff60a01b1617600555806101c5575b60405161080490816104a88239f35b6002549080820180921161021a5760207fddf252ad1be2c89b69c2b068fc378daa952ba7f163c4a11628f55a4df523b3ef915f9360025584845283825260408420818154019055604051908152a35f806101b6565b634e487b7160e01b5f52601160045260245ffd5b631e4fbdf760e01b5f525f60045260245ffd5b015190505f80610143565b601f1982169560045f52805f20915f5b8881106102975750836001959697981061027f575b505050811b01600455610158565b01515f1960f88460031b161c191690555f8080610271565b9192602060018192868501518155019401920161025c565b60045f527f8a35acfbc15ff81a39ae7d344fd709f28e8600b4aa8c65c6b64bfe7fe36bd19b601f830160051c81019160208410610308575b601f0160051c01905b8181106102fd5750610127565b5f81556001016102f0565b90915081906102e7565b634e487b7160e01b5f52602260045260245ffd5b90607f1690610115565b634e487b7160e01b5f52604160045260245ffd5b015190505f806100df565b60035f9081528281209350601f198516905b81811061039d5750908460019594939210610385575b505050811b016003556100f4565b01515f1960f88460031b161c191690555f8080610377565b92936020600181928786015181550195019301610361565b60035f529091507fc2575a0e9e593c00f959f8c92f12db2869c3395a3b0502d05e2516446f71f85b601f840160051c81019160208510610419575b90601f859493920160051c01905b81811061040b57506100c9565b5f81558493506001016103fe565b90915081906103f0565b91607f16916100b5565b5f80fd5b6040519190601f01601f191682016001600160401b0381118382101761033057604052565b81601f8201121561042d578051906001600160401b03821161033057610485601f8301601f1916602001610431565b928284526020838301011161042d57815f9260208093018386015e830101529056fe6080806040526004361015610012575f80fd5b5f3560e01c90816306fdde03146105d857508063095ea7b31461055657806318160ddd1461053957806323b872dd1461045a578063313ce5671461043757806340c10f191461038b57806370a0823114610354578063715018a6146102f95780638da5cb5b146102d157806395d89b41146101b6578063a9059cbb14610185578063dd62ed3e146101355763f2fde38b146100ab575f80fd5b34610131576020366003190112610131576100c46106d1565b6100cc6107a7565b6001600160a01b0316801561011e57600580546001600160a01b0319811683179091556001600160a01b03167f8be0079c531659141344cd1fd0a4f28419497f9722a3daafe3b4186f6b6457e05f80a3005b631e4fbdf760e01b5f525f60045260245ffd5b5f80fd5b346101315760403660031901126101315761014e6106d1565b6101566106e7565b6001600160a01b039182165f908152600160209081526040808320949093168252928352819020549051908152f35b34610131576040366003190112610131576101ab6101a16106d1565b60243590336106fd565b602060405160018152f35b34610131575f366003190112610131576040515f6004548060011c906001811680156102c7575b6020831081146102b3578285529081156102975750600114610242575b50819003601f01601f191681019067ffffffffffffffff82118183101761022e5761022a829182604052826106a7565b0390f35b634e487b7160e01b5f52604160045260245ffd5b905060045f527f8a35acfbc15ff81a39ae7d344fd709f28e8600b4aa8c65c6b64bfe7fe36bd19b5f905b828210610281575060209150820101826101fa565b600181602092548385880101520191019061026c565b90506020925060ff191682840152151560051b820101826101fa565b634e487b7160e01b5f52602260045260245ffd5b91607f16916101dd565b34610131575f366003190112610131576005546040516001600160a01b039091168152602090f35b34610131575f366003190112610131576103116107a7565b600580546001600160a01b031981169091555f906001600160a01b03167f8be0079c531659141344cd1fd0a4f28419497f9722a3daafe3b4186f6b6457e08280a3005b34610131576020366003190112610131576001600160a01b036103756106d1565b165f525f602052602060405f2054604051908152f35b34610131576040366003190112610131576103a46106d1565b602435906103b06107a7565b6001600160a01b031690811561042457600254908082018092116104105760207fddf252ad1be2c89b69c2b068fc378daa952ba7f163c4a11628f55a4df523b3ef915f9360025584845283825260408420818154019055604051908152a3005b634e487b7160e01b5f52601160045260245ffd5b63ec442f0560e01b5f525f60045260245ffd5b34610131575f36600319011261013157602060ff60055460a01c16604051908152f35b34610131576060366003190112610131576104736106d1565b61047b6106e7565b6001600160a01b0382165f818152600160209081526040808320338452909152902054909260443592915f1981106104b9575b506101ab93506106fd565b83811061051e57841561050b5733156104f8576101ab945f52600160205260405f2060018060a01b0333165f526020528360405f2091039055846104ae565b634a1406b160e11b5f525f60045260245ffd5b63e602df0560e01b5f525f60045260245ffd5b8390637dc7a0d960e11b5f523360045260245260445260645ffd5b34610131575f366003190112610131576020600254604051908152f35b346101315760403660031901126101315761056f6106d1565b60243590331561050b576001600160a01b03169081156104f857335f52600160205260405f20825f526020528060405f20556040519081527f8c5be1e5ebec7d5bd14f71427d1e84f3dd0314c0f7b2291e5b200ac8c7c3b92560203392a3602060405160018152f35b34610131575f366003190112610131575f6003548060011c9060018116801561069d575b6020831081146102b35782855290811561029757506001146106485750819003601f01601f191681019067ffffffffffffffff82118183101761022e5761022a829182604052826106a7565b905060035f527fc2575a0e9e593c00f959f8c92f12db2869c3395a3b0502d05e2516446f71f85b5f905b828210610687575060209150820101826101fa565b6001816020925483858801015201910190610672565b91607f16916105fc565b602060409281835280519182918282860152018484015e5f828201840152601f01601f1916010190565b600435906001600160a01b038216820361013157565b602435906001600160a01b038216820361013157565b6001600160a01b0316908115610794576001600160a01b031691821561042457815f525f60205260405f205481811061077b57817fddf252ad1be2c89b69c2b068fc378daa952ba7f163c4a11628f55a4df523b3ef92602092855f525f84520360405f2055845f525f825260405f20818154019055604051908152a3565b8263391434e360e21b5f5260045260245260445260645ffd5b634b637e8f60e11b5f525f60045260245ffd5b6005546001600160a01b031633036107bb57565b63118cdaa760e01b5f523360045260245ffdfea2646970667358221220f0f6fea99e0c5f75d4b53d44a379219baa09c5bb941f3984f30010e4952bd54a64736f6c634300081a003300000000000000000000000000000000000000000000000000000000000000a000000000000000000000000000000000000000000000000000000000000000e000000000000000000000000000000000000000000000000000000000000000120000000000000000000000000000000000000000000000000000000000000000000000000000000000000000f59da181591dbb122a894372c6e44cc079a7bb3f000000000000000000000000000000000000000000000000000000000000000b5553446520286d6f636b2900000000000000000000000000000000000000000000000000000000000000000000000000000000000000000000000000000000045553446500000000000000000000000000000000000000000000000000000000"
        }
      ],
      "isFixedGasLimit": false
    },
    {
      "hash": "0x8272eca0b211a51d9a157e9846652da09bda3c19fcf18e0454b67ffbcabc0562",
      "transactionType": "CALL",
      "contractName": "MockToken",
      "contractAddress": "0xcda5a8763a70dbe9b3f62a649595b468ddf7bd3b",
      "function": "transferOwnership(address)",
      "arguments": [
        "0xf59dA181591dbB122A894372C6E44cC079A7Bb3F"
      ],
      "transaction": {
        "from": "0xf59da181591dbb122a894372c6e44cc079a7bb3f",
        "to": "0xcda5a8763a70dbe9b3f62a649595b468ddf7bd3b",
        "gas": "0x6fcb",
        "value": "0x0",
        "input": "0xf2fde38b000000000000000000000000f59da181591dbb122a894372c6e44cc079a7bb3f",
        "nonce": "0x1",
        "chainId": "0x66eee"
      },
      "additionalContracts": [],
      "isFixedGasLimit": false
    },
    {
      "hash": "0xc3f64d23fba010287d98edeac4e3adc6fa75211d3a1147ac51bd5fef94f83aea",
      "transactionType": "CALL",
      "contractName": "MockToken",
      "contractAddress": "0x95834250bc43c748a0268d42bec243304929c7d3",
      "function": "transferOwnership(address)",
      "arguments": [
        "0xf59dA181591dbB122A894372C6E44cC079A7Bb3F"
      ],
      "transaction": {
        "from": "0xf59da181591dbb122a894372c6e44cc079a7bb3f",
        "to": "0x95834250bc43c748a0268d42bec243304929c7d3",
        "gas": "0x6fcb",
        "value": "0x0",
        "input": "0xf2fde38b000000000000000000000000f59da181591dbb122a894372c6e44cc079a7bb3f",
        "nonce": "0x2",
        "chainId": "0x66eee"
      },
      "additionalContracts": [],
      "isFixedGasLimit": false
    },
    {
      "hash": "0x9d2f885a40e3db543b0028373d6046e67b90549c9cddb98c42d9a818cf2a6773",
      "transactionType": "CALL",
      "contractName": "MockToken",
      "contractAddress": "0xde404d710d05ff7bece1a1b9754b22e74b20acf7",
      "function": "transferOwnership(address)",
      "arguments": [
        "0xf59dA181591dbB122A894372C6E44cC079A7Bb3F"
      ],
      "transaction": {
        "from": "0xf59da181591dbb122a894372c6e44cc079a7bb3f",
        "to": "0xde404d710d05ff7bece1a1b9754b22e74b20acf7",
        "gas": "0x6fcb",
        "value": "0x0",
        "input": "0xf2fde38b000000000000000000000000f59da181591dbb122a894372c6e44cc079a7bb3f",
        "nonce": "0x3",
        "chainId": "0x66eee"
      },
      "additionalContracts": [],
      "isFixedGasLimit": false
    },
    {
      "hash": "0x40d1ac2d07930807e9195fbcb9e79be990a813de3e4bbdb44af796d8525f9a69",
      "transactionType": "CALL",
      "contractName": "MockToken",
      "contractAddress": "0x8f0cac2c61c3bc383f045e9d746e5a193011b342",
      "function": "transferOwnership(address)",
      "arguments": [
        "0xf59dA181591dbB122A894372C6E44cC079A7Bb3F"
      ],
      "transaction": {
        "from": "0xf59da181591dbb122a894372c6e44cc079a7bb3f",
        "to": "0x8f0cac2c61c3bc383f045e9d746e5a193011b342",
        "gas": "0x6fcb",
        "value": "0x0",
        "input": "0xf2fde38b000000000000000000000000f59da181591dbb122a894372c6e44cc079a7bb3f",
        "nonce": "0x4",
        "chainId": "0x66eee"
      },
      "additionalContracts": [],
      "isFixedGasLimit": false
    },
    {
      "hash": "0x84049a2d0a0c4ac9682c22cafc97fc79fd499fd8ff642aea3cd5d5f4d85891f6",
      "transactionType": "CALL",
      "contractName": "MockToken",
      "contractAddress": "0xcda5a8763a70dbe9b3f62a649595b468ddf7bd3b",
      "function": "mint(address,uint256)",
      "arguments": [
        "0xf59dA181591dbB122A894372C6E44cC079A7Bb3F",
        "100000000000"
      ],
      "transaction": {
        "from": "0xf59da181591dbb122a894372c6e44cc079a7bb3f",
        "to": "0xcda5a8763a70dbe9b3f62a649595b468ddf7bd3b",
        "gas": "0x71f5",
        "value": "0x0",
        "input": "0x40c10f19000000000000000000000000f59da181591dbb122a894372c6e44cc079a7bb3f000000000000000000000000000000000000000000000000000000174876e800",
        "nonce": "0x5",
        "chainId": "0x66eee"
      },
      "additionalContracts": [],
      "isFixedGasLimit": false
    },
    {
      "hash": "0x78cf3ee8f8a1d002955f429f3853ce04715e449ab05adde470d2b6c32ee7022a",
      "transactionType": "CALL",
      "contractName": "MockToken",
      "contractAddress": "0xcda5a8763a70dbe9b3f62a649595b468ddf7bd3b",
      "function": "mint(address,uint256)",
      "arguments": [
        "0x3173Ed1Ec423f5071045D861CaB532C2909fB4c0",
        "100000000000"
      ],
      "transaction": {
        "from": "0xf59da181591dbb122a894372c6e44cc079a7bb3f",
        "to": "0xcda5a8763a70dbe9b3f62a649595b468ddf7bd3b",
        "gas": "0x71f5",
        "value": "0x0",
        "input": "0x40c10f190000000000000000000000003173ed1ec423f5071045d861cab532c2909fb4c0000000000000000000000000000000000000000000000000000000174876e800",
        "nonce": "0x6",
        "chainId": "0x66eee"
      },
      "additionalContracts": [],
      "isFixedGasLimit": false
    },
    {
      "hash": "0x4010a0cec177e2bb45c05c16f0b21852a759519ad9b96c21263ea34192a93a73",
      "transactionType": "CALL",
      "contractName": "MockToken",
      "contractAddress": "0xcda5a8763a70dbe9b3f62a649595b468ddf7bd3b",
      "function": "mint(address,uint256)",
      "arguments": [
        "0x806B7DE4adD0A154262Bae6A2ed08Ab4DEd757af",
        "100000000000"
      ],
      "transaction": {
        "from": "0xf59da181591dbb122a894372c6e44cc079a7bb3f",
        "to": "0xcda5a8763a70dbe9b3f62a649595b468ddf7bd3b",
        "gas": "0x71f5",
        "value": "0x0",
        "input": "0x40c10f19000000000000000000000000806b7de4add0a154262bae6a2ed08ab4ded757af000000000000000000000000000000000000000000000000000000174876e800",
        "nonce": "0x7",
        "chainId": "0x66eee"
      },
      "additionalContracts": [],
      "isFixedGasLimit": false
    },
    {
      "hash": "0x3a0452b85455421d8232f2930b2b5c64aa7c9a0bdcfc1a15220de4a2fc47e37f",
      "transactionType": "CALL",
      "contractName": "MockToken",
      "contractAddress": "0x95834250bc43c748a0268d42bec243304929c7d3",
      "function": "mint(address,uint256)",
      "arguments": [
        "0xf59dA181591dbB122A894372C6E44cC079A7Bb3F",
        "100000000000"
      ],
      "transaction": {
        "from": "0xf59da181591dbb122a894372c6e44cc079a7bb3f",
        "to": "0x95834250bc43c748a0268d42bec243304929c7d3",
        "gas": "0x71f5",
        "value": "0x0",
        "input": "0x40c10f19000000000000000000000000f59da181591dbb122a894372c6e44cc079a7bb3f000000000000000000000000000000000000000000000000000000174876e800",
        "nonce": "0x8",
        "chainId": "0x66eee"
      },
      "additionalContracts": [],
      "isFixedGasLimit": false
    },
    {
      "hash": "0xc1aa2a6a2cde95f5bd4e161e5a2638829144a49cf0fce8466b4a602cdf3b97a1",
      "transactionType": "CALL",
      "contractName": "MockToken",
      "contractAddress": "0x95834250bc43c748a0268d42bec243304929c7d3",
      "function": "mint(address,uint256)",
      "arguments": [
        "0x3173Ed1Ec423f5071045D861CaB532C2909fB4c0",
        "100000000000"
      ],
      "transaction": {
        "from": "0xf59da181591dbb122a894372c6e44cc079a7bb3f",
        "to": "0x95834250bc43c748a0268d42bec243304929c7d3",
        "gas": "0x71f5",
        "value": "0x0",
        "input": "0x40c10f190000000000000000000000003173ed1ec423f5071045d861cab532c2909fb4c0000000000000000000000000000000000000000000000000000000174876e800",
        "nonce": "0x9",
        "chainId": "0x66eee"
      },
      "additionalContracts": [],
      "isFixedGasLimit": false
    },
    {
      "hash": "0xf897d063f45fabefe0ea37da68e35c1c5942120bc1ddf1f71074488e3a996316",
      "transactionType": "CALL",
      "contractName": "MockToken",
      "contractAddress": "0x95834250bc43c748a0268d42bec243304929c7d3",
      "function": "mint(address,uint256)",
      "arguments": [
        "0x806B7DE4adD0A154262Bae6A2ed08Ab4DEd757af",
        "100000000000"
      ],
      "transaction": {
        "from": "0xf59da181591dbb122a894372c6e44cc079a7bb3f",
        "to": "0x95834250bc43c748a0268d42bec243304929c7d3",
        "gas": "0x71f5",
        "value": "0x0",
        "input": "0x40c10f19000000000000000000000000806b7de4add0a154262bae6a2ed08ab4ded757af000000000000000000000000000000000000000000000000000000174876e800",
        "nonce": "0xa",
        "chainId": "0x66eee"
      },
      "additionalContracts": [],
      "isFixedGasLimit": false
    },
    {
      "hash": "0x9eb1a1e50ec957a26346579fab1d1778b4593a3fac7a23e15c2b13bdc0b58960",
      "transactionType": "CALL",
      "contractName": "MockToken",
      "contractAddress": "0xde404d710d05ff7bece1a1b9754b22e74b20acf7",
      "function": "mint(address,uint256)",
      "arguments": [
        "0xf59dA181591dbB122A894372C6E44cC079A7Bb3F",
        "100000000000"
      ],
      "transaction": {
        "from": "0xf59da181591dbb122a894372c6e44cc079a7bb3f",
        "to": "0xde404d710d05ff7bece1a1b9754b22e74b20acf7",
        "gas": "0x71f5",
        "value": "0x0",
        "input": "0x40c10f19000000000000000000000000f59da181591dbb122a894372c6e44cc079a7bb3f000000000000000000000000000000000000000000000000000000174876e800",
        "nonce": "0xb",
        "chainId": "0x66eee"
      },
      "additionalContracts": [],
      "isFixedGasLimit": false
    },
    {
      "hash": "0xec36743bc49f6c03b3037be79b72baddf3b7568031950227ebd6c9394775cedd",
      "transactionType": "CALL",
      "contractName": "MockToken",
      "contractAddress": "0xde404d710d05ff7bece1a1b9754b22e74b20acf7",
      "function": "mint(address,uint256)",
      "arguments": [
        "0x3173Ed1Ec423f5071045D861CaB532C2909fB4c0",
        "100000000000"
      ],
      "transaction": {
        "from": "0xf59da181591dbb122a894372c6e44cc079a7bb3f",
        "to": "0xde404d710d05ff7bece1a1b9754b22e74b20acf7",
        "gas": "0x71f5",
        "value": "0x0",
        "input": "0x40c10f190000000000000000000000003173ed1ec423f5071045d861cab532c2909fb4c0000000000000000000000000000000000000000000000000000000174876e800",
        "nonce": "0xc",
        "chainId": "0x66eee"
      },
      "additionalContracts": [],
      "isFixedGasLimit": false
    },
    {
      "hash": "0x05c8c8c90643ca96e8fc8b65177664809104cd27044ed3ddef3fd7319d349727",
      "transactionType": "CALL",
      "contractName": "MockToken",
      "contractAddress": "0xde404d710d05ff7bece1a1b9754b22e74b20acf7",
      "function": "mint(address,uint256)",
      "arguments": [
        "0x806B7DE4adD0A154262Bae6A2ed08Ab4DEd757af",
        "100000000000"
      ],
      "transaction": {
        "from": "0xf59da181591dbb122a894372c6e44cc079a7bb3f",
        "to": "0xde404d710d05ff7bece1a1b9754b22e74b20acf7",
        "gas": "0x71f5",
        "value": "0x0",
        "input": "0x40c10f19000000000000000000000000806b7de4add0a154262bae6a2ed08ab4ded757af000000000000000000000000000000000000000000000000000000174876e800",
        "nonce": "0xd",
        "chainId": "0x66eee"
      },
      "additionalContracts": [],
      "isFixedGasLimit": false
    },
    {
      "hash": "0xb5fbae32595bf43e4d607a760234472167322ae992974222e86c6eabffe02861",
      "transactionType": "CALL",
      "contractName": "MockToken",
      "contractAddress": "0x8f0cac2c61c3bc383f045e9d746e5a193011b342",
      "function": "mint(address,uint256)",
      "arguments": [
        "0xf59dA181591dbB122A894372C6E44cC079A7Bb3F",
        "100000000000000000000000"
      ],
      "transaction": {
        "from": "0xf59da181591dbb122a894372c6e44cc079a7bb3f",
        "to": "0x8f0cac2c61c3bc383f045e9d746e5a193011b342",
        "gas": "0x7233",
        "value": "0x0",
        "input": "0x40c10f19000000000000000000000000f59da181591dbb122a894372c6e44cc079a7bb3f00000000000000000000000000000000000000000000152d02c7e14af6800000",
        "nonce": "0xe",
        "chainId": "0x66eee"
      },
      "additionalContracts": [],
      "isFixedGasLimit": false
    },
    {
      "hash": "0xd2507d374867a7d2fd584dcb8fab444a5832f0145c1bd50a505e20cc2b73ed5c",
      "transactionType": "CALL",
      "contractName": "MockToken",
      "contractAddress": "0x8f0cac2c61c3bc383f045e9d746e5a193011b342",
      "function": "mint(address,uint256)",
      "arguments": [
        "0x3173Ed1Ec423f5071045D861CaB532C2909fB4c0",
        "100000000000000000000000"
      ],
      "transaction": {
        "from": "0xf59da181591dbb122a894372c6e44cc079a7bb3f",
        "to": "0x8f0cac2c61c3bc383f045e9d746e5a193011b342",
        "gas": "0x7233",
        "value": "0x0",
        "input": "0x40c10f190000000000000000000000003173ed1ec423f5071045d861cab532c2909fb4c000000000000000000000000000000000000000000000152d02c7e14af6800000",
        "nonce": "0xf",
        "chainId": "0x66eee"
      },
      "additionalContracts": [],
      "isFixedGasLimit": false
    },
    {
      "hash": "0x16184bf2fc94a6e0517b3072abb2a9d6c8aea6657f8409753990dbc863302c03",
      "transactionType": "CALL",
      "contractName": "MockToken",
      "contractAddress": "0x8f0cac2c61c3bc383f045e9d746e5a193011b342",
      "function": "mint(address,uint256)",
      "arguments": [
        "0x806B7DE4adD0A154262Bae6A2ed08Ab4DEd757af",
        "100000000000000000000000"
      ],
      "transaction": {
        "from": "0xf59da181591dbb122a894372c6e44cc079a7bb3f",
        "to": "0x8f0cac2c61c3bc383f045e9d746e5a193011b342",
        "gas": "0x7233",
        "value": "0x0",
        "input": "0x40c10f19000000000000000000000000806b7de4add0a154262bae6a2ed08ab4ded757af00000000000000000000000000000000000000000000152d02c7e14af6800000",
        "nonce": "0x10",
        "chainId": "0x66eee"
      },
      "additionalContracts": [],
      "isFixedGasLimit": false
    },
    {
      "hash": "0x945feb08b01c40d309c926be4257d849902e3bf8a9f6d453ec43dca702d61492",
      "transactionType": "CALL",
      "contractName": "MockToken",
      "contractAddress": "0xcda5a8763a70dbe9b3f62a649595b468ddf7bd3b",
      "function": "transferOwnership(address)",
      "arguments": [
        "0xf59dA181591dbB122A894372C6E44cC079A7Bb3F"
      ],
      "transaction": {
        "from": "0xf59da181591dbb122a894372c6e44cc079a7bb3f",
        "to": "0xcda5a8763a70dbe9b3f62a649595b468ddf7bd3b",
        "gas": "0x6fcb",
        "value": "0x0",
        "input": "0xf2fde38b000000000000000000000000f59da181591dbb122a894372c6e44cc079a7bb3f",
        "nonce": "0x11",
        "chainId": "0x66eee"
      },
      "additionalContracts": [],
      "isFixedGasLimit": false
    },
    {
      "hash": "0xc7247f1ee666aeb6967f9d13edb080cd775b8800015ef5db9020c7969eefab44",
      "transactionType": "CALL",
      "contractName": "MockToken",
      "contractAddress": "0x95834250bc43c748a0268d42bec243304929c7d3",
      "function": "transferOwnership(address)",
      "arguments": [
        "0xf59dA181591dbB122A894372C6E44cC079A7Bb3F"
      ],
      "transaction": {
        "from": "0xf59da181591dbb122a894372c6e44cc079a7bb3f",
        "to": "0x95834250bc43c748a0268d42bec243304929c7d3",
        "gas": "0x6fcb",
        "value": "0x0",
        "input": "0xf2fde38b000000000000000000000000f59da181591dbb122a894372c6e44cc079a7bb3f",
        "nonce": "0x12",
        "chainId": "0x66eee"
      },
      "additionalContracts": [],
      "isFixedGasLimit": false
    },
    {
      "hash": "0x8915d520823a7a7aecfb8a3eba225c9955b2223e4c4ba845d76f4420f0916b15",
      "transactionType": "CALL",
      "contractName": "MockToken",
      "contractAddress": "0xde404d710d05ff7bece1a1b9754b22e74b20acf7",
      "function": "transferOwnership(address)",
      "arguments": [
        "0xf59dA181591dbB122A894372C6E44cC079A7Bb3F"
      ],
      "transaction": {
        "from": "0xf59da181591dbb122a894372c6e44cc079a7bb3f",
        "to": "0xde404d710d05ff7bece1a1b9754b22e74b20acf7",
        "gas": "0x6fcb",
        "value": "0x0",
        "input": "0xf2fde38b000000000000000000000000f59da181591dbb122a894372c6e44cc079a7bb3f",
        "nonce": "0x13",
        "chainId": "0x66eee"
      },
      "additionalContracts": [],
      "isFixedGasLimit": false
    },
    {
      "hash": "0xafab19284b6ab1cce0eccf463b00cc9f9d3c5625b5eb6579451e607ebe94999e",
      "transactionType": "CALL",
      "contractName": "MockToken",
      "contractAddress": "0x8f0cac2c61c3bc383f045e9d746e5a193011b342",
      "function": "transferOwnership(address)",
      "arguments": [
        "0xf59dA181591dbB122A894372C6E44cC079A7Bb3F"
      ],
      "transaction": {
        "from": "0xf59da181591dbb122a894372c6e44cc079a7bb3f",
        "to": "0x8f0cac2c61c3bc383f045e9d746e5a193011b342",
        "gas": "0x6fcb",
        "value": "0x0",
        "input": "0xf2fde38b000000000000000000000000f59da181591dbb122a894372c6e44cc079a7bb3f",
        "nonce": "0x14",
        "chainId": "0x66eee"
      },
      "additionalContracts": [],
      "isFixedGasLimit": false
    }
  ],
  "receipts": [
    {
      "status": "0x1",
      "cumulativeGasUsed": "0x2d1723",
      "logs": [
        {
          "address": "0xcda5a8763a70dbe9b3f62a649595b468ddf7bd3b",
          "topics": [
            "0x8be0079c531659141344cd1fd0a4f28419497f9722a3daafe3b4186f6b6457e0",
            "0x0000000000000000000000000000000000000000000000000000000000000000",
            "0x000000000000000000000000f59da181591dbb122a894372c6e44cc079a7bb3f"
          ],
          "data": "0x",
          "blockHash": "0x62250b03ff243efe795e443dc3ffc61683aa83135e3e9bef9ac1d5fb749854b9",
          "blockNumber": "0xb00ee98",
          "transactionHash": "0x217773b49eaf7941c5f25e41b0b7427a2d5b63202414f20df7f480291138ceca",
          "transactionIndex": "0x3",
          "logIndex": "0x8",
          "removed": false
        },
        {
          "address": "0x95834250bc43c748a0268d42bec243304929c7d3",
          "topics": [
            "0x8be0079c531659141344cd1fd0a4f28419497f9722a3daafe3b4186f6b6457e0",
            "0x0000000000000000000000000000000000000000000000000000000000000000",
            "0x000000000000000000000000f59da181591dbb122a894372c6e44cc079a7bb3f"
          ],
          "data": "0x",
          "blockHash": "0x62250b03ff243efe795e443dc3ffc61683aa83135e3e9bef9ac1d5fb749854b9",
          "blockNumber": "0xb00ee98",
          "transactionHash": "0x217773b49eaf7941c5f25e41b0b7427a2d5b63202414f20df7f480291138ceca",
          "transactionIndex": "0x3",
          "logIndex": "0x9",
          "removed": false
        },
        {
          "address": "0xde404d710d05ff7bece1a1b9754b22e74b20acf7",
          "topics": [
            "0x8be0079c531659141344cd1fd0a4f28419497f9722a3daafe3b4186f6b6457e0",
            "0x0000000000000000000000000000000000000000000000000000000000000000",
            "0x000000000000000000000000f59da181591dbb122a894372c6e44cc079a7bb3f"
          ],
          "data": "0x",
          "blockHash": "0x62250b03ff243efe795e443dc3ffc61683aa83135e3e9bef9ac1d5fb749854b9",
          "blockNumber": "0xb00ee98",
          "transactionHash": "0x217773b49eaf7941c5f25e41b0b7427a2d5b63202414f20df7f480291138ceca",
          "transactionIndex": "0x3",
          "logIndex": "0xa",
          "removed": false
        },
        {
          "address": "0x8f0cac2c61c3bc383f045e9d746e5a193011b342",
          "topics": [
            "0x8be0079c531659141344cd1fd0a4f28419497f9722a3daafe3b4186f6b6457e0",
            "0x0000000000000000000000000000000000000000000000000000000000000000",
            "0x000000000000000000000000f59da181591dbb122a894372c6e44cc079a7bb3f"
          ],
          "data": "0x",
          "blockHash": "0x62250b03ff243efe795e443dc3ffc61683aa83135e3e9bef9ac1d5fb749854b9",
          "blockNumber": "0xb00ee98",
          "transactionHash": "0x217773b49eaf7941c5f25e41b0b7427a2d5b63202414f20df7f480291138ceca",
          "transactionIndex": "0x3",
          "logIndex": "0xb",
          "removed": false
        },
        {
          "address": "0xa848ab1d636929a4194d5e2d65e88c83449a15d3",
          "topics": [
            "0xe9e6067a0dc26ccb3c9ba7ceede231475696ac1029fa2d8a52bcfe9feef8a5a4"
          ],
          "data": "0x000000000000000000000000cda5a8763a70dbe9b3f62a649595b468ddf7bd3b00000000000000000000000095834250bc43c748a0268d42bec243304929c7d3000000000000000000000000de404d710d05ff7bece1a1b9754b22e74b20acf70000000000000000000000008f0cac2c61c3bc383f045e9d746e5a193011b342",
          "blockHash": "0x62250b03ff243efe795e443dc3ffc61683aa83135e3e9bef9ac1d5fb749854b9",
          "blockNumber": "0xb00ee98",
          "transactionHash": "0x217773b49eaf7941c5f25e41b0b7427a2d5b63202414f20df7f480291138ceca",
          "transactionIndex": "0x3",
          "logIndex": "0xc",
          "removed": false
        }
      ],
      "logsBloom": "0x00000000000001000000000000000000000000000000000000800000000000000000000000000002000000040000000000000010000000000000000000000000000000000000000000001000000000000001000000000000000000000004800000000000020000000000000080000800000000000000000000200000000000400000000000000000001000000000000000000000000000000000000000020000000200000080000000008000000000000000000000000000000000010000010000000000000000000000000000000000001000000000000000000000000020020000000000000000200000000000000000002000000000000000000002000000",
      "type": "0x2",
      "transactionHash": "0x217773b49eaf7941c5f25e41b0b7427a2d5b63202414f20df7f480291138ceca",
      "transactionIndex": "0x3",
      "blockHash": "0x62250b03ff243efe795e443dc3ffc61683aa83135e3e9bef9ac1d5fb749854b9",
      "blockNumber": "0xb00ee98",
      "gasUsed": "0x23848f",
      "effectiveGasPrice": "0x5f5e100",
      "from": "0xf59da181591dbb122a894372c6e44cc079a7bb3f",
      "to": null,
      "contractAddress": "0xa848ab1d636929a4194d5e2d65e88c83449a15d3",
      "gasUsedForL1": "0x1685",
      "l1BlockNumber": "0x894ab9",
      "timeboosted": false
    },
    {
      "status": "0x1",
      "cumulativeGasUsed": "0xafc81",
      "logs": [
        {
          "address": "0xcda5a8763a70dbe9b3f62a649595b468ddf7bd3b",
          "topics": [
            "0x8be0079c531659141344cd1fd0a4f28419497f9722a3daafe3b4186f6b6457e0",
            "0x000000000000000000000000f59da181591dbb122a894372c6e44cc079a7bb3f",
            "0x000000000000000000000000f59da181591dbb122a894372c6e44cc079a7bb3f"
          ],
          "data": "0x",
          "blockHash": "0xeb5c60b55ee1fc32b2debe68b3460d01227daf23483a4cfb5f6991f8b1f78a67",
          "blockNumber": "0xb00ee9c",
          "transactionHash": "0x8272eca0b211a51d9a157e9846652da09bda3c19fcf18e0454b67ffbcabc0562",
          "transactionIndex": "0x3",
          "logIndex": "0x4",
          "removed": false
        }
      ],
      "logsBloom": "0x00000000000000000000000000000000000000000000000000800000000000000000000000000002000000000000000000000000000000000000000000000000000000000000000000001000000000000001000000000000000000000000000000000000000000000000000000000000000000000000000000200000000000400000000000000000001000000000000000000000000000000000000000000000000000000000000000000000000000000000000000000000000000000000000000000000000000000000000000000000000000000000000000000000000000020000000000000000200000000000000000000000000000000000000000000000",
      "type": "0x2",
      "transactionHash": "0x8272eca0b211a51d9a157e9846652da09bda3c19fcf18e0454b67ffbcabc0562",
      "transactionIndex": "0x3",
      "blockHash": "0xeb5c60b55ee1fc32b2debe68b3460d01227daf23483a4cfb5f6991f8b1f78a67",
      "blockNumber": "0xb00ee9c",
      "gasUsed": "0x664f",
      "effectiveGasPrice": "0x5f5e100",
      "from": "0xf59da181591dbb122a894372c6e44cc079a7bb3f",
      "to": "0xcda5a8763a70dbe9b3f62a649595b468ddf7bd3b",
      "contractAddress": null,
      "gasUsedForL1": "0x147",
      "l1BlockNumber": "0x894ab9",
      "timeboosted": false
    },
    {
      "status": "0x1",
      "cumulativeGasUsed": "0x555cd",
      "logs": [
        {
          "address": "0x95834250bc43c748a0268d42bec243304929c7d3",
          "topics": [
            "0x8be0079c531659141344cd1fd0a4f28419497f9722a3daafe3b4186f6b6457e0",
            "0x000000000000000000000000f59da181591dbb122a894372c6e44cc079a7bb3f",
            "0x000000000000000000000000f59da181591dbb122a894372c6e44cc079a7bb3f"
          ],
          "data": "0x",
          "blockHash": "0x1e161d6996621aa037c751389099fea1ecba93500522a75aa899da085c3349f7",
          "blockNumber": "0xb00ee9e",
          "transactionHash": "0xc3f64d23fba010287d98edeac4e3adc6fa75211d3a1147ac51bd5fef94f83aea",
          "transactionIndex": "0x4",
          "logIndex": "0x8",
          "removed": false
        }
      ],
      "logsBloom": "0x00000000000000000000000000000000000000000000000000800000000000000000000000000002000000000000000000000010000000000000000000000000000000000000000000001000000000000001000000000000000000000000800000000000000000000000000000000000000000000000000000200000000000400000000000000000000000000000000000000000000000000000000000000000000000000080000000000000000000000000000000000000000000000000000000000000000000000000000000000000000000000000000000000000000000000000000000000000000000000000000000000000000000000000000000000000",
      "type": "0x2",
      "transactionHash": "0xc3f64d23fba010287d98edeac4e3adc6fa75211d3a1147ac51bd5fef94f83aea",
      "transactionIndex": "0x4",
      "blockHash": "0x1e161d6996621aa037c751389099fea1ecba93500522a75aa899da085c3349f7",
      "blockNumber": "0xb00ee9e",
      "gasUsed": "0x664f",
      "effectiveGasPrice": "0x5f5e100",
      "from": "0xf59da181591dbb122a894372c6e44cc079a7bb3f",
      "to": "0x95834250bc43c748a0268d42bec243304929c7d3",
      "contractAddress": null,
      "gasUsedForL1": "0x147",
      "l1BlockNumber": "0x894ab9",
      "timeboosted": false
    },
    {
      "status": "0x1",
      "cumulativeGasUsed": "0x5504b",
      "logs": [
        {
          "address": "0xde404d710d05ff7bece1a1b9754b22e74b20acf7",
          "topics": [
            "0x8be0079c531659141344cd1fd0a4f28419497f9722a3daafe3b4186f6b6457e0",
            "0x000000000000000000000000f59da181591dbb122a894372c6e44cc079a7bb3f",
            "0x000000000000000000000000f59da181591dbb122a894372c6e44cc079a7bb3f"
          ],
          "data": "0x",
          "blockHash": "0x3537ba40ba585ab263924c43ad43e86a604195cc0cad423a268a7710bac37471",
          "blockNumber": "0xb00eea1",
          "transactionHash": "0x9d2f885a40e3db543b0028373d6046e67b90549c9cddb98c42d9a818cf2a6773",
          "transactionIndex": "0x4",
          "logIndex": "0x4",
          "removed": false
        }
      ],
      "logsBloom": "0x00000000000000000000000000000000000000000000000000800000000000000000000000000002000000040000000000000000000000000000000000000000000000000000000000001000000000000001000000000000000000000000000000000000000000000000000000000000000000000000000000200000000000400000000000000000000000000000000000000000000000000000000000000000000200000000000000008000000000000000000000000000000000000000000000000000000000000000000000000000000000000000000000000000000000000000000000000000000000000000000000000000000000000000000000000000",
      "type": "0x2",
      "transactionHash": "0x9d2f885a40e3db543b0028373d6046e67b90549c9cddb98c42d9a818cf2a6773",
      "transactionIndex": "0x4",
      "blockHash": "0x3537ba40ba585ab263924c43ad43e86a604195cc0cad423a268a7710bac37471",
      "blockNumber": "0xb00eea1",
      "gasUsed": "0x664f",
      "effectiveGasPrice": "0x5f5e100",
      "from": "0xf59da181591dbb122a894372c6e44cc079a7bb3f",
      "to": "0xde404d710d05ff7bece1a1b9754b22e74b20acf7",
      "contractAddress": null,
      "gasUsedForL1": "0x147",
      "l1BlockNumber": "0x894ab9",
      "timeboosted": false
    },
    {
      "status": "0x1",
      "cumulativeGasUsed": "0x664f",
      "logs": [
        {
          "address": "0x8f0cac2c61c3bc383f045e9d746e5a193011b342",
          "topics": [
            "0x8be0079c531659141344cd1fd0a4f28419497f9722a3daafe3b4186f6b6457e0",
            "0x000000000000000000000000f59da181591dbb122a894372c6e44cc079a7bb3f",
            "0x000000000000000000000000f59da181591dbb122a894372c6e44cc079a7bb3f"
          ],
          "data": "0x",
          "blockHash": "0x29dd0a97c762f7062287d0c16a84f044f0a0345c3f91bfff885d1d0cc24a4256",
          "blockNumber": "0xb00eea5",
          "transactionHash": "0x40d1ac2d07930807e9195fbcb9e79be990a813de3e4bbdb44af796d8525f9a69",
          "transactionIndex": "0x1",
          "logIndex": "0x0",
          "removed": false
        }
      ],
      "logsBloom": "0x00000000000000000000000000000000000000000000000000800000000000000000000000000002000000000000000000000000000000000000000000000000000000000000000000001000000000000001000000000000000000000004000000000000000000000000000000000000000000000000000000200000000000400000000000000000000000000000000000000000000000000000000000000000000000000000000000000000000000000000000000000000000000000000010000000000000000000000000000000000000000000000000000000000000000000000000000000000000000000000000000000000000000000000000002000000",
      "type": "0x2",
      "transactionHash": "0x40d1ac2d07930807e9195fbcb9e79be990a813de3e4bbdb44af796d8525f9a69",
      "transactionIndex": "0x1",
      "blockHash": "0x29dd0a97c762f7062287d0c16a84f044f0a0345c3f91bfff885d1d0cc24a4256",
      "blockNumber": "0xb00eea5",
      "gasUsed": "0x664f",
      "effectiveGasPrice": "0x5f5e100",
      "from": "0xf59da181591dbb122a894372c6e44cc079a7bb3f",
      "to": "0x8f0cac2c61c3bc383f045e9d746e5a193011b342",
      "contractAddress": null,
      "gasUsedForL1": "0x147",
      "l1BlockNumber": "0x894ab9",
      "timeboosted": false
    },
    {
      "status": "0x1",
      "cumulativeGasUsed": "0x113f4",
      "logs": [
        {
          "address": "0xcda5a8763a70dbe9b3f62a649595b468ddf7bd3b",
          "topics": [
            "0xddf252ad1be2c89b69c2b068fc378daa952ba7f163c4a11628f55a4df523b3ef",
            "0x0000000000000000000000000000000000000000000000000000000000000000",
            "0x000000000000000000000000f59da181591dbb122a894372c6e44cc079a7bb3f"
          ],
          "data": "0x000000000000000000000000000000000000000000000000000000174876e800",
          "blockHash": "0x1a9609955b1e0ee082648f31c8f1c5a8528937905abee0d5a4b92489bed2452b",
          "blockNumber": "0xb00eea8",
          "transactionHash": "0x84049a2d0a0c4ac9682c22cafc97fc79fd499fd8ff642aea3cd5d5f4d85891f6",
          "transactionIndex": "0x1",
          "logIndex": "0x0",
          "removed": false
        }
      ],
      "logsBloom": "0x00000000000000000000000000000000000000000000000000000000000000000000000000000002000000000000000000000000000000000000000000000000000000000000000000001008000000000000000000000000000000000000000000000000020000000000000000000800000000000000000000200010000000000000000000000000001000000000000000000000000000000000000000000000000000000000000000000000000000000000000000000000000000000000000000000002000000000000000000000000000000000000000000000000000020020000000000000000200000000000000000000000000000000000000000000000",
      "type": "0x2",
      "transactionHash": "0x84049a2d0a0c4ac9682c22cafc97fc79fd499fd8ff642aea3cd5d5f4d85891f6",
      "transactionIndex": "0x1",
      "blockHash": "0x1a9609955b1e0ee082648f31c8f1c5a8528937905abee0d5a4b92489bed2452b",
      "blockNumber": "0xb00eea8",
      "gasUsed": "0x113f4",
      "effectiveGasPrice": "0x5f5e100",
      "from": "0xf59da181591dbb122a894372c6e44cc079a7bb3f",
      "to": "0xcda5a8763a70dbe9b3f62a649595b468ddf7bd3b",
      "contractAddress": null,
      "gasUsedForL1": "0x192",
      "l1BlockNumber": "0x894ab9",
      "timeboosted": false
    },
    {
      "status": "0x1",
      "cumulativeGasUsed": "0xd128",
      "logs": [
        {
          "address": "0xcda5a8763a70dbe9b3f62a649595b468ddf7bd3b",
          "topics": [
            "0xddf252ad1be2c89b69c2b068fc378daa952ba7f163c4a11628f55a4df523b3ef",
            "0x0000000000000000000000000000000000000000000000000000000000000000",
            "0x0000000000000000000000003173ed1ec423f5071045d861cab532c2909fb4c0"
          ],
          "data": "0x000000000000000000000000000000000000000000000000000000174876e800",
          "blockHash": "0x86fcb5122be8d3188fda53b5333403948aa6db0d73a44a96061084b20996b27e",
          "blockNumber": "0xb00eeab",
          "transactionHash": "0x78cf3ee8f8a1d002955f429f3853ce04715e449ab05adde470d2b6c32ee7022a",
          "transactionIndex": "0x1",
          "logIndex": "0x0",
          "removed": false
        }
      ],
      "logsBloom": "0x00000000000000000000000000000000000000000000000001000000000000000000000000000000000000000000000000000000000000000000000000000000000000000000000000000008000000000000000000000000000001000000000000000000020000000000000000000800000000800000000000000010000000000000000000000000001000000000000000000000000000000000000000000000000000000000000000000000000000000000000000000000000000000000000000000002000000000000000000000000000000000000000000000000000020020000000000000000200000000000000000000000000000000000000000000000",
      "type": "0x2",
      "transactionHash": "0x78cf3ee8f8a1d002955f429f3853ce04715e449ab05adde470d2b6c32ee7022a",
      "transactionIndex": "0x1",
      "blockHash": "0x86fcb5122be8d3188fda53b5333403948aa6db0d73a44a96061084b20996b27e",
      "blockNumber": "0xb00eeab",
      "gasUsed": "0xd128",
      "effectiveGasPrice": "0x5f5e100",
      "from": "0xf59da181591dbb122a894372c6e44cc079a7bb3f",
      "to": "0xcda5a8763a70dbe9b3f62a649595b468ddf7bd3b",
      "contractAddress": null,
      "gasUsedForL1": "0x192",
      "l1BlockNumber": "0x894ab9",
      "timeboosted": false
    },
    {
      "status": "0x1",
      "cumulativeGasUsed": "0xd128",
      "logs": [
        {
          "address": "0xcda5a8763a70dbe9b3f62a649595b468ddf7bd3b",
          "topics": [
            "0xddf252ad1be2c89b69c2b068fc378daa952ba7f163c4a11628f55a4df523b3ef",
            "0x0000000000000000000000000000000000000000000000000000000000000000",
            "0x000000000000000000000000806b7de4add0a154262bae6a2ed08ab4ded757af"
          ],
          "data": "0x000000000000000000000000000000000000000000000000000000174876e800",
          "blockHash": "0x4a5d6d698571fd5a6954fdb56d7f3d323b1e353411f8f3d26496bd6d5e0c09fb",
          "blockNumber": "0xb00eeae",
          "transactionHash": "0x4010a0cec177e2bb45c05c16f0b21852a759519ad9b96c21263ea34192a93a73",
          "transactionIndex": "0x1",
          "logIndex": "0x0",
          "removed": false
        }
      ],
      "logsBloom": "0x00000000000000000000000000000000000000000000000000000000000000000000001000000000000000000000000000000000000000000000000000000000000000000000010000000008000000000000000000000000000000000000000000000000020000000000000000000800000000000000001000000010000000000000000000000000001000000000000000000000000000000000000000000000000000000000000000000000000000000000000000000000000000000000000000000002000000000000000000000000000000000000000000000000000020020000000000000000200000000000000000000000000000000000000000000000",
      "type": "0x2",
      "transactionHash": "0x4010a0cec177e2bb45c05c16f0b21852a759519ad9b96c21263ea34192a93a73",
      "transactionIndex": "0x1",
      "blockHash": "0x4a5d6d698571fd5a6954fdb56d7f3d323b1e353411f8f3d26496bd6d5e0c09fb",
      "blockNumber": "0xb00eeae",
      "gasUsed": "0xd128",
      "effectiveGasPrice": "0x5f5e100",
      "from": "0xf59da181591dbb122a894372c6e44cc079a7bb3f",
      "to": "0xcda5a8763a70dbe9b3f62a649595b468ddf7bd3b",
      "contractAddress": null,
      "gasUsedForL1": "0x192",
      "l1BlockNumber": "0x894ab9",
      "timeboosted": false
    },
    {
      "status": "0x1",
      "cumulativeGasUsed": "0x113f4",
      "logs": [
        {
          "address": "0x95834250bc43c748a0268d42bec243304929c7d3",
          "topics": [
            "0xddf252ad1be2c89b69c2b068fc378daa952ba7f163c4a11628f55a4df523b3ef",
            "0x0000000000000000000000000000000000000000000000000000000000000000",
            "0x000000000000000000000000f59da181591dbb122a894372c6e44cc079a7bb3f"
          ],
          "data": "0x000000000000000000000000000000000000000000000000000000174876e800",
          "blockHash": "0x2d37b1fa037e33888041c65e25e941a9ab27b9ea17efde809b8df9ff9e08f38e",
          "blockNumber": "0xb00eeb1",
          "transactionHash": "0x3a0452b85455421d8232f2930b2b5c64aa7c9a0bdcfc1a15220de4a2fc47e37f",
          "transactionIndex": "0x1",
          "logIndex": "0x0",
          "removed": false
        }
      ],
      "logsBloom": "0x00000000000000000000000000000000000000000000000000000000000000000000000000000002000000000000000000000010000000000000000000000000000000000000000000001008000000000000000000000000000000000000800000000000020000000000000000000800000000000000000000200010000000000000000000000000000000000000000000000000000000000000000000000000000000000080000000000000000000000000000000000000000000000000000000000002000000000000000000000000000000000000000000000000000020000000000000000000000000000000000000000000000000000000000000000000",
      "type": "0x2",
      "transactionHash": "0x3a0452b85455421d8232f2930b2b5c64aa7c9a0bdcfc1a15220de4a2fc47e37f",
      "transactionIndex": "0x1",
      "blockHash": "0x2d37b1fa037e33888041c65e25e941a9ab27b9ea17efde809b8df9ff9e08f38e",
      "blockNumber": "0xb00eeb1",
      "gasUsed": "0x113f4",
      "effectiveGasPrice": "0x5f5e100",
      "from": "0xf59da181591dbb122a894372c6e44cc079a7bb3f",
      "to": "0x95834250bc43c748a0268d42bec243304929c7d3",
      "contractAddress": null,
      "gasUsedForL1": "0x192",
      "l1BlockNumber": "0x894ab9",
      "timeboosted": false
    },
    {
      "status": "0x1",
      "cumulativeGasUsed": "0xd2ae2",
      "logs": [
        {
          "address": "0x95834250bc43c748a0268d42bec243304929c7d3",
          "topics": [
            "0xddf252ad1be2c89b69c2b068fc378daa952ba7f163c4a11628f55a4df523b3ef",
            "0x0000000000000000000000000000000000000000000000000000000000000000",
            "0x0000000000000000000000003173ed1ec423f5071045d861cab532c2909fb4c0"
          ],
          "data": "0x000000000000000000000000000000000000000000000000000000174876e800",
          "blockHash": "0x8ecedc59d055d3f52bc5d1f717c02106a5ed56cd28d7171e72576c7111734c69",
          "blockNumber": "0xb00eeb4",
          "transactionHash": "0xc1aa2a6a2cde95f5bd4e161e5a2638829144a49cf0fce8466b4a602cdf3b97a1",
          "transactionIndex": "0x3",
          "logIndex": "0x6",
          "removed": false
        }
      ],
      "logsBloom": "0x00000000000000000000000000000000000000000000000001000000000000000000000000000000000000000000000000000010000000000000000000000000000000000000000000000008000000000000000000000000000001000000800000000000020000000000000000000800000000800000000000000010000000000000000000000000000000000000000000000000000000000000000000000000000000000080000000000000000000000000000000000000000000000000000000000002000000000000000000000000000000000000000000000000000020000000000000000000000000000000000000000000000000000000000000000000",
      "type": "0x2",
      "transactionHash": "0xc1aa2a6a2cde95f5bd4e161e5a2638829144a49cf0fce8466b4a602cdf3b97a1",
      "transactionIndex": "0x3",
      "blockHash": "0x8ecedc59d055d3f52bc5d1f717c02106a5ed56cd28d7171e72576c7111734c69",
      "blockNumber": "0xb00eeb4",
      "gasUsed": "0xd128",
      "effectiveGasPrice": "0x5f5e100",
      "from": "0xf59da181591dbb122a894372c6e44cc079a7bb3f",
      "to": "0x95834250bc43c748a0268d42bec243304929c7d3",
      "contractAddress": null,
      "gasUsedForL1": "0x192",
      "l1BlockNumber": "0x894ab9",
      "timeboosted": false
    },
    {
      "status": "0x1",
      "cumulativeGasUsed": "0xd128",
      "logs": [
        {
          "address": "0x95834250bc43c748a0268d42bec243304929c7d3",
          "topics": [
            "0xddf252ad1be2c89b69c2b068fc378daa952ba7f163c4a11628f55a4df523b3ef",
            "0x0000000000000000000000000000000000000000000000000000000000000000",
            "0x000000000000000000000000806b7de4add0a154262bae6a2ed08ab4ded757af"
          ],
          "data": "0x000000000000000000000000000000000000000000000000000000174876e800",
          "blockHash": "0x6a19290d6825dea4df9ac53faa785f880f501adf8c9a847e6e50536e520e38a2",
          "blockNumber": "0xb00eeb7",
          "transactionHash": "0xf897d063f45fabefe0ea37da68e35c1c5942120bc1ddf1f71074488e3a996316",
          "transactionIndex": "0x1",
          "logIndex": "0x0",
          "removed": false
        }
      ],
      "logsBloom": "0x00000000000000000000000000000000000000000000000000000000000000000000001000000000000000000000000000000010000000000000000000000000000000000000010000000008000000000000000000000000000000000000800000000000020000000000000000000800000000000000001000000010000000000000000000000000000000000000000000000000000000000000000000000000000000000080000000000000000000000000000000000000000000000000000000000002000000000000000000000000000000000000000000000000000020000000000000000000000000000000000000000000000000000000000000000000",
      "type": "0x2",
      "transactionHash": "0xf897d063f45fabefe0ea37da68e35c1c5942120bc1ddf1f71074488e3a996316",
      "transactionIndex": "0x1",
      "blockHash": "0x6a19290d6825dea4df9ac53faa785f880f501adf8c9a847e6e50536e520e38a2",
      "blockNumber": "0xb00eeb7",
      "gasUsed": "0xd128",
      "effectiveGasPrice": "0x5f5e100",
      "from": "0xf59da181591dbb122a894372c6e44cc079a7bb3f",
      "to": "0x95834250bc43c748a0268d42bec243304929c7d3",
      "contractAddress": null,
      "gasUsedForL1": "0x192",
      "l1BlockNumber": "0x894ab9",
      "timeboosted": false
    },
    {
      "status": "0x1",
      "cumulativeGasUsed": "0x113f4",
      "logs": [
        {
          "address": "0xde404d710d05ff7bece1a1b9754b22e74b20acf7",
          "topics": [
            "0xddf252ad1be2c89b69c2b068fc378daa952ba7f163c4a11628f55a4df523b3ef",
            "0x0000000000000000000000000000000000000000000000000000000000000000",
            "0x000000000000000000000000f59da181591dbb122a894372c6e44cc079a7bb3f"
          ],
          "data": "0x000000000000000000000000000000000000000000000000000000174876e800",
          "blockHash": "0x2095f6c3f5ef90cd2c3d92bf0189c3d0f9beeb98ce26bddf97e53b45556c3f7b",
          "blockNumber": "0xb00eeba",
          "transactionHash": "0x9eb1a1e50ec957a26346579fab1d1778b4593a3fac7a23e15c2b13bdc0b58960",
          "transactionIndex": "0x1",
          "logIndex": "0x0",
          "removed": false
        }
      ],
      "logsBloom": "0x00000000000000000000000000000000000000000000000000000000000000000000000000000002000000040000000000000000000000000000000000000000000000000000000000001008000000000000000000000000000000000000000000000000020000000000000000000800000000000000000000200010000000000000000000000000000000000000000000000000000000000000000000000000000200000000000000008000000000000000000000000000000000000000000000000002000000000000000000000000000000000000000000000000000020000000000000000000000000000000000000000000000000000000000000000000",
      "type": "0x2",
      "transactionHash": "0x9eb1a1e50ec957a26346579fab1d1778b4593a3fac7a23e15c2b13bdc0b58960",
      "transactionIndex": "0x1",
      "blockHash": "0x2095f6c3f5ef90cd2c3d92bf0189c3d0f9beeb98ce26bddf97e53b45556c3f7b",
      "blockNumber": "0xb00eeba",
      "gasUsed": "0x113f4",
      "effectiveGasPrice": "0x5f5e100",
      "from": "0xf59da181591dbb122a894372c6e44cc079a7bb3f",
      "to": "0xde404d710d05ff7bece1a1b9754b22e74b20acf7",
      "contractAddress": null,
      "gasUsedForL1": "0x192",
      "l1BlockNumber": "0x894ab9",
      "timeboosted": false
    },
    {
      "status": "0x1",
      "cumulativeGasUsed": "0x9c217",
      "logs": [
        {
          "address": "0xde404d710d05ff7bece1a1b9754b22e74b20acf7",
          "topics": [
            "0xddf252ad1be2c89b69c2b068fc378daa952ba7f163c4a11628f55a4df523b3ef",
            "0x0000000000000000000000000000000000000000000000000000000000000000",
            "0x0000000000000000000000003173ed1ec423f5071045d861cab532c2909fb4c0"
          ],
          "data": "0x000000000000000000000000000000000000000000000000000000174876e800",
          "blockHash": "0xd9eeb209ee4d9618b2b314ac803668d42ee8fe623105cf8458e8a0ea4a15a40a",
          "blockNumber": "0xb00eebd",
          "transactionHash": "0xec36743bc49f6c03b3037be79b72baddf3b7568031950227ebd6c9394775cedd",
          "transactionIndex": "0x5",
          "logIndex": "0x11",
          "removed": false
        }
      ],
      "logsBloom": "0x00000000000000000000000000000000000000000000000001000000000000000000000000000000000000040000000000000000000000000000000000000000000000000000000000000008000000000000000000000000000001000000000000000000020000000000000000000800000000800000000000000010000000000000000000000000000000000000000000000000000000000000000000000000000200000000000000008000000000000000000000000000000000000000000000000002000000000000000000000000000000000000000000000000000020000000000000000000000000000000000000000000000000000000000000000000",
      "type": "0x2",
      "transactionHash": "0xec36743bc49f6c03b3037be79b72baddf3b7568031950227ebd6c9394775cedd",
      "transactionIndex": "0x5",
      "blockHash": "0xd9eeb209ee4d9618b2b314ac803668d42ee8fe623105cf8458e8a0ea4a15a40a",
      "blockNumber": "0xb00eebd",
      "gasUsed": "0xd128",
      "effectiveGasPrice": "0x5f5e100",
      "from": "0xf59da181591dbb122a894372c6e44cc079a7bb3f",
      "to": "0xde404d710d05ff7bece1a1b9754b22e74b20acf7",
      "contractAddress": null,
      "gasUsedForL1": "0x192",
      "l1BlockNumber": "0x894ab9",
      "timeboosted": false
    },
    {
      "status": "0x1",
      "cumulativeGasUsed": "0x23f47",
      "logs": [
        {
          "address": "0xde404d710d05ff7bece1a1b9754b22e74b20acf7",
          "topics": [
            "0xddf252ad1be2c89b69c2b068fc378daa952ba7f163c4a11628f55a4df523b3ef",
            "0x0000000000000000000000000000000000000000000000000000000000000000",
            "0x000000000000000000000000806b7de4add0a154262bae6a2ed08ab4ded757af"
          ],
          "data": "0x000000000000000000000000000000000000000000000000000000174876e800",
          "blockHash": "0xaf870be09e5a52f8ba5163026ad41b742e3005ac9678a9419536cdef5bf2e06e",
          "blockNumber": "0xb00eec0",
          "transactionHash": "0x05c8c8c90643ca96e8fc8b65177664809104cd27044ed3ddef3fd7319d349727",
          "transactionIndex": "0x2",
          "logIndex": "0x2",
          "removed": false
        }
      ],
      "logsBloom": "0x00000000000000000000000000000000000000000000000000000000000000000000001000000000000000040000000000000000000000000000000000000000000000000000010000000008000000000000000000000000000000000000000000000000020000000000000000000800000000000000001000000010000000000000000000000000000000000000000000000000000000000000000000000000000200000000000000008000000000000000000000000000000000000000000000000002000000000000000000000000000000000000000000000000000020000000000000000000000000000000000000000000000000000000000000000000",
      "type": "0x2",
      "transactionHash": "0x05c8c8c90643ca96e8fc8b65177664809104cd27044ed3ddef3fd7319d349727",
      "transactionIndex": "0x2",
      "blockHash": "0xaf870be09e5a52f8ba5163026ad41b742e3005ac9678a9419536cdef5bf2e06e",
      "blockNumber": "0xb00eec0",
      "gasUsed": "0xd128",
      "effectiveGasPrice": "0x5f5e100",
      "from": "0xf59da181591dbb122a894372c6e44cc079a7bb3f",
      "to": "0xde404d710d05ff7bece1a1b9754b22e74b20acf7",
      "contractAddress": null,
      "gasUsedForL1": "0x192",
      "l1BlockNumber": "0x894ab9",
      "timeboosted": false
    },
    {
      "status": "0x1",
      "cumulativeGasUsed": "0x11424",
      "logs": [
        {
          "address": "0x8f0cac2c61c3bc383f045e9d746e5a193011b342",
          "topics": [
            "0xddf252ad1be2c89b69c2b068fc378daa952ba7f163c4a11628f55a4df523b3ef",
            "0x0000000000000000000000000000000000000000000000000000000000000000",
            "0x000000000000000000000000f59da181591dbb122a894372c6e44cc079a7bb3f"
          ],
          "data": "0x00000000000000000000000000000000000000000000152d02c7e14af6800000",
          "blockHash": "0x9dedecdf2db64c388717ed6568403ec41fc4b2344777f00a7616eee4b0d491dc",
          "blockNumber": "0xb00eec3",
          "transactionHash": "0xb5fbae32595bf43e4d607a760234472167322ae992974222e86c6eabffe02861",
          "transactionIndex": "0x1",
          "logIndex": "0x0",
          "removed": false
        }
      ],
      "logsBloom": "0x00000000000000000000000000000000000000000000000000000000000000000000000000000002000000000000000000000000000000000000000000000000000000000000000000001008000000000000000000000000000000000004000000000000020000000000000000000800000000000000000000200010000000000000000000000000000000000000000000000000000000000000000000000000000000000000000000000000000000000000000000000000000000000000010000000002000000000000000000000000000000000000000000000000000020000000000000000000000000000000000000000000000000000000000002000000",
      "type": "0x2",
      "transactionHash": "0xb5fbae32595bf43e4d607a760234472167322ae992974222e86c6eabffe02861",
      "transactionIndex": "0x1",
      "blockHash": "0x9dedecdf2db64c388717ed6568403ec41fc4b2344777f00a7616eee4b0d491dc",
      "blockNumber": "0xb00eec3",
      "gasUsed": "0x11424",
      "effectiveGasPrice": "0x5f5e100",
      "from": "0xf59da181591dbb122a894372c6e44cc079a7bb3f",
      "to": "0x8f0cac2c61c3bc383f045e9d746e5a193011b342",
      "contractAddress": null,
      "gasUsedForL1": "0x192",
      "l1BlockNumber": "0x894ab9",
      "timeboosted": false
    },
    {
      "status": "0x1",
      "cumulativeGasUsed": "0x140d8c",
      "logs": [
        {
          "address": "0x8f0cac2c61c3bc383f045e9d746e5a193011b342",
          "topics": [
            "0xddf252ad1be2c89b69c2b068fc378daa952ba7f163c4a11628f55a4df523b3ef",
            "0x0000000000000000000000000000000000000000000000000000000000000000",
            "0x0000000000000000000000003173ed1ec423f5071045d861cab532c2909fb4c0"
          ],
          "data": "0x00000000000000000000000000000000000000000000152d02c7e14af6800000",
          "blockHash": "0x8f4b5ba767040a68de709c94913b031baadb60b3c2ef3c80a947e8370134a350",
          "blockNumber": "0xb00eec5",
          "transactionHash": "0xd2507d374867a7d2fd584dcb8fab444a5832f0145c1bd50a505e20cc2b73ed5c",
          "transactionIndex": "0x7",
          "logIndex": "0x2c",
          "removed": false
        }
      ],
      "logsBloom": "0x00000000000000000000000000000000000000000000000001000000000000000000000000000000000000000000000000000000000000000000000000000000000000000000000000000008000000000000000000000000000001000004000000000000020000000000000000000800000000800000000000000010000000000000000000000000000000000000000000000000000000000000000000000000000000000000000000000000000000000000000000000000000000000000010000000002000000000000000000000000000000000000000000000000000020000000000000000000000000000000000000000000000000000000000002000000",
      "type": "0x2",
      "transactionHash": "0xd2507d374867a7d2fd584dcb8fab444a5832f0145c1bd50a505e20cc2b73ed5c",
      "transactionIndex": "0x7",
      "blockHash": "0x8f4b5ba767040a68de709c94913b031baadb60b3c2ef3c80a947e8370134a350",
      "blockNumber": "0xb00eec5",
      "gasUsed": "0xd158",
      "effectiveGasPrice": "0x5f5e100",
      "from": "0xf59da181591dbb122a894372c6e44cc079a7bb3f",
      "to": "0x8f0cac2c61c3bc383f045e9d746e5a193011b342",
      "contractAddress": null,
      "gasUsedForL1": "0x192",
      "l1BlockNumber": "0x894ab9",
      "timeboosted": false
    },
    {
      "status": "0x1",
      "cumulativeGasUsed": "0xd158",
      "logs": [
        {
          "address": "0x8f0cac2c61c3bc383f045e9d746e5a193011b342",
          "topics": [
            "0xddf252ad1be2c89b69c2b068fc378daa952ba7f163c4a11628f55a4df523b3ef",
            "0x0000000000000000000000000000000000000000000000000000000000000000",
            "0x000000000000000000000000806b7de4add0a154262bae6a2ed08ab4ded757af"
          ],
          "data": "0x00000000000000000000000000000000000000000000152d02c7e14af6800000",
          "blockHash": "0x18eb8a38499ccc8dfb2e0be9a74b8ad2b3acc0403c88cb86fe239385ff77be81",
          "blockNumber": "0xb00eec8",
          "transactionHash": "0x16184bf2fc94a6e0517b3072abb2a9d6c8aea6657f8409753990dbc863302c03",
          "transactionIndex": "0x1",
          "logIndex": "0x0",
          "removed": false
        }
      ],
      "logsBloom": "0x00000000000000000000000000000000000000000000000000000000000000000000001000000000000000000000000000000000000000000000000000000000000000000000010000000008000000000000000000000000000000000004000000000000020000000000000000000800000000000000001000000010000000000000000000000000000000000000000000000000000000000000000000000000000000000000000000000000000000000000000000000000000000000000010000000002000000000000000000000000000000000000000000000000000020000000000000000000000000000000000000000000000000000000000002000000",
      "type": "0x2",
      "transactionHash": "0x16184bf2fc94a6e0517b3072abb2a9d6c8aea6657f8409753990dbc863302c03",
      "transactionIndex": "0x1",
      "blockHash": "0x18eb8a38499ccc8dfb2e0be9a74b8ad2b3acc0403c88cb86fe239385ff77be81",
      "blockNumber": "0xb00eec8",
      "gasUsed": "0xd158",
      "effectiveGasPrice": "0x5f5e100",
      "from": "0xf59da181591dbb122a894372c6e44cc079a7bb3f",
      "to": "0x8f0cac2c61c3bc383f045e9d746e5a193011b342",
      "contractAddress": null,
      "gasUsedForL1": "0x192",
      "l1BlockNumber": "0x894ab9",
      "timeboosted": false
    },
    {
      "status": "0x1",
      "cumulativeGasUsed": "0x4ed70",
      "logs": [
        {
          "address": "0xcda5a8763a70dbe9b3f62a649595b468ddf7bd3b",
          "topics": [
            "0x8be0079c531659141344cd1fd0a4f28419497f9722a3daafe3b4186f6b6457e0",
            "0x000000000000000000000000f59da181591dbb122a894372c6e44cc079a7bb3f",
            "0x000000000000000000000000f59da181591dbb122a894372c6e44cc079a7bb3f"
          ],
          "data": "0x",
          "blockHash": "0x542f9f27a33403a340149f7284fe6369f552a7d101ff5108c908c4fb64d4f51d",
          "blockNumber": "0xb00eecb",
          "transactionHash": "0x945feb08b01c40d309c926be4257d849902e3bf8a9f6d453ec43dca702d61492",
          "transactionIndex": "0x5",
          "logIndex": "0x6",
          "removed": false
        }
      ],
      "logsBloom": "0x00000000000000000000000000000000000000000000000000800000000000000000000000000002000000000000000000000000000000000000000000000000000000000000000000001000000000000001000000000000000000000000000000000000000000000000000000000000000000000000000000200000000000400000000000000000001000000000000000000000000000000000000000000000000000000000000000000000000000000000000000000000000000000000000000000000000000000000000000000000000000000000000000000000000000020000000000000000200000000000000000000000000000000000000000000000",
      "type": "0x2",
      "transactionHash": "0x945feb08b01c40d309c926be4257d849902e3bf8a9f6d453ec43dca702d61492",
      "transactionIndex": "0x5",
      "blockHash": "0x542f9f27a33403a340149f7284fe6369f552a7d101ff5108c908c4fb64d4f51d",
      "blockNumber": "0xb00eecb",
      "gasUsed": "0x664f",
      "effectiveGasPrice": "0x5f5e100",
      "from": "0xf59da181591dbb122a894372c6e44cc079a7bb3f",
      "to": "0xcda5a8763a70dbe9b3f62a649595b468ddf7bd3b",
      "contractAddress": null,
      "gasUsedForL1": "0x147",
      "l1BlockNumber": "0x894ab9",
      "timeboosted": false
    },
    {
      "status": "0x1",
      "cumulativeGasUsed": "0x664f",
      "logs": [
        {
          "address": "0x95834250bc43c748a0268d42bec243304929c7d3",
          "topics": [
            "0x8be0079c531659141344cd1fd0a4f28419497f9722a3daafe3b4186f6b6457e0",
            "0x000000000000000000000000f59da181591dbb122a894372c6e44cc079a7bb3f",
            "0x000000000000000000000000f59da181591dbb122a894372c6e44cc079a7bb3f"
          ],
          "data": "0x",
          "blockHash": "0x77468bab27c58c5fb75e4b27bf56651999110d590c4a815a1038ce299b03030f",
          "blockNumber": "0xb00eecd",
          "transactionHash": "0xc7247f1ee666aeb6967f9d13edb080cd775b8800015ef5db9020c7969eefab44",
          "transactionIndex": "0x1",
          "logIndex": "0x0",
          "removed": false
        }
      ],
      "logsBloom": "0x00000000000000000000000000000000000000000000000000800000000000000000000000000002000000000000000000000010000000000000000000000000000000000000000000001000000000000001000000000000000000000000800000000000000000000000000000000000000000000000000000200000000000400000000000000000000000000000000000000000000000000000000000000000000000000080000000000000000000000000000000000000000000000000000000000000000000000000000000000000000000000000000000000000000000000000000000000000000000000000000000000000000000000000000000000000",
      "type": "0x2",
      "transactionHash": "0xc7247f1ee666aeb6967f9d13edb080cd775b8800015ef5db9020c7969eefab44",
      "transactionIndex": "0x1",
      "blockHash": "0x77468bab27c58c5fb75e4b27bf56651999110d590c4a815a1038ce299b03030f",
      "blockNumber": "0xb00eecd",
      "gasUsed": "0x664f",
      "effectiveGasPrice": "0x5f5e100",
      "from": "0xf59da181591dbb122a894372c6e44cc079a7bb3f",
      "to": "0x95834250bc43c748a0268d42bec243304929c7d3",
      "contractAddress": null,
      "gasUsedForL1": "0x147",
      "l1BlockNumber": "0x894ab9",
      "timeboosted": false
    },
    {
      "status": "0x1",
      "cumulativeGasUsed": "0x664f",
      "logs": [
        {
          "address": "0xde404d710d05ff7bece1a1b9754b22e74b20acf7",
          "topics": [
            "0x8be0079c531659141344cd1fd0a4f28419497f9722a3daafe3b4186f6b6457e0",
            "0x000000000000000000000000f59da181591dbb122a894372c6e44cc079a7bb3f",
            "0x000000000000000000000000f59da181591dbb122a894372c6e44cc079a7bb3f"
          ],
          "data": "0x",
          "blockHash": "0x309a73d54e8cc596e6fc43d9022603eb11049f0bbab0e0f0e635f05319222c20",
          "blockNumber": "0xb00eed1",
          "transactionHash": "0x8915d520823a7a7aecfb8a3eba225c9955b2223e4c4ba845d76f4420f0916b15",
          "transactionIndex": "0x1",
          "logIndex": "0x0",
          "removed": false
        }
      ],
      "logsBloom": "0x00000000000000000000000000000000000000000000000000800000000000000000000000000002000000040000000000000000000000000000000000000000000000000000000000001000000000000001000000000000000000000000000000000000000000000000000000000000000000000000000000200000000000400000000000000000000000000000000000000000000000000000000000000000000200000000000000008000000000000000000000000000000000000000000000000000000000000000000000000000000000000000000000000000000000000000000000000000000000000000000000000000000000000000000000000000",
      "type": "0x2",
      "transactionHash": "0x8915d520823a7a7aecfb8a3eba225c9955b2223e4c4ba845d76f4420f0916b15",
      "transactionIndex": "0x1",
      "blockHash": "0x309a73d54e8cc596e6fc43d9022603eb11049f0bbab0e0f0e635f05319222c20",
      "blockNumber": "0xb00eed1",
      "gasUsed": "0x664f",
      "effectiveGasPrice": "0x5f5e100",
      "from": "0xf59da181591dbb122a894372c6e44cc079a7bb3f",
      "to": "0xde404d710d05ff7bece1a1b9754b22e74b20acf7",
      "contractAddress": null,
      "gasUsedForL1": "0x147",
      "l1BlockNumber": "0x894aba",
      "timeboosted": false
    },
    {
      "status": "0x1",
      "cumulativeGasUsed": "0x62502",
      "logs": [
        {
          "address": "0x8f0cac2c61c3bc383f045e9d746e5a193011b342",
          "topics": [
            "0x8be0079c531659141344cd1fd0a4f28419497f9722a3daafe3b4186f6b6457e0",
            "0x000000000000000000000000f59da181591dbb122a894372c6e44cc079a7bb3f",
            "0x000000000000000000000000f59da181591dbb122a894372c6e44cc079a7bb3f"
          ],
          "data": "0x",
          "blockHash": "0xc86e345686483d55db0f21f809158fd22386c99b9df6072934d4d3521988ac8f",
          "blockNumber": "0xb00eed4",
          "transactionHash": "0xafab19284b6ab1cce0eccf463b00cc9f9d3c5625b5eb6579451e607ebe94999e",
          "transactionIndex": "0x3",
          "logIndex": "0x5",
          "removed": false
        }
      ],
      "logsBloom": "0x00000000000000000000000000000000000000000000000000800000000000000000000000000002000000000000000000000000000000000000000000000000000000000000000000001000000000000001000000000000000000000004000000000000000000000000000000000000000000000000000000200000000000400000000000000000000000000000000000000000000000000000000000000000000000000000000000000000000000000000000000000000000000000000010000000000000000000000000000000000000000000000000000000000000000000000000000000000000000000000000000000000000000000000000002000000",
      "type": "0x2",
      "transactionHash": "0xafab19284b6ab1cce0eccf463b00cc9f9d3c5625b5eb6579451e607ebe94999e",
      "transactionIndex": "0x3",
      "blockHash": "0xc86e345686483d55db0f21f809158fd22386c99b9df6072934d4d3521988ac8f",
      "blockNumber": "0xb00eed4",
      "gasUsed": "0x664f",
      "effectiveGasPrice": "0x5f5e100",
      "from": "0xf59da181591dbb122a894372c6e44cc079a7bb3f",
      "to": "0x8f0cac2c61c3bc383f045e9d746e5a193011b342",
      "contractAddress": null,
      "gasUsedForL1": "0x147",
      "l1BlockNumber": "0x894aba",
      "timeboosted": false
    }
  ],
  "libraries": [],
  "pending": [],
  "returns": {},
  "timestamp": 1755357237919,
  "chain": 421614,
  "commit": "f13b4d6"
}