{
  "transactions": [
    {
      "hash": "0xc494f1411bd89324f9e6ce4e595298a4a80285e72224d69bdd120abb3abecb31",
      "transactionType": "CREATE",
      "contractName": "MockERC20",
      "contractAddress": "0x7197cba866d739d20228321467f6bbc6ca676a09",
      "function": null,
      "arguments": [
        "USD Coin",
        "USDC",
        "6",
        "1000000000000"
      ],
      "transaction": {
        "from": "0xf59da181591dbb122a894372c6e44cc079a7bb3f",
        "gas": "0xb2955",
        "value": "0x0",
        "input": "0x6080604052346103b657610ad780380380610019816103ba565b9283398101906080818303126103b65780516001600160401b0381116103b657826100459183016103df565b602082015190926001600160401b0382116103b6576100659183016103df565b9060408101519060ff82168092036103b6576060015183519091906001600160401b0381116102c757600354600181811c911680156103ac575b60208210146102a957601f8111610349575b50602094601f82116001146102e6579481929394955f926102db575b50508160011b915f199060031b1c1916176003555b82516001600160401b0381116102c757600454600181811c911680156102bd575b60208210146102a957601f8111610246575b506020601f82116001146101e357819293945f926101d8575b50508160011b915f199060031b1c1916176004555b60ff19600554161760055533156101c5576002548181018091116101b157600255335f525f60205260405f208181540190556040519081525f7fddf252ad1be2c89b69c2b068fc378daa952ba7f163c4a11628f55a4df523b3ef60203393a36040516106a690816104318239f35b634e487b7160e01b5f52601160045260245ffd5b63ec442f0560e01b5f525f60045260245ffd5b015190505f8061012e565b601f1982169060045f52805f20915f5b81811061022e57509583600195969710610216575b505050811b01600455610143565b01515f1960f88460031b161c191690555f8080610208565b9192602060018192868b0151815501940192016101f3565b60045f527f8a35acfbc15ff81a39ae7d344fd709f28e8600b4aa8c65c6b64bfe7fe36bd19b601f830160051c8101916020841061029f575b601f0160051c01905b8181106102945750610115565b5f8155600101610287565b909150819061027e565b634e487b7160e01b5f52602260045260245ffd5b90607f1690610103565b634e487b7160e01b5f52604160045260245ffd5b015190505f806100cd565b601f1982169560035f52805f20915f5b88811061033157508360019596979810610319575b505050811b016003556100e2565b01515f1960f88460031b161c191690555f808061030b565b919260206001819286850151815501940192016102f6565b60035f527fc2575a0e9e593c00f959f8c92f12db2869c3395a3b0502d05e2516446f71f85b601f830160051c810191602084106103a2575b601f0160051c01905b81811061039757506100b1565b5f815560010161038a565b9091508190610381565b90607f169061009f565b5f80fd5b6040519190601f01601f191682016001600160401b038111838210176102c757604052565b81601f820112156103b6578051906001600160401b0382116102c75761040e601f8301601f19166020016103ba565b92828452602083830101116103b657815f9260208093018386015e830101529056fe6080806040526004361015610012575f80fd5b5f3560e01c90816306fdde03146104a157508063095ea7b31461041f57806318160ddd1461040257806323b872dd14610323578063313ce5671461030357806340c10f191461026157806370a082311461022a57806395d89b411461010f578063a9059cbb146100de5763dd62ed3e1461008a575f80fd5b346100da5760403660031901126100da576100a361059a565b6100ab6105b0565b6001600160a01b039182165f908152600160209081526040808320949093168252928352819020549051908152f35b5f80fd5b346100da5760403660031901126100da576101046100fa61059a565b60243590336105c6565b602060405160018152f35b346100da575f3660031901126100da576040515f6004548060011c90600181168015610220575b60208310811461020c578285529081156101f0575060011461019b575b50819003601f01601f191681019067ffffffffffffffff8211818310176101875761018382918260405282610570565b0390f35b634e487b7160e01b5f52604160045260245ffd5b905060045f527f8a35acfbc15ff81a39ae7d344fd709f28e8600b4aa8c65c6b64bfe7fe36bd19b5f905b8282106101da57506020915082010182610153565b60018160209254838588010152019101906101c5565b90506020925060ff191682840152151560051b82010182610153565b634e487b7160e01b5f52602260045260245ffd5b91607f1691610136565b346100da5760203660031901126100da576001600160a01b0361024b61059a565b165f525f602052602060405f2054604051908152f35b346100da5760403660031901126100da5761027a61059a565b6001600160a01b031660243581156102f057600254908082018092116102dc5760207fddf252ad1be2c89b69c2b068fc378daa952ba7f163c4a11628f55a4df523b3ef915f9360025584845283825260408420818154019055604051908152a3005b634e487b7160e01b5f52601160045260245ffd5b63ec442f0560e01b5f525f60045260245ffd5b346100da575f3660031901126100da57602060ff60055416604051908152f35b346100da5760603660031901126100da5761033c61059a565b6103446105b0565b6001600160a01b0382165f818152600160209081526040808320338452909152902054909260443592915f198110610382575b5061010493506105c6565b8381106103e75784156103d45733156103c157610104945f52600160205260405f2060018060a01b0333165f526020528360405f209103905584610377565b634a1406b160e11b5f525f60045260245ffd5b63e602df0560e01b5f525f60045260245ffd5b8390637dc7a0d960e11b5f523360045260245260445260645ffd5b346100da575f3660031901126100da576020600254604051908152f35b346100da5760403660031901126100da5761043861059a565b6024359033156103d4576001600160a01b03169081156103c157335f52600160205260405f20825f526020528060405f20556040519081527f8c5be1e5ebec7d5bd14f71427d1e84f3dd0314c0f7b2291e5b200ac8c7c3b92560203392a3602060405160018152f35b346100da575f3660031901126100da575f6003548060011c90600181168015610566575b60208310811461020c578285529081156101f057506001146105115750819003601f01601f191681019067ffffffffffffffff8211818310176101875761018382918260405282610570565b905060035f527fc2575a0e9e593c00f959f8c92f12db2869c3395a3b0502d05e2516446f71f85b5f905b82821061055057506020915082010182610153565b600181602092548385880101520191019061053b565b91607f16916104c5565b602060409281835280519182918282860152018484015e5f828201840152601f01601f1916010190565b600435906001600160a01b03821682036100da57565b602435906001600160a01b03821682036100da57565b6001600160a01b031690811561065d576001600160a01b03169182156102f057815f525f60205260405f205481811061064457817fddf252ad1be2c89b69c2b068fc378daa952ba7f163c4a11628f55a4df523b3ef92602092855f525f84520360405f2055845f525f825260405f20818154019055604051908152a3565b8263391434e360e21b5f5260045260245260445260645ffd5b634b637e8f60e11b5f525f60045260245ffdfea264697066735822122048ebcefda15cdae2ea5f992efa9986e4528f40f7a32192bd756c1f978129f7c864736f6c634300081a0033000000000000000000000000000000000000000000000000000000000000008000000000000000000000000000000000000000000000000000000000000000c00000000000000000000000000000000000000000000000000000000000000006000000000000000000000000000000000000000000000000000000e8d4a51000000000000000000000000000000000000000000000000000000000000000000855534420436f696e00000000000000000000000000000000000000000000000000000000000000000000000000000000000000000000000000000000000000045553444300000000000000000000000000000000000000000000000000000000",
        "nonce": "0x2a",
        "chainId": "0x66eee"
      },
      "additionalContracts": [],
      "isFixedGasLimit": false
    },
    {
      "hash": "0x7d3f03ceecd2ad7d910aca4fa6b5be43800878a14692d3a4d9c5f62ca9423e0f",
      "transactionType": "CREATE",
      "contractName": "MockERC20",
      "contractAddress": "0x1f71b914e2a92052f7e0a5b1db7f8b8fe209d5f3",
      "function": null,
      "arguments": [
        "Tether USD",
        "USDT",
        "6",
        "1000000000000"
      ],
      "transaction": {
        "from": "0xf59da181591dbb122a894372c6e44cc079a7bb3f",
        "gas": "0xb2979",
        "value": "0x0",
        "input": "0x6080604052346103b657610ad780380380610019816103ba565b9283398101906080818303126103b65780516001600160401b0381116103b657826100459183016103df565b602082015190926001600160401b0382116103b6576100659183016103df565b9060408101519060ff82168092036103b6576060015183519091906001600160401b0381116102c757600354600181811c911680156103ac575b60208210146102a957601f8111610349575b50602094601f82116001146102e6579481929394955f926102db575b50508160011b915f199060031b1c1916176003555b82516001600160401b0381116102c757600454600181811c911680156102bd575b60208210146102a957601f8111610246575b506020601f82116001146101e357819293945f926101d8575b50508160011b915f199060031b1c1916176004555b60ff19600554161760055533156101c5576002548181018091116101b157600255335f525f60205260405f208181540190556040519081525f7fddf252ad1be2c89b69c2b068fc378daa952ba7f163c4a11628f55a4df523b3ef60203393a36040516106a690816104318239f35b634e487b7160e01b5f52601160045260245ffd5b63ec442f0560e01b5f525f60045260245ffd5b015190505f8061012e565b601f1982169060045f52805f20915f5b81811061022e57509583600195969710610216575b505050811b01600455610143565b01515f1960f88460031b161c191690555f8080610208565b9192602060018192868b0151815501940192016101f3565b60045f527f8a35acfbc15ff81a39ae7d344fd709f28e8600b4aa8c65c6b64bfe7fe36bd19b601f830160051c8101916020841061029f575b601f0160051c01905b8181106102945750610115565b5f8155600101610287565b909150819061027e565b634e487b7160e01b5f52602260045260245ffd5b90607f1690610103565b634e487b7160e01b5f52604160045260245ffd5b015190505f806100cd565b601f1982169560035f52805f20915f5b88811061033157508360019596979810610319575b505050811b016003556100e2565b01515f1960f88460031b161c191690555f808061030b565b919260206001819286850151815501940192016102f6565b60035f527fc2575a0e9e593c00f959f8c92f12db2869c3395a3b0502d05e2516446f71f85b601f830160051c810191602084106103a2575b601f0160051c01905b81811061039757506100b1565b5f815560010161038a565b9091508190610381565b90607f169061009f565b5f80fd5b6040519190601f01601f191682016001600160401b038111838210176102c757604052565b81601f820112156103b6578051906001600160401b0382116102c75761040e601f8301601f19166020016103ba565b92828452602083830101116103b657815f9260208093018386015e830101529056fe6080806040526004361015610012575f80fd5b5f3560e01c90816306fdde03146104a157508063095ea7b31461041f57806318160ddd1461040257806323b872dd14610323578063313ce5671461030357806340c10f191461026157806370a082311461022a57806395d89b411461010f578063a9059cbb146100de5763dd62ed3e1461008a575f80fd5b346100da5760403660031901126100da576100a361059a565b6100ab6105b0565b6001600160a01b039182165f908152600160209081526040808320949093168252928352819020549051908152f35b5f80fd5b346100da5760403660031901126100da576101046100fa61059a565b60243590336105c6565b602060405160018152f35b346100da575f3660031901126100da576040515f6004548060011c90600181168015610220575b60208310811461020c578285529081156101f0575060011461019b575b50819003601f01601f191681019067ffffffffffffffff8211818310176101875761018382918260405282610570565b0390f35b634e487b7160e01b5f52604160045260245ffd5b905060045f527f8a35acfbc15ff81a39ae7d344fd709f28e8600b4aa8c65c6b64bfe7fe36bd19b5f905b8282106101da57506020915082010182610153565b60018160209254838588010152019101906101c5565b90506020925060ff191682840152151560051b82010182610153565b634e487b7160e01b5f52602260045260245ffd5b91607f1691610136565b346100da5760203660031901126100da576001600160a01b0361024b61059a565b165f525f602052602060405f2054604051908152f35b346100da5760403660031901126100da5761027a61059a565b6001600160a01b031660243581156102f057600254908082018092116102dc5760207fddf252ad1be2c89b69c2b068fc378daa952ba7f163c4a11628f55a4df523b3ef915f9360025584845283825260408420818154019055604051908152a3005b634e487b7160e01b5f52601160045260245ffd5b63ec442f0560e01b5f525f60045260245ffd5b346100da575f3660031901126100da57602060ff60055416604051908152f35b346100da5760603660031901126100da5761033c61059a565b6103446105b0565b6001600160a01b0382165f818152600160209081526040808320338452909152902054909260443592915f198110610382575b5061010493506105c6565b8381106103e75784156103d45733156103c157610104945f52600160205260405f2060018060a01b0333165f526020528360405f209103905584610377565b634a1406b160e11b5f525f60045260245ffd5b63e602df0560e01b5f525f60045260245ffd5b8390637dc7a0d960e11b5f523360045260245260445260645ffd5b346100da575f3660031901126100da576020600254604051908152f35b346100da5760403660031901126100da5761043861059a565b6024359033156103d4576001600160a01b03169081156103c157335f52600160205260405f20825f526020528060405f20556040519081527f8c5be1e5ebec7d5bd14f71427d1e84f3dd0314c0f7b2291e5b200ac8c7c3b92560203392a3602060405160018152f35b346100da575f3660031901126100da575f6003548060011c90600181168015610566575b60208310811461020c578285529081156101f057506001146105115750819003601f01601f191681019067ffffffffffffffff8211818310176101875761018382918260405282610570565b905060035f527fc2575a0e9e593c00f959f8c92f12db2869c3395a3b0502d05e2516446f71f85b5f905b82821061055057506020915082010182610153565b600181602092548385880101520191019061053b565b91607f16916104c5565b602060409281835280519182918282860152018484015e5f828201840152601f01601f1916010190565b600435906001600160a01b03821682036100da57565b602435906001600160a01b03821682036100da57565b6001600160a01b031690811561065d576001600160a01b03169182156102f057815f525f60205260405f205481811061064457817fddf252ad1be2c89b69c2b068fc378daa952ba7f163c4a11628f55a4df523b3ef92602092855f525f84520360405f2055845f525f825260405f20818154019055604051908152a3565b8263391434e360e21b5f5260045260245260445260645ffd5b634b637e8f60e11b5f525f60045260245ffdfea264697066735822122048ebcefda15cdae2ea5f992efa9986e4528f40f7a32192bd756c1f978129f7c864736f6c634300081a0033000000000000000000000000000000000000000000000000000000000000008000000000000000000000000000000000000000000000000000000000000000c00000000000000000000000000000000000000000000000000000000000000006000000000000000000000000000000000000000000000000000000e8d4a51000000000000000000000000000000000000000000000000000000000000000000a546574686572205553440000000000000000000000000000000000000000000000000000000000000000000000000000000000000000000000000000000000045553445400000000000000000000000000000000000000000000000000000000",
        "nonce": "0x2b",
        "chainId": "0x66eee"
      },
      "additionalContracts": [],
      "isFixedGasLimit": false
    },
    {
      "hash": "0x45e4f7bc473362f6cf764ec1c0d22a1f9f6936dae6a6cc21e0c677ee51032838",
      "transactionType": "CREATE",
      "contractName": "MockERC20",
      "contractAddress": "0xf0b61d1c7ed86a1d1b2e1cf7a19f0af0f783b3f3",
      "function": null,
      "arguments": [
        "PayPal USD",
        "PYUSD",
        "6",
        "1000000000000"
      ],
      "transaction": {
        "from": "0xf59da181591dbb122a894372c6e44cc079a7bb3f",
        "gas": "0xb297b",
        "value": "0x0",
        "input": "0x6080604052346103b657610ad780380380610019816103ba565b9283398101906080818303126103b65780516001600160401b0381116103b657826100459183016103df565b602082015190926001600160401b0382116103b6576100659183016103df565b9060408101519060ff82168092036103b6576060015183519091906001600160401b0381116102c757600354600181811c911680156103ac575b60208210146102a957601f8111610349575b50602094601f82116001146102e6579481929394955f926102db575b50508160011b915f199060031b1c1916176003555b82516001600160401b0381116102c757600454600181811c911680156102bd575b60208210146102a957601f8111610246575b506020601f82116001146101e357819293945f926101d8575b50508160011b915f199060031b1c1916176004555b60ff19600554161760055533156101c5576002548181018091116101b157600255335f525f60205260405f208181540190556040519081525f7fddf252ad1be2c89b69c2b068fc378daa952ba7f163c4a11628f55a4df523b3ef60203393a36040516106a690816104318239f35b634e487b7160e01b5f52601160045260245ffd5b63ec442f0560e01b5f525f60045260245ffd5b015190505f8061012e565b601f1982169060045f52805f20915f5b81811061022e57509583600195969710610216575b505050811b01600455610143565b01515f1960f88460031b161c191690555f8080610208565b9192602060018192868b0151815501940192016101f3565b60045f527f8a35acfbc15ff81a39ae7d344fd709f28e8600b4aa8c65c6b64bfe7fe36bd19b601f830160051c8101916020841061029f575b601f0160051c01905b8181106102945750610115565b5f8155600101610287565b909150819061027e565b634e487b7160e01b5f52602260045260245ffd5b90607f1690610103565b634e487b7160e01b5f52604160045260245ffd5b015190505f806100cd565b601f1982169560035f52805f20915f5b88811061033157508360019596979810610319575b505050811b016003556100e2565b01515f1960f88460031b161c191690555f808061030b565b919260206001819286850151815501940192016102f6565b60035f527fc2575a0e9e593c00f959f8c92f12db2869c3395a3b0502d05e2516446f71f85b601f830160051c810191602084106103a2575b601f0160051c01905b81811061039757506100b1565b5f815560010161038a565b9091508190610381565b90607f169061009f565b5f80fd5b6040519190601f01601f191682016001600160401b038111838210176102c757604052565b81601f820112156103b6578051906001600160401b0382116102c75761040e601f8301601f19166020016103ba565b92828452602083830101116103b657815f9260208093018386015e830101529056fe6080806040526004361015610012575f80fd5b5f3560e01c90816306fdde03146104a157508063095ea7b31461041f57806318160ddd1461040257806323b872dd14610323578063313ce5671461030357806340c10f191461026157806370a082311461022a57806395d89b411461010f578063a9059cbb146100de5763dd62ed3e1461008a575f80fd5b346100da5760403660031901126100da576100a361059a565b6100ab6105b0565b6001600160a01b039182165f908152600160209081526040808320949093168252928352819020549051908152f35b5f80fd5b346100da5760403660031901126100da576101046100fa61059a565b60243590336105c6565b602060405160018152f35b346100da575f3660031901126100da576040515f6004548060011c90600181168015610220575b60208310811461020c578285529081156101f0575060011461019b575b50819003601f01601f191681019067ffffffffffffffff8211818310176101875761018382918260405282610570565b0390f35b634e487b7160e01b5f52604160045260245ffd5b905060045f527f8a35acfbc15ff81a39ae7d344fd709f28e8600b4aa8c65c6b64bfe7fe36bd19b5f905b8282106101da57506020915082010182610153565b60018160209254838588010152019101906101c5565b90506020925060ff191682840152151560051b82010182610153565b634e487b7160e01b5f52602260045260245ffd5b91607f1691610136565b346100da5760203660031901126100da576001600160a01b0361024b61059a565b165f525f602052602060405f2054604051908152f35b346100da5760403660031901126100da5761027a61059a565b6001600160a01b031660243581156102f057600254908082018092116102dc5760207fddf252ad1be2c89b69c2b068fc378daa952ba7f163c4a11628f55a4df523b3ef915f9360025584845283825260408420818154019055604051908152a3005b634e487b7160e01b5f52601160045260245ffd5b63ec442f0560e01b5f525f60045260245ffd5b346100da575f3660031901126100da57602060ff60055416604051908152f35b346100da5760603660031901126100da5761033c61059a565b6103446105b0565b6001600160a01b0382165f818152600160209081526040808320338452909152902054909260443592915f198110610382575b5061010493506105c6565b8381106103e75784156103d45733156103c157610104945f52600160205260405f2060018060a01b0333165f526020528360405f209103905584610377565b634a1406b160e11b5f525f60045260245ffd5b63e602df0560e01b5f525f60045260245ffd5b8390637dc7a0d960e11b5f523360045260245260445260645ffd5b346100da575f3660031901126100da576020600254604051908152f35b346100da5760403660031901126100da5761043861059a565b6024359033156103d4576001600160a01b03169081156103c157335f52600160205260405f20825f526020528060405f20556040519081527f8c5be1e5ebec7d5bd14f71427d1e84f3dd0314c0f7b2291e5b200ac8c7c3b92560203392a3602060405160018152f35b346100da575f3660031901126100da575f6003548060011c90600181168015610566575b60208310811461020c578285529081156101f057506001146105115750819003601f01601f191681019067ffffffffffffffff8211818310176101875761018382918260405282610570565b905060035f527fc2575a0e9e593c00f959f8c92f12db2869c3395a3b0502d05e2516446f71f85b5f905b82821061055057506020915082010182610153565b600181602092548385880101520191019061053b565b91607f16916104c5565b602060409281835280519182918282860152018484015e5f828201840152601f01601f1916010190565b600435906001600160a01b03821682036100da57565b602435906001600160a01b03821682036100da57565b6001600160a01b031690811561065d576001600160a01b03169182156102f057815f525f60205260405f205481811061064457817fddf252ad1be2c89b69c2b068fc378daa952ba7f163c4a11628f55a4df523b3ef92602092855f525f84520360405f2055845f525f825260405f20818154019055604051908152a3565b8263391434e360e21b5f5260045260245260445260645ffd5b634b637e8f60e11b5f525f60045260245ffdfea264697066735822122048ebcefda15cdae2ea5f992efa9986e4528f40f7a32192bd756c1f978129f7c864736f6c634300081a0033000000000000000000000000000000000000000000000000000000000000008000000000000000000000000000000000000000000000000000000000000000c00000000000000000000000000000000000000000000000000000000000000006000000000000000000000000000000000000000000000000000000e8d4a51000000000000000000000000000000000000000000000000000000000000000000a50617950616c205553440000000000000000000000000000000000000000000000000000000000000000000000000000000000000000000000000000000000055059555344000000000000000000000000000000000000000000000000000000",
        "nonce": "0x2c",
        "chainId": "0x66eee"
      },
      "additionalContracts": [],
      "isFixedGasLimit": false
    },
    {
      "hash": "0xd9ec224519f5dd5b751d739eda08fd570a2b01ee51b9f1ac6694ddaf2f57f1e8",
      "transactionType": "CREATE",
      "contractName": "MockERC20",
      "contractAddress": "0x8786ab4f9559d7a86890a3a3d9e4d0841c42ebcd",
      "function": null,
      "arguments": [
        "Ethena USD",
        "USDe",
        "18",
        "1000000000000000000000000"
      ],
      "transaction": {
        "from": "0xf59da181591dbb122a894372c6e44cc079a7bb3f",
        "gas": "0xb29b3",
        "value": "0x0",
        "input": "0x6080604052346103b657610ad780380380610019816103ba565b9283398101906080818303126103b65780516001600160401b0381116103b657826100459183016103df565b602082015190926001600160401b0382116103b6576100659183016103df565b9060408101519060ff82168092036103b6576060015183519091906001600160401b0381116102c757600354600181811c911680156103ac575b60208210146102a957601f8111610349575b50602094601f82116001146102e6579481929394955f926102db575b50508160011b915f199060031b1c1916176003555b82516001600160401b0381116102c757600454600181811c911680156102bd575b60208210146102a957601f8111610246575b506020601f82116001146101e357819293945f926101d8575b50508160011b915f199060031b1c1916176004555b60ff19600554161760055533156101c5576002548181018091116101b157600255335f525f60205260405f208181540190556040519081525f7fddf252ad1be2c89b69c2b068fc378daa952ba7f163c4a11628f55a4df523b3ef60203393a36040516106a690816104318239f35b634e487b7160e01b5f52601160045260245ffd5b63ec442f0560e01b5f525f60045260245ffd5b015190505f8061012e565b601f1982169060045f52805f20915f5b81811061022e57509583600195969710610216575b505050811b01600455610143565b01515f1960f88460031b161c191690555f8080610208565b9192602060018192868b0151815501940192016101f3565b60045f527f8a35acfbc15ff81a39ae7d344fd709f28e8600b4aa8c65c6b64bfe7fe36bd19b601f830160051c8101916020841061029f575b601f0160051c01905b8181106102945750610115565b5f8155600101610287565b909150819061027e565b634e487b7160e01b5f52602260045260245ffd5b90607f1690610103565b634e487b7160e01b5f52604160045260245ffd5b015190505f806100cd565b601f1982169560035f52805f20915f5b88811061033157508360019596979810610319575b505050811b016003556100e2565b01515f1960f88460031b161c191690555f808061030b565b919260206001819286850151815501940192016102f6565b60035f527fc2575a0e9e593c00f959f8c92f12db2869c3395a3b0502d05e2516446f71f85b601f830160051c810191602084106103a2575b601f0160051c01905b81811061039757506100b1565b5f815560010161038a565b9091508190610381565b90607f169061009f565b5f80fd5b6040519190601f01601f191682016001600160401b038111838210176102c757604052565b81601f820112156103b6578051906001600160401b0382116102c75761040e601f8301601f19166020016103ba565b92828452602083830101116103b657815f9260208093018386015e830101529056fe6080806040526004361015610012575f80fd5b5f3560e01c90816306fdde03146104a157508063095ea7b31461041f57806318160ddd1461040257806323b872dd14610323578063313ce5671461030357806340c10f191461026157806370a082311461022a57806395d89b411461010f578063a9059cbb146100de5763dd62ed3e1461008a575f80fd5b346100da5760403660031901126100da576100a361059a565b6100ab6105b0565b6001600160a01b039182165f908152600160209081526040808320949093168252928352819020549051908152f35b5f80fd5b346100da5760403660031901126100da576101046100fa61059a565b60243590336105c6565b602060405160018152f35b346100da575f3660031901126100da576040515f6004548060011c90600181168015610220575b60208310811461020c578285529081156101f0575060011461019b575b50819003601f01601f191681019067ffffffffffffffff8211818310176101875761018382918260405282610570565b0390f35b634e487b7160e01b5f52604160045260245ffd5b905060045f527f8a35acfbc15ff81a39ae7d344fd709f28e8600b4aa8c65c6b64bfe7fe36bd19b5f905b8282106101da57506020915082010182610153565b60018160209254838588010152019101906101c5565b90506020925060ff191682840152151560051b82010182610153565b634e487b7160e01b5f52602260045260245ffd5b91607f1691610136565b346100da5760203660031901126100da576001600160a01b0361024b61059a565b165f525f602052602060405f2054604051908152f35b346100da5760403660031901126100da5761027a61059a565b6001600160a01b031660243581156102f057600254908082018092116102dc5760207fddf252ad1be2c89b69c2b068fc378daa952ba7f163c4a11628f55a4df523b3ef915f9360025584845283825260408420818154019055604051908152a3005b634e487b7160e01b5f52601160045260245ffd5b63ec442f0560e01b5f525f60045260245ffd5b346100da575f3660031901126100da57602060ff60055416604051908152f35b346100da5760603660031901126100da5761033c61059a565b6103446105b0565b6001600160a01b0382165f818152600160209081526040808320338452909152902054909260443592915f198110610382575b5061010493506105c6565b8381106103e75784156103d45733156103c157610104945f52600160205260405f2060018060a01b0333165f526020528360405f209103905584610377565b634a1406b160e11b5f525f60045260245ffd5b63e602df0560e01b5f525f60045260245ffd5b8390637dc7a0d960e11b5f523360045260245260445260645ffd5b346100da575f3660031901126100da576020600254604051908152f35b346100da5760403660031901126100da5761043861059a565b6024359033156103d4576001600160a01b03169081156103c157335f52600160205260405f20825f526020528060405f20556040519081527f8c5be1e5ebec7d5bd14f71427d1e84f3dd0314c0f7b2291e5b200ac8c7c3b92560203392a3602060405160018152f35b346100da575f3660031901126100da575f6003548060011c90600181168015610566575b60208310811461020c578285529081156101f057506001146105115750819003601f01601f191681019067ffffffffffffffff8211818310176101875761018382918260405282610570565b905060035f527fc2575a0e9e593c00f959f8c92f12db2869c3395a3b0502d05e2516446f71f85b5f905b82821061055057506020915082010182610153565b600181602092548385880101520191019061053b565b91607f16916104c5565b602060409281835280519182918282860152018484015e5f828201840152601f01601f1916010190565b600435906001600160a01b03821682036100da57565b602435906001600160a01b03821682036100da57565b6001600160a01b031690811561065d576001600160a01b03169182156102f057815f525f60205260405f205481811061064457817fddf252ad1be2c89b69c2b068fc378daa952ba7f163c4a11628f55a4df523b3ef92602092855f525f84520360405f2055845f525f825260405f20818154019055604051908152a3565b8263391434e360e21b5f5260045260245260445260645ffd5b634b637e8f60e11b5f525f60045260245ffdfea264697066735822122048ebcefda15cdae2ea5f992efa9986e4528f40f7a32192bd756c1f978129f7c864736f6c634300081a0033000000000000000000000000000000000000000000000000000000000000008000000000000000000000000000000000000000000000000000000000000000c0000000000000000000000000000000000000000000000000000000000000001200000000000000000000000000000000000000000000d3c21bcecceda1000000000000000000000000000000000000000000000000000000000000000000000a457468656e61205553440000000000000000000000000000000000000000000000000000000000000000000000000000000000000000000000000000000000045553446500000000000000000000000000000000000000000000000000000000",
        "nonce": "0x2d",
        "chainId": "0x66eee"
      },
      "additionalContracts": [],
      "isFixedGasLimit": false
    },
    {
      "hash": "0x47611b28e4fed4be7c4ce059a1e02d581ce4759f9b793b5b7735f11ab9581d56",
      "transactionType": "CALL",
      "contractName": "MockERC20",
      "contractAddress": "0x7197cba866d739d20228321467f6bbc6ca676a09",
      "function": "mint(address,uint256)",
      "arguments": [
        "0xf59dA181591dbB122A894372C6E44cC079A7Bb3F",
        "100000000000"
      ],
      "transaction": {
        "from": "0xf59da181591dbb122a894372c6e44cc079a7bb3f",
        "to": "0x7197cba866d739d20228321467f6bbc6ca676a09",
        "gas": "0x7189",
        "value": "0x0",
        "input": "0x40c10f19000000000000000000000000f59da181591dbb122a894372c6e44cc079a7bb3f000000000000000000000000000000000000000000000000000000174876e800",
        "nonce": "0x2e",
        "chainId": "0x66eee"
      },
      "additionalContracts": [],
      "isFixedGasLimit": false
    },
    {
      "hash": "0x15ce60473c3ab4b2fcea0cd8786da64907515a8f6ace522b0bc14a887250eb60",
      "transactionType": "CALL",
      "contractName": "MockERC20",
      "contractAddress": "0x7197cba866d739d20228321467f6bbc6ca676a09",
      "function": "mint(address,uint256)",
      "arguments": [
        "0x3173Ed1Ec423f5071045D861CaB532C2909fB4c0",
        "100000000000"
      ],
      "transaction": {
        "from": "0xf59da181591dbb122a894372c6e44cc079a7bb3f",
        "to": "0x7197cba866d739d20228321467f6bbc6ca676a09",
        "gas": "0x7189",
        "value": "0x0",
        "input": "0x40c10f190000000000000000000000003173ed1ec423f5071045d861cab532c2909fb4c0000000000000000000000000000000000000000000000000000000174876e800",
        "nonce": "0x2f",
        "chainId": "0x66eee"
      },
      "additionalContracts": [],
      "isFixedGasLimit": false
    },
    {
      "hash": "0x38bfbc6a44e5aa74e4ee070bf21b9064e6650e0c8071fb2552bb88d125c36336",
      "transactionType": "CALL",
      "contractName": "MockERC20",
      "contractAddress": "0x7197cba866d739d20228321467f6bbc6ca676a09",
      "function": "mint(address,uint256)",
      "arguments": [
        "0x806B7DE4adD0A154262Bae6A2ed08Ab4DEd757af",
        "100000000000"
      ],
      "transaction": {
        "from": "0xf59da181591dbb122a894372c6e44cc079a7bb3f",
        "to": "0x7197cba866d739d20228321467f6bbc6ca676a09",
        "gas": "0x7189",
        "value": "0x0",
        "input": "0x40c10f19000000000000000000000000806b7de4add0a154262bae6a2ed08ab4ded757af000000000000000000000000000000000000000000000000000000174876e800",
        "nonce": "0x30",
        "chainId": "0x66eee"
      },
      "additionalContracts": [],
      "isFixedGasLimit": false
    },
    {
      "hash": "0x66983f882a86a630c7c5b8e357751f513f029d08f4d5d7d4fe6831e2445f3440",
      "transactionType": "CALL",
      "contractName": "MockERC20",
      "contractAddress": "0x1f71b914e2a92052f7e0a5b1db7f8b8fe209d5f3",
      "function": "mint(address,uint256)",
      "arguments": [
        "0xf59dA181591dbB122A894372C6E44cC079A7Bb3F",
        "100000000000"
      ],
      "transaction": {
        "from": "0xf59da181591dbb122a894372c6e44cc079a7bb3f",
        "to": "0x1f71b914e2a92052f7e0a5b1db7f8b8fe209d5f3",
        "gas": "0x7189",
        "value": "0x0",
        "input": "0x40c10f19000000000000000000000000f59da181591dbb122a894372c6e44cc079a7bb3f000000000000000000000000000000000000000000000000000000174876e800",
        "nonce": "0x31",
        "chainId": "0x66eee"
      },
      "additionalContracts": [],
      "isFixedGasLimit": false
    },
    {
      "hash": "0x139ba48029ebb8fb0a8f07a2aff52f3ed852d1ecc43d07ed5fc8c83f86fb4f58",
      "transactionType": "CALL",
      "contractName": "MockERC20",
      "contractAddress": "0x1f71b914e2a92052f7e0a5b1db7f8b8fe209d5f3",
      "function": "mint(address,uint256)",
      "arguments": [
        "0x3173Ed1Ec423f5071045D861CaB532C2909fB4c0",
        "100000000000"
      ],
      "transaction": {
        "from": "0xf59da181591dbb122a894372c6e44cc079a7bb3f",
        "to": "0x1f71b914e2a92052f7e0a5b1db7f8b8fe209d5f3",
        "gas": "0x7189",
        "value": "0x0",
        "input": "0x40c10f190000000000000000000000003173ed1ec423f5071045d861cab532c2909fb4c0000000000000000000000000000000000000000000000000000000174876e800",
        "nonce": "0x32",
        "chainId": "0x66eee"
      },
      "additionalContracts": [],
      "isFixedGasLimit": false
    },
    {
      "hash": "0x51cfdf2afc193b77f75e78c8a37a9ddbfd547ef1d198d07c2cc31890ce8f2d8a",
      "transactionType": "CALL",
      "contractName": "MockERC20",
      "contractAddress": "0x1f71b914e2a92052f7e0a5b1db7f8b8fe209d5f3",
      "function": "mint(address,uint256)",
      "arguments": [
        "0x806B7DE4adD0A154262Bae6A2ed08Ab4DEd757af",
        "100000000000"
      ],
      "transaction": {
        "from": "0xf59da181591dbb122a894372c6e44cc079a7bb3f",
        "to": "0x1f71b914e2a92052f7e0a5b1db7f8b8fe209d5f3",
        "gas": "0x7189",
        "value": "0x0",
        "input": "0x40c10f19000000000000000000000000806b7de4add0a154262bae6a2ed08ab4ded757af000000000000000000000000000000000000000000000000000000174876e800",
        "nonce": "0x33",
        "chainId": "0x66eee"
      },
      "additionalContracts": [],
      "isFixedGasLimit": false
    },
    {
      "hash": "0x0427f39ffdbf1bad31e3abcd2e99501fc26a39293001d21fd57fe80e958374cf",
      "transactionType": "CALL",
      "contractName": "MockERC20",
      "contractAddress": "0xf0b61d1c7ed86a1d1b2e1cf7a19f0af0f783b3f3",
      "function": "mint(address,uint256)",
      "arguments": [
        "0xf59dA181591dbB122A894372C6E44cC079A7Bb3F",
        "100000000000"
      ],
      "transaction": {
        "from": "0xf59da181591dbb122a894372c6e44cc079a7bb3f",
        "to": "0xf0b61d1c7ed86a1d1b2e1cf7a19f0af0f783b3f3",
        "gas": "0x7189",
        "value": "0x0",
        "input": "0x40c10f19000000000000000000000000f59da181591dbb122a894372c6e44cc079a7bb3f000000000000000000000000000000000000000000000000000000174876e800",
        "nonce": "0x34",
        "chainId": "0x66eee"
      },
      "additionalContracts": [],
      "isFixedGasLimit": false
    },
    {
      "hash": "0x4b63462c6b6e3e142c96cd33ebe6e9f9f05867f54648e87fee5885c11cd3127d",
      "transactionType": "CALL",
      "contractName": "MockERC20",
      "contractAddress": "0xf0b61d1c7ed86a1d1b2e1cf7a19f0af0f783b3f3",
      "function": "mint(address,uint256)",
      "arguments": [
        "0x3173Ed1Ec423f5071045D861CaB532C2909fB4c0",
        "100000000000"
      ],
      "transaction": {
        "from": "0xf59da181591dbb122a894372c6e44cc079a7bb3f",
        "to": "0xf0b61d1c7ed86a1d1b2e1cf7a19f0af0f783b3f3",
        "gas": "0x7189",
        "value": "0x0",
        "input": "0x40c10f190000000000000000000000003173ed1ec423f5071045d861cab532c2909fb4c0000000000000000000000000000000000000000000000000000000174876e800",
        "nonce": "0x35",
        "chainId": "0x66eee"
      },
      "additionalContracts": [],
      "isFixedGasLimit": false
    },
    {
      "hash": "0x90f7a3add76294b708ae9f2fb134551fbea51c5643e8497533a72058eb0f4783",
      "transactionType": "CALL",
      "contractName": "MockERC20",
      "contractAddress": "0xf0b61d1c7ed86a1d1b2e1cf7a19f0af0f783b3f3",
      "function": "mint(address,uint256)",
      "arguments": [
        "0x806B7DE4adD0A154262Bae6A2ed08Ab4DEd757af",
        "100000000000"
      ],
      "transaction": {
        "from": "0xf59da181591dbb122a894372c6e44cc079a7bb3f",
        "to": "0xf0b61d1c7ed86a1d1b2e1cf7a19f0af0f783b3f3",
        "gas": "0x7189",
        "value": "0x0",
        "input": "0x40c10f19000000000000000000000000806b7de4add0a154262bae6a2ed08ab4ded757af000000000000000000000000000000000000000000000000000000174876e800",
        "nonce": "0x36",
        "chainId": "0x66eee"
      },
      "additionalContracts": [],
      "isFixedGasLimit": false
    },
    {
      "hash": "0xa79b793d856c4b44f50214b673c877187e6c55fb11314bf037a6566cb158f6cf",
      "transactionType": "CALL",
      "contractName": "MockERC20",
      "contractAddress": "0x8786ab4f9559d7a86890a3a3d9e4d0841c42ebcd",
      "function": "mint(address,uint256)",
      "arguments": [
        "0xf59dA181591dbB122A894372C6E44cC079A7Bb3F",
        "100000000000000000000000"
      ],
      "transaction": {
        "from": "0xf59da181591dbb122a894372c6e44cc079a7bb3f",
        "to": "0x8786ab4f9559d7a86890a3a3d9e4d0841c42ebcd",
        "gas": "0x71c7",
        "value": "0x0",
        "input": "0x40c10f19000000000000000000000000f59da181591dbb122a894372c6e44cc079a7bb3f00000000000000000000000000000000000000000000152d02c7e14af6800000",
        "nonce": "0x37",
        "chainId": "0x66eee"
      },
      "additionalContracts": [],
      "isFixedGasLimit": false
    },
    {
      "hash": "0x6739f24f98480288a0ec001e4bd84768c56b04086fe8775dc8b8abbacd845236",
      "transactionType": "CALL",
      "contractName": "MockERC20",
      "contractAddress": "0x8786ab4f9559d7a86890a3a3d9e4d0841c42ebcd",
      "function": "mint(address,uint256)",
      "arguments": [
        "0x3173Ed1Ec423f5071045D861CaB532C2909fB4c0",
        "100000000000000000000000"
      ],
      "transaction": {
        "from": "0xf59da181591dbb122a894372c6e44cc079a7bb3f",
        "to": "0x8786ab4f9559d7a86890a3a3d9e4d0841c42ebcd",
        "gas": "0x71c7",
        "value": "0x0",
        "input": "0x40c10f190000000000000000000000003173ed1ec423f5071045d861cab532c2909fb4c000000000000000000000000000000000000000000000152d02c7e14af6800000",
        "nonce": "0x38",
        "chainId": "0x66eee"
      },
      "additionalContracts": [],
      "isFixedGasLimit": false
    },
    {
      "hash": "0x34415a52c12f3b7a50e1d41fc8eb27ce460639b75711ad45bbab052425888779",
      "transactionType": "CALL",
      "contractName": "MockERC20",
      "contractAddress": "0x8786ab4f9559d7a86890a3a3d9e4d0841c42ebcd",
      "function": "mint(address,uint256)",
      "arguments": [
        "0x806B7DE4adD0A154262Bae6A2ed08Ab4DEd757af",
        "100000000000000000000000"
      ],
      "transaction": {
        "from": "0xf59da181591dbb122a894372c6e44cc079a7bb3f",
        "to": "0x8786ab4f9559d7a86890a3a3d9e4d0841c42ebcd",
        "gas": "0x71c7",
        "value": "0x0",
        "input": "0x40c10f19000000000000000000000000806b7de4add0a154262bae6a2ed08ab4ded757af00000000000000000000000000000000000000000000152d02c7e14af6800000",
        "nonce": "0x39",
        "chainId": "0x66eee"
      },
      "additionalContracts": [],
      "isFixedGasLimit": false
    }
  ],
  "receipts": [
    {
      "status": "0x1",
      "cumulativeGasUsed": "0xe1733",
      "logs": [
        {
          "address": "0x7197cba866d739d20228321467f6bbc6ca676a09",
          "topics": [
            "0xddf252ad1be2c89b69c2b068fc378daa952ba7f163c4a11628f55a4df523b3ef",
            "0x0000000000000000000000000000000000000000000000000000000000000000",
            "0x000000000000000000000000f59da181591dbb122a894372c6e44cc079a7bb3f"
          ],
          "data": "0x000000000000000000000000000000000000000000000000000000e8d4a51000",
          "blockHash": "0x6b97b3b735bfc5f8d787a7a4719393f6d2fdb5732624fef2af1e8a2146e808b9",
          "blockNumber": "0xb011ad7",
          "transactionHash": "0xc494f1411bd89324f9e6ce4e595298a4a80285e72224d69bdd120abb3abecb31",
          "transactionIndex": "0x4",
          "logIndex": "0xa",
          "removed": false
        }
      ],
      "logsBloom": "0x00000000000000000000000000000000000000000000000000000000000000000000000000000002000000000000000000000000000000400000000000000000000000000000000000001008000000000000000000000000000000000000000000000000020000000000000000000800080000000000000000200010000000000000000000000000000000000000000000000000000000000000000000000000000000000000000000000000000000000000000000000000000000000000000000000002000000000000000000000000000000000000000000000000000020000040000000000000000000000000000000000000000000000000000000000000",
      "type": "0x2",
      "transactionHash": "0xc494f1411bd89324f9e6ce4e595298a4a80285e72224d69bdd120abb3abecb31",
      "transactionIndex": "0x4",
      "blockHash": "0x6b97b3b735bfc5f8d787a7a4719393f6d2fdb5732624fef2af1e8a2146e808b9",
      "blockNumber": "0xb011ad7",
      "gasUsed": "0x87e71",
      "effectiveGasPrice": "0x5f5e100",
      "from": "0xf59da181591dbb122a894372c6e44cc079a7bb3f",
      "to": null,
      "contractAddress": "0x7197cba866d739d20228321467f6bbc6ca676a09",
      "gasUsedForL1": "0xd5c",
      "l1BlockNumber": "0x894bae",
      "timeboosted": false
    },
    {
      "status": "0x1",
      "cumulativeGasUsed": "0x1d3d66",
      "logs": [
        {
          "address": "0x1f71b914e2a92052f7e0a5b1db7f8b8fe209d5f3",
          "topics": [
            "0xddf252ad1be2c89b69c2b068fc378daa952ba7f163c4a11628f55a4df523b3ef",
            "0x0000000000000000000000000000000000000000000000000000000000000000",
            "0x000000000000000000000000f59da181591dbb122a894372c6e44cc079a7bb3f"
          ],
          "data": "0x000000000000000000000000000000000000000000000000000000e8d4a51000",
          "blockHash": "0x5fffb454e066754a1cb6cc7006a9f006a19fb743cb6763878b5cc61563763ba1",
          "blockNumber": "0xb011ada",
          "transactionHash": "0x7d3f03ceecd2ad7d910aca4fa6b5be43800878a14692d3a4d9c5f62ca9423e0f",
          "transactionIndex": "0xc",
          "logIndex": "0x1b",
          "removed": false
        }
      ],
      "logsBloom": "0x00000000000000000000000000000000000000000000000000000000000000000000000000000002000000000000000000000000000000000000000000000000000000000000000000001008000000000000000000000000000002000000000000000000020000000000000000000800000000000000000000200010000000000000000000000000000000000000000000000000000000000000000000000000000000000000000000000000000000000000000000000010000000000000000000000002000000000001000000000000000000000000000000000000000020000000000000000000000000000000000000000000000000000000000000000000",
      "type": "0x2",
      "transactionHash": "0x7d3f03ceecd2ad7d910aca4fa6b5be43800878a14692d3a4d9c5f62ca9423e0f",
      "transactionIndex": "0xc",
      "blockHash": "0x5fffb454e066754a1cb6cc7006a9f006a19fb743cb6763878b5cc61563763ba1",
      "blockNumber": "0xb011ada",
      "gasUsed": "0x87e97",
      "effectiveGasPrice": "0x5f5e100",
      "from": "0xf59da181591dbb122a894372c6e44cc079a7bb3f",
      "to": null,
      "contractAddress": "0x1f71b914e2a92052f7e0a5b1db7f8b8fe209d5f3",
      "gasUsedForL1": "0xd6a",
      "l1BlockNumber": "0x894bae",
      "timeboosted": false
    },
    {
      "status": "0x1",
      "cumulativeGasUsed": "0xa93fd",
      "logs": [
        {
          "address": "0xf0b61d1c7ed86a1d1b2e1cf7a19f0af0f783b3f3",
          "topics": [
            "0xddf252ad1be2c89b69c2b068fc378daa952ba7f163c4a11628f55a4df523b3ef",
            "0x0000000000000000000000000000000000000000000000000000000000000000",
            "0x000000000000000000000000f59da181591dbb122a894372c6e44cc079a7bb3f"
          ],
          "data": "0x000000000000000000000000000000000000000000000000000000e8d4a51000",
          "blockHash": "0x1b20928c9099aa34637100d4ef01914d1c22b6c5334bb8ee2c73cbb2929161bb",
          "blockNumber": "0xb011add",
          "transactionHash": "0x45e4f7bc473362f6cf764ec1c0d22a1f9f6936dae6a6cc21e0c677ee51032838",
          "transactionIndex": "0x3",
          "logIndex": "0x2",
          "removed": false
        }
      ],
      "logsBloom": "0x00000000000000000000000000000000000000000000000000000000000000000000001000000002000000000000000000000000000000000000000000000000000000000000000000001008000000000000000000000000000000000000000000000000020000000040000000000800000000000000000000200010000000000000000000000000000000000000000000000000000000000000000000000000000000000000000000000000000000000000000000000000000000000000000000000002000000000000000100000000000000000000000000000000000020000000000000000000000000000000000000000000000000000000000000000000",
      "type": "0x2",
      "transactionHash": "0x45e4f7bc473362f6cf764ec1c0d22a1f9f6936dae6a6cc21e0c677ee51032838",
      "transactionIndex": "0x3",
      "blockHash": "0x1b20928c9099aa34637100d4ef01914d1c22b6c5334bb8ee2c73cbb2929161bb",
      "blockNumber": "0xb011add",
      "gasUsed": "0x87e95",
      "effectiveGasPrice": "0x5f5e100",
      "from": "0xf59da181591dbb122a894372c6e44cc079a7bb3f",
      "to": null,
      "contractAddress": "0xf0b61d1c7ed86a1d1b2e1cf7a19f0af0f783b3f3",
      "gasUsedForL1": "0xd5c",
      "l1BlockNumber": "0x894bb0",
      "timeboosted": false
    },
    {
      "status": "0x1",
      "cumulativeGasUsed": "0xb6af8",
      "logs": [
        {
          "address": "0x8786ab4f9559d7a86890a3a3d9e4d0841c42ebcd",
          "topics": [
            "0xddf252ad1be2c89b69c2b068fc378daa952ba7f163c4a11628f55a4df523b3ef",
            "0x0000000000000000000000000000000000000000000000000000000000000000",
            "0x000000000000000000000000f59da181591dbb122a894372c6e44cc079a7bb3f"
          ],
          "data": "0x00000000000000000000000000000000000000000000d3c21bcecceda1000000",
          "blockHash": "0xfd100d38840b3b190529a881742800a46f210e9bf1175dcf3163e958768a0db1",
          "blockNumber": "0xb011ae0",
          "transactionHash": "0xd9ec224519f5dd5b751d739eda08fd570a2b01ee51b9f1ac6694ddaf2f57f1e8",
          "transactionIndex": "0x2",
          "logIndex": "0x3",
          "removed": false
        }
      ],
      "logsBloom": "0x00000000000000000000000000000000000000000000000000000000000000000000000000000002000000000000000000000000000000000000000000000000000100000000000000001008000000000000000000000000000000000000000000000000020000000000000000000800000000000000000000200010000000000000000000000000000000000000000000000000000000000000000000000000000000000000000000000000000000000000000000000000000000000000000000000002000000000000000000000000000000108000000000000000000020000000000000000000000000000000000000000000000000000000000000000000",
      "type": "0x2",
      "transactionHash": "0xd9ec224519f5dd5b751d739eda08fd570a2b01ee51b9f1ac6694ddaf2f57f1e8",
      "transactionIndex": "0x2",
      "blockHash": "0xfd100d38840b3b190529a881742800a46f210e9bf1175dcf3163e958768a0db1",
      "blockNumber": "0xb011ae0",
      "gasUsed": "0x87ec1",
      "effectiveGasPrice": "0x5f5e100",
      "from": "0xf59da181591dbb122a894372c6e44cc079a7bb3f",
      "to": null,
      "contractAddress": "0x8786ab4f9559d7a86890a3a3d9e4d0841c42ebcd",
      "gasUsedForL1": "0xd70",
      "l1BlockNumber": "0x894bb0",
      "timeboosted": false
    },
    {
      "status": "0x1",
      "cumulativeGasUsed": "0x2a78a",
      "logs": [
        {
          "address": "0x7197cba866d739d20228321467f6bbc6ca676a09",
          "topics": [
            "0xddf252ad1be2c89b69c2b068fc378daa952ba7f163c4a11628f55a4df523b3ef",
            "0x0000000000000000000000000000000000000000000000000000000000000000",
            "0x000000000000000000000000f59da181591dbb122a894372c6e44cc079a7bb3f"
          ],
          "data": "0x000000000000000000000000000000000000000000000000000000174876e800",
          "blockHash": "0x93d5300ef89275d2d6745c84d41e107cbbf535480b8337d7663425ff95fa3b99",
          "blockNumber": "0xb011ae4",
          "transactionHash": "0x47611b28e4fed4be7c4ce059a1e02d581ce4759f9b793b5b7735f11ab9581d56",
          "transactionIndex": "0x3",
          "logIndex": "0x3",
          "removed": false
        }
      ],
      "logsBloom": "0x00000000000000000000000000000000000000000000000000000000000000000000000000000002000000000000000000000000000000400000000000000000000000000000000000001008000000000000000000000000000000000000000000000000020000000000000000000800080000000000000000200010000000000000000000000000000000000000000000000000000000000000000000000000000000000000000000000000000000000000000000000000000000000000000000000002000000000000000000000000000000000000000000000000000020000040000000000000000000000000000000000000000000000000000000000000",
      "type": "0x2",
      "transactionHash": "0x47611b28e4fed4be7c4ce059a1e02d581ce4759f9b793b5b7735f11ab9581d56",
      "transactionIndex": "0x3",
      "blockHash": "0x93d5300ef89275d2d6745c84d41e107cbbf535480b8337d7663425ff95fa3b99",
      "blockNumber": "0xb011ae4",
      "gasUsed": "0x859f",
      "effectiveGasPrice": "0x5f5e100",
      "from": "0xf59da181591dbb122a894372c6e44cc079a7bb3f",
      "to": "0x7197cba866d739d20228321467f6bbc6ca676a09",
      "contractAddress": null,
      "gasUsedForL1": "0x14e",
      "l1BlockNumber": "0x894bb0",
      "timeboosted": false
    },
    {
      "status": "0x1",
      "cumulativeGasUsed": "0xc86d",
      "logs": [
        {
          "address": "0x7197cba866d739d20228321467f6bbc6ca676a09",
          "topics": [
            "0xddf252ad1be2c89b69c2b068fc378daa952ba7f163c4a11628f55a4df523b3ef",
            "0x0000000000000000000000000000000000000000000000000000000000000000",
            "0x0000000000000000000000003173ed1ec423f5071045d861cab532c2909fb4c0"
          ],
          "data": "0x000000000000000000000000000000000000000000000000000000174876e800",
          "blockHash": "0x9e3ce8a4dafec5758cc7606b5128f2a7f6dd1aebbe1604f241e38ef4d329fe73",
          "blockNumber": "0xb011ae7",
          "transactionHash": "0x15ce60473c3ab4b2fcea0cd8786da64907515a8f6ace522b0bc14a887250eb60",
          "transactionIndex": "0x1",
          "logIndex": "0x0",
          "removed": false
        }
      ],
      "logsBloom": "0x00000000000000000000000000000000000000000000000001000000000000000000000000000000000000000000000000000000000000400000000000000000000000000000000000000008000000000000000000000000000001000000000000000000020000000000000000000800080000800000000000000010000000000000000000000000000000000000000000000000000000000000000000000000000000000000000000000000000000000000000000000000000000000000000000000002000000000000000000000000000000000000000000000000000020000040000000000000000000000000000000000000000000000000000000000000",
      "type": "0x2",
      "transactionHash": "0x15ce60473c3ab4b2fcea0cd8786da64907515a8f6ace522b0bc14a887250eb60",
      "transactionIndex": "0x1",
      "blockHash": "0x9e3ce8a4dafec5758cc7606b5128f2a7f6dd1aebbe1604f241e38ef4d329fe73",
      "blockNumber": "0xb011ae7",
      "gasUsed": "0xc86d",
      "effectiveGasPrice": "0x5f5e100",
      "from": "0xf59da181591dbb122a894372c6e44cc079a7bb3f",
      "to": "0x7197cba866d739d20228321467f6bbc6ca676a09",
      "contractAddress": null,
      "gasUsedForL1": "0x150",
      "l1BlockNumber": "0x894bb0",
      "timeboosted": false
    },
    {
      "status": "0x1",
      "cumulativeGasUsed": "0xc5f76",
      "logs": [
        {
          "address": "0x7197cba866d739d20228321467f6bbc6ca676a09",
          "topics": [
            "0xddf252ad1be2c89b69c2b068fc378daa952ba7f163c4a11628f55a4df523b3ef",
            "0x0000000000000000000000000000000000000000000000000000000000000000",
            "0x000000000000000000000000806b7de4add0a154262bae6a2ed08ab4ded757af"
          ],
          "data": "0x000000000000000000000000000000000000000000000000000000174876e800",
          "blockHash": "0xf872f50a12afe9fff9f0bbfbc5f517c2f147674b86b4e4c0c7afb16f543d06e5",
          "blockNumber": "0xb011aeb",
          "transactionHash": "0x38bfbc6a44e5aa74e4ee070bf21b9064e6650e0c8071fb2552bb88d125c36336",
          "transactionIndex": "0x7",
          "logIndex": "0x11",
          "removed": false
        }
      ],
      "logsBloom": "0x00000000000000000000000000000000000000000000000000000000000000000000001000000000000000000000000000000000000000400000000000000000000000000000010000000008000000000000000000000000000000000000000000000000020000000000000000000800080000000000001000000010000000000000000000000000000000000000000000000000000000000000000000000000000000000000000000000000000000000000000000000000000000000000000000000002000000000000000000000000000000000000000000000000000020000040000000000000000000000000000000000000000000000000000000000000",
      "type": "0x2",
      "transactionHash": "0x38bfbc6a44e5aa74e4ee070bf21b9064e6650e0c8071fb2552bb88d125c36336",
      "transactionIndex": "0x7",
      "blockHash": "0xf872f50a12afe9fff9f0bbfbc5f517c2f147674b86b4e4c0c7afb16f543d06e5",
      "blockNumber": "0xb011aeb",
      "gasUsed": "0xc86d",
      "effectiveGasPrice": "0x5f5e100",
      "from": "0xf59da181591dbb122a894372c6e44cc079a7bb3f",
      "to": "0x7197cba866d739d20228321467f6bbc6ca676a09",
      "contractAddress": null,
      "gasUsedForL1": "0x150",
      "l1BlockNumber": "0x894bb0",
      "timeboosted": false
    },
    {
      "status": "0x1",
      "cumulativeGasUsed": "0x859f",
      "logs": [
        {
          "address": "0x1f71b914e2a92052f7e0a5b1db7f8b8fe209d5f3",
          "topics": [
            "0xddf252ad1be2c89b69c2b068fc378daa952ba7f163c4a11628f55a4df523b3ef",
            "0x0000000000000000000000000000000000000000000000000000000000000000",
            "0x000000000000000000000000f59da181591dbb122a894372c6e44cc079a7bb3f"
          ],
          "data": "0x000000000000000000000000000000000000000000000000000000174876e800",
          "blockHash": "0x4478a5a322c7d25bf4948907bcc4c13c4b84ab6d1acc27b54598999f731f5b46",
          "blockNumber": "0xb011aef",
          "transactionHash": "0x66983f882a86a630c7c5b8e357751f513f029d08f4d5d7d4fe6831e2445f3440",
          "transactionIndex": "0x1",
          "logIndex": "0x0",
          "removed": false
        }
      ],
      "logsBloom": "0x00000000000000000000000000000000000000000000000000000000000000000000000000000002000000000000000000000000000000000000000000000000000000000000000000001008000000000000000000000000000002000000000000000000020000000000000000000800000000000000000000200010000000000000000000000000000000000000000000000000000000000000000000000000000000000000000000000000000000000000000000000010000000000000000000000002000000000001000000000000000000000000000000000000000020000000000000000000000000000000000000000000000000000000000000000000",
      "type": "0x2",
      "transactionHash": "0x66983f882a86a630c7c5b8e357751f513f029d08f4d5d7d4fe6831e2445f3440",
      "transactionIndex": "0x1",
      "blockHash": "0x4478a5a322c7d25bf4948907bcc4c13c4b84ab6d1acc27b54598999f731f5b46",
      "blockNumber": "0xb011aef",
      "gasUsed": "0x859f",
      "effectiveGasPrice": "0x5f5e100",
      "from": "0xf59da181591dbb122a894372c6e44cc079a7bb3f",
      "to": "0x1f71b914e2a92052f7e0a5b1db7f8b8fe209d5f3",
      "contractAddress": null,
      "gasUsedForL1": "0x14e",
      "l1BlockNumber": "0x894bb0",
      "timeboosted": false
    },
    {
      "status": "0x1",
      "cumulativeGasUsed": "0x17ef1",
      "logs": [
        {
          "address": "0x1f71b914e2a92052f7e0a5b1db7f8b8fe209d5f3",
          "topics": [
            "0xddf252ad1be2c89b69c2b068fc378daa952ba7f163c4a11628f55a4df523b3ef",
            "0x0000000000000000000000000000000000000000000000000000000000000000",
            "0x0000000000000000000000003173ed1ec423f5071045d861cab532c2909fb4c0"
          ],
          "data": "0x000000000000000000000000000000000000000000000000000000174876e800",
          "blockHash": "0x1d1d3f562202f23e1217fd3bba8210f3e1f4d64c8180dba000c753972a51751b",
          "blockNumber": "0xb011af2",
          "transactionHash": "0x139ba48029ebb8fb0a8f07a2aff52f3ed852d1ecc43d07ed5fc8c83f86fb4f58",
          "transactionIndex": "0x2",
          "logIndex": "0x1",
          "removed": false
        }
      ],
      "logsBloom": "0x00000000000000000000000000000000000000000000000001000000000000000000000000000000000000000000000000000000000000000000000000000000000000000000000000000008000000000000000000000000000003000000000000000000020000000000000000000800000000800000000000000010000000000000000000000000000000000000000000000000000000000000000000000000000000000000000000000000000000000000000000000010000000000000000000000002000000000001000000000000000000000000000000000000000020000000000000000000000000000000000000000000000000000000000000000000",
      "type": "0x2",
      "transactionHash": "0x139ba48029ebb8fb0a8f07a2aff52f3ed852d1ecc43d07ed5fc8c83f86fb4f58",
      "transactionIndex": "0x2",
      "blockHash": "0x1d1d3f562202f23e1217fd3bba8210f3e1f4d64c8180dba000c753972a51751b",
      "blockNumber": "0xb011af2",
      "gasUsed": "0xc86d",
      "effectiveGasPrice": "0x5f5e100",
      "from": "0xf59da181591dbb122a894372c6e44cc079a7bb3f",
      "to": "0x1f71b914e2a92052f7e0a5b1db7f8b8fe209d5f3",
      "contractAddress": null,
      "gasUsedForL1": "0x150",
      "l1BlockNumber": "0x894bb0",
      "timeboosted": false
    },
    {
      "status": "0x1",
      "cumulativeGasUsed": "0x9cbc6",
      "logs": [
        {
          "address": "0x1f71b914e2a92052f7e0a5b1db7f8b8fe209d5f3",
          "topics": [
            "0xddf252ad1be2c89b69c2b068fc378daa952ba7f163c4a11628f55a4df523b3ef",
            "0x0000000000000000000000000000000000000000000000000000000000000000",
            "0x000000000000000000000000806b7de4add0a154262bae6a2ed08ab4ded757af"
          ],
          "data": "0x000000000000000000000000000000000000000000000000000000174876e800",
          "blockHash": "0x757a6365939cc999285c819a5c163b352bcd7793e82e74f84736e11d3fba1652",
          "blockNumber": "0xb011af4",
          "transactionHash": "0x51cfdf2afc193b77f75e78c8a37a9ddbfd547ef1d198d07c2cc31890ce8f2d8a",
          "transactionIndex": "0x5",
          "logIndex": "0x10",
          "removed": false
        }
      ],
      "logsBloom": "0x00000000000000000000000000000000000000000000000000000000000000000000001000000000000000000000000000000000000000000000000000000000000000000000010000000008000000000000000000000000000002000000000000000000020000000000000000000800000000000000001000000010000000000000000000000000000000000000000000000000000000000000000000000000000000000000000000000000000000000000000000000010000000000000000000000002000000000001000000000000000000000000000000000000000020000000000000000000000000000000000000000000000000000000000000000000",
      "type": "0x2",
      "transactionHash": "0x51cfdf2afc193b77f75e78c8a37a9ddbfd547ef1d198d07c2cc31890ce8f2d8a",
      "transactionIndex": "0x5",
      "blockHash": "0x757a6365939cc999285c819a5c163b352bcd7793e82e74f84736e11d3fba1652",
      "blockNumber": "0xb011af4",
      "gasUsed": "0xc86d",
      "effectiveGasPrice": "0x5f5e100",
      "from": "0xf59da181591dbb122a894372c6e44cc079a7bb3f",
      "to": "0x1f71b914e2a92052f7e0a5b1db7f8b8fe209d5f3",
      "contractAddress": null,
      "gasUsedForL1": "0x150",
      "l1BlockNumber": "0x894bb0",
      "timeboosted": false
    },
    {
      "status": "0x1",
      "cumulativeGasUsed": "0x1c6c3",
      "logs": [
        {
          "address": "0xf0b61d1c7ed86a1d1b2e1cf7a19f0af0f783b3f3",
          "topics": [
            "0xddf252ad1be2c89b69c2b068fc378daa952ba7f163c4a11628f55a4df523b3ef",
            "0x0000000000000000000000000000000000000000000000000000000000000000",
            "0x000000000000000000000000f59da181591dbb122a894372c6e44cc079a7bb3f"
          ],
          "data": "0x000000000000000000000000000000000000000000000000000000174876e800",
          "blockHash": "0x0c9b1abf3f855f8c35fa2c601a900917f0585e85184c1284557bd67d7558a397",
          "blockNumber": "0xb011af7",
          "transactionHash": "0x0427f39ffdbf1bad31e3abcd2e99501fc26a39293001d21fd57fe80e958374cf",
          "transactionIndex": "0x2",
          "logIndex": "0x1",
          "removed": false
        }
      ],
      "logsBloom": "0x00000000000000000000000000000000000000000000000000000000000000000000001000000002000000000000000000000000000000000000000000000000000000000000000000001008000000000000000000000000000000000000000000000000020000000040000000000800000000000000000000200010000000000000000000000000000000000000000000000000000000000000000000000000000000000000000000000000000000000000000000000000000000000000000000000002000000000000000100000000000000000000000000000000000020000000000000000000000000000000000000000000000000000000000000000000",
      "type": "0x2",
      "transactionHash": "0x0427f39ffdbf1bad31e3abcd2e99501fc26a39293001d21fd57fe80e958374cf",
      "transactionIndex": "0x2",
      "blockHash": "0x0c9b1abf3f855f8c35fa2c601a900917f0585e85184c1284557bd67d7558a397",
      "blockNumber": "0xb011af7",
      "gasUsed": "0x859f",
      "effectiveGasPrice": "0x5f5e100",
      "from": "0xf59da181591dbb122a894372c6e44cc079a7bb3f",
      "to": "0xf0b61d1c7ed86a1d1b2e1cf7a19f0af0f783b3f3",
      "contractAddress": null,
      "gasUsedForL1": "0x14e",
      "l1BlockNumber": "0x894bb0",
      "timeboosted": false
    },
    {
      "status": "0x1",
      "cumulativeGasUsed": "0xc86d",
      "logs": [
        {
          "address": "0xf0b61d1c7ed86a1d1b2e1cf7a19f0af0f783b3f3",
          "topics": [
            "0xddf252ad1be2c89b69c2b068fc378daa952ba7f163c4a11628f55a4df523b3ef",
            "0x0000000000000000000000000000000000000000000000000000000000000000",
            "0x0000000000000000000000003173ed1ec423f5071045d861cab532c2909fb4c0"
          ],
          "data": "0x000000000000000000000000000000000000000000000000000000174876e800",
          "blockHash": "0x19113086782e6bcdc9cc9c35e36bf838bab2d0b1e965533da27aaa412b6faa41",
          "blockNumber": "0xb011afa",
          "transactionHash": "0x4b63462c6b6e3e142c96cd33ebe6e9f9f05867f54648e87fee5885c11cd3127d",
          "transactionIndex": "0x1",
          "logIndex": "0x0",
          "removed": false
        }
      ],
      "logsBloom": "0x00000000000000000000000000000000000000000000000001000000000000000000001000000000000000000000000000000000000000000000000000000000000000000000000000000008000000000000000000000000000001000000000000000000020000000040000000000800000000800000000000000010000000000000000000000000000000000000000000000000000000000000000000000000000000000000000000000000000000000000000000000000000000000000000000000002000000000000000100000000000000000000000000000000000020000000000000000000000000000000000000000000000000000000000000000000",
      "type": "0x2",
      "transactionHash": "0x4b63462c6b6e3e142c96cd33ebe6e9f9f05867f54648e87fee5885c11cd3127d",
      "transactionIndex": "0x1",
      "blockHash": "0x19113086782e6bcdc9cc9c35e36bf838bab2d0b1e965533da27aaa412b6faa41",
      "blockNumber": "0xb011afa",
      "gasUsed": "0xc86d",
      "effectiveGasPrice": "0x5f5e100",
      "from": "0xf59da181591dbb122a894372c6e44cc079a7bb3f",
      "to": "0xf0b61d1c7ed86a1d1b2e1cf7a19f0af0f783b3f3",
      "contractAddress": null,
      "gasUsedForL1": "0x150",
      "l1BlockNumber": "0x894bb0",
      "timeboosted": false
    },
    {
      "status": "0x1",
      "cumulativeGasUsed": "0x2b7bf",
      "logs": [
        {
          "address": "0xf0b61d1c7ed86a1d1b2e1cf7a19f0af0f783b3f3",
          "topics": [
            "0xddf252ad1be2c89b69c2b068fc378daa952ba7f163c4a11628f55a4df523b3ef",
            "0x0000000000000000000000000000000000000000000000000000000000000000",
            "0x000000000000000000000000806b7de4add0a154262bae6a2ed08ab4ded757af"
          ],
          "data": "0x000000000000000000000000000000000000000000000000000000174876e800",
          "blockHash": "0xd94d1cdb6681de4f3f2f0857ac541295c1e7ac6075345ae64c3c22884bd39624",
          "blockNumber": "0xb011afd",
          "transactionHash": "0x90f7a3add76294b708ae9f2fb134551fbea51c5643e8497533a72058eb0f4783",
          "transactionIndex": "0x2",
          "logIndex": "0x3",
          "removed": false
        }
      ],
      "logsBloom": "0x00000000000000000000000000000000000000000000000000000000000000000000001000000000000000000000000000000000000000000000000000000000000000000000010000000008000000000000000000000000000000000000000000000000020000000040000000000800000000000000001000000010000000000000000000000000000000000000000000000000000000000000000000000000000000000000000000000000000000000000000000000000000000000000000000000002000000000000000100000000000000000000000000000000000020000000000000000000000000000000000000000000000000000000000000000000",
      "type": "0x2",
      "transactionHash": "0x90f7a3add76294b708ae9f2fb134551fbea51c5643e8497533a72058eb0f4783",
      "transactionIndex": "0x2",
      "blockHash": "0xd94d1cdb6681de4f3f2f0857ac541295c1e7ac6075345ae64c3c22884bd39624",
      "blockNumber": "0xb011afd",
      "gasUsed": "0xc86d",
      "effectiveGasPrice": "0x5f5e100",
      "from": "0xf59da181591dbb122a894372c6e44cc079a7bb3f",
      "to": "0xf0b61d1c7ed86a1d1b2e1cf7a19f0af0f783b3f3",
      "contractAddress": null,
      "gasUsedForL1": "0x150",
      "l1BlockNumber": "0x894bb0",
      "timeboosted": false
    },
    {
      "status": "0x1",
      "cumulativeGasUsed": "0x27521",
      "logs": [
        {
          "address": "0x8786ab4f9559d7a86890a3a3d9e4d0841c42ebcd",
          "topics": [
            "0xddf252ad1be2c89b69c2b068fc378daa952ba7f163c4a11628f55a4df523b3ef",
            "0x0000000000000000000000000000000000000000000000000000000000000000",
            "0x000000000000000000000000f59da181591dbb122a894372c6e44cc079a7bb3f"
          ],
          "data": "0x00000000000000000000000000000000000000000000152d02c7e14af6800000",
          "blockHash": "0x50f814413f765f7ced5a2ed36763d724da5bce783ef562720957238b8c59f5d7",
          "blockNumber": "0xb011b01",
          "transactionHash": "0xa79b793d856c4b44f50214b673c877187e6c55fb11314bf037a6566cb158f6cf",
          "transactionIndex": "0x2",
          "logIndex": "0x3",
          "removed": false
        }
      ],
      "logsBloom": "0x00000000000000000000000000000000000000000000000000000000000000000000000000000002000000000000000000000000000000000000000000000000000100000000000000001008000000000000000000000000000000000000000000000000020000000000000000000800000000000000000000200010000000000000000000000000000000000000000000000000000000000000000000000000000000000000000000000000000000000000000000000000000000000000000000000002000000000000000000000000000000108000000000000000000020000000000000000000000000000000000000000000000000000000000000000000",
      "type": "0x2",
      "transactionHash": "0xa79b793d856c4b44f50214b673c877187e6c55fb11314bf037a6566cb158f6cf",
      "transactionIndex": "0x2",
      "blockHash": "0x50f814413f765f7ced5a2ed36763d724da5bce783ef562720957238b8c59f5d7",
      "blockNumber": "0xb011b01",
      "gasUsed": "0x85cf",
      "effectiveGasPrice": "0x5f5e100",
      "from": "0xf59da181591dbb122a894372c6e44cc079a7bb3f",
      "to": "0x8786ab4f9559d7a86890a3a3d9e4d0841c42ebcd",
      "contractAddress": null,
      "gasUsedForL1": "0x14e",
      "l1BlockNumber": "0x894bb0",
      "timeboosted": false
    },
    {
      "status": "0x1",
      "cumulativeGasUsed": "0x1ab1d",
      "logs": [
        {
          "address": "0x8786ab4f9559d7a86890a3a3d9e4d0841c42ebcd",
          "topics": [
            "0xddf252ad1be2c89b69c2b068fc378daa952ba7f163c4a11628f55a4df523b3ef",
            "0x0000000000000000000000000000000000000000000000000000000000000000",
            "0x0000000000000000000000003173ed1ec423f5071045d861cab532c2909fb4c0"
          ],
          "data": "0x00000000000000000000000000000000000000000000152d02c7e14af6800000",
          "blockHash": "0xf4ba82e43078cbdb2a1afc6868a52fd3b55553023eabc29b82e86d78e1f5c039",
          "blockNumber": "0xb011b04",
          "transactionHash": "0x6739f24f98480288a0ec001e4bd84768c56b04086fe8775dc8b8abbacd845236",
          "transactionIndex": "0x2",
          "logIndex": "0x1",
          "removed": false
        }
      ],
      "logsBloom": "0x00000000000000000000000000000000000000000000000001000000000000000000000000000000000000000000000000000000000000000000000000000000000100000000000000000008000000000000000000000000000001000000000000000000020000000000000000000800000000800000000000000010000000000000000000000000000000000000000000000000000000000000000000000000000000000000000000000000000000000000000000000000000000000000000000000002000000000000000000000000000000108000000000000000000020000000000000000000000000000000000000000000000000000000000000000000",
      "type": "0x2",
      "transactionHash": "0x6739f24f98480288a0ec001e4bd84768c56b04086fe8775dc8b8abbacd845236",
      "transactionIndex": "0x2",
      "blockHash": "0xf4ba82e43078cbdb2a1afc6868a52fd3b55553023eabc29b82e86d78e1f5c039",
      "blockNumber": "0xb011b04",
      "gasUsed": "0xc89d",
      "effectiveGasPrice": "0x5f5e100",
      "from": "0xf59da181591dbb122a894372c6e44cc079a7bb3f",
      "to": "0x8786ab4f9559d7a86890a3a3d9e4d0841c42ebcd",
      "contractAddress": null,
      "gasUsedForL1": "0x150",
      "l1BlockNumber": "0x894bb0",
      "timeboosted": false
    },
    {
      "status": "0x1",
      "cumulativeGasUsed": "0x3fe68",
      "logs": [
        {
          "address": "0x8786ab4f9559d7a86890a3a3d9e4d0841c42ebcd",
          "topics": [
            "0xddf252ad1be2c89b69c2b068fc378daa952ba7f163c4a11628f55a4df523b3ef",
            "0x0000000000000000000000000000000000000000000000000000000000000000",
            "0x000000000000000000000000806b7de4add0a154262bae6a2ed08ab4ded757af"
          ],
          "data": "0x00000000000000000000000000000000000000000000152d02c7e14af6800000",
          "blockHash": "0x9cf5fdfbaf10bbd056761be098721ff7a08e9fab837ae529474fdf732f5e5c4e",
          "blockNumber": "0xb011b08",
          "transactionHash": "0x34415a52c12f3b7a50e1d41fc8eb27ce460639b75711ad45bbab052425888779",
          "transactionIndex": "0x3",
          "logIndex": "0x4",
          "removed": false
        }
      ],
      "logsBloom": "0x00000000000000000000000000000000000000000000000000000000000000000000001000000000000000000000000000000000000000000000000000000000000100000000010000000008000000000000000000000000000000000000000000000000020000000000000000000800000000000000001000000010000000000000000000000000000000000000000000000000000000000000000000000000000000000000000000000000000000000000000000000000000000000000000000000002000000000000000000000000000000108000000000000000000020000000000000000000000000000000000000000000000000000000000000000000",
      "type": "0x2",
      "transactionHash": "0x34415a52c12f3b7a50e1d41fc8eb27ce460639b75711ad45bbab052425888779",
      "transactionIndex": "0x3",
      "blockHash": "0x9cf5fdfbaf10bbd056761be098721ff7a08e9fab837ae529474fdf732f5e5c4e",
      "blockNumber": "0xb011b08",
      "gasUsed": "0xc89d",
      "effectiveGasPrice": "0x5f5e100",
      "from": "0xf59da181591dbb122a894372c6e44cc079a7bb3f",
      "to": "0x8786ab4f9559d7a86890a3a3d9e4d0841c42ebcd",
      "contractAddress": null,
      "gasUsedForL1": "0x150",
      "l1BlockNumber": "0x894bb0",
      "timeboosted": false
    }
  ],
  "libraries": [],
  "pending": [],
  "returns": {},
  "timestamp": 1755360188363,
  "chain": 421614,
  "commit": "f13b4d6"
}