{
  "transactions": [
    {
      "hash": "0x41c0bfd08efff455bae7b0655d9268c4608bd928d49330ce00f7bb80193a196f",
      "transactionType": "CREATE",
      "contractName": "MockERC20",
      "contractAddress": "0x50766571b3769d9cfc170f3b17668f3673f80eba",
      "function": null,
      "arguments": [
        "USD Coin",
        "USDC",
        "6",
        "1000000000000"
      ],
      "transaction": {
        "from": "0xf59da181591dbb122a894372c6e44cc079a7bb3f",
        "gas": "0xaf968",
        "value": "0x0",
        "input": "0x6080604052346103b657610ad780380380610019816103ba565b9283398101906080818303126103b65780516001600160401b0381116103b657826100459183016103df565b602082015190926001600160401b0382116103b6576100659183016103df565b9060408101519060ff82168092036103b6576060015183519091906001600160401b0381116102c757600354600181811c911680156103ac575b60208210146102a957601f8111610349575b50602094601f82116001146102e6579481929394955f926102db575b50508160011b915f199060031b1c1916176003555b82516001600160401b0381116102c757600454600181811c911680156102bd575b60208210146102a957601f8111610246575b506020601f82116001146101e357819293945f926101d8575b50508160011b915f199060031b1c1916176004555b60ff19600554161760055533156101c5576002548181018091116101b157600255335f525f60205260405f208181540190556040519081525f7fddf252ad1be2c89b69c2b068fc378daa952ba7f163c4a11628f55a4df523b3ef60203393a36040516106a690816104318239f35b634e487b7160e01b5f52601160045260245ffd5b63ec442f0560e01b5f525f60045260245ffd5b015190505f8061012e565b601f1982169060045f52805f20915f5b81811061022e57509583600195969710610216575b505050811b01600455610143565b01515f1960f88460031b161c191690555f8080610208565b9192602060018192868b0151815501940192016101f3565b60045f527f8a35acfbc15ff81a39ae7d344fd709f28e8600b4aa8c65c6b64bfe7fe36bd19b601f830160051c8101916020841061029f575b601f0160051c01905b8181106102945750610115565b5f8155600101610287565b909150819061027e565b634e487b7160e01b5f52602260045260245ffd5b90607f1690610103565b634e487b7160e01b5f52604160045260245ffd5b015190505f806100cd565b601f1982169560035f52805f20915f5b88811061033157508360019596979810610319575b505050811b016003556100e2565b01515f1960f88460031b161c191690555f808061030b565b919260206001819286850151815501940192016102f6565b60035f527fc2575a0e9e593c00f959f8c92f12db2869c3395a3b0502d05e2516446f71f85b601f830160051c810191602084106103a2575b601f0160051c01905b81811061039757506100b1565b5f815560010161038a565b9091508190610381565b90607f169061009f565b5f80fd5b6040519190601f01601f191682016001600160401b038111838210176102c757604052565b81601f820112156103b6578051906001600160401b0382116102c75761040e601f8301601f19166020016103ba565b92828452602083830101116103b657815f9260208093018386015e830101529056fe6080806040526004361015610012575f80fd5b5f3560e01c90816306fdde03146104a157508063095ea7b31461041f57806318160ddd1461040257806323b872dd14610323578063313ce5671461030357806340c10f191461026157806370a082311461022a57806395d89b411461010f578063a9059cbb146100de5763dd62ed3e1461008a575f80fd5b346100da5760403660031901126100da576100a361059a565b6100ab6105b0565b6001600160a01b039182165f908152600160209081526040808320949093168252928352819020549051908152f35b5f80fd5b346100da5760403660031901126100da576101046100fa61059a565b60243590336105c6565b602060405160018152f35b346100da575f3660031901126100da576040515f6004548060011c90600181168015610220575b60208310811461020c578285529081156101f0575060011461019b575b50819003601f01601f191681019067ffffffffffffffff8211818310176101875761018382918260405282610570565b0390f35b634e487b7160e01b5f52604160045260245ffd5b905060045f527f8a35acfbc15ff81a39ae7d344fd709f28e8600b4aa8c65c6b64bfe7fe36bd19b5f905b8282106101da57506020915082010182610153565b60018160209254838588010152019101906101c5565b90506020925060ff191682840152151560051b82010182610153565b634e487b7160e01b5f52602260045260245ffd5b91607f1691610136565b346100da5760203660031901126100da576001600160a01b0361024b61059a565b165f525f602052602060405f2054604051908152f35b346100da5760403660031901126100da5761027a61059a565b6001600160a01b031660243581156102f057600254908082018092116102dc5760207fddf252ad1be2c89b69c2b068fc378daa952ba7f163c4a11628f55a4df523b3ef915f9360025584845283825260408420818154019055604051908152a3005b634e487b7160e01b5f52601160045260245ffd5b63ec442f0560e01b5f525f60045260245ffd5b346100da575f3660031901126100da57602060ff60055416604051908152f35b346100da5760603660031901126100da5761033c61059a565b6103446105b0565b6001600160a01b0382165f818152600160209081526040808320338452909152902054909260443592915f198110610382575b5061010493506105c6565b8381106103e75784156103d45733156103c157610104945f52600160205260405f2060018060a01b0333165f526020528360405f209103905584610377565b634a1406b160e11b5f525f60045260245ffd5b63e602df0560e01b5f525f60045260245ffd5b8390637dc7a0d960e11b5f523360045260245260445260645ffd5b346100da575f3660031901126100da576020600254604051908152f35b346100da5760403660031901126100da5761043861059a565b6024359033156103d4576001600160a01b03169081156103c157335f52600160205260405f20825f526020528060405f20556040519081527f8c5be1e5ebec7d5bd14f71427d1e84f3dd0314c0f7b2291e5b200ac8c7c3b92560203392a3602060405160018152f35b346100da575f3660031901126100da575f6003548060011c90600181168015610566575b60208310811461020c578285529081156101f057506001146105115750819003601f01601f191681019067ffffffffffffffff8211818310176101875761018382918260405282610570565b905060035f527fc2575a0e9e593c00f959f8c92f12db2869c3395a3b0502d05e2516446f71f85b5f905b82821061055057506020915082010182610153565b600181602092548385880101520191019061053b565b91607f16916104c5565b602060409281835280519182918282860152018484015e5f828201840152601f01601f1916010190565b600435906001600160a01b03821682036100da57565b602435906001600160a01b03821682036100da57565b6001600160a01b031690811561065d576001600160a01b03169182156102f057815f525f60205260405f205481811061064457817fddf252ad1be2c89b69c2b068fc378daa952ba7f163c4a11628f55a4df523b3ef92602092855f525f84520360405f2055845f525f825260405f20818154019055604051908152a3565b8263391434e360e21b5f5260045260245260445260645ffd5b634b637e8f60e11b5f525f60045260245ffdfea26469706673582212207a0534242e8dcfa07f960e83c956cace0c4a332e49133a442189a63557ce775464736f6c634300081a0033000000000000000000000000000000000000000000000000000000000000008000000000000000000000000000000000000000000000000000000000000000c00000000000000000000000000000000000000000000000000000000000000006000000000000000000000000000000000000000000000000000000e8d4a51000000000000000000000000000000000000000000000000000000000000000000855534420436f696e00000000000000000000000000000000000000000000000000000000000000000000000000000000000000000000000000000000000000045553444300000000000000000000000000000000000000000000000000000000",
        "nonce": "0x4a",
        "chainId": "0x14a34"
      },
      "additionalContracts": [],
      "isFixedGasLimit": false
    },
    {
      "hash": "0xa0c7b792fbbcbc1bc1fea8394be53bcd29c56693c8af86e9e46845738d7c5d0b",
      "transactionType": "CREATE",
      "contractName": "MockERC20",
      "contractAddress": "0x3b7e3a661cec642fa7bce0130e327b11ff0af43e",
      "function": null,
      "arguments": [
        "Tether USD",
        "USDT",
        "6",
        "1000000000000"
      ],
      "transaction": {
        "from": "0xf59da181591dbb122a894372c6e44cc079a7bb3f",
        "gas": "0xaf987",
        "value": "0x0",
        "input": "0x6080604052346103b657610ad780380380610019816103ba565b9283398101906080818303126103b65780516001600160401b0381116103b657826100459183016103df565b602082015190926001600160401b0382116103b6576100659183016103df565b9060408101519060ff82168092036103b6576060015183519091906001600160401b0381116102c757600354600181811c911680156103ac575b60208210146102a957601f8111610349575b50602094601f82116001146102e6579481929394955f926102db575b50508160011b915f199060031b1c1916176003555b82516001600160401b0381116102c757600454600181811c911680156102bd575b60208210146102a957601f8111610246575b506020601f82116001146101e357819293945f926101d8575b50508160011b915f199060031b1c1916176004555b60ff19600554161760055533156101c5576002548181018091116101b157600255335f525f60205260405f208181540190556040519081525f7fddf252ad1be2c89b69c2b068fc378daa952ba7f163c4a11628f55a4df523b3ef60203393a36040516106a690816104318239f35b634e487b7160e01b5f52601160045260245ffd5b63ec442f0560e01b5f525f60045260245ffd5b015190505f8061012e565b601f1982169060045f52805f20915f5b81811061022e57509583600195969710610216575b505050811b01600455610143565b01515f1960f88460031b161c191690555f8080610208565b9192602060018192868b0151815501940192016101f3565b60045f527f8a35acfbc15ff81a39ae7d344fd709f28e8600b4aa8c65c6b64bfe7fe36bd19b601f830160051c8101916020841061029f575b601f0160051c01905b8181106102945750610115565b5f8155600101610287565b909150819061027e565b634e487b7160e01b5f52602260045260245ffd5b90607f1690610103565b634e487b7160e01b5f52604160045260245ffd5b015190505f806100cd565b601f1982169560035f52805f20915f5b88811061033157508360019596979810610319575b505050811b016003556100e2565b01515f1960f88460031b161c191690555f808061030b565b919260206001819286850151815501940192016102f6565b60035f527fc2575a0e9e593c00f959f8c92f12db2869c3395a3b0502d05e2516446f71f85b601f830160051c810191602084106103a2575b601f0160051c01905b81811061039757506100b1565b5f815560010161038a565b9091508190610381565b90607f169061009f565b5f80fd5b6040519190601f01601f191682016001600160401b038111838210176102c757604052565b81601f820112156103b6578051906001600160401b0382116102c75761040e601f8301601f19166020016103ba565b92828452602083830101116103b657815f9260208093018386015e830101529056fe6080806040526004361015610012575f80fd5b5f3560e01c90816306fdde03146104a157508063095ea7b31461041f57806318160ddd1461040257806323b872dd14610323578063313ce5671461030357806340c10f191461026157806370a082311461022a57806395d89b411461010f578063a9059cbb146100de5763dd62ed3e1461008a575f80fd5b346100da5760403660031901126100da576100a361059a565b6100ab6105b0565b6001600160a01b039182165f908152600160209081526040808320949093168252928352819020549051908152f35b5f80fd5b346100da5760403660031901126100da576101046100fa61059a565b60243590336105c6565b602060405160018152f35b346100da575f3660031901126100da576040515f6004548060011c90600181168015610220575b60208310811461020c578285529081156101f0575060011461019b575b50819003601f01601f191681019067ffffffffffffffff8211818310176101875761018382918260405282610570565b0390f35b634e487b7160e01b5f52604160045260245ffd5b905060045f527f8a35acfbc15ff81a39ae7d344fd709f28e8600b4aa8c65c6b64bfe7fe36bd19b5f905b8282106101da57506020915082010182610153565b60018160209254838588010152019101906101c5565b90506020925060ff191682840152151560051b82010182610153565b634e487b7160e01b5f52602260045260245ffd5b91607f1691610136565b346100da5760203660031901126100da576001600160a01b0361024b61059a565b165f525f602052602060405f2054604051908152f35b346100da5760403660031901126100da5761027a61059a565b6001600160a01b031660243581156102f057600254908082018092116102dc5760207fddf252ad1be2c89b69c2b068fc378daa952ba7f163c4a11628f55a4df523b3ef915f9360025584845283825260408420818154019055604051908152a3005b634e487b7160e01b5f52601160045260245ffd5b63ec442f0560e01b5f525f60045260245ffd5b346100da575f3660031901126100da57602060ff60055416604051908152f35b346100da5760603660031901126100da5761033c61059a565b6103446105b0565b6001600160a01b0382165f818152600160209081526040808320338452909152902054909260443592915f198110610382575b5061010493506105c6565b8381106103e75784156103d45733156103c157610104945f52600160205260405f2060018060a01b0333165f526020528360405f209103905584610377565b634a1406b160e11b5f525f60045260245ffd5b63e602df0560e01b5f525f60045260245ffd5b8390637dc7a0d960e11b5f523360045260245260445260645ffd5b346100da575f3660031901126100da576020600254604051908152f35b346100da5760403660031901126100da5761043861059a565b6024359033156103d4576001600160a01b03169081156103c157335f52600160205260405f20825f526020528060405f20556040519081527f8c5be1e5ebec7d5bd14f71427d1e84f3dd0314c0f7b2291e5b200ac8c7c3b92560203392a3602060405160018152f35b346100da575f3660031901126100da575f6003548060011c90600181168015610566575b60208310811461020c578285529081156101f057506001146105115750819003601f01601f191681019067ffffffffffffffff8211818310176101875761018382918260405282610570565b905060035f527fc2575a0e9e593c00f959f8c92f12db2869c3395a3b0502d05e2516446f71f85b5f905b82821061055057506020915082010182610153565b600181602092548385880101520191019061053b565b91607f16916104c5565b602060409281835280519182918282860152018484015e5f828201840152601f01601f1916010190565b600435906001600160a01b03821682036100da57565b602435906001600160a01b03821682036100da57565b6001600160a01b031690811561065d576001600160a01b03169182156102f057815f525f60205260405f205481811061064457817fddf252ad1be2c89b69c2b068fc378daa952ba7f163c4a11628f55a4df523b3ef92602092855f525f84520360405f2055845f525f825260405f20818154019055604051908152a3565b8263391434e360e21b5f5260045260245260445260645ffd5b634b637e8f60e11b5f525f60045260245ffdfea26469706673582212207a0534242e8dcfa07f960e83c956cace0c4a332e49133a442189a63557ce775464736f6c634300081a0033000000000000000000000000000000000000000000000000000000000000008000000000000000000000000000000000000000000000000000000000000000c00000000000000000000000000000000000000000000000000000000000000006000000000000000000000000000000000000000000000000000000e8d4a51000000000000000000000000000000000000000000000000000000000000000000a546574686572205553440000000000000000000000000000000000000000000000000000000000000000000000000000000000000000000000000000000000045553445400000000000000000000000000000000000000000000000000000000",
        "nonce": "0x4b",
        "chainId": "0x14a34"
      },
      "additionalContracts": [],
      "isFixedGasLimit": false
    },
    {
      "hash": "0xffc87306e52d6b66dd95dafaf0ee9189f5ebbf1718ff93065708ce0853539e5a",
      "transactionType": "CREATE",
      "contractName": "MockERC20",
      "contractAddress": "0x20180e82db7ac476a9f3b0af245338288c88d0ef",
      "function": null,
      "arguments": [
        "PayPal USD",
        "PYUSD",
        "6",
        "1000000000000"
      ],
      "transaction": {
        "from": "0xf59da181591dbb122a894372c6e44cc079a7bb3f",
        "gas": "0xaf996",
        "value": "0x0",
        "input": "0x6080604052346103b657610ad780380380610019816103ba565b9283398101906080818303126103b65780516001600160401b0381116103b657826100459183016103df565b602082015190926001600160401b0382116103b6576100659183016103df565b9060408101519060ff82168092036103b6576060015183519091906001600160401b0381116102c757600354600181811c911680156103ac575b60208210146102a957601f8111610349575b50602094601f82116001146102e6579481929394955f926102db575b50508160011b915f199060031b1c1916176003555b82516001600160401b0381116102c757600454600181811c911680156102bd575b60208210146102a957601f8111610246575b506020601f82116001146101e357819293945f926101d8575b50508160011b915f199060031b1c1916176004555b60ff19600554161760055533156101c5576002548181018091116101b157600255335f525f60205260405f208181540190556040519081525f7fddf252ad1be2c89b69c2b068fc378daa952ba7f163c4a11628f55a4df523b3ef60203393a36040516106a690816104318239f35b634e487b7160e01b5f52601160045260245ffd5b63ec442f0560e01b5f525f60045260245ffd5b015190505f8061012e565b601f1982169060045f52805f20915f5b81811061022e57509583600195969710610216575b505050811b01600455610143565b01515f1960f88460031b161c191690555f8080610208565b9192602060018192868b0151815501940192016101f3565b60045f527f8a35acfbc15ff81a39ae7d344fd709f28e8600b4aa8c65c6b64bfe7fe36bd19b601f830160051c8101916020841061029f575b601f0160051c01905b8181106102945750610115565b5f8155600101610287565b909150819061027e565b634e487b7160e01b5f52602260045260245ffd5b90607f1690610103565b634e487b7160e01b5f52604160045260245ffd5b015190505f806100cd565b601f1982169560035f52805f20915f5b88811061033157508360019596979810610319575b505050811b016003556100e2565b01515f1960f88460031b161c191690555f808061030b565b919260206001819286850151815501940192016102f6565b60035f527fc2575a0e9e593c00f959f8c92f12db2869c3395a3b0502d05e2516446f71f85b601f830160051c810191602084106103a2575b601f0160051c01905b81811061039757506100b1565b5f815560010161038a565b9091508190610381565b90607f169061009f565b5f80fd5b6040519190601f01601f191682016001600160401b038111838210176102c757604052565b81601f820112156103b6578051906001600160401b0382116102c75761040e601f8301601f19166020016103ba565b92828452602083830101116103b657815f9260208093018386015e830101529056fe6080806040526004361015610012575f80fd5b5f3560e01c90816306fdde03146104a157508063095ea7b31461041f57806318160ddd1461040257806323b872dd14610323578063313ce5671461030357806340c10f191461026157806370a082311461022a57806395d89b411461010f578063a9059cbb146100de5763dd62ed3e1461008a575f80fd5b346100da5760403660031901126100da576100a361059a565b6100ab6105b0565b6001600160a01b039182165f908152600160209081526040808320949093168252928352819020549051908152f35b5f80fd5b346100da5760403660031901126100da576101046100fa61059a565b60243590336105c6565b602060405160018152f35b346100da575f3660031901126100da576040515f6004548060011c90600181168015610220575b60208310811461020c578285529081156101f0575060011461019b575b50819003601f01601f191681019067ffffffffffffffff8211818310176101875761018382918260405282610570565b0390f35b634e487b7160e01b5f52604160045260245ffd5b905060045f527f8a35acfbc15ff81a39ae7d344fd709f28e8600b4aa8c65c6b64bfe7fe36bd19b5f905b8282106101da57506020915082010182610153565b60018160209254838588010152019101906101c5565b90506020925060ff191682840152151560051b82010182610153565b634e487b7160e01b5f52602260045260245ffd5b91607f1691610136565b346100da5760203660031901126100da576001600160a01b0361024b61059a565b165f525f602052602060405f2054604051908152f35b346100da5760403660031901126100da5761027a61059a565b6001600160a01b031660243581156102f057600254908082018092116102dc5760207fddf252ad1be2c89b69c2b068fc378daa952ba7f163c4a11628f55a4df523b3ef915f9360025584845283825260408420818154019055604051908152a3005b634e487b7160e01b5f52601160045260245ffd5b63ec442f0560e01b5f525f60045260245ffd5b346100da575f3660031901126100da57602060ff60055416604051908152f35b346100da5760603660031901126100da5761033c61059a565b6103446105b0565b6001600160a01b0382165f818152600160209081526040808320338452909152902054909260443592915f198110610382575b5061010493506105c6565b8381106103e75784156103d45733156103c157610104945f52600160205260405f2060018060a01b0333165f526020528360405f209103905584610377565b634a1406b160e11b5f525f60045260245ffd5b63e602df0560e01b5f525f60045260245ffd5b8390637dc7a0d960e11b5f523360045260245260445260645ffd5b346100da575f3660031901126100da576020600254604051908152f35b346100da5760403660031901126100da5761043861059a565b6024359033156103d4576001600160a01b03169081156103c157335f52600160205260405f20825f526020528060405f20556040519081527f8c5be1e5ebec7d5bd14f71427d1e84f3dd0314c0f7b2291e5b200ac8c7c3b92560203392a3602060405160018152f35b346100da575f3660031901126100da575f6003548060011c90600181168015610566575b60208310811461020c578285529081156101f057506001146105115750819003601f01601f191681019067ffffffffffffffff8211818310176101875761018382918260405282610570565b905060035f527fc2575a0e9e593c00f959f8c92f12db2869c3395a3b0502d05e2516446f71f85b5f905b82821061055057506020915082010182610153565b600181602092548385880101520191019061053b565b91607f16916104c5565b602060409281835280519182918282860152018484015e5f828201840152601f01601f1916010190565b600435906001600160a01b03821682036100da57565b602435906001600160a01b03821682036100da57565b6001600160a01b031690811561065d576001600160a01b03169182156102f057815f525f60205260405f205481811061064457817fddf252ad1be2c89b69c2b068fc378daa952ba7f163c4a11628f55a4df523b3ef92602092855f525f84520360405f2055845f525f825260405f20818154019055604051908152a3565b8263391434e360e21b5f5260045260245260445260645ffd5b634b637e8f60e11b5f525f60045260245ffdfea26469706673582212207a0534242e8dcfa07f960e83c956cace0c4a332e49133a442189a63557ce775464736f6c634300081a0033000000000000000000000000000000000000000000000000000000000000008000000000000000000000000000000000000000000000000000000000000000c00000000000000000000000000000000000000000000000000000000000000006000000000000000000000000000000000000000000000000000000e8d4a51000000000000000000000000000000000000000000000000000000000000000000a50617950616c205553440000000000000000000000000000000000000000000000000000000000000000000000000000000000000000000000000000000000055059555344000000000000000000000000000000000000000000000000000000",
        "nonce": "0x4c",
        "chainId": "0x14a34"
      },
      "additionalContracts": [],
      "isFixedGasLimit": false
    },
    {
      "hash": "0x85270160010c6559cbf9dcfc7bd008b8751cfc5e8eca72ffa552793ca1d6c2d3",
      "transactionType": "CREATE",
      "contractName": "MockERC20",
      "contractAddress": "0x3f06895671c3a55cb84e1cc221a9917755a985d6",
      "function": null,
      "arguments": [
        "Ethena USD",
        "USDe",
        "6",
        "1000000000000"
      ],
      "transaction": {
        "from": "0xf59da181591dbb122a894372c6e44cc079a7bb3f",
        "gas": "0xaf987",
        "value": "0x0",
        "input": "0x6080604052346103b657610ad780380380610019816103ba565b9283398101906080818303126103b65780516001600160401b0381116103b657826100459183016103df565b602082015190926001600160401b0382116103b6576100659183016103df565b9060408101519060ff82168092036103b6576060015183519091906001600160401b0381116102c757600354600181811c911680156103ac575b60208210146102a957601f8111610349575b50602094601f82116001146102e6579481929394955f926102db575b50508160011b915f199060031b1c1916176003555b82516001600160401b0381116102c757600454600181811c911680156102bd575b60208210146102a957601f8111610246575b506020601f82116001146101e357819293945f926101d8575b50508160011b915f199060031b1c1916176004555b60ff19600554161760055533156101c5576002548181018091116101b157600255335f525f60205260405f208181540190556040519081525f7fddf252ad1be2c89b69c2b068fc378daa952ba7f163c4a11628f55a4df523b3ef60203393a36040516106a690816104318239f35b634e487b7160e01b5f52601160045260245ffd5b63ec442f0560e01b5f525f60045260245ffd5b015190505f8061012e565b601f1982169060045f52805f20915f5b81811061022e57509583600195969710610216575b505050811b01600455610143565b01515f1960f88460031b161c191690555f8080610208565b9192602060018192868b0151815501940192016101f3565b60045f527f8a35acfbc15ff81a39ae7d344fd709f28e8600b4aa8c65c6b64bfe7fe36bd19b601f830160051c8101916020841061029f575b601f0160051c01905b8181106102945750610115565b5f8155600101610287565b909150819061027e565b634e487b7160e01b5f52602260045260245ffd5b90607f1690610103565b634e487b7160e01b5f52604160045260245ffd5b015190505f806100cd565b601f1982169560035f52805f20915f5b88811061033157508360019596979810610319575b505050811b016003556100e2565b01515f1960f88460031b161c191690555f808061030b565b919260206001819286850151815501940192016102f6565b60035f527fc2575a0e9e593c00f959f8c92f12db2869c3395a3b0502d05e2516446f71f85b601f830160051c810191602084106103a2575b601f0160051c01905b81811061039757506100b1565b5f815560010161038a565b9091508190610381565b90607f169061009f565b5f80fd5b6040519190601f01601f191682016001600160401b038111838210176102c757604052565b81601f820112156103b6578051906001600160401b0382116102c75761040e601f8301601f19166020016103ba565b92828452602083830101116103b657815f9260208093018386015e830101529056fe6080806040526004361015610012575f80fd5b5f3560e01c90816306fdde03146104a157508063095ea7b31461041f57806318160ddd1461040257806323b872dd14610323578063313ce5671461030357806340c10f191461026157806370a082311461022a57806395d89b411461010f578063a9059cbb146100de5763dd62ed3e1461008a575f80fd5b346100da5760403660031901126100da576100a361059a565b6100ab6105b0565b6001600160a01b039182165f908152600160209081526040808320949093168252928352819020549051908152f35b5f80fd5b346100da5760403660031901126100da576101046100fa61059a565b60243590336105c6565b602060405160018152f35b346100da575f3660031901126100da576040515f6004548060011c90600181168015610220575b60208310811461020c578285529081156101f0575060011461019b575b50819003601f01601f191681019067ffffffffffffffff8211818310176101875761018382918260405282610570565b0390f35b634e487b7160e01b5f52604160045260245ffd5b905060045f527f8a35acfbc15ff81a39ae7d344fd709f28e8600b4aa8c65c6b64bfe7fe36bd19b5f905b8282106101da57506020915082010182610153565b60018160209254838588010152019101906101c5565b90506020925060ff191682840152151560051b82010182610153565b634e487b7160e01b5f52602260045260245ffd5b91607f1691610136565b346100da5760203660031901126100da576001600160a01b0361024b61059a565b165f525f602052602060405f2054604051908152f35b346100da5760403660031901126100da5761027a61059a565b6001600160a01b031660243581156102f057600254908082018092116102dc5760207fddf252ad1be2c89b69c2b068fc378daa952ba7f163c4a11628f55a4df523b3ef915f9360025584845283825260408420818154019055604051908152a3005b634e487b7160e01b5f52601160045260245ffd5b63ec442f0560e01b5f525f60045260245ffd5b346100da575f3660031901126100da57602060ff60055416604051908152f35b346100da5760603660031901126100da5761033c61059a565b6103446105b0565b6001600160a01b0382165f818152600160209081526040808320338452909152902054909260443592915f198110610382575b5061010493506105c6565b8381106103e75784156103d45733156103c157610104945f52600160205260405f2060018060a01b0333165f526020528360405f209103905584610377565b634a1406b160e11b5f525f60045260245ffd5b63e602df0560e01b5f525f60045260245ffd5b8390637dc7a0d960e11b5f523360045260245260445260645ffd5b346100da575f3660031901126100da576020600254604051908152f35b346100da5760403660031901126100da5761043861059a565b6024359033156103d4576001600160a01b03169081156103c157335f52600160205260405f20825f526020528060405f20556040519081527f8c5be1e5ebec7d5bd14f71427d1e84f3dd0314c0f7b2291e5b200ac8c7c3b92560203392a3602060405160018152f35b346100da575f3660031901126100da575f6003548060011c90600181168015610566575b60208310811461020c578285529081156101f057506001146105115750819003601f01601f191681019067ffffffffffffffff8211818310176101875761018382918260405282610570565b905060035f527fc2575a0e9e593c00f959f8c92f12db2869c3395a3b0502d05e2516446f71f85b5f905b82821061055057506020915082010182610153565b600181602092548385880101520191019061053b565b91607f16916104c5565b602060409281835280519182918282860152018484015e5f828201840152601f01601f1916010190565b600435906001600160a01b03821682036100da57565b602435906001600160a01b03821682036100da57565b6001600160a01b031690811561065d576001600160a01b03169182156102f057815f525f60205260405f205481811061064457817fddf252ad1be2c89b69c2b068fc378daa952ba7f163c4a11628f55a4df523b3ef92602092855f525f84520360405f2055845f525f825260405f20818154019055604051908152a3565b8263391434e360e21b5f5260045260245260445260645ffd5b634b637e8f60e11b5f525f60045260245ffdfea26469706673582212207a0534242e8dcfa07f960e83c956cace0c4a332e49133a442189a63557ce775464736f6c634300081a0033000000000000000000000000000000000000000000000000000000000000008000000000000000000000000000000000000000000000000000000000000000c00000000000000000000000000000000000000000000000000000000000000006000000000000000000000000000000000000000000000000000000e8d4a51000000000000000000000000000000000000000000000000000000000000000000a457468656e61205553440000000000000000000000000000000000000000000000000000000000000000000000000000000000000000000000000000000000045553446500000000000000000000000000000000000000000000000000000000",
        "nonce": "0x4d",
        "chainId": "0x14a34"
      },
      "additionalContracts": [],
      "isFixedGasLimit": false
    },
    {
      "hash": "0xab6bb52df52585e0c02e98b93befa2a677c8c510c20ea56aca2271a23beb7284",
      "transactionType": "CALL",
      "contractName": "MockERC20",
      "contractAddress": "0x50766571b3769d9cfc170f3b17668f3673f80eba",
      "function": "mint(address,uint256)",
      "arguments": [
        "0xf59dA181591dbB122A894372C6E44cC079A7Bb3F",
        "100000000000"
      ],
      "transaction": {
        "from": "0xf59da181591dbb122a894372c6e44cc079a7bb3f",
        "to": "0x50766571b3769d9cfc170f3b17668f3673f80eba",
        "gas": "0xc183",
        "value": "0x0",
        "input": "0x40c10f19000000000000000000000000f59da181591dbb122a894372c6e44cc079a7bb3f000000000000000000000000000000000000000000000000000000174876e800",
        "nonce": "0x4e",
        "chainId": "0x14a34"
      },
      "additionalContracts": [],
      "isFixedGasLimit": false
    },
    {
      "hash": "0x4466dff5cf18fc976669ca1a814f279752c59810ece98655ee9662e5e4334849",
      "transactionType": "CALL",
      "contractName": "MockERC20",
      "contractAddress": "0x50766571b3769d9cfc170f3b17668f3673f80eba",
      "function": "mint(address,uint256)",
      "arguments": [
        "0x3173Ed1Ec423f5071045D861CaB532C2909fB4c0",
        "100000000000"
      ],
      "transaction": {
        "from": "0xf59da181591dbb122a894372c6e44cc079a7bb3f",
        "to": "0x50766571b3769d9cfc170f3b17668f3673f80eba",
        "gas": "0x11305",
        "value": "0x0",
        "input": "0x40c10f190000000000000000000000003173ed1ec423f5071045d861cab532c2909fb4c0000000000000000000000000000000000000000000000000000000174876e800",
        "nonce": "0x4f",
        "chainId": "0x14a34"
      },
      "additionalContracts": [],
      "isFixedGasLimit": false
    },
    {
      "hash": "0xde5f170d77716fca81dbe334dd410d2833cb9e4c5d0a3202385eb75789a6e403",
      "transactionType": "CALL",
      "contractName": "MockERC20",
      "contractAddress": "0x50766571b3769d9cfc170f3b17668f3673f80eba",
      "function": "mint(address,uint256)",
      "arguments": [
        "0xE265064afDbC57e008d0fb2A481826aDD6f44447",
        "100000000000"
      ],
      "transaction": {
        "from": "0xf59da181591dbb122a894372c6e44cc079a7bb3f",
        "to": "0x50766571b3769d9cfc170f3b17668f3673f80eba",
        "gas": "0x11305",
        "value": "0x0",
        "input": "0x40c10f19000000000000000000000000e265064afdbc57e008d0fb2a481826add6f44447000000000000000000000000000000000000000000000000000000174876e800",
        "nonce": "0x50",
        "chainId": "0x14a34"
      },
      "additionalContracts": [],
      "isFixedGasLimit": false
    },
    {
      "hash": "0x6528ced0d2bf430b5a2e2cf9e183f829ef7edbfd3813c3c436b16a77648478fa",
      "transactionType": "CALL",
      "contractName": "MockERC20",
      "contractAddress": "0x50766571b3769d9cfc170f3b17668f3673f80eba",
      "function": "mint(address,uint256)",
      "arguments": [
        "0x1FF47D121E5971E012C0b2E2E088606a77Aa9377",
        "100000000000"
      ],
      "transaction": {
        "from": "0xf59da181591dbb122a894372c6e44cc079a7bb3f",
        "to": "0x50766571b3769d9cfc170f3b17668f3673f80eba",
        "gas": "0x11305",
        "value": "0x0",
        "input": "0x40c10f190000000000000000000000001ff47d121e5971e012c0b2e2e088606a77aa9377000000000000000000000000000000000000000000000000000000174876e800",
        "nonce": "0x51",
        "chainId": "0x14a34"
      },
      "additionalContracts": [],
      "isFixedGasLimit": false
    },
    {
      "hash": "0x5188ed4afa8c87d53921f88f246302f9668759bc2d3d5011390eaa8de57ca01a",
      "transactionType": "CALL",
      "contractName": "MockERC20",
      "contractAddress": "0x3b7e3a661cec642fa7bce0130e327b11ff0af43e",
      "function": "mint(address,uint256)",
      "arguments": [
        "0xf59dA181591dbB122A894372C6E44cC079A7Bb3F",
        "100000000000"
      ],
      "transaction": {
        "from": "0xf59da181591dbb122a894372c6e44cc079a7bb3f",
        "to": "0x3b7e3a661cec642fa7bce0130e327b11ff0af43e",
        "gas": "0xc183",
        "value": "0x0",
        "input": "0x40c10f19000000000000000000000000f59da181591dbb122a894372c6e44cc079a7bb3f000000000000000000000000000000000000000000000000000000174876e800",
        "nonce": "0x52",
        "chainId": "0x14a34"
      },
      "additionalContracts": [],
      "isFixedGasLimit": false
    },
    {
      "hash": "0xcafee4c33d11e6c41be88d675e48e7718dd8494af0391a7abb1a4c292f785703",
      "transactionType": "CALL",
      "contractName": "MockERC20",
      "contractAddress": "0x3b7e3a661cec642fa7bce0130e327b11ff0af43e",
      "function": "mint(address,uint256)",
      "arguments": [
        "0x3173Ed1Ec423f5071045D861CaB532C2909fB4c0",
        "100000000000"
      ],
      "transaction": {
        "from": "0xf59da181591dbb122a894372c6e44cc079a7bb3f",
        "to": "0x3b7e3a661cec642fa7bce0130e327b11ff0af43e",
        "gas": "0x11305",
        "value": "0x0",
        "input": "0x40c10f190000000000000000000000003173ed1ec423f5071045d861cab532c2909fb4c0000000000000000000000000000000000000000000000000000000174876e800",
        "nonce": "0x53",
        "chainId": "0x14a34"
      },
      "additionalContracts": [],
      "isFixedGasLimit": false
    },
    {
      "hash": "0x7a230f21982e02496c90d75c267c489f1fc99f4fbecb2aee8074777208823113",
      "transactionType": "CALL",
      "contractName": "MockERC20",
      "contractAddress": "0x3b7e3a661cec642fa7bce0130e327b11ff0af43e",
      "function": "mint(address,uint256)",
      "arguments": [
        "0xE265064afDbC57e008d0fb2A481826aDD6f44447",
        "100000000000"
      ],
      "transaction": {
        "from": "0xf59da181591dbb122a894372c6e44cc079a7bb3f",
        "to": "0x3b7e3a661cec642fa7bce0130e327b11ff0af43e",
        "gas": "0x11305",
        "value": "0x0",
        "input": "0x40c10f19000000000000000000000000e265064afdbc57e008d0fb2a481826add6f44447000000000000000000000000000000000000000000000000000000174876e800",
        "nonce": "0x54",
        "chainId": "0x14a34"
      },
      "additionalContracts": [],
      "isFixedGasLimit": false
    },
    {
      "hash": "0x94f60875bf5e6a186f3787f0ce765a4c8b87b45c0f0c76f63cd19a510c658f13",
      "transactionType": "CALL",
      "contractName": "MockERC20",
      "contractAddress": "0x3b7e3a661cec642fa7bce0130e327b11ff0af43e",
      "function": "mint(address,uint256)",
      "arguments": [
        "0x1FF47D121E5971E012C0b2E2E088606a77Aa9377",
        "100000000000"
      ],
      "transaction": {
        "from": "0xf59da181591dbb122a894372c6e44cc079a7bb3f",
        "to": "0x3b7e3a661cec642fa7bce0130e327b11ff0af43e",
        "gas": "0x11305",
        "value": "0x0",
        "input": "0x40c10f190000000000000000000000001ff47d121e5971e012c0b2e2e088606a77aa9377000000000000000000000000000000000000000000000000000000174876e800",
        "nonce": "0x55",
        "chainId": "0x14a34"
      },
      "additionalContracts": [],
      "isFixedGasLimit": false
    },
    {
      "hash": "0x072e995bf2c43062af8b2b332cacd59b75997428886e24b8d4b736b4d91ba123",
      "transactionType": "CALL",
      "contractName": "MockERC20",
      "contractAddress": "0x20180e82db7ac476a9f3b0af245338288c88d0ef",
      "function": "mint(address,uint256)",
      "arguments": [
        "0xf59dA181591dbB122A894372C6E44cC079A7Bb3F",
        "100000000000"
      ],
      "transaction": {
        "from": "0xf59da181591dbb122a894372c6e44cc079a7bb3f",
        "to": "0x20180e82db7ac476a9f3b0af245338288c88d0ef",
        "gas": "0xc183",
        "value": "0x0",
        "input": "0x40c10f19000000000000000000000000f59da181591dbb122a894372c6e44cc079a7bb3f000000000000000000000000000000000000000000000000000000174876e800",
        "nonce": "0x56",
        "chainId": "0x14a34"
      },
      "additionalContracts": [],
      "isFixedGasLimit": false
    },
    {
      "hash": "0xfe55a2dbe09ba59e801c6214aa90744ded85e8d1adc21b97c80c9a5fefd9f92d",
      "transactionType": "CALL",
      "contractName": "MockERC20",
      "contractAddress": "0x20180e82db7ac476a9f3b0af245338288c88d0ef",
      "function": "mint(address,uint256)",
      "arguments": [
        "0x3173Ed1Ec423f5071045D861CaB532C2909fB4c0",
        "100000000000"
      ],
      "transaction": {
        "from": "0xf59da181591dbb122a894372c6e44cc079a7bb3f",
        "to": "0x20180e82db7ac476a9f3b0af245338288c88d0ef",
        "gas": "0x11305",
        "value": "0x0",
        "input": "0x40c10f190000000000000000000000003173ed1ec423f5071045d861cab532c2909fb4c0000000000000000000000000000000000000000000000000000000174876e800",
        "nonce": "0x57",
        "chainId": "0x14a34"
      },
      "additionalContracts": [],
      "isFixedGasLimit": false
    },
    {
      "hash": "0x044580ec450e38e06160c2ada7397677046589d084a02fc36f6ad4eaa6be773b",
      "transactionType": "CALL",
      "contractName": "MockERC20",
      "contractAddress": "0x20180e82db7ac476a9f3b0af245338288c88d0ef",
      "function": "mint(address,uint256)",
      "arguments": [
        "0xE265064afDbC57e008d0fb2A481826aDD6f44447",
        "100000000000"
      ],
      "transaction": {
        "from": "0xf59da181591dbb122a894372c6e44cc079a7bb3f",
        "to": "0x20180e82db7ac476a9f3b0af245338288c88d0ef",
        "gas": "0x11305",
        "value": "0x0",
        "input": "0x40c10f19000000000000000000000000e265064afdbc57e008d0fb2a481826add6f44447000000000000000000000000000000000000000000000000000000174876e800",
        "nonce": "0x58",
        "chainId": "0x14a34"
      },
      "additionalContracts": [],
      "isFixedGasLimit": false
    },
    {
      "hash": "0xc894cba736ed0b3782e728caf005dd1a93ea9bd16a34cc2662bb6598a0e8a3fb",
      "transactionType": "CALL",
      "contractName": "MockERC20",
      "contractAddress": "0x20180e82db7ac476a9f3b0af245338288c88d0ef",
      "function": "mint(address,uint256)",
      "arguments": [
        "0x1FF47D121E5971E012C0b2E2E088606a77Aa9377",
        "100000000000"
      ],
      "transaction": {
        "from": "0xf59da181591dbb122a894372c6e44cc079a7bb3f",
        "to": "0x20180e82db7ac476a9f3b0af245338288c88d0ef",
        "gas": "0x11305",
        "value": "0x0",
        "input": "0x40c10f190000000000000000000000001ff47d121e5971e012c0b2e2e088606a77aa9377000000000000000000000000000000000000000000000000000000174876e800",
        "nonce": "0x59",
        "chainId": "0x14a34"
      },
      "additionalContracts": [],
      "isFixedGasLimit": false
    },
    {
      "hash": "0xf966c25df2f369237a15ab1a9638f07121895c0ceb2a2cc46ade03f6ac9b64f8",
      "transactionType": "CALL",
      "contractName": "MockERC20",
      "contractAddress": "0x3f06895671c3a55cb84e1cc221a9917755a985d6",
      "function": "mint(address,uint256)",
      "arguments": [
        "0xf59dA181591dbB122A894372C6E44cC079A7Bb3F",
        "100000000000"
      ],
      "transaction": {
        "from": "0xf59da181591dbb122a894372c6e44cc079a7bb3f",
        "to": "0x3f06895671c3a55cb84e1cc221a9917755a985d6",
        "gas": "0xc183",
        "value": "0x0",
        "input": "0x40c10f19000000000000000000000000f59da181591dbb122a894372c6e44cc079a7bb3f000000000000000000000000000000000000000000000000000000174876e800",
        "nonce": "0x5a",
        "chainId": "0x14a34"
      },
      "additionalContracts": [],
      "isFixedGasLimit": false
    },
    {
      "hash": "0x48c7c3fe4e303cc1244413a4423da216adfe0bb6ccccbe6ca5589754fa37f2cd",
      "transactionType": "CALL",
      "contractName": "MockERC20",
      "contractAddress": "0x3f06895671c3a55cb84e1cc221a9917755a985d6",
      "function": "mint(address,uint256)",
      "arguments": [
        "0x3173Ed1Ec423f5071045D861CaB532C2909fB4c0",
        "100000000000"
      ],
      "transaction": {
        "from": "0xf59da181591dbb122a894372c6e44cc079a7bb3f",
        "to": "0x3f06895671c3a55cb84e1cc221a9917755a985d6",
        "gas": "0x11305",
        "value": "0x0",
        "input": "0x40c10f190000000000000000000000003173ed1ec423f5071045d861cab532c2909fb4c0000000000000000000000000000000000000000000000000000000174876e800",
        "nonce": "0x5b",
        "chainId": "0x14a34"
      },
      "additionalContracts": [],
      "isFixedGasLimit": false
    },
    {
      "hash": "0x141141aa64951935692a9522c8c7f8f357cd064ecf475c0ff81232ca7186dcc2",
      "transactionType": "CALL",
      "contractName": "MockERC20",
      "contractAddress": "0x3f06895671c3a55cb84e1cc221a9917755a985d6",
      "function": "mint(address,uint256)",
      "arguments": [
        "0xE265064afDbC57e008d0fb2A481826aDD6f44447",
        "100000000000"
      ],
      "transaction": {
        "from": "0xf59da181591dbb122a894372c6e44cc079a7bb3f",
        "to": "0x3f06895671c3a55cb84e1cc221a9917755a985d6",
        "gas": "0x11305",
        "value": "0x0",
        "input": "0x40c10f19000000000000000000000000e265064afdbc57e008d0fb2a481826add6f44447000000000000000000000000000000000000000000000000000000174876e800",
        "nonce": "0x5c",
        "chainId": "0x14a34"
      },
      "additionalContracts": [],
      "isFixedGasLimit": false
    },
    {
      "hash": "0x82d3092c0e56924d9c9cb8f22aade52dd7637e9febb5a637aa74c7e2930c552a",
      "transactionType": "CALL",
      "contractName": "MockERC20",
      "contractAddress": "0x3f06895671c3a55cb84e1cc221a9917755a985d6",
      "function": "mint(address,uint256)",
      "arguments": [
        "0x1FF47D121E5971E012C0b2E2E088606a77Aa9377",
        "100000000000"
      ],
      "transaction": {
        "from": "0xf59da181591dbb122a894372c6e44cc079a7bb3f",
        "to": "0x3f06895671c3a55cb84e1cc221a9917755a985d6",
        "gas": "0x11305",
        "value": "0x0",
        "input": "0x40c10f190000000000000000000000001ff47d121e5971e012c0b2e2e088606a77aa9377000000000000000000000000000000000000000000000000000000174876e800",
        "nonce": "0x5d",
        "chainId": "0x14a34"
      },
      "additionalContracts": [],
      "isFixedGasLimit": false
    }
  ],
  "receipts": [
    {
      "status": "0x1",
      "cumulativeGasUsed": "0xeda46",
      "logs": [
        {
          "address": "0x50766571b3769d9cfc170f3b17668f3673f80eba",
          "topics": [
            "0xddf252ad1be2c89b69c2b068fc378daa952ba7f163c4a11628f55a4df523b3ef",
            "0x0000000000000000000000000000000000000000000000000000000000000000",
            "0x000000000000000000000000f59da181591dbb122a894372c6e44cc079a7bb3f"
          ],
          "data": "0x000000000000000000000000000000000000000000000000000000e8d4a51000",
          "blockHash": "0xc24ba582563264c446c2223350464897a1e64f5e2daf0ade46d8b05e2f0760c9",
          "blockNumber": "0x1c71583",
          "blockTimestamp": "0x68a189e6",
          "transactionHash": "0x41c0bfd08efff455bae7b0655d9268c4608bd928d49330ce00f7bb80193a196f",
          "transactionIndex": "0x3",
          "logIndex": "0x5",
          "removed": false
        }
      ],
      "logsBloom": "0x00000000000000000000002000000000000000000000000800000000000000000000000000000002000000000000000000000000000000000000000000000000000000000000000000001008000000000000000000000000000000000000000000000000020000000000000000000800000000000000000000200010000000000000000000000000000000000000000000000000000000000000000000000000100000000000000000000000000000000000000000000000000000000000000000000002000000000000000000000000000000000000000000000000000020000000000000000000000000000000000000000000000000000000000000000000",
      "type": "0x2",
      "transactionHash": "0x41c0bfd08efff455bae7b0655d9268c4608bd928d49330ce00f7bb80193a196f",
      "transactionIndex": "0x3",
      "blockHash": "0xc24ba582563264c446c2223350464897a1e64f5e2daf0ade46d8b05e2f0760c9",
      "blockNumber": "0x1c71583",
      "gasUsed": "0x87115",
      "effectiveGasPrice": "0xf427f",
      "from": "0xf59da181591dbb122a894372c6e44cc079a7bb3f",
      "to": null,
      "contractAddress": "0x50766571b3769d9cfc170f3b17668f3673f80eba",
      "l1BaseFeeScalar": "0x44d",
      "l1BlobBaseFee": "0xd1f60b",
      "l1BlobBaseFeeScalar": "0xa118b",
      "l1Fee": "0x676730fce",
      "l1GasPrice": "0x1969d746",
      "l1GasUsed": "0x6891"
    },
    {
      "status": "0x1",
      "cumulativeGasUsed": "0x1c8405",
      "logs": [
        {
          "address": "0x3b7e3a661cec642fa7bce0130e327b11ff0af43e",
          "topics": [
            "0xddf252ad1be2c89b69c2b068fc378daa952ba7f163c4a11628f55a4df523b3ef",
            "0x0000000000000000000000000000000000000000000000000000000000000000",
            "0x000000000000000000000000f59da181591dbb122a894372c6e44cc079a7bb3f"
          ],
          "data": "0x000000000000000000000000000000000000000000000000000000e8d4a51000",
          "blockHash": "0xc24ba582563264c446c2223350464897a1e64f5e2daf0ade46d8b05e2f0760c9",
          "blockNumber": "0x1c71583",
          "blockTimestamp": "0x68a189e6",
          "transactionHash": "0xa0c7b792fbbcbc1bc1fea8394be53bcd29c56693c8af86e9e46845738d7c5d0b",
          "transactionIndex": "0x5",
          "logIndex": "0x11",
          "removed": false
        }
      ],
      "logsBloom": "0x00000000000000000000000000000000000000000000000000000000000000000000000000000002000000000000000000000000000000000001000000000000000000000000000000001008000000000000000000000000000000000000000000000000020000000000000000000800000000000000000000200010000000000000000000000000000000000000000000000000000000000000000000000000000000000000000000000000000000000000000000000000000000000000000000000002000000000000000000040000000000000000000000000000000020000000800000000000000000000000000000000000000000000000000000000000",
      "type": "0x2",
      "transactionHash": "0xa0c7b792fbbcbc1bc1fea8394be53bcd29c56693c8af86e9e46845738d7c5d0b",
      "transactionIndex": "0x5",
      "blockHash": "0xc24ba582563264c446c2223350464897a1e64f5e2daf0ade46d8b05e2f0760c9",
      "blockNumber": "0x1c71583",
      "gasUsed": "0x8712d",
      "effectiveGasPrice": "0xf427f",
      "from": "0xf59da181591dbb122a894372c6e44cc079a7bb3f",
      "to": null,
      "contractAddress": "0x3b7e3a661cec642fa7bce0130e327b11ff0af43e",
      "l1BaseFeeScalar": "0x44d",
      "l1BlobBaseFee": "0xd1f60b",
      "l1BlobBaseFeeScalar": "0xa118b",
      "l1Fee": "0x6781a94e2",
      "l1GasPrice": "0x1969d746",
      "l1GasUsed": "0x68ab"
    },
    {
      "status": "0x1",
      "cumulativeGasUsed": "0x24f53e",
      "logs": [
        {
          "address": "0x20180e82db7ac476a9f3b0af245338288c88d0ef",
          "topics": [
            "0xddf252ad1be2c89b69c2b068fc378daa952ba7f163c4a11628f55a4df523b3ef",
            "0x0000000000000000000000000000000000000000000000000000000000000000",
            "0x000000000000000000000000f59da181591dbb122a894372c6e44cc079a7bb3f"
          ],
          "data": "0x000000000000000000000000000000000000000000000000000000e8d4a51000",
          "blockHash": "0xc24ba582563264c446c2223350464897a1e64f5e2daf0ade46d8b05e2f0760c9",
          "blockNumber": "0x1c71583",
          "blockTimestamp": "0x68a189e6",
          "transactionHash": "0xffc87306e52d6b66dd95dafaf0ee9189f5ebbf1718ff93065708ce0853539e5a",
          "transactionIndex": "0x6",
          "logIndex": "0x12",
          "removed": false
        }
      ],
      "logsBloom": "0x00000000000000000000000000000000000000000000000000000000000000000000000000000002000000000000000400000000000000000000000000000000000000000000000000001008000000000000000000000000000000000000000000000000020000000000000000000800000000000200000000200010000000000000000000000000000000000000000000000000000000000000000000000000000000000000000000000000000000000000000000000000000000000000000000000002000000000000000000000000000000000000000000000000000020000000000000000000000000000000000000000000000000000000000000008000",
      "type": "0x2",
      "transactionHash": "0xffc87306e52d6b66dd95dafaf0ee9189f5ebbf1718ff93065708ce0853539e5a",
      "transactionIndex": "0x6",
      "blockHash": "0xc24ba582563264c446c2223350464897a1e64f5e2daf0ade46d8b05e2f0760c9",
      "blockNumber": "0x1c71583",
      "gasUsed": "0x87139",
      "effectiveGasPrice": "0xf427f",
      "from": "0xf59da181591dbb122a894372c6e44cc079a7bb3f",
      "to": null,
      "contractAddress": "0x20180e82db7ac476a9f3b0af245338288c88d0ef",
      "l1BaseFeeScalar": "0x44d",
      "l1BlobBaseFee": "0xd1f60b",
      "l1BlobBaseFeeScalar": "0xa118b",
      "l1Fee": "0x676730fce",
      "l1GasPrice": "0x1969d746",
      "l1GasUsed": "0x6891"
    },
    {
      "status": "0x1",
      "cumulativeGasUsed": "0x2d666b",
      "logs": [
        {
          "address": "0x3f06895671c3a55cb84e1cc221a9917755a985d6",
          "topics": [
            "0xddf252ad1be2c89b69c2b068fc378daa952ba7f163c4a11628f55a4df523b3ef",
            "0x0000000000000000000000000000000000000000000000000000000000000000",
            "0x000000000000000000000000f59da181591dbb122a894372c6e44cc079a7bb3f"
          ],
          "data": "0x000000000000000000000000000000000000000000000000000000e8d4a51000",
          "blockHash": "0xc24ba582563264c446c2223350464897a1e64f5e2daf0ade46d8b05e2f0760c9",
          "blockNumber": "0x1c71583",
          "blockTimestamp": "0x68a189e6",
          "transactionHash": "0x85270160010c6559cbf9dcfc7bd008b8751cfc5e8eca72ffa552793ca1d6c2d3",
          "transactionIndex": "0x7",
          "logIndex": "0x13",
          "removed": false
        }
      ],
      "logsBloom": "0x00000000000000000000000000000000000000000000000000000000001000000000000000000002000000000000000000000000000000000000000000000000000000000000000000001008000000000000000000000000000000000000000000000000020000000000000000000800000000000000000000200010000000000000000000000000000800000000000000000000000000000000000000000000000000000000000000000000000000000000000000000000000000000000000000000002000000000000000000000000000000000000000000400000000020000000000000000000000000000000000000000000000000000000000000000000",
      "type": "0x2",
      "transactionHash": "0x85270160010c6559cbf9dcfc7bd008b8751cfc5e8eca72ffa552793ca1d6c2d3",
      "transactionIndex": "0x7",
      "blockHash": "0xc24ba582563264c446c2223350464897a1e64f5e2daf0ade46d8b05e2f0760c9",
      "blockNumber": "0x1c71583",
      "gasUsed": "0x8712d",
      "effectiveGasPrice": "0xf427f",
      "from": "0xf59da181591dbb122a894372c6e44cc079a7bb3f",
      "to": null,
      "contractAddress": "0x3f06895671c3a55cb84e1cc221a9917755a985d6",
      "l1BaseFeeScalar": "0x44d",
      "l1BlobBaseFee": "0xd1f60b",
      "l1BlobBaseFeeScalar": "0xa118b",
      "l1Fee": "0x6781a94e2",
      "l1GasPrice": "0x1969d746",
      "l1GasUsed": "0x68ab"
    },
    {
      "status": "0x1",
      "cumulativeGasUsed": "0x2deabc",
      "logs": [
        {
          "address": "0x50766571b3769d9cfc170f3b17668f3673f80eba",
          "topics": [
            "0xddf252ad1be2c89b69c2b068fc378daa952ba7f163c4a11628f55a4df523b3ef",
            "0x0000000000000000000000000000000000000000000000000000000000000000",
            "0x000000000000000000000000f59da181591dbb122a894372c6e44cc079a7bb3f"
          ],
          "data": "0x000000000000000000000000000000000000000000000000000000174876e800",
          "blockHash": "0xc24ba582563264c446c2223350464897a1e64f5e2daf0ade46d8b05e2f0760c9",
          "blockNumber": "0x1c71583",
          "blockTimestamp": "0x68a189e6",
          "transactionHash": "0xab6bb52df52585e0c02e98b93befa2a677c8c510c20ea56aca2271a23beb7284",
          "transactionIndex": "0x8",
          "logIndex": "0x14",
          "removed": false
        }
      ],
      "logsBloom": "0x00000000000000000000002000000000000000000000000800000000000000000000000000000002000000000000000000000000000000000000000000000000000000000000000000001008000000000000000000000000000000000000000000000000020000000000000000000800000000000000000000200010000000000000000000000000000000000000000000000000000000000000000000000000100000000000000000000000000000000000000000000000000000000000000000000002000000000000000000000000000000000000000000000000000020000000000000000000000000000000000000000000000000000000000000000000",
      "type": "0x2",
      "transactionHash": "0xab6bb52df52585e0c02e98b93befa2a677c8c510c20ea56aca2271a23beb7284",
      "transactionIndex": "0x8",
      "blockHash": "0xc24ba582563264c446c2223350464897a1e64f5e2daf0ade46d8b05e2f0760c9",
      "blockNumber": "0x1c71583",
      "gasUsed": "0x8451",
      "effectiveGasPrice": "0xf427f",
      "from": "0xf59da181591dbb122a894372c6e44cc079a7bb3f",
      "to": "0x50766571b3769d9cfc170f3b17668f3673f80eba",
      "contractAddress": null,
      "l1BaseFeeScalar": "0x44d",
      "l1BlobBaseFee": "0xd1f60b",
      "l1BlobBaseFeeScalar": "0xa118b",
      "l1Fee": "0x62e2fe6f",
      "l1GasPrice": "0x1969d746",
      "l1GasUsed": "0x640"
    },
    {
      "status": "0x1",
      "cumulativeGasUsed": "0x2eb1d9",
      "logs": [
        {
          "address": "0x50766571b3769d9cfc170f3b17668f3673f80eba",
          "topics": [
            "0xddf252ad1be2c89b69c2b068fc378daa952ba7f163c4a11628f55a4df523b3ef",
            "0x0000000000000000000000000000000000000000000000000000000000000000",
            "0x0000000000000000000000003173ed1ec423f5071045d861cab532c2909fb4c0"
          ],
          "data": "0x000000000000000000000000000000000000000000000000000000174876e800",
          "blockHash": "0xc24ba582563264c446c2223350464897a1e64f5e2daf0ade46d8b05e2f0760c9",
          "blockNumber": "0x1c71583",
          "blockTimestamp": "0x68a189e6",
          "transactionHash": "0x4466dff5cf18fc976669ca1a814f279752c59810ece98655ee9662e5e4334849",
          "transactionIndex": "0x9",
          "logIndex": "0x15",
          "removed": false
        }
      ],
      "logsBloom": "0x00000000000000000000002000000000000000000000000801000000000000000000000000000000000000000000000000000000000000000000000000000000000000000000000000000008000000000000000000000000000001000000000000000000020000000000000000000800000000800000000000000010000000000000000000000000000000000000000000000000000000000000000000000000100000000000000000000000000000000000000000000000000000000000000000000002000000000000000000000000000000000000000000000000000020000000000000000000000000000000000000000000000000000000000000000000",
      "type": "0x2",
      "transactionHash": "0x4466dff5cf18fc976669ca1a814f279752c59810ece98655ee9662e5e4334849",
      "transactionIndex": "0x9",
      "blockHash": "0xc24ba582563264c446c2223350464897a1e64f5e2daf0ade46d8b05e2f0760c9",
      "blockNumber": "0x1c71583",
      "gasUsed": "0xc71d",
      "effectiveGasPrice": "0xf427f",
      "from": "0xf59da181591dbb122a894372c6e44cc079a7bb3f",
      "to": "0x50766571b3769d9cfc170f3b17668f3673f80eba",
      "contractAddress": null,
      "l1BaseFeeScalar": "0x44d",
      "l1BlobBaseFee": "0xd1f60b",
      "l1BlobBaseFeeScalar": "0xa118b",
      "l1Fee": "0x62e2fe6f",
      "l1GasPrice": "0x1969d746",
      "l1GasUsed": "0x640"
    },
    {
      "status": "0x1",
      "cumulativeGasUsed": "0x2f78f6",
      "logs": [
        {
          "address": "0x50766571b3769d9cfc170f3b17668f3673f80eba",
          "topics": [
            "0xddf252ad1be2c89b69c2b068fc378daa952ba7f163c4a11628f55a4df523b3ef",
            "0x0000000000000000000000000000000000000000000000000000000000000000",
            "0x000000000000000000000000e265064afdbc57e008d0fb2a481826add6f44447"
          ],
          "data": "0x000000000000000000000000000000000000000000000000000000174876e800",
          "blockHash": "0xc24ba582563264c446c2223350464897a1e64f5e2daf0ade46d8b05e2f0760c9",
          "blockNumber": "0x1c71583",
          "blockTimestamp": "0x68a189e6",
          "transactionHash": "0xde5f170d77716fca81dbe334dd410d2833cb9e4c5d0a3202385eb75789a6e403",
          "transactionIndex": "0xa",
          "logIndex": "0x16",
          "removed": false
        }
      ],
      "logsBloom": "0x00000000000000000000002000000000000000000000000800000000000000000000000000000000000000000000000000000000000000000000000000000000000000000000000000000008000000000000000000000000000008000000000000000000020000000000000000000800000000000000000000000010000000000004000000000000000000000000000000000000000000000000000000000000100000000000000000000001000000000000000000000000000000000000000000000002000000000000000000000000000000000000000000000000000020000000000000000000000000000000000000000000000000000000000000000000",
      "type": "0x2",
      "transactionHash": "0xde5f170d77716fca81dbe334dd410d2833cb9e4c5d0a3202385eb75789a6e403",
      "transactionIndex": "0xa",
      "blockHash": "0xc24ba582563264c446c2223350464897a1e64f5e2daf0ade46d8b05e2f0760c9",
      "blockNumber": "0x1c71583",
      "gasUsed": "0xc71d",
      "effectiveGasPrice": "0xf427f",
      "from": "0xf59da181591dbb122a894372c6e44cc079a7bb3f",
      "to": "0x50766571b3769d9cfc170f3b17668f3673f80eba",
      "contractAddress": null,
      "l1BaseFeeScalar": "0x44d",
      "l1BlobBaseFee": "0xd1f60b",
      "l1BlobBaseFeeScalar": "0xa118b",
      "l1Fee": "0x62e2fe6f",
      "l1GasPrice": "0x1969d746",
      "l1GasUsed": "0x640"
    },
    {
      "status": "0x1",
      "cumulativeGasUsed": "0x342198",
      "logs": [
        {
          "address": "0x50766571b3769d9cfc170f3b17668f3673f80eba",
          "topics": [
            "0xddf252ad1be2c89b69c2b068fc378daa952ba7f163c4a11628f55a4df523b3ef",
            "0x0000000000000000000000000000000000000000000000000000000000000000",
            "0x0000000000000000000000001ff47d121e5971e012c0b2e2e088606a77aa9377"
          ],
          "data": "0x000000000000000000000000000000000000000000000000000000174876e800",
          "blockHash": "0xc24ba582563264c446c2223350464897a1e64f5e2daf0ade46d8b05e2f0760c9",
          "blockNumber": "0x1c71583",
          "blockTimestamp": "0x68a189e6",
          "transactionHash": "0x6528ced0d2bf430b5a2e2cf9e183f829ef7edbfd3813c3c436b16a77648478fa",
          "transactionIndex": "0xd",
          "logIndex": "0x19",
          "removed": false
        }
      ],
      "logsBloom": "0x00000000000000000000002000000000000000000000000808000000000000000000000000000000000000000000000000000000000000000000000000000000001000000000000000000008000000000000000000000000000000000000000000000000020000000000000000000800000000000000000000000010000000000000000000000000000000000000000000000000000000000002000000000000100000000000000000000000000000000000000000000000000000000000000000000002000000000000000000000000000000000000000000000000000020000000000000000000000000000000000000000000000000000000000000000000",
      "type": "0x2",
      "transactionHash": "0x6528ced0d2bf430b5a2e2cf9e183f829ef7edbfd3813c3c436b16a77648478fa",
      "transactionIndex": "0xd",
      "blockHash": "0xc24ba582563264c446c2223350464897a1e64f5e2daf0ade46d8b05e2f0760c9",
      "blockNumber": "0x1c71583",
      "gasUsed": "0xc71d",
      "effectiveGasPrice": "0xf427f",
      "from": "0xf59da181591dbb122a894372c6e44cc079a7bb3f",
      "to": "0x50766571b3769d9cfc170f3b17668f3673f80eba",
      "contractAddress": null,
      "l1BaseFeeScalar": "0x44d",
      "l1BlobBaseFee": "0xd1f60b",
      "l1BlobBaseFeeScalar": "0xa118b",
      "l1Fee": "0x62e2fe6f",
      "l1GasPrice": "0x1969d746",
      "l1GasUsed": "0x640"
    },
    {
      "status": "0x1",
      "cumulativeGasUsed": "0x34a5e9",
      "logs": [
        {
          "address": "0x3b7e3a661cec642fa7bce0130e327b11ff0af43e",
          "topics": [
            "0xddf252ad1be2c89b69c2b068fc378daa952ba7f163c4a11628f55a4df523b3ef",
            "0x0000000000000000000000000000000000000000000000000000000000000000",
            "0x000000000000000000000000f59da181591dbb122a894372c6e44cc079a7bb3f"
          ],
          "data": "0x000000000000000000000000000000000000000000000000000000174876e800",
          "blockHash": "0xc24ba582563264c446c2223350464897a1e64f5e2daf0ade46d8b05e2f0760c9",
          "blockNumber": "0x1c71583",
          "blockTimestamp": "0x68a189e6",
          "transactionHash": "0x5188ed4afa8c87d53921f88f246302f9668759bc2d3d5011390eaa8de57ca01a",
          "transactionIndex": "0xe",
          "logIndex": "0x1a",
          "removed": false
        }
      ],
      "logsBloom": "0x00000000000000000000000000000000000000000000000000000000000000000000000000000002000000000000000000000000000000000001000000000000000000000000000000001008000000000000000000000000000000000000000000000000020000000000000000000800000000000000000000200010000000000000000000000000000000000000000000000000000000000000000000000000000000000000000000000000000000000000000000000000000000000000000000000002000000000000000000040000000000000000000000000000000020000000800000000000000000000000000000000000000000000000000000000000",
      "type": "0x2",
      "transactionHash": "0x5188ed4afa8c87d53921f88f246302f9668759bc2d3d5011390eaa8de57ca01a",
      "transactionIndex": "0xe",
      "blockHash": "0xc24ba582563264c446c2223350464897a1e64f5e2daf0ade46d8b05e2f0760c9",
      "blockNumber": "0x1c71583",
      "gasUsed": "0x8451",
      "effectiveGasPrice": "0xf427f",
      "from": "0xf59da181591dbb122a894372c6e44cc079a7bb3f",
      "to": "0x3b7e3a661cec642fa7bce0130e327b11ff0af43e",
      "contractAddress": null,
      "l1BaseFeeScalar": "0x44d",
      "l1BlobBaseFee": "0xd1f60b",
      "l1BlobBaseFeeScalar": "0xa118b",
      "l1Fee": "0x62e2fe6f",
      "l1GasPrice": "0x1969d746",
      "l1GasUsed": "0x640"
    },
    {
      "status": "0x1",
      "cumulativeGasUsed": "0x356d06",
      "logs": [
        {
          "address": "0x3b7e3a661cec642fa7bce0130e327b11ff0af43e",
          "topics": [
            "0xddf252ad1be2c89b69c2b068fc378daa952ba7f163c4a11628f55a4df523b3ef",
            "0x0000000000000000000000000000000000000000000000000000000000000000",
            "0x0000000000000000000000003173ed1ec423f5071045d861cab532c2909fb4c0"
          ],
          "data": "0x000000000000000000000000000000000000000000000000000000174876e800",
          "blockHash": "0xc24ba582563264c446c2223350464897a1e64f5e2daf0ade46d8b05e2f0760c9",
          "blockNumber": "0x1c71583",
          "blockTimestamp": "0x68a189e6",
          "transactionHash": "0xcafee4c33d11e6c41be88d675e48e7718dd8494af0391a7abb1a4c292f785703",
          "transactionIndex": "0xf",
          "logIndex": "0x1b",
          "removed": false
        }
      ],
      "logsBloom": "0x00000000000000000000000000000000000000000000000001000000000000000000000000000000000000000000000000000000000000000001000000000000000000000000000000000008000000000000000000000000000001000000000000000000020000000000000000000800000000800000000000000010000000000000000000000000000000000000000000000000000000000000000000000000000000000000000000000000000000000000000000000000000000000000000000000002000000000000000000040000000000000000000000000000000020000000800000000000000000000000000000000000000000000000000000000000",
      "type": "0x2",
      "transactionHash": "0xcafee4c33d11e6c41be88d675e48e7718dd8494af0391a7abb1a4c292f785703",
      "transactionIndex": "0xf",
      "blockHash": "0xc24ba582563264c446c2223350464897a1e64f5e2daf0ade46d8b05e2f0760c9",
      "blockNumber": "0x1c71583",
      "gasUsed": "0xc71d",
      "effectiveGasPrice": "0xf427f",
      "from": "0xf59da181591dbb122a894372c6e44cc079a7bb3f",
      "to": "0x3b7e3a661cec642fa7bce0130e327b11ff0af43e",
      "contractAddress": null,
      "l1BaseFeeScalar": "0x44d",
      "l1BlobBaseFee": "0xd1f60b",
      "l1BlobBaseFeeScalar": "0xa118b",
      "l1Fee": "0x62e2fe6f",
      "l1GasPrice": "0x1969d746",
      "l1GasUsed": "0x640"
    },
    {
      "status": "0x1",
      "cumulativeGasUsed": "0x363423",
      "logs": [
        {
          "address": "0x3b7e3a661cec642fa7bce0130e327b11ff0af43e",
          "topics": [
            "0xddf252ad1be2c89b69c2b068fc378daa952ba7f163c4a11628f55a4df523b3ef",
            "0x0000000000000000000000000000000000000000000000000000000000000000",
            "0x000000000000000000000000e265064afdbc57e008d0fb2a481826add6f44447"
          ],
          "data": "0x000000000000000000000000000000000000000000000000000000174876e800",
          "blockHash": "0x04e9474f0d84a08902a616185290f735d3a9e1328fd817a1690a84fb4c34fd9c",
          "blockNumber": "0x1c71583",
          "blockTimestamp": "0x68a189e6",
          "transactionHash": "0x7a230f21982e02496c90d75c267c489f1fc99f4fbecb2aee8074777208823113",
          "transactionIndex": "0x10",
          "logIndex": "0x1c",
          "removed": false
        }
      ],
      "logsBloom": "0x00000000000000000000000000000000000000000000000000000000000000000000000000000000000000000000000000000000000000000001000000000000000000000000000000000008000000000000000000000000000008000000000000000000020000000000000000000800000000000000000000000010000000000004000000000000000000000000000000000000000000000000000000000000000000000000000000000001000000000000000000000000000000000000000000000002000000000000000000040000000000000000000000000000000020000000800000000000000000000000000000000000000000000000000000000000",
      "type": "0x2",
      "transactionHash": "0x7a230f21982e02496c90d75c267c489f1fc99f4fbecb2aee8074777208823113",
      "transactionIndex": "0x10",
      "blockHash": "0x04e9474f0d84a08902a616185290f735d3a9e1328fd817a1690a84fb4c34fd9c",
      "blockNumber": "0x1c71583",
      "gasUsed": "0xc71d",
      "effectiveGasPrice": "0xf427f",
      "from": "0xf59da181591dbb122a894372c6e44cc079a7bb3f",
      "to": "0x3b7e3a661cec642fa7bce0130e327b11ff0af43e",
      "contractAddress": null,
      "l1BaseFeeScalar": "0x44d",
      "l1BlobBaseFee": "0xd1f60b",
      "l1BlobBaseFeeScalar": "0xa118b",
      "l1Fee": "0x62e2fe6f",
      "l1GasPrice": "0x1969d746",
      "l1GasUsed": "0x640"
    },
    {
      "status": "0x1",
      "cumulativeGasUsed": "0x36fb40",
      "logs": [
        {
          "address": "0x3b7e3a661cec642fa7bce0130e327b11ff0af43e",
          "topics": [
            "0xddf252ad1be2c89b69c2b068fc378daa952ba7f163c4a11628f55a4df523b3ef",
            "0x0000000000000000000000000000000000000000000000000000000000000000",
            "0x0000000000000000000000001ff47d121e5971e012c0b2e2e088606a77aa9377"
          ],
          "data": "0x000000000000000000000000000000000000000000000000000000174876e800",
          "blockHash": "0xc24ba582563264c446c2223350464897a1e64f5e2daf0ade46d8b05e2f0760c9",
          "blockNumber": "0x1c71583",
          "blockTimestamp": "0x68a189e6",
          "transactionHash": "0x94f60875bf5e6a186f3787f0ce765a4c8b87b45c0f0c76f63cd19a510c658f13",
          "transactionIndex": "0x11",
          "logIndex": "0x1d",
          "removed": false
        }
      ],
      "logsBloom": "0x00000000000000000000000000000000000000000000000008000000000000000000000000000000000000000000000000000000000000000001000000000000001000000000000000000008000000000000000000000000000000000000000000000000020000000000000000000800000000000000000000000010000000000000000000000000000000000000000000000000000000000002000000000000000000000000000000000000000000000000000000000000000000000000000000000002000000000000000000040000000000000000000000000000000020000000800000000000000000000000000000000000000000000000000000000000",
      "type": "0x2",
      "transactionHash": "0x94f60875bf5e6a186f3787f0ce765a4c8b87b45c0f0c76f63cd19a510c658f13",
      "transactionIndex": "0x11",
      "blockHash": "0xc24ba582563264c446c2223350464897a1e64f5e2daf0ade46d8b05e2f0760c9",
      "blockNumber": "0x1c71583",
      "gasUsed": "0xc71d",
      "effectiveGasPrice": "0xf427f",
      "from": "0xf59da181591dbb122a894372c6e44cc079a7bb3f",
      "to": "0x3b7e3a661cec642fa7bce0130e327b11ff0af43e",
      "contractAddress": null,
      "l1BaseFeeScalar": "0x44d",
      "l1BlobBaseFee": "0xd1f60b",
      "l1BlobBaseFeeScalar": "0xa118b",
      "l1Fee": "0x62e2fe6f",
      "l1GasPrice": "0x1969d746",
      "l1GasUsed": "0x640"
    },
    {
      "status": "0x1",
      "cumulativeGasUsed": "0x377f91",
      "logs": [
        {
          "address": "0x20180e82db7ac476a9f3b0af245338288c88d0ef",
          "topics": [
            "0xddf252ad1be2c89b69c2b068fc378daa952ba7f163c4a11628f55a4df523b3ef",
            "0x0000000000000000000000000000000000000000000000000000000000000000",
            "0x000000000000000000000000f59da181591dbb122a894372c6e44cc079a7bb3f"
          ],
          "data": "0x000000000000000000000000000000000000000000000000000000174876e800",
          "blockHash": "0xc24ba582563264c446c2223350464897a1e64f5e2daf0ade46d8b05e2f0760c9",
          "blockNumber": "0x1c71583",
          "blockTimestamp": "0x68a189e6",
          "transactionHash": "0x072e995bf2c43062af8b2b332cacd59b75997428886e24b8d4b736b4d91ba123",
          "transactionIndex": "0x12",
          "logIndex": "0x1e",
          "removed": false
        }
      ],
      "logsBloom": "0x00000000000000000000000000000000000000000000000000000000000000000000000000000002000000000000000400000000000000000000000000000000000000000000000000001008000000000000000000000000000000000000000000000000020000000000000000000800000000000200000000200010000000000000000000000000000000000000000000000000000000000000000000000000000000000000000000000000000000000000000000000000000000000000000000000002000000000000000000000000000000000000000000000000000020000000000000000000000000000000000000000000000000000000000000008000",
      "type": "0x2",
      "transactionHash": "0x072e995bf2c43062af8b2b332cacd59b75997428886e24b8d4b736b4d91ba123",
      "transactionIndex": "0x12",
      "blockHash": "0xc24ba582563264c446c2223350464897a1e64f5e2daf0ade46d8b05e2f0760c9",
      "blockNumber": "0x1c71583",
      "gasUsed": "0x8451",
      "effectiveGasPrice": "0xf427f",
      "from": "0xf59da181591dbb122a894372c6e44cc079a7bb3f",
      "to": "0x20180e82db7ac476a9f3b0af245338288c88d0ef",
      "contractAddress": null,
      "l1BaseFeeScalar": "0x44d",
      "l1BlobBaseFee": "0xd1f60b",
      "l1BlobBaseFeeScalar": "0xa118b",
      "l1Fee": "0x62e2fe6f",
      "l1GasPrice": "0x1969d746",
      "l1GasUsed": "0x640"
    },
    {
      "status": "0x1",
      "cumulativeGasUsed": "0x3846ae",
      "logs": [
        {
          "address": "0x20180e82db7ac476a9f3b0af245338288c88d0ef",
          "topics": [
            "0xddf252ad1be2c89b69c2b068fc378daa952ba7f163c4a11628f55a4df523b3ef",
            "0x0000000000000000000000000000000000000000000000000000000000000000",
            "0x0000000000000000000000003173ed1ec423f5071045d861cab532c2909fb4c0"
          ],
          "data": "0x000000000000000000000000000000000000000000000000000000174876e800",
          "blockHash": "0x04e9474f0d84a08902a616185290f735d3a9e1328fd817a1690a84fb4c34fd9c",
          "blockNumber": "0x1c71583",
          "blockTimestamp": "0x68a189e6",
          "transactionHash": "0xfe55a2dbe09ba59e801c6214aa90744ded85e8d1adc21b97c80c9a5fefd9f92d",
          "transactionIndex": "0x13",
          "logIndex": "0x1f",
          "removed": false
        }
      ],
      "logsBloom": "0x00000000000000000000000000000000000000000000000001000000000000000000000000000000000000000000000400000000000000000000000000000000000000000000000000000008000000000000000000000000000001000000000000000000020000000000000000000800000000800200000000000010000000000000000000000000000000000000000000000000000000000000000000000000000000000000000000000000000000000000000000000000000000000000000000000002000000000000000000000000000000000000000000000000000020000000000000000000000000000000000000000000000000000000000000008000",
      "type": "0x2",
      "transactionHash": "0xfe55a2dbe09ba59e801c6214aa90744ded85e8d1adc21b97c80c9a5fefd9f92d",
      "transactionIndex": "0x13",
      "blockHash": "0x04e9474f0d84a08902a616185290f735d3a9e1328fd817a1690a84fb4c34fd9c",
      "blockNumber": "0x1c71583",
      "gasUsed": "0xc71d",
      "effectiveGasPrice": "0xf427f",
      "from": "0xf59da181591dbb122a894372c6e44cc079a7bb3f",
      "to": "0x20180e82db7ac476a9f3b0af245338288c88d0ef",
      "contractAddress": null,
      "l1BaseFeeScalar": "0x44d",
      "l1BlobBaseFee": "0xd1f60b",
      "l1BlobBaseFeeScalar": "0xa118b",
      "l1Fee": "0x62e2fe6f",
      "l1GasPrice": "0x1969d746",
      "l1GasUsed": "0x640"
    },
    {
      "status": "0x1",
      "cumulativeGasUsed": "0x51e3d3",
      "logs": [
        {
          "address": "0x20180e82db7ac476a9f3b0af245338288c88d0ef",
          "topics": [
            "0xddf252ad1be2c89b69c2b068fc378daa952ba7f163c4a11628f55a4df523b3ef",
            "0x0000000000000000000000000000000000000000000000000000000000000000",
            "0x000000000000000000000000e265064afdbc57e008d0fb2a481826add6f44447"
          ],
          "data": "0x000000000000000000000000000000000000000000000000000000174876e800",
          "blockHash": "0x04e9474f0d84a08902a616185290f735d3a9e1328fd817a1690a84fb4c34fd9c",
          "blockNumber": "0x1c71583",
          "blockTimestamp": "0x68a189e6",
          "transactionHash": "0x044580ec450e38e06160c2ada7397677046589d084a02fc36f6ad4eaa6be773b",
          "transactionIndex": "0x1b",
          "logIndex": "0x49",
          "removed": false
        }
      ],
      "logsBloom": "0x00000000000000000000000000000000000000000000000000000000000000000000000000000000000000000000000400000000000000000000000000000000000000000000000000000008000000000000000000000000000008000000000000000000020000000000000000000800000000000200000000000010000000000004000000000000000000000000000000000000000000000000000000000000000000000000000000000001000000000000000000000000000000000000000000000002000000000000000000000000000000000000000000000000000020000000000000000000000000000000000000000000000000000000000000008000",
      "type": "0x2",
      "transactionHash": "0x044580ec450e38e06160c2ada7397677046589d084a02fc36f6ad4eaa6be773b",
      "transactionIndex": "0x1b",
      "blockHash": "0x04e9474f0d84a08902a616185290f735d3a9e1328fd817a1690a84fb4c34fd9c",
      "blockNumber": "0x1c71583",
      "gasUsed": "0xc71d",
      "effectiveGasPrice": "0xf427f",
      "from": "0xf59da181591dbb122a894372c6e44cc079a7bb3f",
      "to": "0x20180e82db7ac476a9f3b0af245338288c88d0ef",
      "contractAddress": null,
      "l1BaseFeeScalar": "0x44d",
      "l1BlobBaseFee": "0xd1f60b",
      "l1BlobBaseFeeScalar": "0xa118b",
      "l1Fee": "0x62e2fe6f",
      "l1GasPrice": "0x1969d746",
      "l1GasUsed": "0x640"
    },
    {
      "status": "0x1",
      "cumulativeGasUsed": "0x65a31b",
      "logs": [
        {
          "address": "0x20180e82db7ac476a9f3b0af245338288c88d0ef",
          "topics": [
            "0xddf252ad1be2c89b69c2b068fc378daa952ba7f163c4a11628f55a4df523b3ef",
            "0x0000000000000000000000000000000000000000000000000000000000000000",
            "0x0000000000000000000000001ff47d121e5971e012c0b2e2e088606a77aa9377"
          ],
          "data": "0x000000000000000000000000000000000000000000000000000000174876e800",
          "blockHash": "0x04e9474f0d84a08902a616185290f735d3a9e1328fd817a1690a84fb4c34fd9c",
          "blockNumber": "0x1c71583",
          "blockTimestamp": "0x68a189e6",
          "transactionHash": "0xc894cba736ed0b3782e728caf005dd1a93ea9bd16a34cc2662bb6598a0e8a3fb",
          "transactionIndex": "0x23",
          "logIndex": "0x66",
          "removed": false
        }
      ],
      "logsBloom": "0x00000000000000000000000000000000000000000000000008000000000000000000000000000000000000000000000400000000000000000000000000000000001000000000000000000008000000000000000000000000000000000000000000000000020000000000000000000800000000000200000000000010000000000000000000000000000000000000000000000000000000000002000000000000000000000000000000000000000000000000000000000000000000000000000000000002000000000000000000000000000000000000000000000000000020000000000000000000000000000000000000000000000000000000000000008000",
      "type": "0x2",
      "transactionHash": "0xc894cba736ed0b3782e728caf005dd1a93ea9bd16a34cc2662bb6598a0e8a3fb",
      "transactionIndex": "0x23",
      "blockHash": "0x04e9474f0d84a08902a616185290f735d3a9e1328fd817a1690a84fb4c34fd9c",
      "blockNumber": "0x1c71583",
      "gasUsed": "0xc71d",
      "effectiveGasPrice": "0xf427f",
      "from": "0xf59da181591dbb122a894372c6e44cc079a7bb3f",
      "to": "0x20180e82db7ac476a9f3b0af245338288c88d0ef",
      "contractAddress": null,
      "l1BaseFeeScalar": "0x44d",
      "l1BlobBaseFee": "0xd1f60b",
      "l1BlobBaseFeeScalar": "0xa118b",
      "l1Fee": "0x62e2fe6f",
      "l1GasPrice": "0x1969d746",
      "l1GasUsed": "0x640"
    },
    {
      "status": "0x1",
      "cumulativeGasUsed": "0x66276c",
      "logs": [
        {
          "address": "0x3f06895671c3a55cb84e1cc221a9917755a985d6",
          "topics": [
            "0xddf252ad1be2c89b69c2b068fc378daa952ba7f163c4a11628f55a4df523b3ef",
            "0x0000000000000000000000000000000000000000000000000000000000000000",
            "0x000000000000000000000000f59da181591dbb122a894372c6e44cc079a7bb3f"
          ],
          "data": "0x000000000000000000000000000000000000000000000000000000174876e800",
          "blockHash": "0x04e9474f0d84a08902a616185290f735d3a9e1328fd817a1690a84fb4c34fd9c",
          "blockNumber": "0x1c71583",
          "blockTimestamp": "0x68a189e6",
          "transactionHash": "0xf966c25df2f369237a15ab1a9638f07121895c0ceb2a2cc46ade03f6ac9b64f8",
          "transactionIndex": "0x24",
          "logIndex": "0x67",
          "removed": false
        }
      ],
      "logsBloom": "0x00000000000000000000000000000000000000000000000000000000001000000000000000000002000000000000000000000000000000000000000000000000000000000000000000001008000000000000000000000000000000000000000000000000020000000000000000000800000000000000000000200010000000000000000000000000000800000000000000000000000000000000000000000000000000000000000000000000000000000000000000000000000000000000000000000002000000000000000000000000000000000000000000400000000020000000000000000000000000000000000000000000000000000000000000000000",
      "type": "0x2",
      "transactionHash": "0xf966c25df2f369237a15ab1a9638f07121895c0ceb2a2cc46ade03f6ac9b64f8",
      "transactionIndex": "0x24",
      "blockHash": "0x04e9474f0d84a08902a616185290f735d3a9e1328fd817a1690a84fb4c34fd9c",
      "blockNumber": "0x1c71583",
      "gasUsed": "0x8451",
      "effectiveGasPrice": "0xf427f",
      "from": "0xf59da181591dbb122a894372c6e44cc079a7bb3f",
      "to": "0x3f06895671c3a55cb84e1cc221a9917755a985d6",
      "contractAddress": null,
      "l1BaseFeeScalar": "0x44d",
      "l1BlobBaseFee": "0xd1f60b",
      "l1BlobBaseFeeScalar": "0xa118b",
      "l1Fee": "0x62e2fe6f",
      "l1GasPrice": "0x1969d746",
      "l1GasUsed": "0x640"
    },
    {
      "status": "0x1",
      "cumulativeGasUsed": "0x66ee89",
      "logs": [
        {
          "address": "0x3f06895671c3a55cb84e1cc221a9917755a985d6",
          "topics": [
            "0xddf252ad1be2c89b69c2b068fc378daa952ba7f163c4a11628f55a4df523b3ef",
            "0x0000000000000000000000000000000000000000000000000000000000000000",
            "0x0000000000000000000000003173ed1ec423f5071045d861cab532c2909fb4c0"
          ],
          "data": "0x000000000000000000000000000000000000000000000000000000174876e800",
          "blockHash": "0x04e9474f0d84a08902a616185290f735d3a9e1328fd817a1690a84fb4c34fd9c",
          "blockNumber": "0x1c71583",
          "blockTimestamp": "0x68a189e6",
          "transactionHash": "0x48c7c3fe4e303cc1244413a4423da216adfe0bb6ccccbe6ca5589754fa37f2cd",
          "transactionIndex": "0x25",
          "logIndex": "0x68",
          "removed": false
        }
      ],
      "logsBloom": "0x00000000000000000000000000000000000000000000000001000000001000000000000000000000000000000000000000000000000000000000000000000000000000000000000000000008000000000000000000000000000001000000000000000000020000000000000000000800000000800000000000000010000000000000000000000000000800000000000000000000000000000000000000000000000000000000000000000000000000000000000000000000000000000000000000000002000000000000000000000000000000000000000000400000000020000000000000000000000000000000000000000000000000000000000000000000",
      "type": "0x2",
      "transactionHash": "0x48c7c3fe4e303cc1244413a4423da216adfe0bb6ccccbe6ca5589754fa37f2cd",
      "transactionIndex": "0x25",
      "blockHash": "0x04e9474f0d84a08902a616185290f735d3a9e1328fd817a1690a84fb4c34fd9c",
      "blockNumber": "0x1c71583",
      "gasUsed": "0xc71d",
      "effectiveGasPrice": "0xf427f",
      "from": "0xf59da181591dbb122a894372c6e44cc079a7bb3f",
      "to": "0x3f06895671c3a55cb84e1cc221a9917755a985d6",
      "contractAddress": null,
      "l1BaseFeeScalar": "0x44d",
      "l1BlobBaseFee": "0xd1f60b",
      "l1BlobBaseFeeScalar": "0xa118b",
      "l1Fee": "0x62e2fe6f",
      "l1GasPrice": "0x1969d746",
      "l1GasUsed": "0x640"
    },
    {
      "status": "0x1",
      "cumulativeGasUsed": "0x67b5a6",
      "logs": [
        {
          "address": "0x3f06895671c3a55cb84e1cc221a9917755a985d6",
          "topics": [
            "0xddf252ad1be2c89b69c2b068fc378daa952ba7f163c4a11628f55a4df523b3ef",
            "0x0000000000000000000000000000000000000000000000000000000000000000",
            "0x000000000000000000000000e265064afdbc57e008d0fb2a481826add6f44447"
          ],
          "data": "0x000000000000000000000000000000000000000000000000000000174876e800",
          "blockHash": "0x04e9474f0d84a08902a616185290f735d3a9e1328fd817a1690a84fb4c34fd9c",
          "blockNumber": "0x1c71583",
          "blockTimestamp": "0x68a189e6",
          "transactionHash": "0x141141aa64951935692a9522c8c7f8f357cd064ecf475c0ff81232ca7186dcc2",
          "transactionIndex": "0x26",
          "logIndex": "0x69",
          "removed": false
        }
      ],
      "logsBloom": "0x00000000000000000000000000000000000000000000000000000000001000000000000000000000000000000000000000000000000000000000000000000000000000000000000000000008000000000000000000000000000008000000000000000000020000000000000000000800000000000000000000000010000000000004000000000000000800000000000000000000000000000000000000000000000000000000000000000001000000000000000000000000000000000000000000000002000000000000000000000000000000000000000000400000000020000000000000000000000000000000000000000000000000000000000000000000",
      "type": "0x2",
      "transactionHash": "0x141141aa64951935692a9522c8c7f8f357cd064ecf475c0ff81232ca7186dcc2",
      "transactionIndex": "0x26",
      "blockHash": "0x04e9474f0d84a08902a616185290f735d3a9e1328fd817a1690a84fb4c34fd9c",
      "blockNumber": "0x1c71583",
      "gasUsed": "0xc71d",
      "effectiveGasPrice": "0xf427f",
      "from": "0xf59da181591dbb122a894372c6e44cc079a7bb3f",
      "to": "0x3f06895671c3a55cb84e1cc221a9917755a985d6",
      "contractAddress": null,
      "l1BaseFeeScalar": "0x44d",
      "l1BlobBaseFee": "0xd1f60b",
      "l1BlobBaseFeeScalar": "0xa118b",
      "l1Fee": "0x62e2fe6f",
      "l1GasPrice": "0x1969d746",
      "l1GasUsed": "0x640"
    },
    {
      "status": "0x1",
      "cumulativeGasUsed": "0x687cc3",
      "logs": [
        {
          "address": "0x3f06895671c3a55cb84e1cc221a9917755a985d6",
          "topics": [
            "0xddf252ad1be2c89b69c2b068fc378daa952ba7f163c4a11628f55a4df523b3ef",
            "0x0000000000000000000000000000000000000000000000000000000000000000",
            "0x0000000000000000000000001ff47d121e5971e012c0b2e2e088606a77aa9377"
          ],
          "data": "0x000000000000000000000000000000000000000000000000000000174876e800",
          "blockHash": "0x04e9474f0d84a08902a616185290f735d3a9e1328fd817a1690a84fb4c34fd9c",
          "blockNumber": "0x1c71583",
          "blockTimestamp": "0x68a189e6",
          "transactionHash": "0x82d3092c0e56924d9c9cb8f22aade52dd7637e9febb5a637aa74c7e2930c552a",
          "transactionIndex": "0x27",
          "logIndex": "0x6a",
          "removed": false
        }
      ],
      "logsBloom": "0x00000000000000000000000000000000000000000000000008000000001000000000000000000000000000000000000000000000000000000000000000000000001000000000000000000008000000000000000000000000000000000000000000000000020000000000000000000800000000000000000000000010000000000000000000000000000800000000000000000000000000000002000000000000000000000000000000000000000000000000000000000000000000000000000000000002000000000000000000000000000000000000000000400000000020000000000000000000000000000000000000000000000000000000000000000000",
      "type": "0x2",
      "transactionHash": "0x82d3092c0e56924d9c9cb8f22aade52dd7637e9febb5a637aa74c7e2930c552a",
      "transactionIndex": "0x27",
      "blockHash": "0x04e9474f0d84a08902a616185290f735d3a9e1328fd817a1690a84fb4c34fd9c",
      "blockNumber": "0x1c71583",
      "gasUsed": "0xc71d",
      "effectiveGasPrice": "0xf427f",
      "from": "0xf59da181591dbb122a894372c6e44cc079a7bb3f",
      "to": "0x3f06895671c3a55cb84e1cc221a9917755a985d6",
      "contractAddress": null,
      "l1BaseFeeScalar": "0x44d",
      "l1BlobBaseFee": "0xd1f60b",
      "l1BlobBaseFeeScalar": "0xa118b",
      "l1Fee": "0x62e2fe6f",
      "l1GasPrice": "0x1969d746",
      "l1GasUsed": "0x640"
    }
  ],
  "libraries": [],
  "pending": [],
  "returns": {},
  "timestamp": 1755417080283,
  "chain": 84532,
  "commit": "f13b4d6"
}